{
	"Demo.sol": {
		"Ownable": {
			"abi": [
				{
					"inputs": [
						{
							"internalType": "address",
							"name": "ownerOverride",
							"type": "address"
						}
					],
					"stateMutability": "nonpayable",
					"type": "constructor"
				},
				{
					"inputs": [],
					"name": "owner",
					"outputs": [
						{
							"internalType": "address",
							"name": "",
							"type": "address"
						}
					],
					"stateMutability": "view",
					"type": "function"
				},
				{
					"inputs": [
						{
							"internalType": "address payable",
							"name": "_to",
							"type": "address"
						}
					],
					"name": "withdrow",
					"outputs": [],
					"stateMutability": "nonpayable",
					"type": "function"
				}
			],
			"devdoc": {
				"kind": "dev",
				"methods": {},
				"version": 1
			},
			"evm": {
				"assembly": "    /* \"Demo.sol\":58:459  contract Ownable {... */\n  mstore(0x40, 0x80)\n    /* \"Demo.sol\":108:224  constructor(address ownerOverride) {... */\n  callvalue\n  dup1\n  iszero\n  tag_1\n  jumpi\n  0x00\n  dup1\n  revert\ntag_1:\n  pop\n  mload(0x40)\n  sub(codesize, bytecodeSize)\n  dup1\n  bytecodeSize\n  dup4\n  codecopy\n  dup2\n  dup2\n  add\n  0x40\n  mstore\n  dup2\n  add\n  swap1\n  tag_2\n  swap2\n  swap1\n  tag_3\n  jump\t// in\ntag_2:\n    /* \"Demo.sol\":186:187  0 */\n  0x00\n    /* \"Demo.sol\":161:188  ownerOverride == address(0) */\n  0xffffffffffffffffffffffffffffffffffffffff\n  and\n    /* \"Demo.sol\":161:174  ownerOverride */\n  dup2\n    /* \"Demo.sol\":161:188  ownerOverride == address(0) */\n  0xffffffffffffffffffffffffffffffffffffffff\n  and\n  eq\n    /* \"Demo.sol\":161:217  ownerOverride == address(0) ? msg.sender : ownerOverride */\n  tag_6\n  jumpi\n    /* \"Demo.sol\":204:217  ownerOverride */\n  dup1\n    /* \"Demo.sol\":161:217  ownerOverride == address(0) ? msg.sender : ownerOverride */\n  jump(tag_7)\ntag_6:\n    /* \"Demo.sol\":191:201  msg.sender */\n  caller\n    /* \"Demo.sol\":161:217  ownerOverride == address(0) ? msg.sender : ownerOverride */\ntag_7:\n    /* \"Demo.sol\":153:158  owner */\n  0x00\n  dup1\n    /* \"Demo.sol\":153:217  owner = ownerOverride == address(0) ? msg.sender : ownerOverride */\n  0x0100\n  exp\n  dup2\n  sload\n  dup2\n  0xffffffffffffffffffffffffffffffffffffffff\n  mul\n  not\n  and\n  swap1\n  dup4\n  0xffffffffffffffffffffffffffffffffffffffff\n  and\n  mul\n  or\n  swap1\n  sstore\n  pop\n    /* \"Demo.sol\":108:224  constructor(address ownerOverride) {... */\n  pop\n    /* \"Demo.sol\":58:459  contract Ownable {... */\n  jump(tag_8)\n    /* \"#utility.yul\":88:205   */\ntag_10:\n    /* \"#utility.yul\":197:198   */\n  0x00\n    /* \"#utility.yul\":194:195   */\n  dup1\n    /* \"#utility.yul\":187:199   */\n  revert\n    /* \"#utility.yul\":334:460   */\ntag_12:\n    /* \"#utility.yul\":371:378   */\n  0x00\n    /* \"#utility.yul\":411:453   */\n  0xffffffffffffffffffffffffffffffffffffffff\n    /* \"#utility.yul\":404:409   */\n  dup3\n    /* \"#utility.yul\":400:454   */\n  and\n    /* \"#utility.yul\":389:454   */\n  swap1\n  pop\n    /* \"#utility.yul\":334:460   */\n  swap2\n  swap1\n  pop\n  jump\t// out\n    /* \"#utility.yul\":466:562   */\ntag_13:\n    /* \"#utility.yul\":503:510   */\n  0x00\n    /* \"#utility.yul\":532:556   */\n  tag_22\n    /* \"#utility.yul\":550:555   */\n  dup3\n    /* \"#utility.yul\":532:556   */\n  tag_12\n  jump\t// in\ntag_22:\n    /* \"#utility.yul\":521:556   */\n  swap1\n  pop\n    /* \"#utility.yul\":466:562   */\n  swap2\n  swap1\n  pop\n  jump\t// out\n    /* \"#utility.yul\":568:690   */\ntag_14:\n    /* \"#utility.yul\":641:665   */\n  tag_24\n    /* \"#utility.yul\":659:664   */\n  dup2\n    /* \"#utility.yul\":641:665   */\n  tag_13\n  jump\t// in\ntag_24:\n    /* \"#utility.yul\":634:639   */\n  dup2\n    /* \"#utility.yul\":631:666   */\n  eq\n    /* \"#utility.yul\":621:684   */\n  tag_25\n  jumpi\n    /* \"#utility.yul\":680:681   */\n  0x00\n    /* \"#utility.yul\":677:678   */\n  dup1\n    /* \"#utility.yul\":670:682   */\n  revert\n    /* \"#utility.yul\":621:684   */\ntag_25:\n    /* \"#utility.yul\":568:690   */\n  pop\n  jump\t// out\n    /* \"#utility.yul\":696:839   */\ntag_15:\n    /* \"#utility.yul\":753:758   */\n  0x00\n    /* \"#utility.yul\":784:790   */\n  dup2\n    /* \"#utility.yul\":778:791   */\n  mload\n    /* \"#utility.yul\":769:791   */\n  swap1\n  pop\n    /* \"#utility.yul\":800:833   */\n  tag_27\n    /* \"#utility.yul\":827:832   */\n  dup2\n    /* \"#utility.yul\":800:833   */\n  tag_14\n  jump\t// in\ntag_27:\n    /* \"#utility.yul\":696:839   */\n  swap3\n  swap2\n  pop\n  pop\n  jump\t// out\n    /* \"#utility.yul\":845:1196   */\ntag_3:\n    /* \"#utility.yul\":915:921   */\n  0x00\n    /* \"#utility.yul\":964:966   */\n  0x20\n    /* \"#utility.yul\":952:961   */\n  dup3\n    /* \"#utility.yul\":943:950   */\n  dup5\n    /* \"#utility.yul\":939:962   */\n  sub\n    /* \"#utility.yul\":935:967   */\n  slt\n    /* \"#utility.yul\":932:1051   */\n  iszero\n  tag_29\n  jumpi\n    /* \"#utility.yul\":970:1049   */\n  tag_30\n  tag_10\n  jump\t// in\ntag_30:\n    /* \"#utility.yul\":932:1051   */\ntag_29:\n    /* \"#utility.yul\":1090:1091   */\n  0x00\n    /* \"#utility.yul\":1115:1179   */\n  tag_31\n    /* \"#utility.yul\":1171:1178   */\n  dup5\n    /* \"#utility.yul\":1162:1168   */\n  dup3\n    /* \"#utility.yul\":1151:1160   */\n  dup6\n    /* \"#utility.yul\":1147:1169   */\n  add\n    /* \"#utility.yul\":1115:1179   */\n  tag_15\n  jump\t// in\ntag_31:\n    /* \"#utility.yul\":1105:1179   */\n  swap2\n  pop\n    /* \"#utility.yul\":1061:1189   */\n  pop\n    /* \"#utility.yul\":845:1196   */\n  swap3\n  swap2\n  pop\n  pop\n  jump\t// out\n    /* \"Demo.sol\":58:459  contract Ownable {... */\ntag_8:\n  dataSize(sub_0)\n  dup1\n  dataOffset(sub_0)\n  0x00\n  codecopy\n  0x00\n  return\nstop\n\nsub_0: assembly {\n        /* \"Demo.sol\":58:459  contract Ownable {... */\n      mstore(0x40, 0x80)\n      callvalue\n      dup1\n      iszero\n      tag_1\n      jumpi\n      0x00\n      dup1\n      revert\n    tag_1:\n      pop\n      jumpi(tag_2, lt(calldatasize, 0x04))\n      shr(0xe0, calldataload(0x00))\n      dup1\n      0x72593831\n      eq\n      tag_3\n      jumpi\n      dup1\n      0x8da5cb5b\n      eq\n      tag_4\n      jumpi\n    tag_2:\n      0x00\n      dup1\n      revert\n        /* \"Demo.sol\":329:457  function withdrow(address payable _to) public virtual  onlyOwner {... */\n    tag_3:\n      tag_5\n      0x04\n      dup1\n      calldatasize\n      sub\n      dup2\n      add\n      swap1\n      tag_6\n      swap2\n      swap1\n      tag_7\n      jump\t// in\n    tag_6:\n      tag_8\n      jump\t// in\n    tag_5:\n      stop\n        /* \"Demo.sol\":81:101  address public owner */\n    tag_4:\n      tag_9\n      tag_10\n      jump\t// in\n    tag_9:\n      mload(0x40)\n      tag_11\n      swap2\n      swap1\n      tag_12\n      jump\t// in\n    tag_11:\n      mload(0x40)\n      dup1\n      swap2\n      sub\n      swap1\n      return\n        /* \"Demo.sol\":329:457  function withdrow(address payable _to) public virtual  onlyOwner {... */\n    tag_8:\n        /* \"Demo.sol\":278:288  msg.sender */\n      caller\n        /* \"Demo.sol\":269:288  owner == msg.sender */\n      0xffffffffffffffffffffffffffffffffffffffff\n      and\n        /* \"Demo.sol\":269:274  owner */\n      0x00\n      dup1\n      sload\n      swap1\n      0x0100\n      exp\n      swap1\n      div\n      0xffffffffffffffffffffffffffffffffffffffff\n      and\n        /* \"Demo.sol\":269:288  owner == msg.sender */\n      0xffffffffffffffffffffffffffffffffffffffff\n      and\n      eq\n        /* \"Demo.sol\":261:306  require(owner == msg.sender, \"not an owner!\") */\n      tag_14\n      jumpi\n      mload(0x40)\n      0x08c379a000000000000000000000000000000000000000000000000000000000\n      dup2\n      mstore\n      0x04\n      add\n      tag_15\n      swap1\n      tag_16\n      jump\t// in\n    tag_15:\n      mload(0x40)\n      dup1\n      swap2\n      sub\n      swap1\n      revert\n    tag_14:\n        /* \"Demo.sol\":412:417  owner */\n      0x00\n      dup1\n      sload\n      swap1\n      0x0100\n      exp\n      swap1\n      div\n      0xffffffffffffffffffffffffffffffffffffffff\n      and\n        /* \"Demo.sol\":404:427  payable(owner).transfer */\n      0xffffffffffffffffffffffffffffffffffffffff\n      and\n        /* \"Demo.sol\":404:450  payable(owner).transfer(address(this).balance) */\n      0x08fc\n        /* \"Demo.sol\":428:449  address(this).balance */\n      selfbalance\n        /* \"Demo.sol\":404:450  payable(owner).transfer(address(this).balance) */\n      swap1\n      dup2\n      iszero\n      mul\n      swap1\n      mload(0x40)\n      0x00\n      mload(0x40)\n      dup1\n      dup4\n      sub\n      dup2\n      dup6\n      dup9\n      dup9\n      call\n      swap4\n      pop\n      pop\n      pop\n      pop\n      iszero\n      dup1\n      iszero\n      tag_19\n      jumpi\n      returndatasize\n      0x00\n      dup1\n      returndatacopy\n      revert(0x00, returndatasize)\n    tag_19:\n      pop\n        /* \"Demo.sol\":329:457  function withdrow(address payable _to) public virtual  onlyOwner {... */\n      pop\n      jump\t// out\n        /* \"Demo.sol\":81:101  address public owner */\n    tag_10:\n      0x00\n      dup1\n      sload\n      swap1\n      0x0100\n      exp\n      swap1\n      div\n      0xffffffffffffffffffffffffffffffffffffffff\n      and\n      dup2\n      jump\t// out\n        /* \"#utility.yul\":88:205   */\n    tag_21:\n        /* \"#utility.yul\":197:198   */\n      0x00\n        /* \"#utility.yul\":194:195   */\n      dup1\n        /* \"#utility.yul\":187:199   */\n      revert\n        /* \"#utility.yul\":334:460   */\n    tag_23:\n        /* \"#utility.yul\":371:378   */\n      0x00\n        /* \"#utility.yul\":411:453   */\n      0xffffffffffffffffffffffffffffffffffffffff\n        /* \"#utility.yul\":404:409   */\n      dup3\n        /* \"#utility.yul\":400:454   */\n      and\n        /* \"#utility.yul\":389:454   */\n      swap1\n      pop\n        /* \"#utility.yul\":334:460   */\n      swap2\n      swap1\n      pop\n      jump\t// out\n        /* \"#utility.yul\":466:570   */\n    tag_24:\n        /* \"#utility.yul\":511:518   */\n      0x00\n        /* \"#utility.yul\":540:564   */\n      tag_38\n        /* \"#utility.yul\":558:563   */\n      dup3\n        /* \"#utility.yul\":540:564   */\n      tag_23\n      jump\t// in\n    tag_38:\n        /* \"#utility.yul\":529:564   */\n      swap1\n      pop\n        /* \"#utility.yul\":466:570   */\n      swap2\n      swap1\n      pop\n      jump\t// out\n        /* \"#utility.yul\":576:714   */\n    tag_25:\n        /* \"#utility.yul\":657:689   */\n      tag_40\n        /* \"#utility.yul\":683:688   */\n      dup2\n        /* \"#utility.yul\":657:689   */\n      tag_24\n      jump\t// in\n    tag_40:\n        /* \"#utility.yul\":650:655   */\n      dup2\n        /* \"#utility.yul\":647:690   */\n      eq\n        /* \"#utility.yul\":637:708   */\n      tag_41\n      jumpi\n        /* \"#utility.yul\":704:705   */\n      0x00\n        /* \"#utility.yul\":701:702   */\n      dup1\n        /* \"#utility.yul\":694:706   */\n      revert\n        /* \"#utility.yul\":637:708   */\n    tag_41:\n        /* \"#utility.yul\":576:714   */\n      pop\n      jump\t// out\n        /* \"#utility.yul\":720:875   */\n    tag_26:\n        /* \"#utility.yul\":774:779   */\n      0x00\n        /* \"#utility.yul\":812:818   */\n      dup2\n        /* \"#utility.yul\":799:819   */\n      calldataload\n        /* \"#utility.yul\":790:819   */\n      swap1\n      pop\n        /* \"#utility.yul\":828:869   */\n      tag_43\n        /* \"#utility.yul\":863:868   */\n      dup2\n        /* \"#utility.yul\":828:869   */\n      tag_25\n      jump\t// in\n    tag_43:\n        /* \"#utility.yul\":720:875   */\n      swap3\n      swap2\n      pop\n      pop\n      jump\t// out\n        /* \"#utility.yul\":881:1226   */\n    tag_7:\n        /* \"#utility.yul\":948:954   */\n      0x00\n        /* \"#utility.yul\":997:999   */\n      0x20\n        /* \"#utility.yul\":985:994   */\n      dup3\n        /* \"#utility.yul\":976:983   */\n      dup5\n        /* \"#utility.yul\":972:995   */\n      sub\n        /* \"#utility.yul\":968:1000   */\n      slt\n        /* \"#utility.yul\":965:1084   */\n      iszero\n      tag_45\n      jumpi\n        /* \"#utility.yul\":1003:1082   */\n      tag_46\n      tag_21\n      jump\t// in\n    tag_46:\n        /* \"#utility.yul\":965:1084   */\n    tag_45:\n        /* \"#utility.yul\":1123:1124   */\n      0x00\n        /* \"#utility.yul\":1148:1209   */\n      tag_47\n        /* \"#utility.yul\":1201:1208   */\n      dup5\n        /* \"#utility.yul\":1192:1198   */\n      dup3\n        /* \"#utility.yul\":1181:1190   */\n      dup6\n        /* \"#utility.yul\":1177:1199   */\n      add\n        /* \"#utility.yul\":1148:1209   */\n      tag_26\n      jump\t// in\n    tag_47:\n        /* \"#utility.yul\":1138:1209   */\n      swap2\n      pop\n        /* \"#utility.yul\":1094:1219   */\n      pop\n        /* \"#utility.yul\":881:1226   */\n      swap3\n      swap2\n      pop\n      pop\n      jump\t// out\n        /* \"#utility.yul\":1232:1328   */\n    tag_27:\n        /* \"#utility.yul\":1269:1276   */\n      0x00\n        /* \"#utility.yul\":1298:1322   */\n      tag_49\n        /* \"#utility.yul\":1316:1321   */\n      dup3\n        /* \"#utility.yul\":1298:1322   */\n      tag_23\n      jump\t// in\n    tag_49:\n        /* \"#utility.yul\":1287:1322   */\n      swap1\n      pop\n        /* \"#utility.yul\":1232:1328   */\n      swap2\n      swap1\n      pop\n      jump\t// out\n        /* \"#utility.yul\":1334:1452   */\n    tag_28:\n        /* \"#utility.yul\":1421:1445   */\n      tag_51\n        /* \"#utility.yul\":1439:1444   */\n      dup2\n        /* \"#utility.yul\":1421:1445   */\n      tag_27\n      jump\t// in\n    tag_51:\n        /* \"#utility.yul\":1416:1419   */\n      dup3\n        /* \"#utility.yul\":1409:1446   */\n      mstore\n        /* \"#utility.yul\":1334:1452   */\n      pop\n      pop\n      jump\t// out\n        /* \"#utility.yul\":1458:1680   */\n    tag_12:\n        /* \"#utility.yul\":1551:1555   */\n      0x00\n        /* \"#utility.yul\":1589:1591   */\n      0x20\n        /* \"#utility.yul\":1578:1587   */\n      dup3\n        /* \"#utility.yul\":1574:1592   */\n      add\n        /* \"#utility.yul\":1566:1592   */\n      swap1\n      pop\n        /* \"#utility.yul\":1602:1673   */\n      tag_53\n        /* \"#utility.yul\":1670:1671   */\n      0x00\n        /* \"#utility.yul\":1659:1668   */\n      dup4\n        /* \"#utility.yul\":1655:1672   */\n      add\n        /* \"#utility.yul\":1646:1652   */\n      dup5\n        /* \"#utility.yul\":1602:1673   */\n      tag_28\n      jump\t// in\n    tag_53:\n        /* \"#utility.yul\":1458:1680   */\n      swap3\n      swap2\n      pop\n      pop\n      jump\t// out\n        /* \"#utility.yul\":1686:1855   */\n    tag_29:\n        /* \"#utility.yul\":1770:1781   */\n      0x00\n        /* \"#utility.yul\":1804:1810   */\n      dup3\n        /* \"#utility.yul\":1799:1802   */\n      dup3\n        /* \"#utility.yul\":1792:1811   */\n      mstore\n        /* \"#utility.yul\":1844:1848   */\n      0x20\n        /* \"#utility.yul\":1839:1842   */\n      dup3\n        /* \"#utility.yul\":1835:1849   */\n      add\n        /* \"#utility.yul\":1820:1849   */\n      swap1\n      pop\n        /* \"#utility.yul\":1686:1855   */\n      swap3\n      swap2\n      pop\n      pop\n      jump\t// out\n        /* \"#utility.yul\":1861:2024   */\n    tag_30:\n        /* \"#utility.yul\":2001:2016   */\n      0x6e6f7420616e206f776e65722100000000000000000000000000000000000000\n        /* \"#utility.yul\":1997:1998   */\n      0x00\n        /* \"#utility.yul\":1989:1995   */\n      dup3\n        /* \"#utility.yul\":1985:1999   */\n      add\n        /* \"#utility.yul\":1978:2017   */\n      mstore\n        /* \"#utility.yul\":1861:2024   */\n      pop\n      jump\t// out\n        /* \"#utility.yul\":2030:2396   */\n    tag_31:\n        /* \"#utility.yul\":2172:2175   */\n      0x00\n        /* \"#utility.yul\":2193:2260   */\n      tag_57\n        /* \"#utility.yul\":2257:2259   */\n      0x0d\n        /* \"#utility.yul\":2252:2255   */\n      dup4\n        /* \"#utility.yul\":2193:2260   */\n      tag_29\n      jump\t// in\n    tag_57:\n        /* \"#utility.yul\":2186:2260   */\n      swap2\n      pop\n        /* \"#utility.yul\":2269:2362   */\n      tag_58\n        /* \"#utility.yul\":2358:2361   */\n      dup3\n        /* \"#utility.yul\":2269:2362   */\n      tag_30\n      jump\t// in\n    tag_58:\n        /* \"#utility.yul\":2387:2389   */\n      0x20\n        /* \"#utility.yul\":2382:2385   */\n      dup3\n        /* \"#utility.yul\":2378:2390   */\n      add\n        /* \"#utility.yul\":2371:2390   */\n      swap1\n      pop\n        /* \"#utility.yul\":2030:2396   */\n      swap2\n      swap1\n      pop\n      jump\t// out\n        /* \"#utility.yul\":2402:2821   */\n    tag_16:\n        /* \"#utility.yul\":2568:2572   */\n      0x00\n        /* \"#utility.yul\":2606:2608   */\n      0x20\n        /* \"#utility.yul\":2595:2604   */\n      dup3\n        /* \"#utility.yul\":2591:2609   */\n      add\n        /* \"#utility.yul\":2583:2609   */\n      swap1\n      pop\n        /* \"#utility.yul\":2655:2664   */\n      dup2\n        /* \"#utility.yul\":2649:2653   */\n      dup2\n        /* \"#utility.yul\":2645:2665   */\n      sub\n        /* \"#utility.yul\":2641:2642   */\n      0x00\n        /* \"#utility.yul\":2630:2639   */\n      dup4\n        /* \"#utility.yul\":2626:2643   */\n      add\n        /* \"#utility.yul\":2619:2666   */\n      mstore\n        /* \"#utility.yul\":2683:2814   */\n      tag_60\n        /* \"#utility.yul\":2809:2813   */\n      dup2\n        /* \"#utility.yul\":2683:2814   */\n      tag_31\n      jump\t// in\n    tag_60:\n        /* \"#utility.yul\":2675:2814   */\n      swap1\n      pop\n        /* \"#utility.yul\":2402:2821   */\n      swap2\n      swap1\n      pop\n      jump\t// out\n\n    auxdata: 0xa26469706673582212203e253a24b8aaf42b074c46188d5111f21cf7a80ceb8dba9cd7958c62572862c864736f6c63430008160033\n}\n",
				"bytecode": {
					"linkReferences": {},
					"object": "608060405234801561000f575f80fd5b5060405161043e38038061043e8339818101604052810190610031919061010e565b5f73ffffffffffffffffffffffffffffffffffffffff168173ffffffffffffffffffffffffffffffffffffffff161461006a578061006c565b335b5f806101000a81548173ffffffffffffffffffffffffffffffffffffffff021916908373ffffffffffffffffffffffffffffffffffffffff16021790555050610139565b5f80fd5b5f73ffffffffffffffffffffffffffffffffffffffff82169050919050565b5f6100dd826100b4565b9050919050565b6100ed816100d3565b81146100f7575f80fd5b50565b5f81519050610108816100e4565b92915050565b5f60208284031215610123576101226100b0565b5b5f610130848285016100fa565b91505092915050565b6102f8806101465f395ff3fe608060405234801561000f575f80fd5b5060043610610034575f3560e01c806372593831146100385780638da5cb5b14610054575b5f80fd5b610052600480360381019061004d91906101e6565b610072565b005b61005c610165565b6040516100699190610231565b60405180910390f35b3373ffffffffffffffffffffffffffffffffffffffff165f8054906101000a900473ffffffffffffffffffffffffffffffffffffffff1673ffffffffffffffffffffffffffffffffffffffff16146100ff576040517f08c379a00000000000000000000000000000000000000000000000000000000081526004016100f6906102a4565b60405180910390fd5b5f8054906101000a900473ffffffffffffffffffffffffffffffffffffffff1673ffffffffffffffffffffffffffffffffffffffff166108fc4790811502906040515f60405180830381858888f19350505050158015610161573d5f803e3d5ffd5b5050565b5f8054906101000a900473ffffffffffffffffffffffffffffffffffffffff1681565b5f80fd5b5f73ffffffffffffffffffffffffffffffffffffffff82169050919050565b5f6101b58261018c565b9050919050565b6101c5816101ab565b81146101cf575f80fd5b50565b5f813590506101e0816101bc565b92915050565b5f602082840312156101fb576101fa610188565b5b5f610208848285016101d2565b91505092915050565b5f61021b8261018c565b9050919050565b61022b81610211565b82525050565b5f6020820190506102445f830184610222565b92915050565b5f82825260208201905092915050565b7f6e6f7420616e206f776e657221000000000000000000000000000000000000005f82015250565b5f61028e600d8361024a565b91506102998261025a565b602082019050919050565b5f6020820190508181035f8301526102bb81610282565b905091905056fea26469706673582212203e253a24b8aaf42b074c46188d5111f21cf7a80ceb8dba9cd7958c62572862c864736f6c63430008160033",
					"opcodes": "PUSH1 0x80 PUSH1 0x40 MSTORE CALLVALUE DUP1 ISZERO PUSH2 0xF JUMPI PUSH0 DUP1 REVERT JUMPDEST POP PUSH1 0x40 MLOAD PUSH2 0x43E CODESIZE SUB DUP1 PUSH2 0x43E DUP4 CODECOPY DUP2 DUP2 ADD PUSH1 0x40 MSTORE DUP2 ADD SWAP1 PUSH2 0x31 SWAP2 SWAP1 PUSH2 0x10E JUMP JUMPDEST PUSH0 PUSH20 0xFFFFFFFFFFFFFFFFFFFFFFFFFFFFFFFFFFFFFFFF AND DUP2 PUSH20 0xFFFFFFFFFFFFFFFFFFFFFFFFFFFFFFFFFFFFFFFF AND EQ PUSH2 0x6A JUMPI DUP1 PUSH2 0x6C JUMP JUMPDEST CALLER JUMPDEST PUSH0 DUP1 PUSH2 0x100 EXP DUP2 SLOAD DUP2 PUSH20 0xFFFFFFFFFFFFFFFFFFFFFFFFFFFFFFFFFFFFFFFF MUL NOT AND SWAP1 DUP4 PUSH20 0xFFFFFFFFFFFFFFFFFFFFFFFFFFFFFFFFFFFFFFFF AND MUL OR SWAP1 SSTORE POP POP PUSH2 0x139 JUMP JUMPDEST PUSH0 DUP1 REVERT JUMPDEST PUSH0 PUSH20 0xFFFFFFFFFFFFFFFFFFFFFFFFFFFFFFFFFFFFFFFF DUP3 AND SWAP1 POP SWAP2 SWAP1 POP JUMP JUMPDEST PUSH0 PUSH2 0xDD DUP3 PUSH2 0xB4 JUMP JUMPDEST SWAP1 POP SWAP2 SWAP1 POP JUMP JUMPDEST PUSH2 0xED DUP2 PUSH2 0xD3 JUMP JUMPDEST DUP2 EQ PUSH2 0xF7 JUMPI PUSH0 DUP1 REVERT JUMPDEST POP JUMP JUMPDEST PUSH0 DUP2 MLOAD SWAP1 POP PUSH2 0x108 DUP2 PUSH2 0xE4 JUMP JUMPDEST SWAP3 SWAP2 POP POP JUMP JUMPDEST PUSH0 PUSH1 0x20 DUP3 DUP5 SUB SLT ISZERO PUSH2 0x123 JUMPI PUSH2 0x122 PUSH2 0xB0 JUMP JUMPDEST JUMPDEST PUSH0 PUSH2 0x130 DUP5 DUP3 DUP6 ADD PUSH2 0xFA JUMP JUMPDEST SWAP2 POP POP SWAP3 SWAP2 POP POP JUMP JUMPDEST PUSH2 0x2F8 DUP1 PUSH2 0x146 PUSH0 CODECOPY PUSH0 RETURN INVALID PUSH1 0x80 PUSH1 0x40 MSTORE CALLVALUE DUP1 ISZERO PUSH2 0xF JUMPI PUSH0 DUP1 REVERT JUMPDEST POP PUSH1 0x4 CALLDATASIZE LT PUSH2 0x34 JUMPI PUSH0 CALLDATALOAD PUSH1 0xE0 SHR DUP1 PUSH4 0x72593831 EQ PUSH2 0x38 JUMPI DUP1 PUSH4 0x8DA5CB5B EQ PUSH2 0x54 JUMPI JUMPDEST PUSH0 DUP1 REVERT JUMPDEST PUSH2 0x52 PUSH1 0x4 DUP1 CALLDATASIZE SUB DUP2 ADD SWAP1 PUSH2 0x4D SWAP2 SWAP1 PUSH2 0x1E6 JUMP JUMPDEST PUSH2 0x72 JUMP JUMPDEST STOP JUMPDEST PUSH2 0x5C PUSH2 0x165 JUMP JUMPDEST PUSH1 0x40 MLOAD PUSH2 0x69 SWAP2 SWAP1 PUSH2 0x231 JUMP JUMPDEST PUSH1 0x40 MLOAD DUP1 SWAP2 SUB SWAP1 RETURN JUMPDEST CALLER PUSH20 0xFFFFFFFFFFFFFFFFFFFFFFFFFFFFFFFFFFFFFFFF AND PUSH0 DUP1 SLOAD SWAP1 PUSH2 0x100 EXP SWAP1 DIV PUSH20 0xFFFFFFFFFFFFFFFFFFFFFFFFFFFFFFFFFFFFFFFF AND PUSH20 0xFFFFFFFFFFFFFFFFFFFFFFFFFFFFFFFFFFFFFFFF AND EQ PUSH2 0xFF JUMPI PUSH1 0x40 MLOAD PUSH32 0x8C379A000000000000000000000000000000000000000000000000000000000 DUP2 MSTORE PUSH1 0x4 ADD PUSH2 0xF6 SWAP1 PUSH2 0x2A4 JUMP JUMPDEST PUSH1 0x40 MLOAD DUP1 SWAP2 SUB SWAP1 REVERT JUMPDEST PUSH0 DUP1 SLOAD SWAP1 PUSH2 0x100 EXP SWAP1 DIV PUSH20 0xFFFFFFFFFFFFFFFFFFFFFFFFFFFFFFFFFFFFFFFF AND PUSH20 0xFFFFFFFFFFFFFFFFFFFFFFFFFFFFFFFFFFFFFFFF AND PUSH2 0x8FC SELFBALANCE SWAP1 DUP2 ISZERO MUL SWAP1 PUSH1 0x40 MLOAD PUSH0 PUSH1 0x40 MLOAD DUP1 DUP4 SUB DUP2 DUP6 DUP9 DUP9 CALL SWAP4 POP POP POP POP ISZERO DUP1 ISZERO PUSH2 0x161 JUMPI RETURNDATASIZE PUSH0 DUP1 RETURNDATACOPY RETURNDATASIZE PUSH0 REVERT JUMPDEST POP POP JUMP JUMPDEST PUSH0 DUP1 SLOAD SWAP1 PUSH2 0x100 EXP SWAP1 DIV PUSH20 0xFFFFFFFFFFFFFFFFFFFFFFFFFFFFFFFFFFFFFFFF AND DUP2 JUMP JUMPDEST PUSH0 DUP1 REVERT JUMPDEST PUSH0 PUSH20 0xFFFFFFFFFFFFFFFFFFFFFFFFFFFFFFFFFFFFFFFF DUP3 AND SWAP1 POP SWAP2 SWAP1 POP JUMP JUMPDEST PUSH0 PUSH2 0x1B5 DUP3 PUSH2 0x18C JUMP JUMPDEST SWAP1 POP SWAP2 SWAP1 POP JUMP JUMPDEST PUSH2 0x1C5 DUP2 PUSH2 0x1AB JUMP JUMPDEST DUP2 EQ PUSH2 0x1CF JUMPI PUSH0 DUP1 REVERT JUMPDEST POP JUMP JUMPDEST PUSH0 DUP2 CALLDATALOAD SWAP1 POP PUSH2 0x1E0 DUP2 PUSH2 0x1BC JUMP JUMPDEST SWAP3 SWAP2 POP POP JUMP JUMPDEST PUSH0 PUSH1 0x20 DUP3 DUP5 SUB SLT ISZERO PUSH2 0x1FB JUMPI PUSH2 0x1FA PUSH2 0x188 JUMP JUMPDEST JUMPDEST PUSH0 PUSH2 0x208 DUP5 DUP3 DUP6 ADD PUSH2 0x1D2 JUMP JUMPDEST SWAP2 POP POP SWAP3 SWAP2 POP POP JUMP JUMPDEST PUSH0 PUSH2 0x21B DUP3 PUSH2 0x18C JUMP JUMPDEST SWAP1 POP SWAP2 SWAP1 POP JUMP JUMPDEST PUSH2 0x22B DUP2 PUSH2 0x211 JUMP JUMPDEST DUP3 MSTORE POP POP JUMP JUMPDEST PUSH0 PUSH1 0x20 DUP3 ADD SWAP1 POP PUSH2 0x244 PUSH0 DUP4 ADD DUP5 PUSH2 0x222 JUMP JUMPDEST SWAP3 SWAP2 POP POP JUMP JUMPDEST PUSH0 DUP3 DUP3 MSTORE PUSH1 0x20 DUP3 ADD SWAP1 POP SWAP3 SWAP2 POP POP JUMP JUMPDEST PUSH32 0x6E6F7420616E206F776E65722100000000000000000000000000000000000000 PUSH0 DUP3 ADD MSTORE POP JUMP JUMPDEST PUSH0 PUSH2 0x28E PUSH1 0xD DUP4 PUSH2 0x24A JUMP JUMPDEST SWAP2 POP PUSH2 0x299 DUP3 PUSH2 0x25A JUMP JUMPDEST PUSH1 0x20 DUP3 ADD SWAP1 POP SWAP2 SWAP1 POP JUMP JUMPDEST PUSH0 PUSH1 0x20 DUP3 ADD SWAP1 POP DUP2 DUP2 SUB PUSH0 DUP4 ADD MSTORE PUSH2 0x2BB DUP2 PUSH2 0x282 JUMP JUMPDEST SWAP1 POP SWAP2 SWAP1 POP JUMP INVALID LOG2 PUSH5 0x6970667358 0x22 SLT KECCAK256 RETURNDATACOPY 0x25 GASPRICE 0x24 0xB8 0xAA DELEGATECALL 0x2B SMOD 0x4C CHAINID XOR DUP14 MLOAD GT CALLCODE SHR 0xF7 0xA8 0xC 0xEB DUP14 0xBA SWAP13 0xD7 SWAP6 DUP13 PUSH3 0x572862 0xC8 PUSH5 0x736F6C6343 STOP ADDMOD AND STOP CALLER "
				},
				"gasEstimates": {
					"creation": {
						"codeDepositCost": "152000",
						"executionCost": "infinite",
						"totalCost": "infinite"
					},
					"external": {
						"owner()": "2505",
						"withdrow(address)": "infinite"
					}
				},
				"methodIdentifiers": {
					"owner()": "8da5cb5b",
					"withdrow(address)": "72593831"
				}
			},
			"storageLayout": {
				"storage": [
					{
						"astId": 3,
						"contract": "Demo.sol:Ownable",
						"label": "owner",
						"offset": 0,
						"slot": "0",
						"type": "t_address"
					}
				],
				"types": {
					"t_address": {
						"encoding": "inplace",
						"label": "address",
						"numberOfBytes": "20"
					}
				}
			},
			"userdoc": {
				"kind": "user",
				"methods": {},
				"version": 1
			}
		}
	}
}