{
	"Demo.sol": {
		"Demo": {
			"abi": [
				{
					"inputs": [],
					"stateMutability": "nonpayable",
					"type": "constructor"
				},
				{
					"inputs": [],
					"name": "getBalance",
					"outputs": [
						{
							"internalType": "uint256",
							"name": "",
							"type": "uint256"
						}
					],
					"stateMutability": "view",
					"type": "function"
				},
				{
					"inputs": [],
					"name": "owner",
					"outputs": [
						{
							"internalType": "address",
							"name": "",
							"type": "address"
						}
					],
					"stateMutability": "view",
					"type": "function"
				},
				{
					"inputs": [
						{
							"internalType": "address payable",
							"name": "_to",
							"type": "address"
						}
					],
					"name": "withdrow",
					"outputs": [],
					"stateMutability": "nonpayable",
					"type": "function"
				}
			],
			"devdoc": {
				"kind": "dev",
				"methods": {},
				"version": 1
			},
			"evm": {
				"assembly": "    /* \"Demo.sol\":735:1006  contract Demo is Ownable, Balances {... */\n  mstore(0x40, 0x80)\n    /* \"Demo.sol\":776:818  constructor() Ownable(msg.sender) {... */\n  callvalue\n  dup1\n  iszero\n  tag_1\n  jumpi\n  0x00\n  dup1\n  revert\ntag_1:\n  pop\n    /* \"Demo.sol\":798:808  msg.sender */\n  caller\n    /* \"Demo.sol\":186:187  0 */\n  0x00\n    /* \"Demo.sol\":161:188  ownerOverride == address(0) */\n  0xffffffffffffffffffffffffffffffffffffffff\n  and\n    /* \"Demo.sol\":161:174  ownerOverride */\n  dup2\n    /* \"Demo.sol\":161:188  ownerOverride == address(0) */\n  0xffffffffffffffffffffffffffffffffffffffff\n  and\n  eq\n    /* \"Demo.sol\":161:217  ownerOverride == address(0) ? msg.sender : ownerOverride */\n  tag_5\n  jumpi\n    /* \"Demo.sol\":204:217  ownerOverride */\n  dup1\n    /* \"Demo.sol\":161:217  ownerOverride == address(0) ? msg.sender : ownerOverride */\n  jump(tag_6)\ntag_5:\n    /* \"Demo.sol\":191:201  msg.sender */\n  caller\n    /* \"Demo.sol\":161:217  ownerOverride == address(0) ? msg.sender : ownerOverride */\ntag_6:\n    /* \"Demo.sol\":153:158  owner */\n  0x00\n  dup1\n    /* \"Demo.sol\":153:217  owner = ownerOverride == address(0) ? msg.sender : ownerOverride */\n  0x0100\n  exp\n  dup2\n  sload\n  dup2\n  0xffffffffffffffffffffffffffffffffffffffff\n  mul\n  not\n  and\n  swap1\n  dup4\n  0xffffffffffffffffffffffffffffffffffffffff\n  and\n  mul\n  or\n  swap1\n  sstore\n  pop\n    /* \"Demo.sol\":108:224  constructor(address ownerOverride) {... */\n  pop\n    /* \"Demo.sol\":735:1006  contract Demo is Ownable, Balances {... */\n  dataSize(sub_0)\n  dup1\n  dataOffset(sub_0)\n  0x00\n  codecopy\n  0x00\n  return\nstop\n\nsub_0: assembly {\n        /* \"Demo.sol\":735:1006  contract Demo is Ownable, Balances {... */\n      mstore(0x40, 0x80)\n      callvalue\n      dup1\n      iszero\n      tag_1\n      jumpi\n      0x00\n      dup1\n      revert\n    tag_1:\n      pop\n      jumpi(tag_2, lt(calldatasize, 0x04))\n      shr(0xe0, calldataload(0x00))\n      dup1\n      0x12065fe0\n      eq\n      tag_3\n      jumpi\n      dup1\n      0x72593831\n      eq\n      tag_4\n      jumpi\n      dup1\n      0x8da5cb5b\n      eq\n      tag_5\n      jumpi\n    tag_2:\n      0x00\n      dup1\n      revert\n        /* \"Demo.sol\":506:608  function getBalance() public view onlyOwner returns(uint){... */\n    tag_3:\n      tag_6\n      tag_7\n      jump\t// in\n    tag_6:\n      mload(0x40)\n      tag_8\n      swap2\n      swap1\n      tag_9\n      jump\t// in\n    tag_8:\n      mload(0x40)\n      dup1\n      swap2\n      sub\n      swap1\n      return\n        /* \"Demo.sol\":824:1003  function withdrow(address payable _to) public override(Ownable, Balances) onlyOwner {... */\n    tag_4:\n      tag_10\n      0x04\n      dup1\n      calldatasize\n      sub\n      dup2\n      add\n      swap1\n      tag_11\n      swap2\n      swap1\n      tag_12\n      jump\t// in\n    tag_11:\n      tag_13\n      jump\t// in\n    tag_10:\n      stop\n        /* \"Demo.sol\":81:101  address public owner */\n    tag_5:\n      tag_14\n      tag_15\n      jump\t// in\n    tag_14:\n      mload(0x40)\n      tag_16\n      swap2\n      swap1\n      tag_17\n      jump\t// in\n    tag_16:\n      mload(0x40)\n      dup1\n      swap2\n      sub\n      swap1\n      return\n        /* \"Demo.sol\":506:608  function getBalance() public view onlyOwner returns(uint){... */\n    tag_7:\n        /* \"Demo.sol\":558:562  uint */\n      0x00\n        /* \"Demo.sol\":278:288  msg.sender */\n      caller\n        /* \"Demo.sol\":269:288  owner == msg.sender */\n      0xffffffffffffffffffffffffffffffffffffffff\n      and\n        /* \"Demo.sol\":269:274  owner */\n      0x00\n      dup1\n      sload\n      swap1\n      0x0100\n      exp\n      swap1\n      div\n      0xffffffffffffffffffffffffffffffffffffffff\n      and\n        /* \"Demo.sol\":269:288  owner == msg.sender */\n      0xffffffffffffffffffffffffffffffffffffffff\n      and\n      eq\n        /* \"Demo.sol\":261:306  require(owner == msg.sender, \"not an owner!\") */\n      tag_19\n      jumpi\n      mload(0x40)\n      0x08c379a000000000000000000000000000000000000000000000000000000000\n      dup2\n      mstore\n      0x04\n      add\n      tag_20\n      swap1\n      tag_21\n      jump\t// in\n    tag_20:\n      mload(0x40)\n      dup1\n      swap2\n      sub\n      swap1\n      revert\n    tag_19:\n        /* \"Demo.sol\":580:601  address(this).balance */\n      selfbalance\n        /* \"Demo.sol\":573:601  return address(this).balance */\n      swap1\n      pop\n        /* \"Demo.sol\":506:608  function getBalance() public view onlyOwner returns(uint){... */\n      swap1\n      jump\t// out\n        /* \"Demo.sol\":824:1003  function withdrow(address payable _to) public override(Ownable, Balances) onlyOwner {... */\n    tag_13:\n        /* \"Demo.sol\":278:288  msg.sender */\n      caller\n        /* \"Demo.sol\":269:288  owner == msg.sender */\n      0xffffffffffffffffffffffffffffffffffffffff\n      and\n        /* \"Demo.sol\":269:274  owner */\n      0x00\n      dup1\n      sload\n      swap1\n      0x0100\n      exp\n      swap1\n      div\n      0xffffffffffffffffffffffffffffffffffffffff\n      and\n        /* \"Demo.sol\":269:288  owner == msg.sender */\n      0xffffffffffffffffffffffffffffffffffffffff\n      and\n      eq\n        /* \"Demo.sol\":261:306  require(owner == msg.sender, \"not an owner!\") */\n      tag_24\n      jumpi\n      mload(0x40)\n      0x08c379a000000000000000000000000000000000000000000000000000000000\n      dup2\n      mstore\n      0x04\n      add\n      tag_25\n      swap1\n      tag_21\n      jump\t// in\n    tag_25:\n      mload(0x40)\n      dup1\n      swap2\n      sub\n      swap1\n      revert\n    tag_24:\n        /* \"Demo.sol\":941:942  0 */\n      0x00\n        /* \"Demo.sol\":926:943  _to != address(0) */\n      0xffffffffffffffffffffffffffffffffffffffff\n      and\n        /* \"Demo.sol\":926:929  _to */\n      dup2\n        /* \"Demo.sol\":926:943  _to != address(0) */\n      0xffffffffffffffffffffffffffffffffffffffff\n      and\n      sub\n        /* \"Demo.sol\":918:966  require(_to != address(0), \"can;t zore address\") */\n      tag_27\n      jumpi\n      mload(0x40)\n      0x08c379a000000000000000000000000000000000000000000000000000000000\n      dup2\n      mstore\n      0x04\n      add\n      tag_28\n      swap1\n      tag_29\n      jump\t// in\n    tag_28:\n      mload(0x40)\n      dup1\n      swap2\n      sub\n      swap1\n      revert\n    tag_27:\n        /* \"Demo.sol\":976:995  super.withdrow(_to) */\n      tag_30\n        /* \"Demo.sol\":991:994  _to */\n      dup2\n        /* \"Demo.sol\":976:990  super.withdrow */\n      tag_31\n        /* \"Demo.sol\":976:995  super.withdrow(_to) */\n      jump\t// in\n    tag_30:\n        /* \"Demo.sol\":824:1003  function withdrow(address payable _to) public override(Ownable, Balances) onlyOwner {... */\n      pop\n      jump\t// out\n        /* \"Demo.sol\":81:101  address public owner */\n    tag_15:\n      0x00\n      dup1\n      sload\n      swap1\n      0x0100\n      exp\n      swap1\n      div\n      0xffffffffffffffffffffffffffffffffffffffff\n      and\n      dup2\n      jump\t// out\n        /* \"Demo.sol\":614:731  function withdrow(address payable _to) public override virtual  onlyOwner {... */\n    tag_31:\n        /* \"Demo.sol\":278:288  msg.sender */\n      caller\n        /* \"Demo.sol\":269:288  owner == msg.sender */\n      0xffffffffffffffffffffffffffffffffffffffff\n      and\n        /* \"Demo.sol\":269:274  owner */\n      0x00\n      dup1\n      sload\n      swap1\n      0x0100\n      exp\n      swap1\n      div\n      0xffffffffffffffffffffffffffffffffffffffff\n      and\n        /* \"Demo.sol\":269:288  owner == msg.sender */\n      0xffffffffffffffffffffffffffffffffffffffff\n      and\n      eq\n        /* \"Demo.sol\":261:306  require(owner == msg.sender, \"not an owner!\") */\n      tag_33\n      jumpi\n      mload(0x40)\n      0x08c379a000000000000000000000000000000000000000000000000000000000\n      dup2\n      mstore\n      0x04\n      add\n      tag_34\n      swap1\n      tag_21\n      jump\t// in\n    tag_34:\n      mload(0x40)\n      dup1\n      swap2\n      sub\n      swap1\n      revert\n    tag_33:\n        /* \"Demo.sol\":698:701  _to */\n      dup1\n        /* \"Demo.sol\":698:710  _to.transfer */\n      0xffffffffffffffffffffffffffffffffffffffff\n      and\n        /* \"Demo.sol\":698:724  _to.transfer(getBalance()) */\n      0x08fc\n        /* \"Demo.sol\":711:723  getBalance() */\n      tag_36\n        /* \"Demo.sol\":711:721  getBalance */\n      tag_7\n        /* \"Demo.sol\":711:723  getBalance() */\n      jump\t// in\n    tag_36:\n        /* \"Demo.sol\":698:724  _to.transfer(getBalance()) */\n      swap1\n      dup2\n      iszero\n      mul\n      swap1\n      mload(0x40)\n      0x00\n      mload(0x40)\n      dup1\n      dup4\n      sub\n      dup2\n      dup6\n      dup9\n      dup9\n      call\n      swap4\n      pop\n      pop\n      pop\n      pop\n      iszero\n      dup1\n      iszero\n      tag_38\n      jumpi\n      returndatasize\n      0x00\n      dup1\n      returndatacopy\n      revert(0x00, returndatasize)\n    tag_38:\n      pop\n        /* \"Demo.sol\":614:731  function withdrow(address payable _to) public override virtual  onlyOwner {... */\n      pop\n      jump\t// out\n        /* \"#utility.yul\":7:84   */\n    tag_39:\n        /* \"#utility.yul\":44:51   */\n      0x00\n        /* \"#utility.yul\":73:78   */\n      dup2\n        /* \"#utility.yul\":62:78   */\n      swap1\n      pop\n        /* \"#utility.yul\":7:84   */\n      swap2\n      swap1\n      pop\n      jump\t// out\n        /* \"#utility.yul\":90:208   */\n    tag_40:\n        /* \"#utility.yul\":177:201   */\n      tag_58\n        /* \"#utility.yul\":195:200   */\n      dup2\n        /* \"#utility.yul\":177:201   */\n      tag_39\n      jump\t// in\n    tag_58:\n        /* \"#utility.yul\":172:175   */\n      dup3\n        /* \"#utility.yul\":165:202   */\n      mstore\n        /* \"#utility.yul\":90:208   */\n      pop\n      pop\n      jump\t// out\n        /* \"#utility.yul\":214:436   */\n    tag_9:\n        /* \"#utility.yul\":307:311   */\n      0x00\n        /* \"#utility.yul\":345:347   */\n      0x20\n        /* \"#utility.yul\":334:343   */\n      dup3\n        /* \"#utility.yul\":330:348   */\n      add\n        /* \"#utility.yul\":322:348   */\n      swap1\n      pop\n        /* \"#utility.yul\":358:429   */\n      tag_60\n        /* \"#utility.yul\":426:427   */\n      0x00\n        /* \"#utility.yul\":415:424   */\n      dup4\n        /* \"#utility.yul\":411:428   */\n      add\n        /* \"#utility.yul\":402:408   */\n      dup5\n        /* \"#utility.yul\":358:429   */\n      tag_40\n      jump\t// in\n    tag_60:\n        /* \"#utility.yul\":214:436   */\n      swap3\n      swap2\n      pop\n      pop\n      jump\t// out\n        /* \"#utility.yul\":523:640   */\n    tag_42:\n        /* \"#utility.yul\":632:633   */\n      0x00\n        /* \"#utility.yul\":629:630   */\n      dup1\n        /* \"#utility.yul\":622:634   */\n      revert\n        /* \"#utility.yul\":769:895   */\n    tag_44:\n        /* \"#utility.yul\":806:813   */\n      0x00\n        /* \"#utility.yul\":846:888   */\n      0xffffffffffffffffffffffffffffffffffffffff\n        /* \"#utility.yul\":839:844   */\n      dup3\n        /* \"#utility.yul\":835:889   */\n      and\n        /* \"#utility.yul\":824:889   */\n      swap1\n      pop\n        /* \"#utility.yul\":769:895   */\n      swap2\n      swap1\n      pop\n      jump\t// out\n        /* \"#utility.yul\":901:1005   */\n    tag_45:\n        /* \"#utility.yul\":946:953   */\n      0x00\n        /* \"#utility.yul\":975:999   */\n      tag_66\n        /* \"#utility.yul\":993:998   */\n      dup3\n        /* \"#utility.yul\":975:999   */\n      tag_44\n      jump\t// in\n    tag_66:\n        /* \"#utility.yul\":964:999   */\n      swap1\n      pop\n        /* \"#utility.yul\":901:1005   */\n      swap2\n      swap1\n      pop\n      jump\t// out\n        /* \"#utility.yul\":1011:1149   */\n    tag_46:\n        /* \"#utility.yul\":1092:1124   */\n      tag_68\n        /* \"#utility.yul\":1118:1123   */\n      dup2\n        /* \"#utility.yul\":1092:1124   */\n      tag_45\n      jump\t// in\n    tag_68:\n        /* \"#utility.yul\":1085:1090   */\n      dup2\n        /* \"#utility.yul\":1082:1125   */\n      eq\n        /* \"#utility.yul\":1072:1143   */\n      tag_69\n      jumpi\n        /* \"#utility.yul\":1139:1140   */\n      0x00\n        /* \"#utility.yul\":1136:1137   */\n      dup1\n        /* \"#utility.yul\":1129:1141   */\n      revert\n        /* \"#utility.yul\":1072:1143   */\n    tag_69:\n        /* \"#utility.yul\":1011:1149   */\n      pop\n      jump\t// out\n        /* \"#utility.yul\":1155:1310   */\n    tag_47:\n        /* \"#utility.yul\":1209:1214   */\n      0x00\n        /* \"#utility.yul\":1247:1253   */\n      dup2\n        /* \"#utility.yul\":1234:1254   */\n      calldataload\n        /* \"#utility.yul\":1225:1254   */\n      swap1\n      pop\n        /* \"#utility.yul\":1263:1304   */\n      tag_71\n        /* \"#utility.yul\":1298:1303   */\n      dup2\n        /* \"#utility.yul\":1263:1304   */\n      tag_46\n      jump\t// in\n    tag_71:\n        /* \"#utility.yul\":1155:1310   */\n      swap3\n      swap2\n      pop\n      pop\n      jump\t// out\n        /* \"#utility.yul\":1316:1661   */\n    tag_12:\n        /* \"#utility.yul\":1383:1389   */\n      0x00\n        /* \"#utility.yul\":1432:1434   */\n      0x20\n        /* \"#utility.yul\":1420:1429   */\n      dup3\n        /* \"#utility.yul\":1411:1418   */\n      dup5\n        /* \"#utility.yul\":1407:1430   */\n      sub\n        /* \"#utility.yul\":1403:1435   */\n      slt\n        /* \"#utility.yul\":1400:1519   */\n      iszero\n      tag_73\n      jumpi\n        /* \"#utility.yul\":1438:1517   */\n      tag_74\n      tag_42\n      jump\t// in\n    tag_74:\n        /* \"#utility.yul\":1400:1519   */\n    tag_73:\n        /* \"#utility.yul\":1558:1559   */\n      0x00\n        /* \"#utility.yul\":1583:1644   */\n      tag_75\n        /* \"#utility.yul\":1636:1643   */\n      dup5\n        /* \"#utility.yul\":1627:1633   */\n      dup3\n        /* \"#utility.yul\":1616:1625   */\n      dup6\n        /* \"#utility.yul\":1612:1634   */\n      add\n        /* \"#utility.yul\":1583:1644   */\n      tag_47\n      jump\t// in\n    tag_75:\n        /* \"#utility.yul\":1573:1644   */\n      swap2\n      pop\n        /* \"#utility.yul\":1529:1654   */\n      pop\n        /* \"#utility.yul\":1316:1661   */\n      swap3\n      swap2\n      pop\n      pop\n      jump\t// out\n        /* \"#utility.yul\":1667:1763   */\n    tag_48:\n        /* \"#utility.yul\":1704:1711   */\n      0x00\n        /* \"#utility.yul\":1733:1757   */\n      tag_77\n        /* \"#utility.yul\":1751:1756   */\n      dup3\n        /* \"#utility.yul\":1733:1757   */\n      tag_44\n      jump\t// in\n    tag_77:\n        /* \"#utility.yul\":1722:1757   */\n      swap1\n      pop\n        /* \"#utility.yul\":1667:1763   */\n      swap2\n      swap1\n      pop\n      jump\t// out\n        /* \"#utility.yul\":1769:1887   */\n    tag_49:\n        /* \"#utility.yul\":1856:1880   */\n      tag_79\n        /* \"#utility.yul\":1874:1879   */\n      dup2\n        /* \"#utility.yul\":1856:1880   */\n      tag_48\n      jump\t// in\n    tag_79:\n        /* \"#utility.yul\":1851:1854   */\n      dup3\n        /* \"#utility.yul\":1844:1881   */\n      mstore\n        /* \"#utility.yul\":1769:1887   */\n      pop\n      pop\n      jump\t// out\n        /* \"#utility.yul\":1893:2115   */\n    tag_17:\n        /* \"#utility.yul\":1986:1990   */\n      0x00\n        /* \"#utility.yul\":2024:2026   */\n      0x20\n        /* \"#utility.yul\":2013:2022   */\n      dup3\n        /* \"#utility.yul\":2009:2027   */\n      add\n        /* \"#utility.yul\":2001:2027   */\n      swap1\n      pop\n        /* \"#utility.yul\":2037:2108   */\n      tag_81\n        /* \"#utility.yul\":2105:2106   */\n      0x00\n        /* \"#utility.yul\":2094:2103   */\n      dup4\n        /* \"#utility.yul\":2090:2107   */\n      add\n        /* \"#utility.yul\":2081:2087   */\n      dup5\n        /* \"#utility.yul\":2037:2108   */\n      tag_49\n      jump\t// in\n    tag_81:\n        /* \"#utility.yul\":1893:2115   */\n      swap3\n      swap2\n      pop\n      pop\n      jump\t// out\n        /* \"#utility.yul\":2121:2290   */\n    tag_50:\n        /* \"#utility.yul\":2205:2216   */\n      0x00\n        /* \"#utility.yul\":2239:2245   */\n      dup3\n        /* \"#utility.yul\":2234:2237   */\n      dup3\n        /* \"#utility.yul\":2227:2246   */\n      mstore\n        /* \"#utility.yul\":2279:2283   */\n      0x20\n        /* \"#utility.yul\":2274:2277   */\n      dup3\n        /* \"#utility.yul\":2270:2284   */\n      add\n        /* \"#utility.yul\":2255:2284   */\n      swap1\n      pop\n        /* \"#utility.yul\":2121:2290   */\n      swap3\n      swap2\n      pop\n      pop\n      jump\t// out\n        /* \"#utility.yul\":2296:2459   */\n    tag_51:\n        /* \"#utility.yul\":2436:2451   */\n      0x6e6f7420616e206f776e65722100000000000000000000000000000000000000\n        /* \"#utility.yul\":2432:2433   */\n      0x00\n        /* \"#utility.yul\":2424:2430   */\n      dup3\n        /* \"#utility.yul\":2420:2434   */\n      add\n        /* \"#utility.yul\":2413:2452   */\n      mstore\n        /* \"#utility.yul\":2296:2459   */\n      pop\n      jump\t// out\n        /* \"#utility.yul\":2465:2831   */\n    tag_52:\n        /* \"#utility.yul\":2607:2610   */\n      0x00\n        /* \"#utility.yul\":2628:2695   */\n      tag_85\n        /* \"#utility.yul\":2692:2694   */\n      0x0d\n        /* \"#utility.yul\":2687:2690   */\n      dup4\n        /* \"#utility.yul\":2628:2695   */\n      tag_50\n      jump\t// in\n    tag_85:\n        /* \"#utility.yul\":2621:2695   */\n      swap2\n      pop\n        /* \"#utility.yul\":2704:2797   */\n      tag_86\n        /* \"#utility.yul\":2793:2796   */\n      dup3\n        /* \"#utility.yul\":2704:2797   */\n      tag_51\n      jump\t// in\n    tag_86:\n        /* \"#utility.yul\":2822:2824   */\n      0x20\n        /* \"#utility.yul\":2817:2820   */\n      dup3\n        /* \"#utility.yul\":2813:2825   */\n      add\n        /* \"#utility.yul\":2806:2825   */\n      swap1\n      pop\n        /* \"#utility.yul\":2465:2831   */\n      swap2\n      swap1\n      pop\n      jump\t// out\n        /* \"#utility.yul\":2837:3256   */\n    tag_21:\n        /* \"#utility.yul\":3003:3007   */\n      0x00\n        /* \"#utility.yul\":3041:3043   */\n      0x20\n        /* \"#utility.yul\":3030:3039   */\n      dup3\n        /* \"#utility.yul\":3026:3044   */\n      add\n        /* \"#utility.yul\":3018:3044   */\n      swap1\n      pop\n        /* \"#utility.yul\":3090:3099   */\n      dup2\n        /* \"#utility.yul\":3084:3088   */\n      dup2\n        /* \"#utility.yul\":3080:3100   */\n      sub\n        /* \"#utility.yul\":3076:3077   */\n      0x00\n        /* \"#utility.yul\":3065:3074   */\n      dup4\n        /* \"#utility.yul\":3061:3078   */\n      add\n        /* \"#utility.yul\":3054:3101   */\n      mstore\n        /* \"#utility.yul\":3118:3249   */\n      tag_88\n        /* \"#utility.yul\":3244:3248   */\n      dup2\n        /* \"#utility.yul\":3118:3249   */\n      tag_52\n      jump\t// in\n    tag_88:\n        /* \"#utility.yul\":3110:3249   */\n      swap1\n      pop\n        /* \"#utility.yul\":2837:3256   */\n      swap2\n      swap1\n      pop\n      jump\t// out\n        /* \"#utility.yul\":3262:3430   */\n    tag_53:\n        /* \"#utility.yul\":3402:3422   */\n      0x63616e3b74207a6f726520616464726573730000000000000000000000000000\n        /* \"#utility.yul\":3398:3399   */\n      0x00\n        /* \"#utility.yul\":3390:3396   */\n      dup3\n        /* \"#utility.yul\":3386:3400   */\n      add\n        /* \"#utility.yul\":3379:3423   */\n      mstore\n        /* \"#utility.yul\":3262:3430   */\n      pop\n      jump\t// out\n        /* \"#utility.yul\":3436:3802   */\n    tag_54:\n        /* \"#utility.yul\":3578:3581   */\n      0x00\n        /* \"#utility.yul\":3599:3666   */\n      tag_91\n        /* \"#utility.yul\":3663:3665   */\n      0x12\n        /* \"#utility.yul\":3658:3661   */\n      dup4\n        /* \"#utility.yul\":3599:3666   */\n      tag_50\n      jump\t// in\n    tag_91:\n        /* \"#utility.yul\":3592:3666   */\n      swap2\n      pop\n        /* \"#utility.yul\":3675:3768   */\n      tag_92\n        /* \"#utility.yul\":3764:3767   */\n      dup3\n        /* \"#utility.yul\":3675:3768   */\n      tag_53\n      jump\t// in\n    tag_92:\n        /* \"#utility.yul\":3793:3795   */\n      0x20\n        /* \"#utility.yul\":3788:3791   */\n      dup3\n        /* \"#utility.yul\":3784:3796   */\n      add\n        /* \"#utility.yul\":3777:3796   */\n      swap1\n      pop\n        /* \"#utility.yul\":3436:3802   */\n      swap2\n      swap1\n      pop\n      jump\t// out\n        /* \"#utility.yul\":3808:4227   */\n    tag_29:\n        /* \"#utility.yul\":3974:3978   */\n      0x00\n        /* \"#utility.yul\":4012:4014   */\n      0x20\n        /* \"#utility.yul\":4001:4010   */\n      dup3\n        /* \"#utility.yul\":3997:4015   */\n      add\n        /* \"#utility.yul\":3989:4015   */\n      swap1\n      pop\n        /* \"#utility.yul\":4061:4070   */\n      dup2\n        /* \"#utility.yul\":4055:4059   */\n      dup2\n        /* \"#utility.yul\":4051:4071   */\n      sub\n        /* \"#utility.yul\":4047:4048   */\n      0x00\n        /* \"#utility.yul\":4036:4045   */\n      dup4\n        /* \"#utility.yul\":4032:4049   */\n      add\n        /* \"#utility.yul\":4025:4072   */\n      mstore\n        /* \"#utility.yul\":4089:4220   */\n      tag_94\n        /* \"#utility.yul\":4215:4219   */\n      dup2\n        /* \"#utility.yul\":4089:4220   */\n      tag_54\n      jump\t// in\n    tag_94:\n        /* \"#utility.yul\":4081:4220   */\n      swap1\n      pop\n        /* \"#utility.yul\":3808:4227   */\n      swap2\n      swap1\n      pop\n      jump\t// out\n\n    auxdata: 0xa2646970667358221220c98b552402e4895165f65b308205338e1ce6786573281d18f047d5dd7b13f1f064736f6c63430008160033\n}\n",
				"bytecode": {
					"linkReferences": {},
					"object": "608060405234801561000f575f80fd5b50335f73ffffffffffffffffffffffffffffffffffffffff168173ffffffffffffffffffffffffffffffffffffffff161461004a578061004c565b335b5f806101000a81548173ffffffffffffffffffffffffffffffffffffffff021916908373ffffffffffffffffffffffffffffffffffffffff1602179055505061053d806100985f395ff3fe608060405234801561000f575f80fd5b506004361061003f575f3560e01c806312065fe01461004357806372593831146100615780638da5cb5b1461007d575b5f80fd5b61004b61009b565b604051610058919061034c565b60405180910390f35b61007b600480360381019061007691906103c3565b61012f565b005b610085610236565b604051610092919061040e565b60405180910390f35b5f3373ffffffffffffffffffffffffffffffffffffffff165f8054906101000a900473ffffffffffffffffffffffffffffffffffffffff1673ffffffffffffffffffffffffffffffffffffffff1614610129576040517f08c379a000000000000000000000000000000000000000000000000000000000815260040161012090610481565b60405180910390fd5b47905090565b3373ffffffffffffffffffffffffffffffffffffffff165f8054906101000a900473ffffffffffffffffffffffffffffffffffffffff1673ffffffffffffffffffffffffffffffffffffffff16146101bc576040517f08c379a00000000000000000000000000000000000000000000000000000000081526004016101b390610481565b60405180910390fd5b5f73ffffffffffffffffffffffffffffffffffffffff168173ffffffffffffffffffffffffffffffffffffffff160361022a576040517f08c379a0000000000000000000000000000000000000000000000000000000008152600401610221906104e9565b60405180910390fd5b61023381610259565b50565b5f8054906101000a900473ffffffffffffffffffffffffffffffffffffffff1681565b3373ffffffffffffffffffffffffffffffffffffffff165f8054906101000a900473ffffffffffffffffffffffffffffffffffffffff1673ffffffffffffffffffffffffffffffffffffffff16146102e6576040517f08c379a00000000000000000000000000000000000000000000000000000000081526004016102dd90610481565b60405180910390fd5b8073ffffffffffffffffffffffffffffffffffffffff166108fc61030861009b565b90811502906040515f60405180830381858888f19350505050158015610330573d5f803e3d5ffd5b5050565b5f819050919050565b61034681610334565b82525050565b5f60208201905061035f5f83018461033d565b92915050565b5f80fd5b5f73ffffffffffffffffffffffffffffffffffffffff82169050919050565b5f61039282610369565b9050919050565b6103a281610388565b81146103ac575f80fd5b50565b5f813590506103bd81610399565b92915050565b5f602082840312156103d8576103d7610365565b5b5f6103e5848285016103af565b91505092915050565b5f6103f882610369565b9050919050565b610408816103ee565b82525050565b5f6020820190506104215f8301846103ff565b92915050565b5f82825260208201905092915050565b7f6e6f7420616e206f776e657221000000000000000000000000000000000000005f82015250565b5f61046b600d83610427565b915061047682610437565b602082019050919050565b5f6020820190508181035f8301526104988161045f565b9050919050565b7f63616e3b74207a6f7265206164647265737300000000000000000000000000005f82015250565b5f6104d3601283610427565b91506104de8261049f565b602082019050919050565b5f6020820190508181035f830152610500816104c7565b905091905056fea2646970667358221220c98b552402e4895165f65b308205338e1ce6786573281d18f047d5dd7b13f1f064736f6c63430008160033",
					"opcodes": "PUSH1 0x80 PUSH1 0x40 MSTORE CALLVALUE DUP1 ISZERO PUSH2 0xF JUMPI PUSH0 DUP1 REVERT JUMPDEST POP CALLER PUSH0 PUSH20 0xFFFFFFFFFFFFFFFFFFFFFFFFFFFFFFFFFFFFFFFF AND DUP2 PUSH20 0xFFFFFFFFFFFFFFFFFFFFFFFFFFFFFFFFFFFFFFFF AND EQ PUSH2 0x4A JUMPI DUP1 PUSH2 0x4C JUMP JUMPDEST CALLER JUMPDEST PUSH0 DUP1 PUSH2 0x100 EXP DUP2 SLOAD DUP2 PUSH20 0xFFFFFFFFFFFFFFFFFFFFFFFFFFFFFFFFFFFFFFFF MUL NOT AND SWAP1 DUP4 PUSH20 0xFFFFFFFFFFFFFFFFFFFFFFFFFFFFFFFFFFFFFFFF AND MUL OR SWAP1 SSTORE POP POP PUSH2 0x53D DUP1 PUSH2 0x98 PUSH0 CODECOPY PUSH0 RETURN INVALID PUSH1 0x80 PUSH1 0x40 MSTORE CALLVALUE DUP1 ISZERO PUSH2 0xF JUMPI PUSH0 DUP1 REVERT JUMPDEST POP PUSH1 0x4 CALLDATASIZE LT PUSH2 0x3F JUMPI PUSH0 CALLDATALOAD PUSH1 0xE0 SHR DUP1 PUSH4 0x12065FE0 EQ PUSH2 0x43 JUMPI DUP1 PUSH4 0x72593831 EQ PUSH2 0x61 JUMPI DUP1 PUSH4 0x8DA5CB5B EQ PUSH2 0x7D JUMPI JUMPDEST PUSH0 DUP1 REVERT JUMPDEST PUSH2 0x4B PUSH2 0x9B JUMP JUMPDEST PUSH1 0x40 MLOAD PUSH2 0x58 SWAP2 SWAP1 PUSH2 0x34C JUMP JUMPDEST PUSH1 0x40 MLOAD DUP1 SWAP2 SUB SWAP1 RETURN JUMPDEST PUSH2 0x7B PUSH1 0x4 DUP1 CALLDATASIZE SUB DUP2 ADD SWAP1 PUSH2 0x76 SWAP2 SWAP1 PUSH2 0x3C3 JUMP JUMPDEST PUSH2 0x12F JUMP JUMPDEST STOP JUMPDEST PUSH2 0x85 PUSH2 0x236 JUMP JUMPDEST PUSH1 0x40 MLOAD PUSH2 0x92 SWAP2 SWAP1 PUSH2 0x40E JUMP JUMPDEST PUSH1 0x40 MLOAD DUP1 SWAP2 SUB SWAP1 RETURN JUMPDEST PUSH0 CALLER PUSH20 0xFFFFFFFFFFFFFFFFFFFFFFFFFFFFFFFFFFFFFFFF AND PUSH0 DUP1 SLOAD SWAP1 PUSH2 0x100 EXP SWAP1 DIV PUSH20 0xFFFFFFFFFFFFFFFFFFFFFFFFFFFFFFFFFFFFFFFF AND PUSH20 0xFFFFFFFFFFFFFFFFFFFFFFFFFFFFFFFFFFFFFFFF AND EQ PUSH2 0x129 JUMPI PUSH1 0x40 MLOAD PUSH32 0x8C379A000000000000000000000000000000000000000000000000000000000 DUP2 MSTORE PUSH1 0x4 ADD PUSH2 0x120 SWAP1 PUSH2 0x481 JUMP JUMPDEST PUSH1 0x40 MLOAD DUP1 SWAP2 SUB SWAP1 REVERT JUMPDEST SELFBALANCE SWAP1 POP SWAP1 JUMP JUMPDEST CALLER PUSH20 0xFFFFFFFFFFFFFFFFFFFFFFFFFFFFFFFFFFFFFFFF AND PUSH0 DUP1 SLOAD SWAP1 PUSH2 0x100 EXP SWAP1 DIV PUSH20 0xFFFFFFFFFFFFFFFFFFFFFFFFFFFFFFFFFFFFFFFF AND PUSH20 0xFFFFFFFFFFFFFFFFFFFFFFFFFFFFFFFFFFFFFFFF AND EQ PUSH2 0x1BC JUMPI PUSH1 0x40 MLOAD PUSH32 0x8C379A000000000000000000000000000000000000000000000000000000000 DUP2 MSTORE PUSH1 0x4 ADD PUSH2 0x1B3 SWAP1 PUSH2 0x481 JUMP JUMPDEST PUSH1 0x40 MLOAD DUP1 SWAP2 SUB SWAP1 REVERT JUMPDEST PUSH0 PUSH20 0xFFFFFFFFFFFFFFFFFFFFFFFFFFFFFFFFFFFFFFFF AND DUP2 PUSH20 0xFFFFFFFFFFFFFFFFFFFFFFFFFFFFFFFFFFFFFFFF AND SUB PUSH2 0x22A JUMPI PUSH1 0x40 MLOAD PUSH32 0x8C379A000000000000000000000000000000000000000000000000000000000 DUP2 MSTORE PUSH1 0x4 ADD PUSH2 0x221 SWAP1 PUSH2 0x4E9 JUMP JUMPDEST PUSH1 0x40 MLOAD DUP1 SWAP2 SUB SWAP1 REVERT JUMPDEST PUSH2 0x233 DUP2 PUSH2 0x259 JUMP JUMPDEST POP JUMP JUMPDEST PUSH0 DUP1 SLOAD SWAP1 PUSH2 0x100 EXP SWAP1 DIV PUSH20 0xFFFFFFFFFFFFFFFFFFFFFFFFFFFFFFFFFFFFFFFF AND DUP2 JUMP JUMPDEST CALLER PUSH20 0xFFFFFFFFFFFFFFFFFFFFFFFFFFFFFFFFFFFFFFFF AND PUSH0 DUP1 SLOAD SWAP1 PUSH2 0x100 EXP SWAP1 DIV PUSH20 0xFFFFFFFFFFFFFFFFFFFFFFFFFFFFFFFFFFFFFFFF AND PUSH20 0xFFFFFFFFFFFFFFFFFFFFFFFFFFFFFFFFFFFFFFFF AND EQ PUSH2 0x2E6 JUMPI PUSH1 0x40 MLOAD PUSH32 0x8C379A000000000000000000000000000000000000000000000000000000000 DUP2 MSTORE PUSH1 0x4 ADD PUSH2 0x2DD SWAP1 PUSH2 0x481 JUMP JUMPDEST PUSH1 0x40 MLOAD DUP1 SWAP2 SUB SWAP1 REVERT JUMPDEST DUP1 PUSH20 0xFFFFFFFFFFFFFFFFFFFFFFFFFFFFFFFFFFFFFFFF AND PUSH2 0x8FC PUSH2 0x308 PUSH2 0x9B JUMP JUMPDEST SWAP1 DUP2 ISZERO MUL SWAP1 PUSH1 0x40 MLOAD PUSH0 PUSH1 0x40 MLOAD DUP1 DUP4 SUB DUP2 DUP6 DUP9 DUP9 CALL SWAP4 POP POP POP POP ISZERO DUP1 ISZERO PUSH2 0x330 JUMPI RETURNDATASIZE PUSH0 DUP1 RETURNDATACOPY RETURNDATASIZE PUSH0 REVERT JUMPDEST POP POP JUMP JUMPDEST PUSH0 DUP2 SWAP1 POP SWAP2 SWAP1 POP JUMP JUMPDEST PUSH2 0x346 DUP2 PUSH2 0x334 JUMP JUMPDEST DUP3 MSTORE POP POP JUMP JUMPDEST PUSH0 PUSH1 0x20 DUP3 ADD SWAP1 POP PUSH2 0x35F PUSH0 DUP4 ADD DUP5 PUSH2 0x33D JUMP JUMPDEST SWAP3 SWAP2 POP POP JUMP JUMPDEST PUSH0 DUP1 REVERT JUMPDEST PUSH0 PUSH20 0xFFFFFFFFFFFFFFFFFFFFFFFFFFFFFFFFFFFFFFFF DUP3 AND SWAP1 POP SWAP2 SWAP1 POP JUMP JUMPDEST PUSH0 PUSH2 0x392 DUP3 PUSH2 0x369 JUMP JUMPDEST SWAP1 POP SWAP2 SWAP1 POP JUMP JUMPDEST PUSH2 0x3A2 DUP2 PUSH2 0x388 JUMP JUMPDEST DUP2 EQ PUSH2 0x3AC JUMPI PUSH0 DUP1 REVERT JUMPDEST POP JUMP JUMPDEST PUSH0 DUP2 CALLDATALOAD SWAP1 POP PUSH2 0x3BD DUP2 PUSH2 0x399 JUMP JUMPDEST SWAP3 SWAP2 POP POP JUMP JUMPDEST PUSH0 PUSH1 0x20 DUP3 DUP5 SUB SLT ISZERO PUSH2 0x3D8 JUMPI PUSH2 0x3D7 PUSH2 0x365 JUMP JUMPDEST JUMPDEST PUSH0 PUSH2 0x3E5 DUP5 DUP3 DUP6 ADD PUSH2 0x3AF JUMP JUMPDEST SWAP2 POP POP SWAP3 SWAP2 POP POP JUMP JUMPDEST PUSH0 PUSH2 0x3F8 DUP3 PUSH2 0x369 JUMP JUMPDEST SWAP1 POP SWAP2 SWAP1 POP JUMP JUMPDEST PUSH2 0x408 DUP2 PUSH2 0x3EE JUMP JUMPDEST DUP3 MSTORE POP POP JUMP JUMPDEST PUSH0 PUSH1 0x20 DUP3 ADD SWAP1 POP PUSH2 0x421 PUSH0 DUP4 ADD DUP5 PUSH2 0x3FF JUMP JUMPDEST SWAP3 SWAP2 POP POP JUMP JUMPDEST PUSH0 DUP3 DUP3 MSTORE PUSH1 0x20 DUP3 ADD SWAP1 POP SWAP3 SWAP2 POP POP JUMP JUMPDEST PUSH32 0x6E6F7420616E206F776E65722100000000000000000000000000000000000000 PUSH0 DUP3 ADD MSTORE POP JUMP JUMPDEST PUSH0 PUSH2 0x46B PUSH1 0xD DUP4 PUSH2 0x427 JUMP JUMPDEST SWAP2 POP PUSH2 0x476 DUP3 PUSH2 0x437 JUMP JUMPDEST PUSH1 0x20 DUP3 ADD SWAP1 POP SWAP2 SWAP1 POP JUMP JUMPDEST PUSH0 PUSH1 0x20 DUP3 ADD SWAP1 POP DUP2 DUP2 SUB PUSH0 DUP4 ADD MSTORE PUSH2 0x498 DUP2 PUSH2 0x45F JUMP JUMPDEST SWAP1 POP SWAP2 SWAP1 POP JUMP JUMPDEST PUSH32 0x63616E3B74207A6F726520616464726573730000000000000000000000000000 PUSH0 DUP3 ADD MSTORE POP JUMP JUMPDEST PUSH0 PUSH2 0x4D3 PUSH1 0x12 DUP4 PUSH2 0x427 JUMP JUMPDEST SWAP2 POP PUSH2 0x4DE DUP3 PUSH2 0x49F JUMP JUMPDEST PUSH1 0x20 DUP3 ADD SWAP1 POP SWAP2 SWAP1 POP JUMP JUMPDEST PUSH0 PUSH1 0x20 DUP3 ADD SWAP1 POP DUP2 DUP2 SUB PUSH0 DUP4 ADD MSTORE PUSH2 0x500 DUP2 PUSH2 0x4C7 JUMP JUMPDEST SWAP1 POP SWAP2 SWAP1 POP JUMP INVALID LOG2 PUSH5 0x6970667358 0x22 SLT KECCAK256 0xC9 DUP12 SSTORE 0x24 MUL 0xE4 DUP10 MLOAD PUSH6 0xF65B30820533 DUP15 SHR 0xE6 PUSH25 0x6573281D18F047D5DD7B13F1F064736F6C6343000816003300 "
				},
				"gasEstimates": {
					"creation": {
						"codeDepositCost": "268200",
						"executionCost": "24619",
						"totalCost": "292819"
					},
					"external": {
						"getBalance()": "2573",
						"owner()": "2527",
						"withdrow(address)": "infinite"
					}
				},
				"methodIdentifiers": {
					"getBalance()": "12065fe0",
					"owner()": "8da5cb5b",
					"withdrow(address)": "72593831"
				}
			},
			"storageLayout": {
				"storage": [
					{
						"astId": 3,
						"contract": "Demo.sol:Demo",
						"label": "owner",
						"offset": 0,
						"slot": "0",
						"type": "t_address"
					}
				],
				"types": {
					"t_address": {
						"encoding": "inplace",
						"label": "address",
						"numberOfBytes": "20"
					}
				}
			},
			"userdoc": {
				"kind": "user",
				"methods": {},
				"version": 1
			}
		}
	}
}