{
	"data": {
		"bytecode": {
			"linkReferences": {},
			"object": "6080604052735b38da6a701c568545dcfcb03fcb875f56beddc45f806101000a81548173ffffffffffffffffffffffffffffffffffffffff021916908373ffffffffffffffffffffffffffffffffffffffff1602179055506040518060400160405280600481526020017f7465737400000000000000000000000000000000000000000000000000000000815250600290816200009d919062000315565b50348015620000aa575f80fd5b50620003f9565b5f81519050919050565b7f4e487b71000000000000000000000000000000000000000000000000000000005f52604160045260245ffd5b7f4e487b71000000000000000000000000000000000000000000000000000000005f52602260045260245ffd5b5f60028204905060018216806200012d57607f821691505b602082108103620001435762000142620000e8565b5b50919050565b5f819050815f5260205f209050919050565b5f6020601f8301049050919050565b5f82821b905092915050565b5f60088302620001a77fffffffffffffffffffffffffffffffffffffffffffffffffffffffffffffffff826200016a565b620001b386836200016a565b95508019841693508086168417925050509392505050565b5f819050919050565b5f819050919050565b5f620001fd620001f7620001f184620001cb565b620001d4565b620001cb565b9050919050565b5f819050919050565b6200021883620001dd565b62000230620002278262000204565b84845462000176565b825550505050565b5f90565b6200024662000238565b620002538184846200020d565b505050565b5b818110156200027a576200026e5f826200023c565b60018101905062000259565b5050565b601f821115620002c957620002938162000149565b6200029e846200015b565b81016020851015620002ae578190505b620002c6620002bd856200015b565b83018262000258565b50505b505050565b5f82821c905092915050565b5f620002eb5f1984600802620002ce565b1980831691505092915050565b5f620003058383620002da565b9150826002028217905092915050565b6200032082620000b1565b67ffffffffffffffff8111156200033c576200033b620000bb565b5b62000348825462000115565b620003558282856200027e565b5f60209050601f8311600181146200038b575f841562000376578287015190505b620003828582620002f8565b865550620003f1565b601f1984166200039b8662000149565b5f5b82811015620003c4578489015182556001820191506020850194506020810190506200039d565b86831015620003e45784890151620003e0601f891682620002da565b8355505b6001600288020188555050505b505050505050565b610a0380620004075f395ff3fe60806040526004361061006e575f3560e01c8063939a79ac1161004d578063939a79ac146100ce578063e2982c21146100f6578063e665b26614610132578063f8b2cb4f1461015c5761006e565b80625c33e1146100725780632ccb1b301461007c5780635a455c1c146100a4575b5f80fd5b61007a610198565b005b348015610087575f80fd5b506100a2600480360381019061009d91906103f3565b6101dc565b005b3480156100af575f80fd5b506100b8610224565b6040516100c591906104bb565b60405180910390f35b3480156100d9575f80fd5b506100f460048036038101906100ef9190610607565b6102b0565b005b348015610101575f80fd5b5061011c60048036038101906101179190610689565b6102fd565b60405161012991906106c3565b60405180910390f35b34801561013d575f80fd5b50610146610312565b60405161015391906106eb565b60405180910390f35b348015610167575f80fd5b50610182600480360381019061017d9190610689565b610335565b60405161018f91906106c3565b60405180910390f35b3460015f3373ffffffffffffffffffffffffffffffffffffffff1673ffffffffffffffffffffffffffffffffffffffff1681526020019081526020015f2081905550565b8173ffffffffffffffffffffffffffffffffffffffff166108fc8290811502906040515f60405180830381858888f1935050505015801561021f573d5f803e3d5ffd5b505050565b6002805461023190610731565b80601f016020809104026020016040519081016040528092919081815260200182805461025d90610731565b80156102a85780601f1061027f576101008083540402835291602001916102a8565b820191905f5260205f20905b81548152906001019060200180831161028b57829003601f168201915b505050505081565b5f6040518060400160405280600481526020017f74656d7000000000000000000000000000000000000000000000000000000000815250905081600290816102f891906108fe565b505050565b6001602052805f5260405f205f915090505481565b5f8054906101000a900473ffffffffffffffffffffffffffffffffffffffff1681565b5f8173ffffffffffffffffffffffffffffffffffffffff16319050919050565b5f604051905090565b5f80fd5b5f80fd5b5f73ffffffffffffffffffffffffffffffffffffffff82169050919050565b5f61038f82610366565b9050919050565b61039f81610385565b81146103a9575f80fd5b50565b5f813590506103ba81610396565b92915050565b5f819050919050565b6103d2816103c0565b81146103dc575f80fd5b50565b5f813590506103ed816103c9565b92915050565b5f80604083850312156104095761040861035e565b5b5f610416858286016103ac565b9250506020610427858286016103df565b9150509250929050565b5f81519050919050565b5f82825260208201905092915050565b5f5b8381101561046857808201518184015260208101905061044d565b5f8484015250505050565b5f601f19601f8301169050919050565b5f61048d82610431565b610497818561043b565b93506104a781856020860161044b565b6104b081610473565b840191505092915050565b5f6020820190508181035f8301526104d38184610483565b905092915050565b5f80fd5b5f80fd5b7f4e487b71000000000000000000000000000000000000000000000000000000005f52604160045260245ffd5b61051982610473565b810181811067ffffffffffffffff82111715610538576105376104e3565b5b80604052505050565b5f61054a610355565b90506105568282610510565b919050565b5f67ffffffffffffffff821115610575576105746104e3565b5b61057e82610473565b9050602081019050919050565b828183375f83830152505050565b5f6105ab6105a68461055b565b610541565b9050828152602081018484840111156105c7576105c66104df565b5b6105d284828561058b565b509392505050565b5f82601f8301126105ee576105ed6104db565b5b81356105fe848260208601610599565b91505092915050565b5f6020828403121561061c5761061b61035e565b5b5f82013567ffffffffffffffff81111561063957610638610362565b5b610645848285016105da565b91505092915050565b5f61065882610366565b9050919050565b6106688161064e565b8114610672575f80fd5b50565b5f813590506106838161065f565b92915050565b5f6020828403121561069e5761069d61035e565b5b5f6106ab84828501610675565b91505092915050565b6106bd816103c0565b82525050565b5f6020820190506106d65f8301846106b4565b92915050565b6106e58161064e565b82525050565b5f6020820190506106fe5f8301846106dc565b92915050565b7f4e487b71000000000000000000000000000000000000000000000000000000005f52602260045260245ffd5b5f600282049050600182168061074857607f821691505b60208210810361075b5761075a610704565b5b50919050565b5f819050815f5260205f209050919050565b5f6020601f8301049050919050565b5f82821b905092915050565b5f600883026107bd7fffffffffffffffffffffffffffffffffffffffffffffffffffffffffffffffff82610782565b6107c78683610782565b95508019841693508086168417925050509392505050565b5f819050919050565b5f6108026107fd6107f8846103c0565b6107df565b6103c0565b9050919050565b5f819050919050565b61081b836107e8565b61082f61082782610809565b84845461078e565b825550505050565b5f90565b610843610837565b61084e818484610812565b505050565b5b81811015610871576108665f8261083b565b600181019050610854565b5050565b601f8211156108b65761088781610761565b61089084610773565b8101602085101561089f578190505b6108b36108ab85610773565b830182610853565b50505b505050565b5f82821c905092915050565b5f6108d65f19846008026108bb565b1980831691505092915050565b5f6108ee83836108c7565b9150826002028217905092915050565b61090782610431565b67ffffffffffffffff8111156109205761091f6104e3565b5b61092a8254610731565b610935828285610875565b5f60209050601f831160018114610966575f8415610954578287015190505b61095e85826108e3565b8655506109c5565b601f19841661097486610761565b5f5b8281101561099b57848901518255600182019150602085019450602081019050610976565b868310156109b857848901516109b4601f8916826108c7565b8355505b6001600288020188555050505b50505050505056fea2646970667358221220d13cfa336cf619bc657573459720f428987021dcc3d7f0db7307675ac7b30dbc64736f6c63430008160033",
			"opcodes": "PUSH1 0x80 PUSH1 0x40 MSTORE PUSH20 0x5B38DA6A701C568545DCFCB03FCB875F56BEDDC4 PUSH0 DUP1 PUSH2 0x100 EXP DUP2 SLOAD DUP2 PUSH20 0xFFFFFFFFFFFFFFFFFFFFFFFFFFFFFFFFFFFFFFFF MUL NOT AND SWAP1 DUP4 PUSH20 0xFFFFFFFFFFFFFFFFFFFFFFFFFFFFFFFFFFFFFFFF AND MUL OR SWAP1 SSTORE POP PUSH1 0x40 MLOAD DUP1 PUSH1 0x40 ADD PUSH1 0x40 MSTORE DUP1 PUSH1 0x4 DUP2 MSTORE PUSH1 0x20 ADD PUSH32 0x7465737400000000000000000000000000000000000000000000000000000000 DUP2 MSTORE POP PUSH1 0x2 SWAP1 DUP2 PUSH3 0x9D SWAP2 SWAP1 PUSH3 0x315 JUMP JUMPDEST POP CALLVALUE DUP1 ISZERO PUSH3 0xAA JUMPI PUSH0 DUP1 REVERT JUMPDEST POP PUSH3 0x3F9 JUMP JUMPDEST PUSH0 DUP2 MLOAD SWAP1 POP SWAP2 SWAP1 POP JUMP JUMPDEST PUSH32 0x4E487B7100000000000000000000000000000000000000000000000000000000 PUSH0 MSTORE PUSH1 0x41 PUSH1 0x4 MSTORE PUSH1 0x24 PUSH0 REVERT JUMPDEST PUSH32 0x4E487B7100000000000000000000000000000000000000000000000000000000 PUSH0 MSTORE PUSH1 0x22 PUSH1 0x4 MSTORE PUSH1 0x24 PUSH0 REVERT JUMPDEST PUSH0 PUSH1 0x2 DUP3 DIV SWAP1 POP PUSH1 0x1 DUP3 AND DUP1 PUSH3 0x12D JUMPI PUSH1 0x7F DUP3 AND SWAP2 POP JUMPDEST PUSH1 0x20 DUP3 LT DUP2 SUB PUSH3 0x143 JUMPI PUSH3 0x142 PUSH3 0xE8 JUMP JUMPDEST JUMPDEST POP SWAP2 SWAP1 POP JUMP JUMPDEST PUSH0 DUP2 SWAP1 POP DUP2 PUSH0 MSTORE PUSH1 0x20 PUSH0 KECCAK256 SWAP1 POP SWAP2 SWAP1 POP JUMP JUMPDEST PUSH0 PUSH1 0x20 PUSH1 0x1F DUP4 ADD DIV SWAP1 POP SWAP2 SWAP1 POP JUMP JUMPDEST PUSH0 DUP3 DUP3 SHL SWAP1 POP SWAP3 SWAP2 POP POP JUMP JUMPDEST PUSH0 PUSH1 0x8 DUP4 MUL PUSH3 0x1A7 PUSH32 0xFFFFFFFFFFFFFFFFFFFFFFFFFFFFFFFFFFFFFFFFFFFFFFFFFFFFFFFFFFFFFFFF DUP3 PUSH3 0x16A JUMP JUMPDEST PUSH3 0x1B3 DUP7 DUP4 PUSH3 0x16A JUMP JUMPDEST SWAP6 POP DUP1 NOT DUP5 AND SWAP4 POP DUP1 DUP7 AND DUP5 OR SWAP3 POP POP POP SWAP4 SWAP3 POP POP POP JUMP JUMPDEST PUSH0 DUP2 SWAP1 POP SWAP2 SWAP1 POP JUMP JUMPDEST PUSH0 DUP2 SWAP1 POP SWAP2 SWAP1 POP JUMP JUMPDEST PUSH0 PUSH3 0x1FD PUSH3 0x1F7 PUSH3 0x1F1 DUP5 PUSH3 0x1CB JUMP JUMPDEST PUSH3 0x1D4 JUMP JUMPDEST PUSH3 0x1CB JUMP JUMPDEST SWAP1 POP SWAP2 SWAP1 POP JUMP JUMPDEST PUSH0 DUP2 SWAP1 POP SWAP2 SWAP1 POP JUMP JUMPDEST PUSH3 0x218 DUP4 PUSH3 0x1DD JUMP JUMPDEST PUSH3 0x230 PUSH3 0x227 DUP3 PUSH3 0x204 JUMP JUMPDEST DUP5 DUP5 SLOAD PUSH3 0x176 JUMP JUMPDEST DUP3 SSTORE POP POP POP POP JUMP JUMPDEST PUSH0 SWAP1 JUMP JUMPDEST PUSH3 0x246 PUSH3 0x238 JUMP JUMPDEST PUSH3 0x253 DUP2 DUP5 DUP5 PUSH3 0x20D JUMP JUMPDEST POP POP POP JUMP JUMPDEST JUMPDEST DUP2 DUP2 LT ISZERO PUSH3 0x27A JUMPI PUSH3 0x26E PUSH0 DUP3 PUSH3 0x23C JUMP JUMPDEST PUSH1 0x1 DUP2 ADD SWAP1 POP PUSH3 0x259 JUMP JUMPDEST POP POP JUMP JUMPDEST PUSH1 0x1F DUP3 GT ISZERO PUSH3 0x2C9 JUMPI PUSH3 0x293 DUP2 PUSH3 0x149 JUMP JUMPDEST PUSH3 0x29E DUP5 PUSH3 0x15B JUMP JUMPDEST DUP2 ADD PUSH1 0x20 DUP6 LT ISZERO PUSH3 0x2AE JUMPI DUP2 SWAP1 POP JUMPDEST PUSH3 0x2C6 PUSH3 0x2BD DUP6 PUSH3 0x15B JUMP JUMPDEST DUP4 ADD DUP3 PUSH3 0x258 JUMP JUMPDEST POP POP JUMPDEST POP POP POP JUMP JUMPDEST PUSH0 DUP3 DUP3 SHR SWAP1 POP SWAP3 SWAP2 POP POP JUMP JUMPDEST PUSH0 PUSH3 0x2EB PUSH0 NOT DUP5 PUSH1 0x8 MUL PUSH3 0x2CE JUMP JUMPDEST NOT DUP1 DUP4 AND SWAP2 POP POP SWAP3 SWAP2 POP POP JUMP JUMPDEST PUSH0 PUSH3 0x305 DUP4 DUP4 PUSH3 0x2DA JUMP JUMPDEST SWAP2 POP DUP3 PUSH1 0x2 MUL DUP3 OR SWAP1 POP SWAP3 SWAP2 POP POP JUMP JUMPDEST PUSH3 0x320 DUP3 PUSH3 0xB1 JUMP JUMPDEST PUSH8 0xFFFFFFFFFFFFFFFF DUP2 GT ISZERO PUSH3 0x33C JUMPI PUSH3 0x33B PUSH3 0xBB JUMP JUMPDEST JUMPDEST PUSH3 0x348 DUP3 SLOAD PUSH3 0x115 JUMP JUMPDEST PUSH3 0x355 DUP3 DUP3 DUP6 PUSH3 0x27E JUMP JUMPDEST PUSH0 PUSH1 0x20 SWAP1 POP PUSH1 0x1F DUP4 GT PUSH1 0x1 DUP2 EQ PUSH3 0x38B JUMPI PUSH0 DUP5 ISZERO PUSH3 0x376 JUMPI DUP3 DUP8 ADD MLOAD SWAP1 POP JUMPDEST PUSH3 0x382 DUP6 DUP3 PUSH3 0x2F8 JUMP JUMPDEST DUP7 SSTORE POP PUSH3 0x3F1 JUMP JUMPDEST PUSH1 0x1F NOT DUP5 AND PUSH3 0x39B DUP7 PUSH3 0x149 JUMP JUMPDEST PUSH0 JUMPDEST DUP3 DUP2 LT ISZERO PUSH3 0x3C4 JUMPI DUP5 DUP10 ADD MLOAD DUP3 SSTORE PUSH1 0x1 DUP3 ADD SWAP2 POP PUSH1 0x20 DUP6 ADD SWAP5 POP PUSH1 0x20 DUP2 ADD SWAP1 POP PUSH3 0x39D JUMP JUMPDEST DUP7 DUP4 LT ISZERO PUSH3 0x3E4 JUMPI DUP5 DUP10 ADD MLOAD PUSH3 0x3E0 PUSH1 0x1F DUP10 AND DUP3 PUSH3 0x2DA JUMP JUMPDEST DUP4 SSTORE POP JUMPDEST PUSH1 0x1 PUSH1 0x2 DUP9 MUL ADD DUP9 SSTORE POP POP POP JUMPDEST POP POP POP POP POP POP JUMP JUMPDEST PUSH2 0xA03 DUP1 PUSH3 0x407 PUSH0 CODECOPY PUSH0 RETURN INVALID PUSH1 0x80 PUSH1 0x40 MSTORE PUSH1 0x4 CALLDATASIZE LT PUSH2 0x6E JUMPI PUSH0 CALLDATALOAD PUSH1 0xE0 SHR DUP1 PUSH4 0x939A79AC GT PUSH2 0x4D JUMPI DUP1 PUSH4 0x939A79AC EQ PUSH2 0xCE JUMPI DUP1 PUSH4 0xE2982C21 EQ PUSH2 0xF6 JUMPI DUP1 PUSH4 0xE665B266 EQ PUSH2 0x132 JUMPI DUP1 PUSH4 0xF8B2CB4F EQ PUSH2 0x15C JUMPI PUSH2 0x6E JUMP JUMPDEST DUP1 PUSH3 0x5C33E1 EQ PUSH2 0x72 JUMPI DUP1 PUSH4 0x2CCB1B30 EQ PUSH2 0x7C JUMPI DUP1 PUSH4 0x5A455C1C EQ PUSH2 0xA4 JUMPI JUMPDEST PUSH0 DUP1 REVERT JUMPDEST PUSH2 0x7A PUSH2 0x198 JUMP JUMPDEST STOP JUMPDEST CALLVALUE DUP1 ISZERO PUSH2 0x87 JUMPI PUSH0 DUP1 REVERT JUMPDEST POP PUSH2 0xA2 PUSH1 0x4 DUP1 CALLDATASIZE SUB DUP2 ADD SWAP1 PUSH2 0x9D SWAP2 SWAP1 PUSH2 0x3F3 JUMP JUMPDEST PUSH2 0x1DC JUMP JUMPDEST STOP JUMPDEST CALLVALUE DUP1 ISZERO PUSH2 0xAF JUMPI PUSH0 DUP1 REVERT JUMPDEST POP PUSH2 0xB8 PUSH2 0x224 JUMP JUMPDEST PUSH1 0x40 MLOAD PUSH2 0xC5 SWAP2 SWAP1 PUSH2 0x4BB JUMP JUMPDEST PUSH1 0x40 MLOAD DUP1 SWAP2 SUB SWAP1 RETURN JUMPDEST CALLVALUE DUP1 ISZERO PUSH2 0xD9 JUMPI PUSH0 DUP1 REVERT JUMPDEST POP PUSH2 0xF4 PUSH1 0x4 DUP1 CALLDATASIZE SUB DUP2 ADD SWAP1 PUSH2 0xEF SWAP2 SWAP1 PUSH2 0x607 JUMP JUMPDEST PUSH2 0x2B0 JUMP JUMPDEST STOP JUMPDEST CALLVALUE DUP1 ISZERO PUSH2 0x101 JUMPI PUSH0 DUP1 REVERT JUMPDEST POP PUSH2 0x11C PUSH1 0x4 DUP1 CALLDATASIZE SUB DUP2 ADD SWAP1 PUSH2 0x117 SWAP2 SWAP1 PUSH2 0x689 JUMP JUMPDEST PUSH2 0x2FD JUMP JUMPDEST PUSH1 0x40 MLOAD PUSH2 0x129 SWAP2 SWAP1 PUSH2 0x6C3 JUMP JUMPDEST PUSH1 0x40 MLOAD DUP1 SWAP2 SUB SWAP1 RETURN JUMPDEST CALLVALUE DUP1 ISZERO PUSH2 0x13D JUMPI PUSH0 DUP1 REVERT JUMPDEST POP PUSH2 0x146 PUSH2 0x312 JUMP JUMPDEST PUSH1 0x40 MLOAD PUSH2 0x153 SWAP2 SWAP1 PUSH2 0x6EB JUMP JUMPDEST PUSH1 0x40 MLOAD DUP1 SWAP2 SUB SWAP1 RETURN JUMPDEST CALLVALUE DUP1 ISZERO PUSH2 0x167 JUMPI PUSH0 DUP1 REVERT JUMPDEST POP PUSH2 0x182 PUSH1 0x4 DUP1 CALLDATASIZE SUB DUP2 ADD SWAP1 PUSH2 0x17D SWAP2 SWAP1 PUSH2 0x689 JUMP JUMPDEST PUSH2 0x335 JUMP JUMPDEST PUSH1 0x40 MLOAD PUSH2 0x18F SWAP2 SWAP1 PUSH2 0x6C3 JUMP JUMPDEST PUSH1 0x40 MLOAD DUP1 SWAP2 SUB SWAP1 RETURN JUMPDEST CALLVALUE PUSH1 0x1 PUSH0 CALLER PUSH20 0xFFFFFFFFFFFFFFFFFFFFFFFFFFFFFFFFFFFFFFFF AND PUSH20 0xFFFFFFFFFFFFFFFFFFFFFFFFFFFFFFFFFFFFFFFF AND DUP2 MSTORE PUSH1 0x20 ADD SWAP1 DUP2 MSTORE PUSH1 0x20 ADD PUSH0 KECCAK256 DUP2 SWAP1 SSTORE POP JUMP JUMPDEST DUP2 PUSH20 0xFFFFFFFFFFFFFFFFFFFFFFFFFFFFFFFFFFFFFFFF AND PUSH2 0x8FC DUP3 SWAP1 DUP2 ISZERO MUL SWAP1 PUSH1 0x40 MLOAD PUSH0 PUSH1 0x40 MLOAD DUP1 DUP4 SUB DUP2 DUP6 DUP9 DUP9 CALL SWAP4 POP POP POP POP ISZERO DUP1 ISZERO PUSH2 0x21F JUMPI RETURNDATASIZE PUSH0 DUP1 RETURNDATACOPY RETURNDATASIZE PUSH0 REVERT JUMPDEST POP POP POP JUMP JUMPDEST PUSH1 0x2 DUP1 SLOAD PUSH2 0x231 SWAP1 PUSH2 0x731 JUMP JUMPDEST DUP1 PUSH1 0x1F ADD PUSH1 0x20 DUP1 SWAP2 DIV MUL PUSH1 0x20 ADD PUSH1 0x40 MLOAD SWAP1 DUP2 ADD PUSH1 0x40 MSTORE DUP1 SWAP3 SWAP2 SWAP1 DUP2 DUP2 MSTORE PUSH1 0x20 ADD DUP3 DUP1 SLOAD PUSH2 0x25D SWAP1 PUSH2 0x731 JUMP JUMPDEST DUP1 ISZERO PUSH2 0x2A8 JUMPI DUP1 PUSH1 0x1F LT PUSH2 0x27F JUMPI PUSH2 0x100 DUP1 DUP4 SLOAD DIV MUL DUP4 MSTORE SWAP2 PUSH1 0x20 ADD SWAP2 PUSH2 0x2A8 JUMP JUMPDEST DUP3 ADD SWAP2 SWAP1 PUSH0 MSTORE PUSH1 0x20 PUSH0 KECCAK256 SWAP1 JUMPDEST DUP2 SLOAD DUP2 MSTORE SWAP1 PUSH1 0x1 ADD SWAP1 PUSH1 0x20 ADD DUP1 DUP4 GT PUSH2 0x28B JUMPI DUP3 SWAP1 SUB PUSH1 0x1F AND DUP3 ADD SWAP2 JUMPDEST POP POP POP POP POP DUP2 JUMP JUMPDEST PUSH0 PUSH1 0x40 MLOAD DUP1 PUSH1 0x40 ADD PUSH1 0x40 MSTORE DUP1 PUSH1 0x4 DUP2 MSTORE PUSH1 0x20 ADD PUSH32 0x74656D7000000000000000000000000000000000000000000000000000000000 DUP2 MSTORE POP SWAP1 POP DUP2 PUSH1 0x2 SWAP1 DUP2 PUSH2 0x2F8 SWAP2 SWAP1 PUSH2 0x8FE JUMP JUMPDEST POP POP POP JUMP JUMPDEST PUSH1 0x1 PUSH1 0x20 MSTORE DUP1 PUSH0 MSTORE PUSH1 0x40 PUSH0 KECCAK256 PUSH0 SWAP2 POP SWAP1 POP SLOAD DUP2 JUMP JUMPDEST PUSH0 DUP1 SLOAD SWAP1 PUSH2 0x100 EXP SWAP1 DIV PUSH20 0xFFFFFFFFFFFFFFFFFFFFFFFFFFFFFFFFFFFFFFFF AND DUP2 JUMP JUMPDEST PUSH0 DUP2 PUSH20 0xFFFFFFFFFFFFFFFFFFFFFFFFFFFFFFFFFFFFFFFF AND BALANCE SWAP1 POP SWAP2 SWAP1 POP JUMP JUMPDEST PUSH0 PUSH1 0x40 MLOAD SWAP1 POP SWAP1 JUMP JUMPDEST PUSH0 DUP1 REVERT JUMPDEST PUSH0 DUP1 REVERT JUMPDEST PUSH0 PUSH20 0xFFFFFFFFFFFFFFFFFFFFFFFFFFFFFFFFFFFFFFFF DUP3 AND SWAP1 POP SWAP2 SWAP1 POP JUMP JUMPDEST PUSH0 PUSH2 0x38F DUP3 PUSH2 0x366 JUMP JUMPDEST SWAP1 POP SWAP2 SWAP1 POP JUMP JUMPDEST PUSH2 0x39F DUP2 PUSH2 0x385 JUMP JUMPDEST DUP2 EQ PUSH2 0x3A9 JUMPI PUSH0 DUP1 REVERT JUMPDEST POP JUMP JUMPDEST PUSH0 DUP2 CALLDATALOAD SWAP1 POP PUSH2 0x3BA DUP2 PUSH2 0x396 JUMP JUMPDEST SWAP3 SWAP2 POP POP JUMP JUMPDEST PUSH0 DUP2 SWAP1 POP SWAP2 SWAP1 POP JUMP JUMPDEST PUSH2 0x3D2 DUP2 PUSH2 0x3C0 JUMP JUMPDEST DUP2 EQ PUSH2 0x3DC JUMPI PUSH0 DUP1 REVERT JUMPDEST POP JUMP JUMPDEST PUSH0 DUP2 CALLDATALOAD SWAP1 POP PUSH2 0x3ED DUP2 PUSH2 0x3C9 JUMP JUMPDEST SWAP3 SWAP2 POP POP JUMP JUMPDEST PUSH0 DUP1 PUSH1 0x40 DUP4 DUP6 SUB SLT ISZERO PUSH2 0x409 JUMPI PUSH2 0x408 PUSH2 0x35E JUMP JUMPDEST JUMPDEST PUSH0 PUSH2 0x416 DUP6 DUP3 DUP7 ADD PUSH2 0x3AC JUMP JUMPDEST SWAP3 POP POP PUSH1 0x20 PUSH2 0x427 DUP6 DUP3 DUP7 ADD PUSH2 0x3DF JUMP JUMPDEST SWAP2 POP POP SWAP3 POP SWAP3 SWAP1 POP JUMP JUMPDEST PUSH0 DUP2 MLOAD SWAP1 POP SWAP2 SWAP1 POP JUMP JUMPDEST PUSH0 DUP3 DUP3 MSTORE PUSH1 0x20 DUP3 ADD SWAP1 POP SWAP3 SWAP2 POP POP JUMP JUMPDEST PUSH0 JUMPDEST DUP4 DUP2 LT ISZERO PUSH2 0x468 JUMPI DUP1 DUP3 ADD MLOAD DUP2 DUP5 ADD MSTORE PUSH1 0x20 DUP2 ADD SWAP1 POP PUSH2 0x44D JUMP JUMPDEST PUSH0 DUP5 DUP5 ADD MSTORE POP POP POP POP JUMP JUMPDEST PUSH0 PUSH1 0x1F NOT PUSH1 0x1F DUP4 ADD AND SWAP1 POP SWAP2 SWAP1 POP JUMP JUMPDEST PUSH0 PUSH2 0x48D DUP3 PUSH2 0x431 JUMP JUMPDEST PUSH2 0x497 DUP2 DUP6 PUSH2 0x43B JUMP JUMPDEST SWAP4 POP PUSH2 0x4A7 DUP2 DUP6 PUSH1 0x20 DUP7 ADD PUSH2 0x44B JUMP JUMPDEST PUSH2 0x4B0 DUP2 PUSH2 0x473 JUMP JUMPDEST DUP5 ADD SWAP2 POP POP SWAP3 SWAP2 POP POP JUMP JUMPDEST PUSH0 PUSH1 0x20 DUP3 ADD SWAP1 POP DUP2 DUP2 SUB PUSH0 DUP4 ADD MSTORE PUSH2 0x4D3 DUP2 DUP5 PUSH2 0x483 JUMP JUMPDEST SWAP1 POP SWAP3 SWAP2 POP POP JUMP JUMPDEST PUSH0 DUP1 REVERT JUMPDEST PUSH0 DUP1 REVERT JUMPDEST PUSH32 0x4E487B7100000000000000000000000000000000000000000000000000000000 PUSH0 MSTORE PUSH1 0x41 PUSH1 0x4 MSTORE PUSH1 0x24 PUSH0 REVERT JUMPDEST PUSH2 0x519 DUP3 PUSH2 0x473 JUMP JUMPDEST DUP2 ADD DUP2 DUP2 LT PUSH8 0xFFFFFFFFFFFFFFFF DUP3 GT OR ISZERO PUSH2 0x538 JUMPI PUSH2 0x537 PUSH2 0x4E3 JUMP JUMPDEST JUMPDEST DUP1 PUSH1 0x40 MSTORE POP POP POP JUMP JUMPDEST PUSH0 PUSH2 0x54A PUSH2 0x355 JUMP JUMPDEST SWAP1 POP PUSH2 0x556 DUP3 DUP3 PUSH2 0x510 JUMP JUMPDEST SWAP2 SWAP1 POP JUMP JUMPDEST PUSH0 PUSH8 0xFFFFFFFFFFFFFFFF DUP3 GT ISZERO PUSH2 0x575 JUMPI PUSH2 0x574 PUSH2 0x4E3 JUMP JUMPDEST JUMPDEST PUSH2 0x57E DUP3 PUSH2 0x473 JUMP JUMPDEST SWAP1 POP PUSH1 0x20 DUP2 ADD SWAP1 POP SWAP2 SWAP1 POP JUMP JUMPDEST DUP3 DUP2 DUP4 CALLDATACOPY PUSH0 DUP4 DUP4 ADD MSTORE POP POP POP JUMP JUMPDEST PUSH0 PUSH2 0x5AB PUSH2 0x5A6 DUP5 PUSH2 0x55B JUMP JUMPDEST PUSH2 0x541 JUMP JUMPDEST SWAP1 POP DUP3 DUP2 MSTORE PUSH1 0x20 DUP2 ADD DUP5 DUP5 DUP5 ADD GT ISZERO PUSH2 0x5C7 JUMPI PUSH2 0x5C6 PUSH2 0x4DF JUMP JUMPDEST JUMPDEST PUSH2 0x5D2 DUP5 DUP3 DUP6 PUSH2 0x58B JUMP JUMPDEST POP SWAP4 SWAP3 POP POP POP JUMP JUMPDEST PUSH0 DUP3 PUSH1 0x1F DUP4 ADD SLT PUSH2 0x5EE JUMPI PUSH2 0x5ED PUSH2 0x4DB JUMP JUMPDEST JUMPDEST DUP2 CALLDATALOAD PUSH2 0x5FE DUP5 DUP3 PUSH1 0x20 DUP7 ADD PUSH2 0x599 JUMP JUMPDEST SWAP2 POP POP SWAP3 SWAP2 POP POP JUMP JUMPDEST PUSH0 PUSH1 0x20 DUP3 DUP5 SUB SLT ISZERO PUSH2 0x61C JUMPI PUSH2 0x61B PUSH2 0x35E JUMP JUMPDEST JUMPDEST PUSH0 DUP3 ADD CALLDATALOAD PUSH8 0xFFFFFFFFFFFFFFFF DUP2 GT ISZERO PUSH2 0x639 JUMPI PUSH2 0x638 PUSH2 0x362 JUMP JUMPDEST JUMPDEST PUSH2 0x645 DUP5 DUP3 DUP6 ADD PUSH2 0x5DA JUMP JUMPDEST SWAP2 POP POP SWAP3 SWAP2 POP POP JUMP JUMPDEST PUSH0 PUSH2 0x658 DUP3 PUSH2 0x366 JUMP JUMPDEST SWAP1 POP SWAP2 SWAP1 POP JUMP JUMPDEST PUSH2 0x668 DUP2 PUSH2 0x64E JUMP JUMPDEST DUP2 EQ PUSH2 0x672 JUMPI PUSH0 DUP1 REVERT JUMPDEST POP JUMP JUMPDEST PUSH0 DUP2 CALLDATALOAD SWAP1 POP PUSH2 0x683 DUP2 PUSH2 0x65F JUMP JUMPDEST SWAP3 SWAP2 POP POP JUMP JUMPDEST PUSH0 PUSH1 0x20 DUP3 DUP5 SUB SLT ISZERO PUSH2 0x69E JUMPI PUSH2 0x69D PUSH2 0x35E JUMP JUMPDEST JUMPDEST PUSH0 PUSH2 0x6AB DUP5 DUP3 DUP6 ADD PUSH2 0x675 JUMP JUMPDEST SWAP2 POP POP SWAP3 SWAP2 POP POP JUMP JUMPDEST PUSH2 0x6BD DUP2 PUSH2 0x3C0 JUMP JUMPDEST DUP3 MSTORE POP POP JUMP JUMPDEST PUSH0 PUSH1 0x20 DUP3 ADD SWAP1 POP PUSH2 0x6D6 PUSH0 DUP4 ADD DUP5 PUSH2 0x6B4 JUMP JUMPDEST SWAP3 SWAP2 POP POP JUMP JUMPDEST PUSH2 0x6E5 DUP2 PUSH2 0x64E JUMP JUMPDEST DUP3 MSTORE POP POP JUMP JUMPDEST PUSH0 PUSH1 0x20 DUP3 ADD SWAP1 POP PUSH2 0x6FE PUSH0 DUP4 ADD DUP5 PUSH2 0x6DC JUMP JUMPDEST SWAP3 SWAP2 POP POP JUMP JUMPDEST PUSH32 0x4E487B7100000000000000000000000000000000000000000000000000000000 PUSH0 MSTORE PUSH1 0x22 PUSH1 0x4 MSTORE PUSH1 0x24 PUSH0 REVERT JUMPDEST PUSH0 PUSH1 0x2 DUP3 DIV SWAP1 POP PUSH1 0x1 DUP3 AND DUP1 PUSH2 0x748 JUMPI PUSH1 0x7F DUP3 AND SWAP2 POP JUMPDEST PUSH1 0x20 DUP3 LT DUP2 SUB PUSH2 0x75B JUMPI PUSH2 0x75A PUSH2 0x704 JUMP JUMPDEST JUMPDEST POP SWAP2 SWAP1 POP JUMP JUMPDEST PUSH0 DUP2 SWAP1 POP DUP2 PUSH0 MSTORE PUSH1 0x20 PUSH0 KECCAK256 SWAP1 POP SWAP2 SWAP1 POP JUMP JUMPDEST PUSH0 PUSH1 0x20 PUSH1 0x1F DUP4 ADD DIV SWAP1 POP SWAP2 SWAP1 POP JUMP JUMPDEST PUSH0 DUP3 DUP3 SHL SWAP1 POP SWAP3 SWAP2 POP POP JUMP JUMPDEST PUSH0 PUSH1 0x8 DUP4 MUL PUSH2 0x7BD PUSH32 0xFFFFFFFFFFFFFFFFFFFFFFFFFFFFFFFFFFFFFFFFFFFFFFFFFFFFFFFFFFFFFFFF DUP3 PUSH2 0x782 JUMP JUMPDEST PUSH2 0x7C7 DUP7 DUP4 PUSH2 0x782 JUMP JUMPDEST SWAP6 POP DUP1 NOT DUP5 AND SWAP4 POP DUP1 DUP7 AND DUP5 OR SWAP3 POP POP POP SWAP4 SWAP3 POP POP POP JUMP JUMPDEST PUSH0 DUP2 SWAP1 POP SWAP2 SWAP1 POP JUMP JUMPDEST PUSH0 PUSH2 0x802 PUSH2 0x7FD PUSH2 0x7F8 DUP5 PUSH2 0x3C0 JUMP JUMPDEST PUSH2 0x7DF JUMP JUMPDEST PUSH2 0x3C0 JUMP JUMPDEST SWAP1 POP SWAP2 SWAP1 POP JUMP JUMPDEST PUSH0 DUP2 SWAP1 POP SWAP2 SWAP1 POP JUMP JUMPDEST PUSH2 0x81B DUP4 PUSH2 0x7E8 JUMP JUMPDEST PUSH2 0x82F PUSH2 0x827 DUP3 PUSH2 0x809 JUMP JUMPDEST DUP5 DUP5 SLOAD PUSH2 0x78E JUMP JUMPDEST DUP3 SSTORE POP POP POP POP JUMP JUMPDEST PUSH0 SWAP1 JUMP JUMPDEST PUSH2 0x843 PUSH2 0x837 JUMP JUMPDEST PUSH2 0x84E DUP2 DUP5 DUP5 PUSH2 0x812 JUMP JUMPDEST POP POP POP JUMP JUMPDEST JUMPDEST DUP2 DUP2 LT ISZERO PUSH2 0x871 JUMPI PUSH2 0x866 PUSH0 DUP3 PUSH2 0x83B JUMP JUMPDEST PUSH1 0x1 DUP2 ADD SWAP1 POP PUSH2 0x854 JUMP JUMPDEST POP POP JUMP JUMPDEST PUSH1 0x1F DUP3 GT ISZERO PUSH2 0x8B6 JUMPI PUSH2 0x887 DUP2 PUSH2 0x761 JUMP JUMPDEST PUSH2 0x890 DUP5 PUSH2 0x773 JUMP JUMPDEST DUP2 ADD PUSH1 0x20 DUP6 LT ISZERO PUSH2 0x89F JUMPI DUP2 SWAP1 POP JUMPDEST PUSH2 0x8B3 PUSH2 0x8AB DUP6 PUSH2 0x773 JUMP JUMPDEST DUP4 ADD DUP3 PUSH2 0x853 JUMP JUMPDEST POP POP JUMPDEST POP POP POP JUMP JUMPDEST PUSH0 DUP3 DUP3 SHR SWAP1 POP SWAP3 SWAP2 POP POP JUMP JUMPDEST PUSH0 PUSH2 0x8D6 PUSH0 NOT DUP5 PUSH1 0x8 MUL PUSH2 0x8BB JUMP JUMPDEST NOT DUP1 DUP4 AND SWAP2 POP POP SWAP3 SWAP2 POP POP JUMP JUMPDEST PUSH0 PUSH2 0x8EE DUP4 DUP4 PUSH2 0x8C7 JUMP JUMPDEST SWAP2 POP DUP3 PUSH1 0x2 MUL DUP3 OR SWAP1 POP SWAP3 SWAP2 POP POP JUMP JUMPDEST PUSH2 0x907 DUP3 PUSH2 0x431 JUMP JUMPDEST PUSH8 0xFFFFFFFFFFFFFFFF DUP2 GT ISZERO PUSH2 0x920 JUMPI PUSH2 0x91F PUSH2 0x4E3 JUMP JUMPDEST JUMPDEST PUSH2 0x92A DUP3 SLOAD PUSH2 0x731 JUMP JUMPDEST PUSH2 0x935 DUP3 DUP3 DUP6 PUSH2 0x875 JUMP JUMPDEST PUSH0 PUSH1 0x20 SWAP1 POP PUSH1 0x1F DUP4 GT PUSH1 0x1 DUP2 EQ PUSH2 0x966 JUMPI PUSH0 DUP5 ISZERO PUSH2 0x954 JUMPI DUP3 DUP8 ADD MLOAD SWAP1 POP JUMPDEST PUSH2 0x95E DUP6 DUP3 PUSH2 0x8E3 JUMP JUMPDEST DUP7 SSTORE POP PUSH2 0x9C5 JUMP JUMPDEST PUSH1 0x1F NOT DUP5 AND PUSH2 0x974 DUP7 PUSH2 0x761 JUMP JUMPDEST PUSH0 JUMPDEST DUP3 DUP2 LT ISZERO PUSH2 0x99B JUMPI DUP5 DUP10 ADD MLOAD DUP3 SSTORE PUSH1 0x1 DUP3 ADD SWAP2 POP PUSH1 0x20 DUP6 ADD SWAP5 POP PUSH1 0x20 DUP2 ADD SWAP1 POP PUSH2 0x976 JUMP JUMPDEST DUP7 DUP4 LT ISZERO PUSH2 0x9B8 JUMPI DUP5 DUP10 ADD MLOAD PUSH2 0x9B4 PUSH1 0x1F DUP10 AND DUP3 PUSH2 0x8C7 JUMP JUMPDEST DUP4 SSTORE POP JUMPDEST PUSH1 0x1 PUSH1 0x2 DUP9 MUL ADD DUP9 SSTORE POP POP POP JUMPDEST POP POP POP POP POP POP JUMP INVALID LOG2 PUSH5 0x6970667358 0x22 SLT KECCAK256 0xD1 EXTCODECOPY STATICCALL CALLER PUSH13 0xF619BC657573459720F4289870 0x21 0xDC 0xC3 0xD7 CREATE 0xDB PUSH20 0x7675AC7B30DBC64736F6C634300081600330000 "
		},
		"gasEstimates": {
			"creation": {
				"codeDepositCost": "512600",
				"executionCost": "infinite",
				"totalCost": "infinite"
			},
			"external": {
				"demo(string)": "infinite",
				"getBalance(address)": "3313",
				"myAddr()": "2549",
				"myStr()": "infinite",
				"payments(address)": "2824",
				"receiveFunds()": "22320",
				"transferTo(address,uint256)": "infinite"
			}
		},
		"methodIdentifiers": {
			"demo(string)": "939a79ac",
			"getBalance(address)": "f8b2cb4f",
			"myAddr()": "e665b266",
			"myStr()": "5a455c1c",
			"payments(address)": "e2982c21",
			"receiveFunds()": "005c33e1",
			"transferTo(address,uint256)": "2ccb1b30"
		}
	},
	"abi": [
		{
			"inputs": [
				{
					"internalType": "string",
					"name": "newArgString",
					"type": "string"
				}
			],
			"name": "demo",
			"outputs": [],
			"stateMutability": "nonpayable",
			"type": "function"
		},
		{
			"inputs": [
				{
					"internalType": "address",
					"name": "targetAddress",
					"type": "address"
				}
			],
			"name": "getBalance",
			"outputs": [
				{
					"internalType": "uint256",
					"name": "",
					"type": "uint256"
				}
			],
			"stateMutability": "view",
			"type": "function"
		},
		{
			"inputs": [],
			"name": "myAddr",
			"outputs": [
				{
					"internalType": "address",
					"name": "",
					"type": "address"
				}
			],
			"stateMutability": "view",
			"type": "function"
		},
		{
			"inputs": [],
			"name": "myStr",
			"outputs": [
				{
					"internalType": "string",
					"name": "",
					"type": "string"
				}
			],
			"stateMutability": "view",
			"type": "function"
		},
		{
			"inputs": [
				{
					"internalType": "address",
					"name": "",
					"type": "address"
				}
			],
			"name": "payments",
			"outputs": [
				{
					"internalType": "uint256",
					"name": "",
					"type": "uint256"
				}
			],
			"stateMutability": "view",
			"type": "function"
		},
		{
			"inputs": [],
			"name": "receiveFunds",
			"outputs": [],
			"stateMutability": "payable",
			"type": "function"
		},
		{
			"inputs": [
				{
					"internalType": "address payable",
					"name": "toAddress",
					"type": "address"
				},
				{
					"internalType": "uint256",
					"name": "amount",
					"type": "uint256"
				}
			],
			"name": "transferTo",
			"outputs": [],
			"stateMutability": "nonpayable",
			"type": "function"
		}
	]
}