{
	"Demo.sol": {
		"Demo": {
			"abi": [
				{
					"inputs": [
						{
							"internalType": "uint256",
							"name": "",
							"type": "uint256"
						}
					],
					"name": "Text",
					"outputs": [
						{
							"internalType": "string",
							"name": "",
							"type": "string"
						}
					],
					"stateMutability": "view",
					"type": "function"
				},
				{
					"inputs": [
						{
							"internalType": "address",
							"name": "",
							"type": "address"
						}
					],
					"name": "balances",
					"outputs": [
						{
							"internalType": "uint256",
							"name": "totalPayments",
							"type": "uint256"
						}
					],
					"stateMutability": "view",
					"type": "function"
				},
				{
					"inputs": [],
					"name": "currentStatus",
					"outputs": [
						{
							"internalType": "enum Demo.Status",
							"name": "",
							"type": "uint8"
						}
					],
					"stateMutability": "view",
					"type": "function"
				},
				{
					"inputs": [],
					"name": "delivered",
					"outputs": [],
					"stateMutability": "nonpayable",
					"type": "function"
				},
				{
					"inputs": [],
					"name": "demo",
					"outputs": [],
					"stateMutability": "nonpayable",
					"type": "function"
				},
				{
					"inputs": [],
					"name": "demoLenMyDynamicVar",
					"outputs": [
						{
							"internalType": "uint256",
							"name": "",
							"type": "uint256"
						}
					],
					"stateMutability": "view",
					"type": "function"
				},
				{
					"inputs": [],
					"name": "demoLenMyDynamicVar1",
					"outputs": [
						{
							"internalType": "bytes1",
							"name": "",
							"type": "bytes1"
						}
					],
					"stateMutability": "view",
					"type": "function"
				},
				{
					"inputs": [],
					"name": "demoLenMyVar",
					"outputs": [
						{
							"internalType": "uint256",
							"name": "",
							"type": "uint256"
						}
					],
					"stateMutability": "view",
					"type": "function"
				},
				{
					"inputs": [
						{
							"internalType": "uint256",
							"name": "",
							"type": "uint256"
						},
						{
							"internalType": "uint256",
							"name": "",
							"type": "uint256"
						}
					],
					"name": "digits",
					"outputs": [
						{
							"internalType": "uint256",
							"name": "",
							"type": "uint256"
						}
					],
					"stateMutability": "view",
					"type": "function"
				},
				{
					"inputs": [
						{
							"internalType": "address",
							"name": "_addr",
							"type": "address"
						},
						{
							"internalType": "uint256",
							"name": "_index",
							"type": "uint256"
						}
					],
					"name": "getTestPayment",
					"outputs": [
						{
							"components": [
								{
									"internalType": "uint256",
									"name": "amount",
									"type": "uint256"
								},
								{
									"internalType": "uint256",
									"name": "timestamp",
									"type": "uint256"
								},
								{
									"internalType": "address",
									"name": "from",
									"type": "address"
								},
								{
									"internalType": "string",
									"name": "message",
									"type": "string"
								}
							],
							"internalType": "struct Demo.Payment",
							"name": "",
							"type": "tuple"
						}
					],
					"stateMutability": "view",
					"type": "function"
				},
				{
					"inputs": [
						{
							"internalType": "uint256",
							"name": "",
							"type": "uint256"
						}
					],
					"name": "items",
					"outputs": [
						{
							"internalType": "uint256",
							"name": "",
							"type": "uint256"
						}
					],
					"stateMutability": "view",
					"type": "function"
				},
				{
					"inputs": [],
					"name": "len",
					"outputs": [
						{
							"internalType": "uint256",
							"name": "",
							"type": "uint256"
						}
					],
					"stateMutability": "view",
					"type": "function"
				},
				{
					"inputs": [],
					"name": "myDynamicVar",
					"outputs": [
						{
							"internalType": "bytes",
							"name": "",
							"type": "bytes"
						}
					],
					"stateMutability": "view",
					"type": "function"
				},
				{
					"inputs": [],
					"name": "myDynamicVar1",
					"outputs": [
						{
							"internalType": "bytes",
							"name": "",
							"type": "bytes"
						}
					],
					"stateMutability": "view",
					"type": "function"
				},
				{
					"inputs": [],
					"name": "myVar",
					"outputs": [
						{
							"internalType": "bytes32",
							"name": "",
							"type": "bytes32"
						}
					],
					"stateMutability": "view",
					"type": "function"
				},
				{
					"inputs": [
						{
							"internalType": "uint256",
							"name": "",
							"type": "uint256"
						}
					],
					"name": "numbers",
					"outputs": [
						{
							"internalType": "uint256",
							"name": "",
							"type": "uint256"
						}
					],
					"stateMutability": "view",
					"type": "function"
				},
				{
					"inputs": [],
					"name": "pay",
					"outputs": [],
					"stateMutability": "nonpayable",
					"type": "function"
				},
				{
					"inputs": [
						{
							"internalType": "string",
							"name": "message",
							"type": "string"
						}
					],
					"name": "payTest",
					"outputs": [],
					"stateMutability": "payable",
					"type": "function"
				},
				{
					"inputs": [],
					"name": "populateDigitsArray",
					"outputs": [],
					"stateMutability": "nonpayable",
					"type": "function"
				},
				{
					"inputs": [],
					"name": "populateNumbersArray",
					"outputs": [],
					"stateMutability": "nonpayable",
					"type": "function"
				},
				{
					"inputs": [],
					"name": "received",
					"outputs": [],
					"stateMutability": "nonpayable",
					"type": "function"
				},
				{
					"inputs": [],
					"name": "sampleMemory",
					"outputs": [
						{
							"internalType": "uint256[]",
							"name": "",
							"type": "uint256[]"
						}
					],
					"stateMutability": "view",
					"type": "function"
				}
			],
			"devdoc": {
				"kind": "dev",
				"methods": {},
				"version": 1
			},
			"evm": {
				"assembly": "    /* \"Demo.sol\":58:2459  contract Demo {... */\n  mstore(0x40, 0x80)\n    /* \"Demo.sol\":924:958  bytes32 public myVar = \"test here\" */\n  sstore(0x01, 0x7465737420686572650000000000000000000000000000000000000000000000)\n    /* \"Demo.sol\":964:1023  bytes public myDynamicVar = unicode\"привет мир!!!\" */\n  mload(0x40)\n  dup1\n  0x40\n  add\n  0x40\n  mstore\n  dup1\n  0x16\n  dup2\n  mstore\n  0x20\n  add\n  0xd0bfd180d0b8d0b2d0b5d18220d0bcd0b8d18021212100000000000000000000\n  dup2\n  mstore\n  pop\n  0x02\n  swap1\n  dup2\n  tag_1\n  swap2\n  swap1\n  tag_2\n  jump\t// in\ntag_1:\n  pop\n    /* \"Demo.sol\":1029:1069  bytes public myDynamicVar1 = \"test here\" */\n  mload(0x40)\n  dup1\n  0x40\n  add\n  0x40\n  mstore\n  dup1\n  0x09\n  dup2\n  mstore\n  0x20\n  add\n  0x7465737420686572650000000000000000000000000000000000000000000000\n  dup2\n  mstore\n  pop\n  0x03\n  swap1\n  dup2\n  tag_3\n  swap2\n  swap1\n  tag_2\n  jump\t// in\ntag_3:\n  pop\n    /* \"Demo.sol\":1835:1866  uint[10] public items = [1,2,3] */\n  mload(0x40)\n  dup1\n  0x60\n  add\n  0x40\n  mstore\n  dup1\n    /* \"Demo.sol\":1860:1861  1 */\n  0x01\n    /* \"Demo.sol\":1835:1866  uint[10] public items = [1,2,3] */\n  0xff\n  and\n  dup2\n  mstore\n  0x20\n  add\n    /* \"Demo.sol\":1862:1863  2 */\n  0x02\n    /* \"Demo.sol\":1835:1866  uint[10] public items = [1,2,3] */\n  0xff\n  and\n  dup2\n  mstore\n  0x20\n  add\n    /* \"Demo.sol\":1864:1865  3 */\n  0x03\n    /* \"Demo.sol\":1835:1866  uint[10] public items = [1,2,3] */\n  0xff\n  and\n  dup2\n  mstore\n  pop\n  0x0b\n  swap1\n  0x03\n  tag_4\n  swap3\n  swap2\n  swap1\n  tag_5\n  jump\t// in\ntag_4:\n  pop\n    /* \"Demo.sol\":58:2459  contract Demo {... */\n  callvalue\n  dup1\n  iszero\n  tag_6\n  jumpi\n  0x00\n  dup1\n  revert\ntag_6:\n  pop\n  jump(tag_7)\ntag_5:\n  dup3\n  0x0a\n  dup2\n  add\n  swap3\n  dup3\n  iszero\n  tag_8\n  jumpi\n  swap2\n  0x20\n  mul\n  dup3\n  add\ntag_9:\n  dup3\n  dup2\n  gt\n  iszero\n  tag_10\n  jumpi\n  dup3\n  mload\n  dup3\n  swap1\n  0xff\n  and\n  swap1\n  sstore\n  swap2\n  0x20\n  add\n  swap2\n  swap1\n  0x01\n  add\n  swap1\n  jump(tag_9)\ntag_10:\ntag_8:\n  pop\n  swap1\n  pop\n  tag_11\n  swap2\n  swap1\n  tag_12\n  jump\t// in\ntag_11:\n  pop\n  swap1\n  jump\t// out\ntag_12:\ntag_13:\n  dup1\n  dup3\n  gt\n  iszero\n  tag_14\n  jumpi\n  0x00\n  dup2\n  0x00\n  swap1\n  sstore\n  pop\n  0x01\n  add\n  jump(tag_13)\ntag_14:\n  pop\n  swap1\n  jump\t// out\n    /* \"#utility.yul\":7:106   */\ntag_15:\n    /* \"#utility.yul\":59:65   */\n  0x00\n    /* \"#utility.yul\":93:98   */\n  dup2\n    /* \"#utility.yul\":87:99   */\n  mload\n    /* \"#utility.yul\":77:99   */\n  swap1\n  pop\n    /* \"#utility.yul\":7:106   */\n  swap2\n  swap1\n  pop\n  jump\t// out\n    /* \"#utility.yul\":112:292   */\ntag_16:\n    /* \"#utility.yul\":160:237   */\n  0x4e487b7100000000000000000000000000000000000000000000000000000000\n    /* \"#utility.yul\":157:158   */\n  0x00\n    /* \"#utility.yul\":150:238   */\n  mstore\n    /* \"#utility.yul\":257:261   */\n  0x41\n    /* \"#utility.yul\":254:255   */\n  0x04\n    /* \"#utility.yul\":247:262   */\n  mstore\n    /* \"#utility.yul\":281:285   */\n  0x24\n    /* \"#utility.yul\":278:279   */\n  0x00\n    /* \"#utility.yul\":271:286   */\n  revert\n    /* \"#utility.yul\":298:478   */\ntag_17:\n    /* \"#utility.yul\":346:423   */\n  0x4e487b7100000000000000000000000000000000000000000000000000000000\n    /* \"#utility.yul\":343:344   */\n  0x00\n    /* \"#utility.yul\":336:424   */\n  mstore\n    /* \"#utility.yul\":443:447   */\n  0x22\n    /* \"#utility.yul\":440:441   */\n  0x04\n    /* \"#utility.yul\":433:448   */\n  mstore\n    /* \"#utility.yul\":467:471   */\n  0x24\n    /* \"#utility.yul\":464:465   */\n  0x00\n    /* \"#utility.yul\":457:472   */\n  revert\n    /* \"#utility.yul\":484:804   */\ntag_18:\n    /* \"#utility.yul\":528:534   */\n  0x00\n    /* \"#utility.yul\":565:566   */\n  0x02\n    /* \"#utility.yul\":559:563   */\n  dup3\n    /* \"#utility.yul\":555:567   */\n  div\n    /* \"#utility.yul\":545:567   */\n  swap1\n  pop\n    /* \"#utility.yul\":612:613   */\n  0x01\n    /* \"#utility.yul\":606:610   */\n  dup3\n    /* \"#utility.yul\":602:614   */\n  and\n    /* \"#utility.yul\":633:651   */\n  dup1\n    /* \"#utility.yul\":623:704   */\n  tag_40\n  jumpi\n    /* \"#utility.yul\":689:693   */\n  0x7f\n    /* \"#utility.yul\":681:687   */\n  dup3\n    /* \"#utility.yul\":677:694   */\n  and\n    /* \"#utility.yul\":667:694   */\n  swap2\n  pop\n    /* \"#utility.yul\":623:704   */\ntag_40:\n    /* \"#utility.yul\":751:753   */\n  0x20\n    /* \"#utility.yul\":743:749   */\n  dup3\n    /* \"#utility.yul\":740:754   */\n  lt\n    /* \"#utility.yul\":720:738   */\n  dup2\n    /* \"#utility.yul\":717:755   */\n  sub\n    /* \"#utility.yul\":714:798   */\n  tag_41\n  jumpi\n    /* \"#utility.yul\":770:788   */\n  tag_42\n  tag_17\n  jump\t// in\ntag_42:\n    /* \"#utility.yul\":714:798   */\ntag_41:\n    /* \"#utility.yul\":535:804   */\n  pop\n    /* \"#utility.yul\":484:804   */\n  swap2\n  swap1\n  pop\n  jump\t// out\n    /* \"#utility.yul\":810:950   */\ntag_19:\n    /* \"#utility.yul\":858:862   */\n  0x00\n    /* \"#utility.yul\":881:884   */\n  dup2\n    /* \"#utility.yul\":873:884   */\n  swap1\n  pop\n    /* \"#utility.yul\":904:907   */\n  dup2\n    /* \"#utility.yul\":901:902   */\n  0x00\n    /* \"#utility.yul\":894:908   */\n  mstore\n    /* \"#utility.yul\":938:942   */\n  0x20\n    /* \"#utility.yul\":935:936   */\n  0x00\n    /* \"#utility.yul\":925:943   */\n  keccak256\n    /* \"#utility.yul\":917:943   */\n  swap1\n  pop\n    /* \"#utility.yul\":810:950   */\n  swap2\n  swap1\n  pop\n  jump\t// out\n    /* \"#utility.yul\":956:1049   */\ntag_20:\n    /* \"#utility.yul\":993:999   */\n  0x00\n    /* \"#utility.yul\":1040:1042   */\n  0x20\n    /* \"#utility.yul\":1035:1037   */\n  0x1f\n    /* \"#utility.yul\":1028:1033   */\n  dup4\n    /* \"#utility.yul\":1024:1038   */\n  add\n    /* \"#utility.yul\":1020:1043   */\n  div\n    /* \"#utility.yul\":1010:1043   */\n  swap1\n  pop\n    /* \"#utility.yul\":956:1049   */\n  swap2\n  swap1\n  pop\n  jump\t// out\n    /* \"#utility.yul\":1055:1162   */\ntag_21:\n    /* \"#utility.yul\":1099:1107   */\n  0x00\n    /* \"#utility.yul\":1149:1154   */\n  dup3\n    /* \"#utility.yul\":1143:1147   */\n  dup3\n    /* \"#utility.yul\":1139:1155   */\n  shl\n    /* \"#utility.yul\":1118:1155   */\n  swap1\n  pop\n    /* \"#utility.yul\":1055:1162   */\n  swap3\n  swap2\n  pop\n  pop\n  jump\t// out\n    /* \"#utility.yul\":1168:1561   */\ntag_22:\n    /* \"#utility.yul\":1237:1243   */\n  0x00\n    /* \"#utility.yul\":1287:1288   */\n  0x08\n    /* \"#utility.yul\":1275:1285   */\n  dup4\n    /* \"#utility.yul\":1271:1289   */\n  mul\n    /* \"#utility.yul\":1310:1407   */\n  tag_47\n    /* \"#utility.yul\":1340:1406   */\n  0xffffffffffffffffffffffffffffffffffffffffffffffffffffffffffffffff\n    /* \"#utility.yul\":1329:1338   */\n  dup3\n    /* \"#utility.yul\":1310:1407   */\n  tag_21\n  jump\t// in\ntag_47:\n    /* \"#utility.yul\":1428:1467   */\n  tag_48\n    /* \"#utility.yul\":1458:1466   */\n  dup7\n    /* \"#utility.yul\":1447:1456   */\n  dup4\n    /* \"#utility.yul\":1428:1467   */\n  tag_21\n  jump\t// in\ntag_48:\n    /* \"#utility.yul\":1416:1467   */\n  swap6\n  pop\n    /* \"#utility.yul\":1500:1504   */\n  dup1\n    /* \"#utility.yul\":1496:1505   */\n  not\n    /* \"#utility.yul\":1489:1494   */\n  dup5\n    /* \"#utility.yul\":1485:1506   */\n  and\n    /* \"#utility.yul\":1476:1506   */\n  swap4\n  pop\n    /* \"#utility.yul\":1549:1553   */\n  dup1\n    /* \"#utility.yul\":1539:1547   */\n  dup7\n    /* \"#utility.yul\":1535:1554   */\n  and\n    /* \"#utility.yul\":1528:1533   */\n  dup5\n    /* \"#utility.yul\":1525:1555   */\n  or\n    /* \"#utility.yul\":1515:1555   */\n  swap3\n  pop\n    /* \"#utility.yul\":1244:1561   */\n  pop\n  pop\n    /* \"#utility.yul\":1168:1561   */\n  swap4\n  swap3\n  pop\n  pop\n  pop\n  jump\t// out\n    /* \"#utility.yul\":1567:1644   */\ntag_23:\n    /* \"#utility.yul\":1604:1611   */\n  0x00\n    /* \"#utility.yul\":1633:1638   */\n  dup2\n    /* \"#utility.yul\":1622:1638   */\n  swap1\n  pop\n    /* \"#utility.yul\":1567:1644   */\n  swap2\n  swap1\n  pop\n  jump\t// out\n    /* \"#utility.yul\":1650:1710   */\ntag_24:\n    /* \"#utility.yul\":1678:1681   */\n  0x00\n    /* \"#utility.yul\":1699:1704   */\n  dup2\n    /* \"#utility.yul\":1692:1704   */\n  swap1\n  pop\n    /* \"#utility.yul\":1650:1710   */\n  swap2\n  swap1\n  pop\n  jump\t// out\n    /* \"#utility.yul\":1716:1858   */\ntag_25:\n    /* \"#utility.yul\":1766:1775   */\n  0x00\n    /* \"#utility.yul\":1799:1852   */\n  tag_52\n    /* \"#utility.yul\":1817:1851   */\n  tag_53\n    /* \"#utility.yul\":1826:1850   */\n  tag_54\n    /* \"#utility.yul\":1844:1849   */\n  dup5\n    /* \"#utility.yul\":1826:1850   */\n  tag_23\n  jump\t// in\ntag_54:\n    /* \"#utility.yul\":1817:1851   */\n  tag_24\n  jump\t// in\ntag_53:\n    /* \"#utility.yul\":1799:1852   */\n  tag_23\n  jump\t// in\ntag_52:\n    /* \"#utility.yul\":1786:1852   */\n  swap1\n  pop\n    /* \"#utility.yul\":1716:1858   */\n  swap2\n  swap1\n  pop\n  jump\t// out\n    /* \"#utility.yul\":1864:1939   */\ntag_26:\n    /* \"#utility.yul\":1907:1910   */\n  0x00\n    /* \"#utility.yul\":1928:1933   */\n  dup2\n    /* \"#utility.yul\":1921:1933   */\n  swap1\n  pop\n    /* \"#utility.yul\":1864:1939   */\n  swap2\n  swap1\n  pop\n  jump\t// out\n    /* \"#utility.yul\":1945:2214   */\ntag_27:\n    /* \"#utility.yul\":2055:2094   */\n  tag_57\n    /* \"#utility.yul\":2086:2093   */\n  dup4\n    /* \"#utility.yul\":2055:2094   */\n  tag_25\n  jump\t// in\ntag_57:\n    /* \"#utility.yul\":2116:2207   */\n  tag_58\n    /* \"#utility.yul\":2165:2206   */\n  tag_59\n    /* \"#utility.yul\":2189:2205   */\n  dup3\n    /* \"#utility.yul\":2165:2206   */\n  tag_26\n  jump\t// in\ntag_59:\n    /* \"#utility.yul\":2157:2163   */\n  dup5\n    /* \"#utility.yul\":2150:2154   */\n  dup5\n    /* \"#utility.yul\":2144:2155   */\n  sload\n    /* \"#utility.yul\":2116:2207   */\n  tag_22\n  jump\t// in\ntag_58:\n    /* \"#utility.yul\":2110:2114   */\n  dup3\n    /* \"#utility.yul\":2103:2208   */\n  sstore\n    /* \"#utility.yul\":2021:2214   */\n  pop\n    /* \"#utility.yul\":1945:2214   */\n  pop\n  pop\n  pop\n  jump\t// out\n    /* \"#utility.yul\":2220:2293   */\ntag_28:\n    /* \"#utility.yul\":2265:2268   */\n  0x00\n    /* \"#utility.yul\":2220:2293   */\n  swap1\n  jump\t// out\n    /* \"#utility.yul\":2299:2488   */\ntag_29:\n    /* \"#utility.yul\":2376:2408   */\n  tag_62\n  tag_28\n  jump\t// in\ntag_62:\n    /* \"#utility.yul\":2417:2482   */\n  tag_63\n    /* \"#utility.yul\":2475:2481   */\n  dup2\n    /* \"#utility.yul\":2467:2473   */\n  dup5\n    /* \"#utility.yul\":2461:2465   */\n  dup5\n    /* \"#utility.yul\":2417:2482   */\n  tag_27\n  jump\t// in\ntag_63:\n    /* \"#utility.yul\":2352:2488   */\n  pop\n    /* \"#utility.yul\":2299:2488   */\n  pop\n  pop\n  jump\t// out\n    /* \"#utility.yul\":2494:2680   */\ntag_30:\n    /* \"#utility.yul\":2554:2674   */\ntag_65:\n    /* \"#utility.yul\":2571:2574   */\n  dup2\n    /* \"#utility.yul\":2564:2569   */\n  dup2\n    /* \"#utility.yul\":2561:2575   */\n  lt\n    /* \"#utility.yul\":2554:2674   */\n  iszero\n  tag_67\n  jumpi\n    /* \"#utility.yul\":2625:2664   */\n  tag_68\n    /* \"#utility.yul\":2662:2663   */\n  0x00\n    /* \"#utility.yul\":2655:2660   */\n  dup3\n    /* \"#utility.yul\":2625:2664   */\n  tag_29\n  jump\t// in\ntag_68:\n    /* \"#utility.yul\":2598:2599   */\n  0x01\n    /* \"#utility.yul\":2591:2596   */\n  dup2\n    /* \"#utility.yul\":2587:2600   */\n  add\n    /* \"#utility.yul\":2578:2600   */\n  swap1\n  pop\n    /* \"#utility.yul\":2554:2674   */\n  jump(tag_65)\ntag_67:\n    /* \"#utility.yul\":2494:2680   */\n  pop\n  pop\n  jump\t// out\n    /* \"#utility.yul\":2686:3227   */\ntag_31:\n    /* \"#utility.yul\":2786:2788   */\n  0x1f\n    /* \"#utility.yul\":2781:2784   */\n  dup3\n    /* \"#utility.yul\":2778:2789   */\n  gt\n    /* \"#utility.yul\":2775:3220   */\n  iszero\n  tag_70\n  jumpi\n    /* \"#utility.yul\":2820:2857   */\n  tag_71\n    /* \"#utility.yul\":2851:2856   */\n  dup2\n    /* \"#utility.yul\":2820:2857   */\n  tag_19\n  jump\t// in\ntag_71:\n    /* \"#utility.yul\":2903:2932   */\n  tag_72\n    /* \"#utility.yul\":2921:2931   */\n  dup5\n    /* \"#utility.yul\":2903:2932   */\n  tag_20\n  jump\t// in\ntag_72:\n    /* \"#utility.yul\":2893:2901   */\n  dup2\n    /* \"#utility.yul\":2889:2933   */\n  add\n    /* \"#utility.yul\":3086:3088   */\n  0x20\n    /* \"#utility.yul\":3074:3084   */\n  dup6\n    /* \"#utility.yul\":3071:3089   */\n  lt\n    /* \"#utility.yul\":3068:3117   */\n  iszero\n  tag_73\n  jumpi\n    /* \"#utility.yul\":3107:3115   */\n  dup2\n    /* \"#utility.yul\":3092:3115   */\n  swap1\n  pop\n    /* \"#utility.yul\":3068:3117   */\ntag_73:\n    /* \"#utility.yul\":3130:3210   */\n  tag_74\n    /* \"#utility.yul\":3186:3208   */\n  tag_75\n    /* \"#utility.yul\":3204:3207   */\n  dup6\n    /* \"#utility.yul\":3186:3208   */\n  tag_20\n  jump\t// in\ntag_75:\n    /* \"#utility.yul\":3176:3184   */\n  dup4\n    /* \"#utility.yul\":3172:3209   */\n  add\n    /* \"#utility.yul\":3159:3170   */\n  dup3\n    /* \"#utility.yul\":3130:3210   */\n  tag_30\n  jump\t// in\ntag_74:\n    /* \"#utility.yul\":2790:3220   */\n  pop\n  pop\n    /* \"#utility.yul\":2775:3220   */\ntag_70:\n    /* \"#utility.yul\":2686:3227   */\n  pop\n  pop\n  pop\n  jump\t// out\n    /* \"#utility.yul\":3233:3350   */\ntag_32:\n    /* \"#utility.yul\":3287:3295   */\n  0x00\n    /* \"#utility.yul\":3337:3342   */\n  dup3\n    /* \"#utility.yul\":3331:3335   */\n  dup3\n    /* \"#utility.yul\":3327:3343   */\n  shr\n    /* \"#utility.yul\":3306:3343   */\n  swap1\n  pop\n    /* \"#utility.yul\":3233:3350   */\n  swap3\n  swap2\n  pop\n  pop\n  jump\t// out\n    /* \"#utility.yul\":3356:3525   */\ntag_33:\n    /* \"#utility.yul\":3400:3406   */\n  0x00\n    /* \"#utility.yul\":3433:3484   */\n  tag_78\n    /* \"#utility.yul\":3481:3482   */\n  0x00\n    /* \"#utility.yul\":3477:3483   */\n  not\n    /* \"#utility.yul\":3469:3474   */\n  dup5\n    /* \"#utility.yul\":3466:3467   */\n  0x08\n    /* \"#utility.yul\":3462:3475   */\n  mul\n    /* \"#utility.yul\":3433:3484   */\n  tag_32\n  jump\t// in\ntag_78:\n    /* \"#utility.yul\":3429:3485   */\n  not\n    /* \"#utility.yul\":3514:3518   */\n  dup1\n    /* \"#utility.yul\":3508:3512   */\n  dup4\n    /* \"#utility.yul\":3504:3519   */\n  and\n    /* \"#utility.yul\":3494:3519   */\n  swap2\n  pop\n    /* \"#utility.yul\":3407:3525   */\n  pop\n    /* \"#utility.yul\":3356:3525   */\n  swap3\n  swap2\n  pop\n  pop\n  jump\t// out\n    /* \"#utility.yul\":3530:3825   */\ntag_34:\n    /* \"#utility.yul\":3606:3610   */\n  0x00\n    /* \"#utility.yul\":3752:3781   */\n  tag_80\n    /* \"#utility.yul\":3777:3780   */\n  dup4\n    /* \"#utility.yul\":3771:3775   */\n  dup4\n    /* \"#utility.yul\":3752:3781   */\n  tag_33\n  jump\t// in\ntag_80:\n    /* \"#utility.yul\":3744:3781   */\n  swap2\n  pop\n    /* \"#utility.yul\":3814:3817   */\n  dup3\n    /* \"#utility.yul\":3811:3812   */\n  0x02\n    /* \"#utility.yul\":3807:3818   */\n  mul\n    /* \"#utility.yul\":3801:3805   */\n  dup3\n    /* \"#utility.yul\":3798:3819   */\n  or\n    /* \"#utility.yul\":3790:3819   */\n  swap1\n  pop\n    /* \"#utility.yul\":3530:3825   */\n  swap3\n  swap2\n  pop\n  pop\n  jump\t// out\n    /* \"#utility.yul\":3830:5222   */\ntag_2:\n    /* \"#utility.yul\":3946:3983   */\n  tag_82\n    /* \"#utility.yul\":3979:3982   */\n  dup3\n    /* \"#utility.yul\":3946:3983   */\n  tag_15\n  jump\t// in\ntag_82:\n    /* \"#utility.yul\":4048:4066   */\n  0xffffffffffffffff\n    /* \"#utility.yul\":4040:4046   */\n  dup2\n    /* \"#utility.yul\":4037:4067   */\n  gt\n    /* \"#utility.yul\":4034:4090   */\n  iszero\n  tag_83\n  jumpi\n    /* \"#utility.yul\":4070:4088   */\n  tag_84\n  tag_16\n  jump\t// in\ntag_84:\n    /* \"#utility.yul\":4034:4090   */\ntag_83:\n    /* \"#utility.yul\":4114:4152   */\n  tag_85\n    /* \"#utility.yul\":4146:4150   */\n  dup3\n    /* \"#utility.yul\":4140:4151   */\n  sload\n    /* \"#utility.yul\":4114:4152   */\n  tag_18\n  jump\t// in\ntag_85:\n    /* \"#utility.yul\":4199:4265   */\n  tag_86\n    /* \"#utility.yul\":4258:4264   */\n  dup3\n    /* \"#utility.yul\":4250:4256   */\n  dup3\n    /* \"#utility.yul\":4244:4248   */\n  dup6\n    /* \"#utility.yul\":4199:4265   */\n  tag_31\n  jump\t// in\ntag_86:\n    /* \"#utility.yul\":4292:4293   */\n  0x00\n    /* \"#utility.yul\":4316:4320   */\n  0x20\n    /* \"#utility.yul\":4303:4320   */\n  swap1\n  pop\n    /* \"#utility.yul\":4348:4350   */\n  0x1f\n    /* \"#utility.yul\":4340:4346   */\n  dup4\n    /* \"#utility.yul\":4337:4351   */\n  gt\n    /* \"#utility.yul\":4365:4366   */\n  0x01\n    /* \"#utility.yul\":4360:4977   */\n  dup2\n  eq\n  tag_88\n  jumpi\n    /* \"#utility.yul\":5021:5022   */\n  0x00\n    /* \"#utility.yul\":5038:5044   */\n  dup5\n    /* \"#utility.yul\":5035:5112   */\n  iszero\n  tag_89\n  jumpi\n    /* \"#utility.yul\":5087:5096   */\n  dup3\n    /* \"#utility.yul\":5082:5085   */\n  dup8\n    /* \"#utility.yul\":5078:5097   */\n  add\n    /* \"#utility.yul\":5072:5098   */\n  mload\n    /* \"#utility.yul\":5063:5098   */\n  swap1\n  pop\n    /* \"#utility.yul\":5035:5112   */\ntag_89:\n    /* \"#utility.yul\":5138:5205   */\n  tag_90\n    /* \"#utility.yul\":5198:5204   */\n  dup6\n    /* \"#utility.yul\":5191:5196   */\n  dup3\n    /* \"#utility.yul\":5138:5205   */\n  tag_34\n  jump\t// in\ntag_90:\n    /* \"#utility.yul\":5132:5136   */\n  dup7\n    /* \"#utility.yul\":5125:5206   */\n  sstore\n    /* \"#utility.yul\":4994:5216   */\n  pop\n    /* \"#utility.yul\":4330:5216   */\n  jump(tag_87)\n    /* \"#utility.yul\":4360:4977   */\ntag_88:\n    /* \"#utility.yul\":4412:4416   */\n  0x1f\n    /* \"#utility.yul\":4408:4417   */\n  not\n    /* \"#utility.yul\":4400:4406   */\n  dup5\n    /* \"#utility.yul\":4396:4418   */\n  and\n    /* \"#utility.yul\":4446:4482   */\n  tag_91\n    /* \"#utility.yul\":4477:4481   */\n  dup7\n    /* \"#utility.yul\":4446:4482   */\n  tag_19\n  jump\t// in\ntag_91:\n    /* \"#utility.yul\":4504:4505   */\n  0x00\n    /* \"#utility.yul\":4518:4726   */\ntag_92:\n    /* \"#utility.yul\":4532:4539   */\n  dup3\n    /* \"#utility.yul\":4529:4530   */\n  dup2\n    /* \"#utility.yul\":4526:4540   */\n  lt\n    /* \"#utility.yul\":4518:4726   */\n  iszero\n  tag_94\n  jumpi\n    /* \"#utility.yul\":4611:4620   */\n  dup5\n    /* \"#utility.yul\":4606:4609   */\n  dup10\n    /* \"#utility.yul\":4602:4621   */\n  add\n    /* \"#utility.yul\":4596:4622   */\n  mload\n    /* \"#utility.yul\":4588:4594   */\n  dup3\n    /* \"#utility.yul\":4581:4623   */\n  sstore\n    /* \"#utility.yul\":4662:4663   */\n  0x01\n    /* \"#utility.yul\":4654:4660   */\n  dup3\n    /* \"#utility.yul\":4650:4664   */\n  add\n    /* \"#utility.yul\":4640:4664   */\n  swap2\n  pop\n    /* \"#utility.yul\":4709:4711   */\n  0x20\n    /* \"#utility.yul\":4698:4707   */\n  dup6\n    /* \"#utility.yul\":4694:4712   */\n  add\n    /* \"#utility.yul\":4681:4712   */\n  swap5\n  pop\n    /* \"#utility.yul\":4555:4559   */\n  0x20\n    /* \"#utility.yul\":4552:4553   */\n  dup2\n    /* \"#utility.yul\":4548:4560   */\n  add\n    /* \"#utility.yul\":4543:4560   */\n  swap1\n  pop\n    /* \"#utility.yul\":4518:4726   */\n  jump(tag_92)\ntag_94:\n    /* \"#utility.yul\":4754:4760   */\n  dup7\n    /* \"#utility.yul\":4745:4752   */\n  dup4\n    /* \"#utility.yul\":4742:4761   */\n  lt\n    /* \"#utility.yul\":4739:4918   */\n  iszero\n  tag_95\n  jumpi\n    /* \"#utility.yul\":4812:4821   */\n  dup5\n    /* \"#utility.yul\":4807:4810   */\n  dup10\n    /* \"#utility.yul\":4803:4822   */\n  add\n    /* \"#utility.yul\":4797:4823   */\n  mload\n    /* \"#utility.yul\":4855:4903   */\n  tag_96\n    /* \"#utility.yul\":4897:4901   */\n  0x1f\n    /* \"#utility.yul\":4889:4895   */\n  dup10\n    /* \"#utility.yul\":4885:4902   */\n  and\n    /* \"#utility.yul\":4874:4883   */\n  dup3\n    /* \"#utility.yul\":4855:4903   */\n  tag_33\n  jump\t// in\ntag_96:\n    /* \"#utility.yul\":4847:4853   */\n  dup4\n    /* \"#utility.yul\":4840:4904   */\n  sstore\n    /* \"#utility.yul\":4762:4918   */\n  pop\n    /* \"#utility.yul\":4739:4918   */\ntag_95:\n    /* \"#utility.yul\":4964:4965   */\n  0x01\n    /* \"#utility.yul\":4960:4961   */\n  0x02\n    /* \"#utility.yul\":4952:4958   */\n  dup9\n    /* \"#utility.yul\":4948:4962   */\n  mul\n    /* \"#utility.yul\":4944:4966   */\n  add\n    /* \"#utility.yul\":4938:4942   */\n  dup9\n    /* \"#utility.yul\":4931:4967   */\n  sstore\n    /* \"#utility.yul\":4367:4977   */\n  pop\n  pop\n  pop\n    /* \"#utility.yul\":4330:5216   */\ntag_87:\n  pop\n    /* \"#utility.yul\":3921:5222   */\n  pop\n  pop\n  pop\n    /* \"#utility.yul\":3830:5222   */\n  pop\n  pop\n  jump\t// out\n    /* \"Demo.sol\":58:2459  contract Demo {... */\ntag_7:\n  dataSize(sub_0)\n  dup1\n  dataOffset(sub_0)\n  0x00\n  codecopy\n  0x00\n  return\nstop\n\nsub_0: assembly {\n        /* \"Demo.sol\":58:2459  contract Demo {... */\n      mstore(0x40, 0x80)\n      jumpi(tag_1, lt(calldatasize, 0x04))\n      shr(0xe0, calldataload(0x00))\n      dup1\n      0x8c0d12db\n      gt\n      tag_24\n      jumpi\n      dup1\n      0xbbdfbfba\n      gt\n      tag_25\n      jumpi\n      dup1\n      0xbbdfbfba\n      eq\n      tag_18\n      jumpi\n      dup1\n      0xbfb231d2\n      eq\n      tag_19\n      jumpi\n      dup1\n      0xbfec3edd\n      eq\n      tag_20\n      jumpi\n      dup1\n      0xc6b91540\n      eq\n      tag_21\n      jumpi\n      dup1\n      0xd39fa233\n      eq\n      tag_22\n      jumpi\n      dup1\n      0xef8a9235\n      eq\n      tag_23\n      jumpi\n      jump(tag_1)\n    tag_25:\n      dup1\n      0x8c0d12db\n      eq\n      tag_13\n      jumpi\n      dup1\n      0x9e035229\n      eq\n      tag_14\n      jumpi\n      dup1\n      0xa12d531f\n      eq\n      tag_15\n      jumpi\n      dup1\n      0xa34343c9\n      eq\n      tag_16\n      jumpi\n      dup1\n      0xbad489dc\n      eq\n      tag_17\n      jumpi\n      jump(tag_1)\n    tag_24:\n      dup1\n      0x3e731233\n      gt\n      tag_26\n      jumpi\n      dup1\n      0x3e731233\n      eq\n      tag_7\n      jumpi\n      dup1\n      0x56d88e27\n      eq\n      tag_8\n      jumpi\n      dup1\n      0x6251841d\n      eq\n      tag_9\n      jumpi\n      dup1\n      0x7217934f\n      eq\n      tag_10\n      jumpi\n      dup1\n      0x739c04a4\n      eq\n      tag_11\n      jumpi\n      dup1\n      0x83a6deb5\n      eq\n      tag_12\n      jumpi\n      jump(tag_1)\n    tag_26:\n      dup1\n      0x01725a0b\n      eq\n      tag_2\n      jumpi\n      dup1\n      0x0f4147f9\n      eq\n      tag_3\n      jumpi\n      dup1\n      0x1612217f\n      eq\n      tag_4\n      jumpi\n      dup1\n      0x1b9265b8\n      eq\n      tag_5\n      jumpi\n      dup1\n      0x27e235e3\n      eq\n      tag_6\n      jumpi\n    tag_1:\n      0x00\n      dup1\n      revert\n        /* \"Demo.sol\":2025:2124  function demo() public {... */\n    tag_2:\n      callvalue\n      dup1\n      iszero\n      tag_27\n      jumpi\n      0x00\n      dup1\n      revert\n    tag_27:\n      pop\n      tag_28\n      tag_29\n      jump\t// in\n    tag_28:\n      stop\n        /* \"Demo.sol\":964:1023  bytes public myDynamicVar = unicode\"привет мир!!!\" */\n    tag_3:\n      callvalue\n      dup1\n      iszero\n      tag_30\n      jumpi\n      0x00\n      dup1\n      revert\n    tag_30:\n      pop\n      tag_31\n      tag_32\n      jump\t// in\n    tag_31:\n      mload(0x40)\n      tag_33\n      swap2\n      swap1\n      tag_34\n      jump\t// in\n    tag_33:\n      mload(0x40)\n      dup1\n      swap2\n      sub\n      swap1\n      return\n        /* \"Demo.sol\":1874:1896  uint[][] public digits */\n    tag_4:\n      callvalue\n      dup1\n      iszero\n      tag_35\n      jumpi\n      0x00\n      dup1\n      revert\n    tag_35:\n      pop\n      tag_36\n      0x04\n      dup1\n      calldatasize\n      sub\n      dup2\n      add\n      swap1\n      tag_37\n      swap2\n      swap1\n      tag_38\n      jump\t// in\n    tag_37:\n      tag_39\n      jump\t// in\n    tag_36:\n      mload(0x40)\n      tag_40\n      swap2\n      swap1\n      tag_41\n      jump\t// in\n    tag_40:\n      mload(0x40)\n      dup1\n      swap2\n      sub\n      swap1\n      return\n        /* \"Demo.sol\":2226:2292  function pay() public {... */\n    tag_5:\n      callvalue\n      dup1\n      iszero\n      tag_42\n      jumpi\n      0x00\n      dup1\n      revert\n    tag_42:\n      pop\n      tag_43\n      tag_44\n      jump\t// in\n    tag_43:\n      stop\n        /* \"Demo.sol\":311:354  mapping(address => Balance) public balances */\n    tag_6:\n      callvalue\n      dup1\n      iszero\n      tag_45\n      jumpi\n      0x00\n      dup1\n      revert\n    tag_45:\n      pop\n      tag_46\n      0x04\n      dup1\n      calldatasize\n      sub\n      dup2\n      add\n      swap1\n      tag_47\n      swap2\n      swap1\n      tag_48\n      jump\t// in\n    tag_47:\n      tag_49\n      jump\t// in\n    tag_46:\n      mload(0x40)\n      tag_50\n      swap2\n      swap1\n      tag_41\n      jump\t// in\n    tag_50:\n      mload(0x40)\n      dup1\n      swap2\n      sub\n      swap1\n      return\n        /* \"Demo.sol\":1446:1597  function populateNumbersArray() public {... */\n    tag_7:\n      callvalue\n      dup1\n      iszero\n      tag_51\n      jumpi\n      0x00\n      dup1\n      revert\n    tag_51:\n      pop\n      tag_52\n      tag_53\n      jump\t// in\n    tag_52:\n      stop\n        /* \"Demo.sol\":1424:1439  uint public len */\n    tag_8:\n      callvalue\n      dup1\n      iszero\n      tag_54\n      jumpi\n      0x00\n      dup1\n      revert\n    tag_54:\n      pop\n      tag_55\n      tag_56\n      jump\t// in\n    tag_55:\n      mload(0x40)\n      tag_57\n      swap2\n      swap1\n      tag_41\n      jump\t// in\n    tag_57:\n      mload(0x40)\n      dup1\n      swap2\n      sub\n      swap1\n      return\n        /* \"Demo.sol\":1807:1828  string[5] public Text */\n    tag_9:\n      callvalue\n      dup1\n      iszero\n      tag_58\n      jumpi\n      0x00\n      dup1\n      revert\n    tag_58:\n      pop\n      tag_59\n      0x04\n      dup1\n      calldatasize\n      sub\n      dup2\n      add\n      swap1\n      tag_60\n      swap2\n      swap1\n      tag_61\n      jump\t// in\n    tag_60:\n      tag_62\n      jump\t// in\n    tag_59:\n      mload(0x40)\n      tag_63\n      swap2\n      swap1\n      tag_64\n      jump\t// in\n    tag_63:\n      mload(0x40)\n      dup1\n      swap2\n      sub\n      swap1\n      return\n        /* \"Demo.sol\":1169:1270  function demoLenMyDynamicVar() public view  returns(uint) {... */\n    tag_10:\n      callvalue\n      dup1\n      iszero\n      tag_65\n      jumpi\n      0x00\n      dup1\n      revert\n    tag_65:\n      pop\n      tag_66\n      tag_67\n      jump\t// in\n    tag_66:\n      mload(0x40)\n      tag_68\n      swap2\n      swap1\n      tag_41\n      jump\t// in\n    tag_68:\n      mload(0x40)\n      dup1\n      swap2\n      sub\n      swap1\n      return\n        /* \"Demo.sol\":760:906  function getTestPayment(address _addr, uint _index) public view returns(Payment memory) {... */\n    tag_11:\n      callvalue\n      dup1\n      iszero\n      tag_69\n      jumpi\n      0x00\n      dup1\n      revert\n    tag_69:\n      pop\n      tag_70\n      0x04\n      dup1\n      calldatasize\n      sub\n      dup2\n      add\n      swap1\n      tag_71\n      swap2\n      swap1\n      tag_72\n      jump\t// in\n    tag_71:\n      tag_73\n      jump\t// in\n    tag_70:\n      mload(0x40)\n      tag_74\n      swap2\n      swap1\n      tag_75\n      jump\t// in\n    tag_74:\n      mload(0x40)\n      dup1\n      swap2\n      sub\n      swap1\n      return\n        /* \"Demo.sol\":2381:2456  function received() public {... */\n    tag_12:\n      callvalue\n      dup1\n      iszero\n      tag_76\n      jumpi\n      0x00\n      dup1\n      revert\n    tag_76:\n      pop\n      tag_77\n      tag_78\n      jump\t// in\n    tag_77:\n      stop\n        /* \"Demo.sol\":1276:1377  function demoLenMyDynamicVar1() public view  returns(bytes1) {... */\n    tag_13:\n      callvalue\n      dup1\n      iszero\n      tag_79\n      jumpi\n      0x00\n      dup1\n      revert\n    tag_79:\n      pop\n      tag_80\n      tag_81\n      jump\t// in\n    tag_80:\n      mload(0x40)\n      tag_82\n      swap2\n      swap1\n      tag_83\n      jump\t// in\n    tag_82:\n      mload(0x40)\n      dup1\n      swap2\n      sub\n      swap1\n      return\n        /* \"Demo.sol\":1029:1069  bytes public myDynamicVar1 = \"test here\" */\n    tag_14:\n      callvalue\n      dup1\n      iszero\n      tag_84\n      jumpi\n      0x00\n      dup1\n      revert\n    tag_84:\n      pop\n      tag_85\n      tag_86\n      jump\t// in\n    tag_85:\n      mload(0x40)\n      tag_87\n      swap2\n      swap1\n      tag_34\n      jump\t// in\n    tag_87:\n      mload(0x40)\n      dup1\n      swap2\n      sub\n      swap1\n      return\n        /* \"Demo.sol\":1903:2019  function populateDigitsArray() public {... */\n    tag_15:\n      callvalue\n      dup1\n      iszero\n      tag_88\n      jumpi\n      0x00\n      dup1\n      revert\n    tag_88:\n      pop\n      tag_89\n      tag_90\n      jump\t// in\n    tag_89:\n      stop\n        /* \"Demo.sol\":1603:1801  function sampleMemory() public view returns(uint[] memory) {... */\n    tag_16:\n      callvalue\n      dup1\n      iszero\n      tag_91\n      jumpi\n      0x00\n      dup1\n      revert\n    tag_91:\n      pop\n      tag_92\n      tag_93\n      jump\t// in\n    tag_92:\n      mload(0x40)\n      tag_94\n      swap2\n      swap1\n      tag_95\n      jump\t// in\n    tag_94:\n      mload(0x40)\n      dup1\n      swap2\n      sub\n      swap1\n      return\n        /* \"Demo.sol\":361:754  function payTest(string memory message) public payable {... */\n    tag_17:\n      tag_96\n      0x04\n      dup1\n      calldatasize\n      sub\n      dup2\n      add\n      swap1\n      tag_97\n      swap2\n      swap1\n      tag_98\n      jump\t// in\n    tag_97:\n      tag_99\n      jump\t// in\n    tag_96:\n      stop\n        /* \"Demo.sol\":2298:2375  function delivered() public {... */\n    tag_18:\n      callvalue\n      dup1\n      iszero\n      tag_100\n      jumpi\n      0x00\n      dup1\n      revert\n    tag_100:\n      pop\n      tag_101\n      tag_102\n      jump\t// in\n    tag_101:\n      stop\n        /* \"Demo.sol\":1835:1866  uint[10] public items = [1,2,3] */\n    tag_19:\n      callvalue\n      dup1\n      iszero\n      tag_103\n      jumpi\n      0x00\n      dup1\n      revert\n    tag_103:\n      pop\n      tag_104\n      0x04\n      dup1\n      calldatasize\n      sub\n      dup2\n      add\n      swap1\n      tag_105\n      swap2\n      swap1\n      tag_61\n      jump\t// in\n    tag_105:\n      tag_106\n      jump\t// in\n    tag_104:\n      mload(0x40)\n      tag_107\n      swap2\n      swap1\n      tag_41\n      jump\t// in\n    tag_107:\n      mload(0x40)\n      dup1\n      swap2\n      sub\n      swap1\n      return\n        /* \"Demo.sol\":1076:1163  function demoLenMyVar() public view  returns(uint) {... */\n    tag_20:\n      callvalue\n      dup1\n      iszero\n      tag_108\n      jumpi\n      0x00\n      dup1\n      revert\n    tag_108:\n      pop\n      tag_109\n      tag_110\n      jump\t// in\n    tag_109:\n      mload(0x40)\n      tag_111\n      swap2\n      swap1\n      tag_41\n      jump\t// in\n    tag_111:\n      mload(0x40)\n      dup1\n      swap2\n      sub\n      swap1\n      return\n        /* \"Demo.sol\":924:958  bytes32 public myVar = \"test here\" */\n    tag_21:\n      callvalue\n      dup1\n      iszero\n      tag_112\n      jumpi\n      0x00\n      dup1\n      revert\n    tag_112:\n      pop\n      tag_113\n      tag_114\n      jump\t// in\n    tag_113:\n      mload(0x40)\n      tag_115\n      swap2\n      swap1\n      tag_116\n      jump\t// in\n    tag_115:\n      mload(0x40)\n      dup1\n      swap2\n      sub\n      swap1\n      return\n        /* \"Demo.sol\":1397:1418  uint[] public numbers */\n    tag_22:\n      callvalue\n      dup1\n      iszero\n      tag_117\n      jumpi\n      0x00\n      dup1\n      revert\n    tag_117:\n      pop\n      tag_118\n      0x04\n      dup1\n      calldatasize\n      sub\n      dup2\n      add\n      swap1\n      tag_119\n      swap2\n      swap1\n      tag_61\n      jump\t// in\n    tag_119:\n      tag_120\n      jump\t// in\n    tag_118:\n      mload(0x40)\n      tag_121\n      swap2\n      swap1\n      tag_41\n      jump\t// in\n    tag_121:\n      mload(0x40)\n      dup1\n      swap2\n      sub\n      swap1\n      return\n        /* \"Demo.sol\":2188:2215  Status public currentStatus */\n    tag_23:\n      callvalue\n      dup1\n      iszero\n      tag_122\n      jumpi\n      0x00\n      dup1\n      revert\n    tag_122:\n      pop\n      tag_123\n      tag_124\n      jump\t// in\n    tag_123:\n      mload(0x40)\n      tag_125\n      swap2\n      swap1\n      tag_126\n      jump\t// in\n    tag_125:\n      mload(0x40)\n      dup1\n      swap2\n      sub\n      swap1\n      return\n        /* \"Demo.sol\":2025:2124  function demo() public {... */\n    tag_29:\n        /* \"Demo.sol\":2069:2071  40 */\n      0x28\n        /* \"Demo.sol\":2058:2063  items */\n      0x0b\n        /* \"Demo.sol\":2064:2065  3 */\n      0x03\n        /* \"Demo.sol\":2058:2066  items[3] */\n      0x0a\n      dup2\n      lt\n      tag_128\n      jumpi\n      tag_129\n      tag_130\n      jump\t// in\n    tag_129:\n    tag_128:\n      add\n        /* \"Demo.sol\":2058:2071  items[3] = 40 */\n      dup2\n      swap1\n      sstore\n      pop\n        /* \"Demo.sol\":2092:2094  60 */\n      0x3c\n        /* \"Demo.sol\":2081:2086  items */\n      0x0b\n        /* \"Demo.sol\":2087:2088  5 */\n      0x05\n        /* \"Demo.sol\":2081:2089  items[5] */\n      0x0a\n      dup2\n      lt\n      tag_132\n      jumpi\n      tag_133\n      tag_130\n      jump\t// in\n    tag_133:\n    tag_132:\n      add\n        /* \"Demo.sol\":2081:2094  items[5] = 60 */\n      dup2\n      swap1\n      sstore\n      pop\n        /* \"Demo.sol\":2115:2117  80 */\n      0x50\n        /* \"Demo.sol\":2104:2109  items */\n      0x0b\n        /* \"Demo.sol\":2110:2111  7 */\n      0x07\n        /* \"Demo.sol\":2104:2112  items[7] */\n      0x0a\n      dup2\n      lt\n      tag_135\n      jumpi\n      tag_136\n      tag_130\n      jump\t// in\n    tag_136:\n    tag_135:\n      add\n        /* \"Demo.sol\":2104:2117  items[7] = 80 */\n      dup2\n      swap1\n      sstore\n      pop\n        /* \"Demo.sol\":2025:2124  function demo() public {... */\n      jump\t// out\n        /* \"Demo.sol\":964:1023  bytes public myDynamicVar = unicode\"привет мир!!!\" */\n    tag_32:\n      0x02\n      dup1\n      sload\n      tag_138\n      swap1\n      tag_139\n      jump\t// in\n    tag_138:\n      dup1\n      0x1f\n      add\n      0x20\n      dup1\n      swap2\n      div\n      mul\n      0x20\n      add\n      mload(0x40)\n      swap1\n      dup2\n      add\n      0x40\n      mstore\n      dup1\n      swap3\n      swap2\n      swap1\n      dup2\n      dup2\n      mstore\n      0x20\n      add\n      dup3\n      dup1\n      sload\n      tag_140\n      swap1\n      tag_139\n      jump\t// in\n    tag_140:\n      dup1\n      iszero\n      tag_141\n      jumpi\n      dup1\n      0x1f\n      lt\n      tag_142\n      jumpi\n      0x0100\n      dup1\n      dup4\n      sload\n      div\n      mul\n      dup4\n      mstore\n      swap2\n      0x20\n      add\n      swap2\n      jump(tag_141)\n    tag_142:\n      dup3\n      add\n      swap2\n      swap1\n      0x00\n      mstore\n      keccak256(0x00, 0x20)\n      swap1\n    tag_143:\n      dup2\n      sload\n      dup2\n      mstore\n      swap1\n      0x01\n      add\n      swap1\n      0x20\n      add\n      dup1\n      dup4\n      gt\n      tag_143\n      jumpi\n      dup3\n      swap1\n      sub\n      0x1f\n      and\n      dup3\n      add\n      swap2\n    tag_141:\n      pop\n      pop\n      pop\n      pop\n      pop\n      dup2\n      jump\t// out\n        /* \"Demo.sol\":1874:1896  uint[][] public digits */\n    tag_39:\n      0x15\n      dup3\n      dup2\n      sload\n      dup2\n      lt\n      tag_144\n      jumpi\n      0x00\n      dup1\n      revert\n    tag_144:\n      swap1\n      0x00\n      mstore\n      keccak256(0x00, 0x20)\n      add\n      dup2\n      dup2\n      sload\n      dup2\n      lt\n      tag_146\n      jumpi\n      0x00\n      dup1\n      revert\n    tag_146:\n      swap1\n      0x00\n      mstore\n      keccak256(0x00, 0x20)\n      add\n      0x00\n      swap2\n      pop\n      swap2\n      pop\n      pop\n      sload\n      dup2\n      jump\t// out\n        /* \"Demo.sol\":2226:2292  function pay() public {... */\n    tag_44:\n        /* \"Demo.sol\":2274:2285  Status.Paid */\n      0x00\n        /* \"Demo.sol\":2258:2271  currentStatus */\n      0x16\n      0x00\n        /* \"Demo.sol\":2258:2285  currentStatus = Status.Paid */\n      0x0100\n      exp\n      dup2\n      sload\n      dup2\n      0xff\n      mul\n      not\n      and\n      swap1\n      dup4\n      0x02\n      dup2\n      gt\n      iszero\n      tag_149\n      jumpi\n      tag_150\n      tag_151\n      jump\t// in\n    tag_150:\n    tag_149:\n      mul\n      or\n      swap1\n      sstore\n      pop\n        /* \"Demo.sol\":2226:2292  function pay() public {... */\n      jump\t// out\n        /* \"Demo.sol\":311:354  mapping(address => Balance) public balances */\n    tag_49:\n      mstore(0x20, 0x00)\n      dup1\n      0x00\n      mstore\n      keccak256(0x00, 0x40)\n      0x00\n      swap2\n      pop\n      swap1\n      pop\n      dup1\n      0x00\n      add\n      sload\n      swap1\n      pop\n      dup2\n      jump\t// out\n        /* \"Demo.sol\":1446:1597  function populateNumbersArray() public {... */\n    tag_53:\n        /* \"Demo.sol\":1495:1502  numbers */\n      0x04\n        /* \"Demo.sol\":1508:1509  4 */\n      dup1\n        /* \"Demo.sol\":1495:1510  numbers.push(4) */\n      dup1\n      0x01\n      dup2\n      sload\n      add\n      dup1\n      dup3\n      sstore\n      dup1\n      swap2\n      pop\n      pop\n      0x01\n      swap1\n      sub\n      swap1\n      0x00\n      mstore\n      keccak256(0x00, 0x20)\n      add\n      0x00\n      swap1\n      swap2\n      swap1\n      swap2\n      swap1\n      swap2\n      pop\n      sstore\n        /* \"Demo.sol\":1520:1527  numbers */\n      0x04\n        /* \"Demo.sol\":1533:1534  5 */\n      0x05\n        /* \"Demo.sol\":1520:1535  numbers.push(5) */\n      swap1\n      dup1\n      0x01\n      dup2\n      sload\n      add\n      dup1\n      dup3\n      sstore\n      dup1\n      swap2\n      pop\n      pop\n      0x01\n      swap1\n      sub\n      swap1\n      0x00\n      mstore\n      keccak256(0x00, 0x20)\n      add\n      0x00\n      swap1\n      swap2\n      swap1\n      swap2\n      swap1\n      swap2\n      pop\n      sstore\n        /* \"Demo.sol\":1545:1552  numbers */\n      0x04\n        /* \"Demo.sol\":1558:1559  6 */\n      0x06\n        /* \"Demo.sol\":1545:1560  numbers.push(6) */\n      swap1\n      dup1\n      0x01\n      dup2\n      sload\n      add\n      dup1\n      dup3\n      sstore\n      dup1\n      swap2\n      pop\n      pop\n      0x01\n      swap1\n      sub\n      swap1\n      0x00\n      mstore\n      keccak256(0x00, 0x20)\n      add\n      0x00\n      swap1\n      swap2\n      swap1\n      swap2\n      swap1\n      swap2\n      pop\n      sstore\n        /* \"Demo.sol\":1576:1583  numbers */\n      0x04\n        /* \"Demo.sol\":1576:1590  numbers.length */\n      dup1\n      sload\n      swap1\n      pop\n        /* \"Demo.sol\":1570:1573  len */\n      0x05\n        /* \"Demo.sol\":1570:1590  len = numbers.length */\n      dup2\n      swap1\n      sstore\n      pop\n        /* \"Demo.sol\":1446:1597  function populateNumbersArray() public {... */\n      jump\t// out\n        /* \"Demo.sol\":1424:1439  uint public len */\n    tag_56:\n      sload(0x05)\n      dup2\n      jump\t// out\n        /* \"Demo.sol\":1807:1828  string[5] public Text */\n    tag_62:\n      0x06\n      dup2\n      0x05\n      dup2\n      lt\n      tag_156\n      jumpi\n      0x00\n      dup1\n      revert\n    tag_156:\n      add\n      0x00\n      swap2\n      pop\n      swap1\n      pop\n      dup1\n      sload\n      tag_158\n      swap1\n      tag_139\n      jump\t// in\n    tag_158:\n      dup1\n      0x1f\n      add\n      0x20\n      dup1\n      swap2\n      div\n      mul\n      0x20\n      add\n      mload(0x40)\n      swap1\n      dup2\n      add\n      0x40\n      mstore\n      dup1\n      swap3\n      swap2\n      swap1\n      dup2\n      dup2\n      mstore\n      0x20\n      add\n      dup3\n      dup1\n      sload\n      tag_159\n      swap1\n      tag_139\n      jump\t// in\n    tag_159:\n      dup1\n      iszero\n      tag_160\n      jumpi\n      dup1\n      0x1f\n      lt\n      tag_161\n      jumpi\n      0x0100\n      dup1\n      dup4\n      sload\n      div\n      mul\n      dup4\n      mstore\n      swap2\n      0x20\n      add\n      swap2\n      jump(tag_160)\n    tag_161:\n      dup3\n      add\n      swap2\n      swap1\n      0x00\n      mstore\n      keccak256(0x00, 0x20)\n      swap1\n    tag_162:\n      dup2\n      sload\n      dup2\n      mstore\n      swap1\n      0x01\n      add\n      swap1\n      0x20\n      add\n      dup1\n      dup4\n      gt\n      tag_162\n      jumpi\n      dup3\n      swap1\n      sub\n      0x1f\n      and\n      dup3\n      add\n      swap2\n    tag_160:\n      pop\n      pop\n      pop\n      pop\n      pop\n      dup2\n      jump\t// out\n        /* \"Demo.sol\":1169:1270  function demoLenMyDynamicVar() public view  returns(uint) {... */\n    tag_67:\n        /* \"Demo.sol\":1221:1225  uint */\n      0x00\n        /* \"Demo.sol\":1244:1256  myDynamicVar */\n      0x02\n        /* \"Demo.sol\":1244:1263  myDynamicVar.length */\n      dup1\n      sload\n      tag_164\n      swap1\n      tag_139\n      jump\t// in\n    tag_164:\n      swap1\n      pop\n        /* \"Demo.sol\":1237:1263  return myDynamicVar.length */\n      swap1\n      pop\n        /* \"Demo.sol\":1169:1270  function demoLenMyDynamicVar() public view  returns(uint) {... */\n      swap1\n      jump\t// out\n        /* \"Demo.sol\":760:906  function getTestPayment(address _addr, uint _index) public view returns(Payment memory) {... */\n    tag_73:\n        /* \"Demo.sol\":832:846  Payment memory */\n      tag_165\n      tag_166\n      jump\t// in\n    tag_165:\n        /* \"Demo.sol\":865:873  balances */\n      0x00\n        /* \"Demo.sol\":865:880  balances[_addr] */\n      dup1\n        /* \"Demo.sol\":874:879  _addr */\n      dup5\n        /* \"Demo.sol\":865:880  balances[_addr] */\n      0xffffffffffffffffffffffffffffffffffffffff\n      and\n      0xffffffffffffffffffffffffffffffffffffffff\n      and\n      dup2\n      mstore\n      0x20\n      add\n      swap1\n      dup2\n      mstore\n      0x20\n      add\n      0x00\n      keccak256\n        /* \"Demo.sol\":865:889  balances[_addr].payments */\n      0x01\n      add\n        /* \"Demo.sol\":865:897  balances[_addr].payments[_index] */\n      0x00\n        /* \"Demo.sol\":890:896  _index */\n      dup4\n        /* \"Demo.sol\":865:897  balances[_addr].payments[_index] */\n      dup2\n      mstore\n      0x20\n      add\n      swap1\n      dup2\n      mstore\n      0x20\n      add\n      0x00\n      keccak256\n        /* \"Demo.sol\":858:897  return balances[_addr].payments[_index] */\n      mload(0x40)\n      dup1\n      0x80\n      add\n      0x40\n      mstore\n      swap1\n      dup2\n      0x00\n      dup3\n      add\n      sload\n      dup2\n      mstore\n      0x20\n      add\n      0x01\n      dup3\n      add\n      sload\n      dup2\n      mstore\n      0x20\n      add\n      0x02\n      dup3\n      add\n      0x00\n      swap1\n      sload\n      swap1\n      0x0100\n      exp\n      swap1\n      div\n      0xffffffffffffffffffffffffffffffffffffffff\n      and\n      0xffffffffffffffffffffffffffffffffffffffff\n      and\n      0xffffffffffffffffffffffffffffffffffffffff\n      and\n      dup2\n      mstore\n      0x20\n      add\n      0x03\n      dup3\n      add\n      dup1\n      sload\n      tag_168\n      swap1\n      tag_139\n      jump\t// in\n    tag_168:\n      dup1\n      0x1f\n      add\n      0x20\n      dup1\n      swap2\n      div\n      mul\n      0x20\n      add\n      mload(0x40)\n      swap1\n      dup2\n      add\n      0x40\n      mstore\n      dup1\n      swap3\n      swap2\n      swap1\n      dup2\n      dup2\n      mstore\n      0x20\n      add\n      dup3\n      dup1\n      sload\n      tag_169\n      swap1\n      tag_139\n      jump\t// in\n    tag_169:\n      dup1\n      iszero\n      tag_170\n      jumpi\n      dup1\n      0x1f\n      lt\n      tag_171\n      jumpi\n      0x0100\n      dup1\n      dup4\n      sload\n      div\n      mul\n      dup4\n      mstore\n      swap2\n      0x20\n      add\n      swap2\n      jump(tag_170)\n    tag_171:\n      dup3\n      add\n      swap2\n      swap1\n      0x00\n      mstore\n      keccak256(0x00, 0x20)\n      swap1\n    tag_172:\n      dup2\n      sload\n      dup2\n      mstore\n      swap1\n      0x01\n      add\n      swap1\n      0x20\n      add\n      dup1\n      dup4\n      gt\n      tag_172\n      jumpi\n      dup3\n      swap1\n      sub\n      0x1f\n      and\n      dup3\n      add\n      swap2\n    tag_170:\n      pop\n      pop\n      pop\n      pop\n      pop\n      dup2\n      mstore\n      pop\n      pop\n      swap1\n      pop\n        /* \"Demo.sol\":760:906  function getTestPayment(address _addr, uint _index) public view returns(Payment memory) {... */\n      swap3\n      swap2\n      pop\n      pop\n      jump\t// out\n        /* \"Demo.sol\":2381:2456  function received() public {... */\n    tag_78:\n        /* \"Demo.sol\":2434:2449  Status.Received */\n      0x02\n        /* \"Demo.sol\":2418:2431  currentStatus */\n      0x16\n      0x00\n        /* \"Demo.sol\":2418:2449  currentStatus = Status.Received */\n      0x0100\n      exp\n      dup2\n      sload\n      dup2\n      0xff\n      mul\n      not\n      and\n      swap1\n      dup4\n      0x02\n      dup2\n      gt\n      iszero\n      tag_174\n      jumpi\n      tag_175\n      tag_151\n      jump\t// in\n    tag_175:\n    tag_174:\n      mul\n      or\n      swap1\n      sstore\n      pop\n        /* \"Demo.sol\":2381:2456  function received() public {... */\n      jump\t// out\n        /* \"Demo.sol\":1276:1377  function demoLenMyDynamicVar1() public view  returns(bytes1) {... */\n    tag_81:\n        /* \"Demo.sol\":1329:1335  bytes1 */\n      0x00\n        /* \"Demo.sol\":1354:1367  myDynamicVar1 */\n      0x03\n        /* \"Demo.sol\":1368:1369  0 */\n      0x00\n        /* \"Demo.sol\":1354:1370  myDynamicVar1[0] */\n      dup2\n      sload\n      tag_177\n      swap1\n      tag_139\n      jump\t// in\n    tag_177:\n      dup2\n      lt\n      tag_178\n      jumpi\n      tag_179\n      tag_130\n      jump\t// in\n    tag_179:\n    tag_178:\n      dup2\n      sload\n      0x01\n      and\n      iszero\n      tag_180\n      jumpi\n      swap1\n      0x00\n      mstore\n      keccak256(0x00, 0x20)\n      swap1\n      0x20\n      swap2\n      dup3\n      dup3\n      div\n      add\n      swap2\n      swap1\n      mod\n    tag_180:\n      swap1\n      sload\n      swap1\n      byte\n      0x0100000000000000000000000000000000000000000000000000000000000000\n      mul\n        /* \"Demo.sol\":1347:1370  return myDynamicVar1[0] */\n      swap1\n      pop\n        /* \"Demo.sol\":1276:1377  function demoLenMyDynamicVar1() public view  returns(bytes1) {... */\n      swap1\n      jump\t// out\n        /* \"Demo.sol\":1029:1069  bytes public myDynamicVar1 = \"test here\" */\n    tag_86:\n      0x03\n      dup1\n      sload\n      tag_181\n      swap1\n      tag_139\n      jump\t// in\n    tag_181:\n      dup1\n      0x1f\n      add\n      0x20\n      dup1\n      swap2\n      div\n      mul\n      0x20\n      add\n      mload(0x40)\n      swap1\n      dup2\n      add\n      0x40\n      mstore\n      dup1\n      swap3\n      swap2\n      swap1\n      dup2\n      dup2\n      mstore\n      0x20\n      add\n      dup3\n      dup1\n      sload\n      tag_182\n      swap1\n      tag_139\n      jump\t// in\n    tag_182:\n      dup1\n      iszero\n      tag_183\n      jumpi\n      dup1\n      0x1f\n      lt\n      tag_184\n      jumpi\n      0x0100\n      dup1\n      dup4\n      sload\n      div\n      mul\n      dup4\n      mstore\n      swap2\n      0x20\n      add\n      swap2\n      jump(tag_183)\n    tag_184:\n      dup3\n      add\n      swap2\n      swap1\n      0x00\n      mstore\n      keccak256(0x00, 0x20)\n      swap1\n    tag_185:\n      dup2\n      sload\n      dup2\n      mstore\n      swap1\n      0x01\n      add\n      swap1\n      0x20\n      add\n      dup1\n      dup4\n      gt\n      tag_185\n      jumpi\n      dup3\n      swap1\n      sub\n      0x1f\n      and\n      dup3\n      add\n      swap2\n    tag_183:\n      pop\n      pop\n      pop\n      pop\n      pop\n      dup2\n      jump\t// out\n        /* \"Demo.sol\":1903:2019  function populateDigitsArray() public {... */\n    tag_90:\n        /* \"Demo.sol\":1951:2012  digits = [... */\n      mload(0x40)\n      dup1\n      0x40\n      add\n      0x40\n      mstore\n      dup1\n      mload(0x40)\n      dup1\n      0x60\n      add\n      0x40\n      mstore\n      dup1\n        /* \"Demo.sol\":1975:1976  3 */\n      0x03\n        /* \"Demo.sol\":1951:2012  digits = [... */\n      0xff\n      and\n      dup2\n      mstore\n      0x20\n      add\n        /* \"Demo.sol\":1977:1978  4 */\n      0x04\n        /* \"Demo.sol\":1951:2012  digits = [... */\n      0xff\n      and\n      dup2\n      mstore\n      0x20\n      add\n        /* \"Demo.sol\":1979:1980  5 */\n      0x05\n        /* \"Demo.sol\":1951:2012  digits = [... */\n      0xff\n      and\n      dup2\n      mstore\n      pop\n      dup2\n      mstore\n      0x20\n      add\n      mload(0x40)\n      dup1\n      0x60\n      add\n      0x40\n      mstore\n      dup1\n        /* \"Demo.sol\":1996:1997  6 */\n      0x06\n        /* \"Demo.sol\":1951:2012  digits = [... */\n      0xff\n      and\n      dup2\n      mstore\n      0x20\n      add\n        /* \"Demo.sol\":1998:1999  7 */\n      0x07\n        /* \"Demo.sol\":1951:2012  digits = [... */\n      0xff\n      and\n      dup2\n      mstore\n      0x20\n      add\n        /* \"Demo.sol\":2000:2001  8 */\n      0x08\n        /* \"Demo.sol\":1951:2012  digits = [... */\n      0xff\n      and\n      dup2\n      mstore\n      pop\n      dup2\n      mstore\n      pop\n        /* \"Demo.sol\":1951:1957  digits */\n      0x15\n        /* \"Demo.sol\":1951:2012  digits = [... */\n      swap1\n      0x02\n      tag_187\n      swap3\n      swap2\n      swap1\n      tag_188\n      jump\t// in\n    tag_187:\n      pop\n        /* \"Demo.sol\":1903:2019  function populateDigitsArray() public {... */\n      jump\t// out\n        /* \"Demo.sol\":1603:1801  function sampleMemory() public view returns(uint[] memory) {... */\n    tag_93:\n        /* \"Demo.sol\":1647:1660  uint[] memory */\n      0x60\n        /* \"Demo.sol\":1672:1695  uint[] memory tempArray */\n      0x00\n        /* \"Demo.sol\":1709:1711  10 */\n      0x0a\n        /* \"Demo.sol\":1698:1712  new uint[](10) */\n      0xffffffffffffffff\n      dup2\n      gt\n      iszero\n      tag_190\n      jumpi\n      tag_191\n      tag_192\n      jump\t// in\n    tag_191:\n    tag_190:\n      mload(0x40)\n      swap1\n      dup1\n      dup3\n      mstore\n      dup1\n      0x20\n      mul\n      0x20\n      add\n      dup3\n      add\n      0x40\n      mstore\n      dup1\n      iszero\n      tag_193\n      jumpi\n      dup2\n      0x20\n      add\n      0x20\n      dup3\n      mul\n      dup1\n      calldatasize\n      dup4\n      calldatacopy\n      dup1\n      dup3\n      add\n      swap2\n      pop\n      pop\n      swap1\n      pop\n    tag_193:\n      pop\n        /* \"Demo.sol\":1672:1712  uint[] memory tempArray = new uint[](10) */\n      swap1\n      pop\n        /* \"Demo.sol\":1737:1740  100 */\n      0x64\n        /* \"Demo.sol\":1722:1731  tempArray */\n      dup2\n        /* \"Demo.sol\":1732:1733  0 */\n      0x00\n        /* \"Demo.sol\":1722:1734  tempArray[0] */\n      dup2\n      mload\n      dup2\n      lt\n      tag_194\n      jumpi\n      tag_195\n      tag_130\n      jump\t// in\n    tag_195:\n    tag_194:\n      0x20\n      mul\n      0x20\n      add\n      add\n        /* \"Demo.sol\":1722:1740  tempArray[0] = 100 */\n      dup2\n      dup2\n      mstore\n      pop\n      pop\n        /* \"Demo.sol\":1765:1768  200 */\n      0xc8\n        /* \"Demo.sol\":1750:1759  tempArray */\n      dup2\n        /* \"Demo.sol\":1760:1761  1 */\n      0x01\n        /* \"Demo.sol\":1750:1762  tempArray[1] */\n      dup2\n      mload\n      dup2\n      lt\n      tag_196\n      jumpi\n      tag_197\n      tag_130\n      jump\t// in\n    tag_197:\n    tag_196:\n      0x20\n      mul\n      0x20\n      add\n      add\n        /* \"Demo.sol\":1750:1768  tempArray[1] = 200 */\n      dup2\n      dup2\n      mstore\n      pop\n      pop\n        /* \"Demo.sol\":1785:1794  tempArray */\n      dup1\n        /* \"Demo.sol\":1778:1794  return tempArray */\n      swap2\n      pop\n      pop\n        /* \"Demo.sol\":1603:1801  function sampleMemory() public view returns(uint[] memory) {... */\n      swap1\n      jump\t// out\n        /* \"Demo.sol\":361:754  function payTest(string memory message) public payable {... */\n    tag_99:\n        /* \"Demo.sol\":427:445  uint paymentNumber */\n      0x00\n        /* \"Demo.sol\":448:456  balances */\n      dup1\n        /* \"Demo.sol\":448:468  balances[msg.sender] */\n      0x00\n        /* \"Demo.sol\":457:467  msg.sender */\n      caller\n        /* \"Demo.sol\":448:468  balances[msg.sender] */\n      0xffffffffffffffffffffffffffffffffffffffff\n      and\n      0xffffffffffffffffffffffffffffffffffffffff\n      and\n      dup2\n      mstore\n      0x20\n      add\n      swap1\n      dup2\n      mstore\n      0x20\n      add\n      0x00\n      keccak256\n        /* \"Demo.sol\":448:482  balances[msg.sender].totalPayments */\n      0x00\n      add\n      sload\n        /* \"Demo.sol\":427:482  uint paymentNumber = balances[msg.sender].totalPayments */\n      swap1\n      pop\n        /* \"Demo.sol\":492:500  balances */\n      0x00\n        /* \"Demo.sol\":492:512  balances[msg.sender] */\n      dup1\n        /* \"Demo.sol\":501:511  msg.sender */\n      caller\n        /* \"Demo.sol\":492:512  balances[msg.sender] */\n      0xffffffffffffffffffffffffffffffffffffffff\n      and\n      0xffffffffffffffffffffffffffffffffffffffff\n      and\n      dup2\n      mstore\n      0x20\n      add\n      swap1\n      dup2\n      mstore\n      0x20\n      add\n      0x00\n      keccak256\n        /* \"Demo.sol\":492:526  balances[msg.sender].totalPayments */\n      0x00\n      add\n      0x00\n        /* \"Demo.sol\":492:528  balances[msg.sender].totalPayments++ */\n      dup2\n      sload\n      dup1\n      swap3\n      swap2\n      swap1\n      tag_199\n      swap1\n      tag_200\n      jump\t// in\n    tag_199:\n      swap2\n      swap1\n      pop\n      sstore\n      pop\n        /* \"Demo.sol\":538:563  Payment memory newPayment */\n      0x00\n        /* \"Demo.sol\":566:680  Payment(... */\n      mload(0x40)\n      dup1\n      0x80\n      add\n      0x40\n      mstore\n      dup1\n        /* \"Demo.sol\":587:596  msg.value */\n      callvalue\n        /* \"Demo.sol\":566:680  Payment(... */\n      dup2\n      mstore\n      0x20\n      add\n        /* \"Demo.sol\":610:625  block.timestamp */\n      timestamp\n        /* \"Demo.sol\":566:680  Payment(... */\n      dup2\n      mstore\n      0x20\n      add\n        /* \"Demo.sol\":639:649  msg.sender */\n      caller\n        /* \"Demo.sol\":566:680  Payment(... */\n      0xffffffffffffffffffffffffffffffffffffffff\n      and\n      dup2\n      mstore\n      0x20\n      add\n        /* \"Demo.sol\":663:670  message */\n      dup5\n        /* \"Demo.sol\":566:680  Payment(... */\n      dup2\n      mstore\n      pop\n        /* \"Demo.sol\":538:680  Payment memory newPayment = Payment(... */\n      swap1\n      pop\n        /* \"Demo.sol\":737:747  newPayment */\n      dup1\n        /* \"Demo.sol\":690:698  balances */\n      0x00\n        /* \"Demo.sol\":690:710  balances[msg.sender] */\n      dup1\n        /* \"Demo.sol\":699:709  msg.sender */\n      caller\n        /* \"Demo.sol\":690:710  balances[msg.sender] */\n      0xffffffffffffffffffffffffffffffffffffffff\n      and\n      0xffffffffffffffffffffffffffffffffffffffff\n      and\n      dup2\n      mstore\n      0x20\n      add\n      swap1\n      dup2\n      mstore\n      0x20\n      add\n      0x00\n      keccak256\n        /* \"Demo.sol\":690:719  balances[msg.sender].payments */\n      0x01\n      add\n        /* \"Demo.sol\":690:734  balances[msg.sender].payments[paymentNumber] */\n      0x00\n        /* \"Demo.sol\":720:733  paymentNumber */\n      dup5\n        /* \"Demo.sol\":690:734  balances[msg.sender].payments[paymentNumber] */\n      dup2\n      mstore\n      0x20\n      add\n      swap1\n      dup2\n      mstore\n      0x20\n      add\n      0x00\n      keccak256\n        /* \"Demo.sol\":690:747  balances[msg.sender].payments[paymentNumber] = newPayment */\n      0x00\n      dup3\n      add\n      mload\n      dup2\n      0x00\n      add\n      sstore\n      0x20\n      dup3\n      add\n      mload\n      dup2\n      0x01\n      add\n      sstore\n      0x40\n      dup3\n      add\n      mload\n      dup2\n      0x02\n      add\n      exp(0x0100, 0x00)\n      dup2\n      sload\n      dup2\n      0xffffffffffffffffffffffffffffffffffffffff\n      mul\n      not\n      and\n      swap1\n      dup4\n      0xffffffffffffffffffffffffffffffffffffffff\n      and\n      mul\n      or\n      swap1\n      sstore\n      pop\n      0x60\n      dup3\n      add\n      mload\n      dup2\n      0x03\n      add\n      swap1\n      dup2\n      tag_201\n      swap2\n      swap1\n      tag_202\n      jump\t// in\n    tag_201:\n      pop\n      swap1\n      pop\n      pop\n        /* \"Demo.sol\":416:754  {... */\n      pop\n      pop\n        /* \"Demo.sol\":361:754  function payTest(string memory message) public payable {... */\n      pop\n      jump\t// out\n        /* \"Demo.sol\":2298:2375  function delivered() public {... */\n    tag_102:\n        /* \"Demo.sol\":2352:2368  Status.Delivered */\n      0x01\n        /* \"Demo.sol\":2336:2349  currentStatus */\n      0x16\n      0x00\n        /* \"Demo.sol\":2336:2368  currentStatus = Status.Delivered */\n      0x0100\n      exp\n      dup2\n      sload\n      dup2\n      0xff\n      mul\n      not\n      and\n      swap1\n      dup4\n      0x02\n      dup2\n      gt\n      iszero\n      tag_204\n      jumpi\n      tag_205\n      tag_151\n      jump\t// in\n    tag_205:\n    tag_204:\n      mul\n      or\n      swap1\n      sstore\n      pop\n        /* \"Demo.sol\":2298:2375  function delivered() public {... */\n      jump\t// out\n        /* \"Demo.sol\":1835:1866  uint[10] public items = [1,2,3] */\n    tag_106:\n      0x0b\n      dup2\n      0x0a\n      dup2\n      lt\n      tag_206\n      jumpi\n      0x00\n      dup1\n      revert\n    tag_206:\n      add\n      0x00\n      swap2\n      pop\n      swap1\n      pop\n      sload\n      dup2\n      jump\t// out\n        /* \"Demo.sol\":1076:1163  function demoLenMyVar() public view  returns(uint) {... */\n    tag_110:\n        /* \"Demo.sol\":1121:1125  uint */\n      0x00\n        /* \"Demo.sol\":1144:1156  myVar.length */\n      0x20\n        /* \"Demo.sol\":1137:1156  return myVar.length */\n      0xff\n      and\n      swap1\n      pop\n        /* \"Demo.sol\":1076:1163  function demoLenMyVar() public view  returns(uint) {... */\n      swap1\n      jump\t// out\n        /* \"Demo.sol\":924:958  bytes32 public myVar = \"test here\" */\n    tag_114:\n      sload(0x01)\n      dup2\n      jump\t// out\n        /* \"Demo.sol\":1397:1418  uint[] public numbers */\n    tag_120:\n      0x04\n      dup2\n      dup2\n      sload\n      dup2\n      lt\n      tag_209\n      jumpi\n      0x00\n      dup1\n      revert\n    tag_209:\n      swap1\n      0x00\n      mstore\n      keccak256(0x00, 0x20)\n      add\n      0x00\n      swap2\n      pop\n      swap1\n      pop\n      sload\n      dup2\n      jump\t// out\n        /* \"Demo.sol\":2188:2215  Status public currentStatus */\n    tag_124:\n      0x16\n      0x00\n      swap1\n      sload\n      swap1\n      0x0100\n      exp\n      swap1\n      div\n      0xff\n      and\n      dup2\n      jump\t// out\n    tag_166:\n      mload(0x40)\n      dup1\n      0x80\n      add\n      0x40\n      mstore\n      dup1\n      0x00\n      dup2\n      mstore\n      0x20\n      add\n      0x00\n      dup2\n      mstore\n      0x20\n      add\n      and(0xffffffffffffffffffffffffffffffffffffffff, 0x00)\n      dup2\n      mstore\n      0x20\n      add\n      0x60\n      dup2\n      mstore\n      pop\n      swap1\n      jump\t// out\n    tag_188:\n      dup3\n      dup1\n      sload\n      dup3\n      dup3\n      sstore\n      swap1\n      0x00\n      mstore\n      keccak256(0x00, 0x20)\n      swap1\n      dup2\n      add\n      swap3\n      dup3\n      iszero\n      tag_211\n      jumpi\n      swap2\n      0x20\n      mul\n      dup3\n      add\n    tag_212:\n      dup3\n      dup2\n      gt\n      iszero\n      tag_213\n      jumpi\n      dup3\n      mload\n      dup3\n      swap1\n      0x03\n      tag_214\n      swap3\n      swap2\n      swap1\n      tag_215\n      jump\t// in\n    tag_214:\n      pop\n      swap2\n      0x20\n      add\n      swap2\n      swap1\n      0x01\n      add\n      swap1\n      jump(tag_212)\n    tag_213:\n    tag_211:\n      pop\n      swap1\n      pop\n      tag_216\n      swap2\n      swap1\n      tag_217\n      jump\t// in\n    tag_216:\n      pop\n      swap1\n      jump\t// out\n    tag_215:\n      dup3\n      dup1\n      sload\n      dup3\n      dup3\n      sstore\n      swap1\n      0x00\n      mstore\n      keccak256(0x00, 0x20)\n      swap1\n      dup2\n      add\n      swap3\n      dup3\n      iszero\n      tag_218\n      jumpi\n      swap2\n      0x20\n      mul\n      dup3\n      add\n    tag_219:\n      dup3\n      dup2\n      gt\n      iszero\n      tag_220\n      jumpi\n      dup3\n      mload\n      dup3\n      swap1\n      0xff\n      and\n      swap1\n      sstore\n      swap2\n      0x20\n      add\n      swap2\n      swap1\n      0x01\n      add\n      swap1\n      jump(tag_219)\n    tag_220:\n    tag_218:\n      pop\n      swap1\n      pop\n      tag_221\n      swap2\n      swap1\n      tag_222\n      jump\t// in\n    tag_221:\n      pop\n      swap1\n      jump\t// out\n    tag_217:\n    tag_223:\n      dup1\n      dup3\n      gt\n      iszero\n      tag_224\n      jumpi\n      0x00\n      dup2\n      dup2\n      tag_225\n      swap2\n      swap1\n      tag_226\n      jump\t// in\n    tag_225:\n      pop\n      0x01\n      add\n      jump(tag_223)\n    tag_224:\n      pop\n      swap1\n      jump\t// out\n    tag_222:\n    tag_227:\n      dup1\n      dup3\n      gt\n      iszero\n      tag_228\n      jumpi\n      0x00\n      dup2\n      0x00\n      swap1\n      sstore\n      pop\n      0x01\n      add\n      jump(tag_227)\n    tag_228:\n      pop\n      swap1\n      jump\t// out\n    tag_226:\n      pop\n      dup1\n      sload\n      0x00\n      dup3\n      sstore\n      swap1\n      0x00\n      mstore\n      keccak256(0x00, 0x20)\n      swap1\n      dup2\n      add\n      swap1\n      tag_230\n      swap2\n      swap1\n      tag_222\n      jump\t// in\n    tag_230:\n      pop\n      jump\t// out\n        /* \"#utility.yul\":7:105   */\n    tag_231:\n        /* \"#utility.yul\":58:64   */\n      0x00\n        /* \"#utility.yul\":92:97   */\n      dup2\n        /* \"#utility.yul\":86:98   */\n      mload\n        /* \"#utility.yul\":76:98   */\n      swap1\n      pop\n        /* \"#utility.yul\":7:105   */\n      swap2\n      swap1\n      pop\n      jump\t// out\n        /* \"#utility.yul\":111:279   */\n    tag_232:\n        /* \"#utility.yul\":194:205   */\n      0x00\n        /* \"#utility.yul\":228:234   */\n      dup3\n        /* \"#utility.yul\":223:226   */\n      dup3\n        /* \"#utility.yul\":216:235   */\n      mstore\n        /* \"#utility.yul\":268:272   */\n      0x20\n        /* \"#utility.yul\":263:266   */\n      dup3\n        /* \"#utility.yul\":259:273   */\n      add\n        /* \"#utility.yul\":244:273   */\n      swap1\n      pop\n        /* \"#utility.yul\":111:279   */\n      swap3\n      swap2\n      pop\n      pop\n      jump\t// out\n        /* \"#utility.yul\":285:531   */\n    tag_233:\n        /* \"#utility.yul\":366:367   */\n      0x00\n        /* \"#utility.yul\":376:489   */\n    tag_298:\n        /* \"#utility.yul\":390:396   */\n      dup4\n        /* \"#utility.yul\":387:388   */\n      dup2\n        /* \"#utility.yul\":384:397   */\n      lt\n        /* \"#utility.yul\":376:489   */\n      iszero\n      tag_300\n      jumpi\n        /* \"#utility.yul\":475:476   */\n      dup1\n        /* \"#utility.yul\":470:473   */\n      dup3\n        /* \"#utility.yul\":466:477   */\n      add\n        /* \"#utility.yul\":460:478   */\n      mload\n        /* \"#utility.yul\":456:457   */\n      dup2\n        /* \"#utility.yul\":451:454   */\n      dup5\n        /* \"#utility.yul\":447:458   */\n      add\n        /* \"#utility.yul\":440:479   */\n      mstore\n        /* \"#utility.yul\":412:414   */\n      0x20\n        /* \"#utility.yul\":409:410   */\n      dup2\n        /* \"#utility.yul\":405:415   */\n      add\n        /* \"#utility.yul\":400:415   */\n      swap1\n      pop\n        /* \"#utility.yul\":376:489   */\n      jump(tag_298)\n    tag_300:\n        /* \"#utility.yul\":523:524   */\n      0x00\n        /* \"#utility.yul\":514:520   */\n      dup5\n        /* \"#utility.yul\":509:512   */\n      dup5\n        /* \"#utility.yul\":505:521   */\n      add\n        /* \"#utility.yul\":498:525   */\n      mstore\n        /* \"#utility.yul\":347:531   */\n      pop\n        /* \"#utility.yul\":285:531   */\n      pop\n      pop\n      pop\n      jump\t// out\n        /* \"#utility.yul\":537:639   */\n    tag_234:\n        /* \"#utility.yul\":578:584   */\n      0x00\n        /* \"#utility.yul\":629:631   */\n      0x1f\n        /* \"#utility.yul\":625:632   */\n      not\n        /* \"#utility.yul\":620:622   */\n      0x1f\n        /* \"#utility.yul\":613:618   */\n      dup4\n        /* \"#utility.yul\":609:623   */\n      add\n        /* \"#utility.yul\":605:633   */\n      and\n        /* \"#utility.yul\":595:633   */\n      swap1\n      pop\n        /* \"#utility.yul\":537:639   */\n      swap2\n      swap1\n      pop\n      jump\t// out\n        /* \"#utility.yul\":645:1018   */\n    tag_235:\n        /* \"#utility.yul\":731:734   */\n      0x00\n        /* \"#utility.yul\":759:797   */\n      tag_303\n        /* \"#utility.yul\":791:796   */\n      dup3\n        /* \"#utility.yul\":759:797   */\n      tag_231\n      jump\t// in\n    tag_303:\n        /* \"#utility.yul\":813:883   */\n      tag_304\n        /* \"#utility.yul\":876:882   */\n      dup2\n        /* \"#utility.yul\":871:874   */\n      dup6\n        /* \"#utility.yul\":813:883   */\n      tag_232\n      jump\t// in\n    tag_304:\n        /* \"#utility.yul\":806:883   */\n      swap4\n      pop\n        /* \"#utility.yul\":892:957   */\n      tag_305\n        /* \"#utility.yul\":950:956   */\n      dup2\n        /* \"#utility.yul\":945:948   */\n      dup6\n        /* \"#utility.yul\":938:942   */\n      0x20\n        /* \"#utility.yul\":931:936   */\n      dup7\n        /* \"#utility.yul\":927:943   */\n      add\n        /* \"#utility.yul\":892:957   */\n      tag_233\n      jump\t// in\n    tag_305:\n        /* \"#utility.yul\":982:1011   */\n      tag_306\n        /* \"#utility.yul\":1004:1010   */\n      dup2\n        /* \"#utility.yul\":982:1011   */\n      tag_234\n      jump\t// in\n    tag_306:\n        /* \"#utility.yul\":977:980   */\n      dup5\n        /* \"#utility.yul\":973:1012   */\n      add\n        /* \"#utility.yul\":966:1012   */\n      swap2\n      pop\n        /* \"#utility.yul\":735:1018   */\n      pop\n        /* \"#utility.yul\":645:1018   */\n      swap3\n      swap2\n      pop\n      pop\n      jump\t// out\n        /* \"#utility.yul\":1024:1333   */\n    tag_34:\n        /* \"#utility.yul\":1135:1139   */\n      0x00\n        /* \"#utility.yul\":1173:1175   */\n      0x20\n        /* \"#utility.yul\":1162:1171   */\n      dup3\n        /* \"#utility.yul\":1158:1176   */\n      add\n        /* \"#utility.yul\":1150:1176   */\n      swap1\n      pop\n        /* \"#utility.yul\":1222:1231   */\n      dup2\n        /* \"#utility.yul\":1216:1220   */\n      dup2\n        /* \"#utility.yul\":1212:1232   */\n      sub\n        /* \"#utility.yul\":1208:1209   */\n      0x00\n        /* \"#utility.yul\":1197:1206   */\n      dup4\n        /* \"#utility.yul\":1193:1210   */\n      add\n        /* \"#utility.yul\":1186:1233   */\n      mstore\n        /* \"#utility.yul\":1250:1326   */\n      tag_308\n        /* \"#utility.yul\":1321:1325   */\n      dup2\n        /* \"#utility.yul\":1312:1318   */\n      dup5\n        /* \"#utility.yul\":1250:1326   */\n      tag_235\n      jump\t// in\n    tag_308:\n        /* \"#utility.yul\":1242:1326   */\n      swap1\n      pop\n        /* \"#utility.yul\":1024:1333   */\n      swap3\n      swap2\n      pop\n      pop\n      jump\t// out\n        /* \"#utility.yul\":1339:1414   */\n    tag_236:\n        /* \"#utility.yul\":1372:1378   */\n      0x00\n        /* \"#utility.yul\":1405:1407   */\n      0x40\n        /* \"#utility.yul\":1399:1408   */\n      mload\n        /* \"#utility.yul\":1389:1408   */\n      swap1\n      pop\n        /* \"#utility.yul\":1339:1414   */\n      swap1\n      jump\t// out\n        /* \"#utility.yul\":1420:1537   */\n    tag_237:\n        /* \"#utility.yul\":1529:1530   */\n      0x00\n        /* \"#utility.yul\":1526:1527   */\n      dup1\n        /* \"#utility.yul\":1519:1531   */\n      revert\n        /* \"#utility.yul\":1543:1660   */\n    tag_238:\n        /* \"#utility.yul\":1652:1653   */\n      0x00\n        /* \"#utility.yul\":1649:1650   */\n      dup1\n        /* \"#utility.yul\":1642:1654   */\n      revert\n        /* \"#utility.yul\":1666:1743   */\n    tag_239:\n        /* \"#utility.yul\":1703:1710   */\n      0x00\n        /* \"#utility.yul\":1732:1737   */\n      dup2\n        /* \"#utility.yul\":1721:1737   */\n      swap1\n      pop\n        /* \"#utility.yul\":1666:1743   */\n      swap2\n      swap1\n      pop\n      jump\t// out\n        /* \"#utility.yul\":1749:1871   */\n    tag_240:\n        /* \"#utility.yul\":1822:1846   */\n      tag_314\n        /* \"#utility.yul\":1840:1845   */\n      dup2\n        /* \"#utility.yul\":1822:1846   */\n      tag_239\n      jump\t// in\n    tag_314:\n        /* \"#utility.yul\":1815:1820   */\n      dup2\n        /* \"#utility.yul\":1812:1847   */\n      eq\n        /* \"#utility.yul\":1802:1865   */\n      tag_315\n      jumpi\n        /* \"#utility.yul\":1861:1862   */\n      0x00\n        /* \"#utility.yul\":1858:1859   */\n      dup1\n        /* \"#utility.yul\":1851:1863   */\n      revert\n        /* \"#utility.yul\":1802:1865   */\n    tag_315:\n        /* \"#utility.yul\":1749:1871   */\n      pop\n      jump\t// out\n        /* \"#utility.yul\":1877:2016   */\n    tag_241:\n        /* \"#utility.yul\":1923:1928   */\n      0x00\n        /* \"#utility.yul\":1961:1967   */\n      dup2\n        /* \"#utility.yul\":1948:1968   */\n      calldataload\n        /* \"#utility.yul\":1939:1968   */\n      swap1\n      pop\n        /* \"#utility.yul\":1977:2010   */\n      tag_317\n        /* \"#utility.yul\":2004:2009   */\n      dup2\n        /* \"#utility.yul\":1977:2010   */\n      tag_240\n      jump\t// in\n    tag_317:\n        /* \"#utility.yul\":1877:2016   */\n      swap3\n      swap2\n      pop\n      pop\n      jump\t// out\n        /* \"#utility.yul\":2022:2496   */\n    tag_38:\n        /* \"#utility.yul\":2090:2096   */\n      0x00\n        /* \"#utility.yul\":2098:2104   */\n      dup1\n        /* \"#utility.yul\":2147:2149   */\n      0x40\n        /* \"#utility.yul\":2135:2144   */\n      dup4\n        /* \"#utility.yul\":2126:2133   */\n      dup6\n        /* \"#utility.yul\":2122:2145   */\n      sub\n        /* \"#utility.yul\":2118:2150   */\n      slt\n        /* \"#utility.yul\":2115:2234   */\n      iszero\n      tag_319\n      jumpi\n        /* \"#utility.yul\":2153:2232   */\n      tag_320\n      tag_237\n      jump\t// in\n    tag_320:\n        /* \"#utility.yul\":2115:2234   */\n    tag_319:\n        /* \"#utility.yul\":2273:2274   */\n      0x00\n        /* \"#utility.yul\":2298:2351   */\n      tag_321\n        /* \"#utility.yul\":2343:2350   */\n      dup6\n        /* \"#utility.yul\":2334:2340   */\n      dup3\n        /* \"#utility.yul\":2323:2332   */\n      dup7\n        /* \"#utility.yul\":2319:2341   */\n      add\n        /* \"#utility.yul\":2298:2351   */\n      tag_241\n      jump\t// in\n    tag_321:\n        /* \"#utility.yul\":2288:2351   */\n      swap3\n      pop\n        /* \"#utility.yul\":2244:2361   */\n      pop\n        /* \"#utility.yul\":2400:2402   */\n      0x20\n        /* \"#utility.yul\":2426:2479   */\n      tag_322\n        /* \"#utility.yul\":2471:2478   */\n      dup6\n        /* \"#utility.yul\":2462:2468   */\n      dup3\n        /* \"#utility.yul\":2451:2460   */\n      dup7\n        /* \"#utility.yul\":2447:2469   */\n      add\n        /* \"#utility.yul\":2426:2479   */\n      tag_241\n      jump\t// in\n    tag_322:\n        /* \"#utility.yul\":2416:2479   */\n      swap2\n      pop\n        /* \"#utility.yul\":2371:2489   */\n      pop\n        /* \"#utility.yul\":2022:2496   */\n      swap3\n      pop\n      swap3\n      swap1\n      pop\n      jump\t// out\n        /* \"#utility.yul\":2502:2620   */\n    tag_242:\n        /* \"#utility.yul\":2589:2613   */\n      tag_324\n        /* \"#utility.yul\":2607:2612   */\n      dup2\n        /* \"#utility.yul\":2589:2613   */\n      tag_239\n      jump\t// in\n    tag_324:\n        /* \"#utility.yul\":2584:2587   */\n      dup3\n        /* \"#utility.yul\":2577:2614   */\n      mstore\n        /* \"#utility.yul\":2502:2620   */\n      pop\n      pop\n      jump\t// out\n        /* \"#utility.yul\":2626:2848   */\n    tag_41:\n        /* \"#utility.yul\":2719:2723   */\n      0x00\n        /* \"#utility.yul\":2757:2759   */\n      0x20\n        /* \"#utility.yul\":2746:2755   */\n      dup3\n        /* \"#utility.yul\":2742:2760   */\n      add\n        /* \"#utility.yul\":2734:2760   */\n      swap1\n      pop\n        /* \"#utility.yul\":2770:2841   */\n      tag_326\n        /* \"#utility.yul\":2838:2839   */\n      0x00\n        /* \"#utility.yul\":2827:2836   */\n      dup4\n        /* \"#utility.yul\":2823:2840   */\n      add\n        /* \"#utility.yul\":2814:2820   */\n      dup5\n        /* \"#utility.yul\":2770:2841   */\n      tag_242\n      jump\t// in\n    tag_326:\n        /* \"#utility.yul\":2626:2848   */\n      swap3\n      swap2\n      pop\n      pop\n      jump\t// out\n        /* \"#utility.yul\":2854:2980   */\n    tag_243:\n        /* \"#utility.yul\":2891:2898   */\n      0x00\n        /* \"#utility.yul\":2931:2973   */\n      0xffffffffffffffffffffffffffffffffffffffff\n        /* \"#utility.yul\":2924:2929   */\n      dup3\n        /* \"#utility.yul\":2920:2974   */\n      and\n        /* \"#utility.yul\":2909:2974   */\n      swap1\n      pop\n        /* \"#utility.yul\":2854:2980   */\n      swap2\n      swap1\n      pop\n      jump\t// out\n        /* \"#utility.yul\":2986:3082   */\n    tag_244:\n        /* \"#utility.yul\":3023:3030   */\n      0x00\n        /* \"#utility.yul\":3052:3076   */\n      tag_329\n        /* \"#utility.yul\":3070:3075   */\n      dup3\n        /* \"#utility.yul\":3052:3076   */\n      tag_243\n      jump\t// in\n    tag_329:\n        /* \"#utility.yul\":3041:3076   */\n      swap1\n      pop\n        /* \"#utility.yul\":2986:3082   */\n      swap2\n      swap1\n      pop\n      jump\t// out\n        /* \"#utility.yul\":3088:3210   */\n    tag_245:\n        /* \"#utility.yul\":3161:3185   */\n      tag_331\n        /* \"#utility.yul\":3179:3184   */\n      dup2\n        /* \"#utility.yul\":3161:3185   */\n      tag_244\n      jump\t// in\n    tag_331:\n        /* \"#utility.yul\":3154:3159   */\n      dup2\n        /* \"#utility.yul\":3151:3186   */\n      eq\n        /* \"#utility.yul\":3141:3204   */\n      tag_332\n      jumpi\n        /* \"#utility.yul\":3200:3201   */\n      0x00\n        /* \"#utility.yul\":3197:3198   */\n      dup1\n        /* \"#utility.yul\":3190:3202   */\n      revert\n        /* \"#utility.yul\":3141:3204   */\n    tag_332:\n        /* \"#utility.yul\":3088:3210   */\n      pop\n      jump\t// out\n        /* \"#utility.yul\":3216:3355   */\n    tag_246:\n        /* \"#utility.yul\":3262:3267   */\n      0x00\n        /* \"#utility.yul\":3300:3306   */\n      dup2\n        /* \"#utility.yul\":3287:3307   */\n      calldataload\n        /* \"#utility.yul\":3278:3307   */\n      swap1\n      pop\n        /* \"#utility.yul\":3316:3349   */\n      tag_334\n        /* \"#utility.yul\":3343:3348   */\n      dup2\n        /* \"#utility.yul\":3316:3349   */\n      tag_245\n      jump\t// in\n    tag_334:\n        /* \"#utility.yul\":3216:3355   */\n      swap3\n      swap2\n      pop\n      pop\n      jump\t// out\n        /* \"#utility.yul\":3361:3690   */\n    tag_48:\n        /* \"#utility.yul\":3420:3426   */\n      0x00\n        /* \"#utility.yul\":3469:3471   */\n      0x20\n        /* \"#utility.yul\":3457:3466   */\n      dup3\n        /* \"#utility.yul\":3448:3455   */\n      dup5\n        /* \"#utility.yul\":3444:3467   */\n      sub\n        /* \"#utility.yul\":3440:3472   */\n      slt\n        /* \"#utility.yul\":3437:3556   */\n      iszero\n      tag_336\n      jumpi\n        /* \"#utility.yul\":3475:3554   */\n      tag_337\n      tag_237\n      jump\t// in\n    tag_337:\n        /* \"#utility.yul\":3437:3556   */\n    tag_336:\n        /* \"#utility.yul\":3595:3596   */\n      0x00\n        /* \"#utility.yul\":3620:3673   */\n      tag_338\n        /* \"#utility.yul\":3665:3672   */\n      dup5\n        /* \"#utility.yul\":3656:3662   */\n      dup3\n        /* \"#utility.yul\":3645:3654   */\n      dup6\n        /* \"#utility.yul\":3641:3663   */\n      add\n        /* \"#utility.yul\":3620:3673   */\n      tag_246\n      jump\t// in\n    tag_338:\n        /* \"#utility.yul\":3610:3673   */\n      swap2\n      pop\n        /* \"#utility.yul\":3566:3683   */\n      pop\n        /* \"#utility.yul\":3361:3690   */\n      swap3\n      swap2\n      pop\n      pop\n      jump\t// out\n        /* \"#utility.yul\":3696:4025   */\n    tag_61:\n        /* \"#utility.yul\":3755:3761   */\n      0x00\n        /* \"#utility.yul\":3804:3806   */\n      0x20\n        /* \"#utility.yul\":3792:3801   */\n      dup3\n        /* \"#utility.yul\":3783:3790   */\n      dup5\n        /* \"#utility.yul\":3779:3802   */\n      sub\n        /* \"#utility.yul\":3775:3807   */\n      slt\n        /* \"#utility.yul\":3772:3891   */\n      iszero\n      tag_340\n      jumpi\n        /* \"#utility.yul\":3810:3889   */\n      tag_341\n      tag_237\n      jump\t// in\n    tag_341:\n        /* \"#utility.yul\":3772:3891   */\n    tag_340:\n        /* \"#utility.yul\":3930:3931   */\n      0x00\n        /* \"#utility.yul\":3955:4008   */\n      tag_342\n        /* \"#utility.yul\":4000:4007   */\n      dup5\n        /* \"#utility.yul\":3991:3997   */\n      dup3\n        /* \"#utility.yul\":3980:3989   */\n      dup6\n        /* \"#utility.yul\":3976:3998   */\n      add\n        /* \"#utility.yul\":3955:4008   */\n      tag_241\n      jump\t// in\n    tag_342:\n        /* \"#utility.yul\":3945:4008   */\n      swap2\n      pop\n        /* \"#utility.yul\":3901:4018   */\n      pop\n        /* \"#utility.yul\":3696:4025   */\n      swap3\n      swap2\n      pop\n      pop\n      jump\t// out\n        /* \"#utility.yul\":4031:4130   */\n    tag_247:\n        /* \"#utility.yul\":4083:4089   */\n      0x00\n        /* \"#utility.yul\":4117:4122   */\n      dup2\n        /* \"#utility.yul\":4111:4123   */\n      mload\n        /* \"#utility.yul\":4101:4123   */\n      swap1\n      pop\n        /* \"#utility.yul\":4031:4130   */\n      swap2\n      swap1\n      pop\n      jump\t// out\n        /* \"#utility.yul\":4136:4305   */\n    tag_248:\n        /* \"#utility.yul\":4220:4231   */\n      0x00\n        /* \"#utility.yul\":4254:4260   */\n      dup3\n        /* \"#utility.yul\":4249:4252   */\n      dup3\n        /* \"#utility.yul\":4242:4261   */\n      mstore\n        /* \"#utility.yul\":4294:4298   */\n      0x20\n        /* \"#utility.yul\":4289:4292   */\n      dup3\n        /* \"#utility.yul\":4285:4299   */\n      add\n        /* \"#utility.yul\":4270:4299   */\n      swap1\n      pop\n        /* \"#utility.yul\":4136:4305   */\n      swap3\n      swap2\n      pop\n      pop\n      jump\t// out\n        /* \"#utility.yul\":4311:4688   */\n    tag_249:\n        /* \"#utility.yul\":4399:4402   */\n      0x00\n        /* \"#utility.yul\":4427:4466   */\n      tag_346\n        /* \"#utility.yul\":4460:4465   */\n      dup3\n        /* \"#utility.yul\":4427:4466   */\n      tag_247\n      jump\t// in\n    tag_346:\n        /* \"#utility.yul\":4482:4553   */\n      tag_347\n        /* \"#utility.yul\":4546:4552   */\n      dup2\n        /* \"#utility.yul\":4541:4544   */\n      dup6\n        /* \"#utility.yul\":4482:4553   */\n      tag_248\n      jump\t// in\n    tag_347:\n        /* \"#utility.yul\":4475:4553   */\n      swap4\n      pop\n        /* \"#utility.yul\":4562:4627   */\n      tag_348\n        /* \"#utility.yul\":4620:4626   */\n      dup2\n        /* \"#utility.yul\":4615:4618   */\n      dup6\n        /* \"#utility.yul\":4608:4612   */\n      0x20\n        /* \"#utility.yul\":4601:4606   */\n      dup7\n        /* \"#utility.yul\":4597:4613   */\n      add\n        /* \"#utility.yul\":4562:4627   */\n      tag_233\n      jump\t// in\n    tag_348:\n        /* \"#utility.yul\":4652:4681   */\n      tag_349\n        /* \"#utility.yul\":4674:4680   */\n      dup2\n        /* \"#utility.yul\":4652:4681   */\n      tag_234\n      jump\t// in\n    tag_349:\n        /* \"#utility.yul\":4647:4650   */\n      dup5\n        /* \"#utility.yul\":4643:4682   */\n      add\n        /* \"#utility.yul\":4636:4682   */\n      swap2\n      pop\n        /* \"#utility.yul\":4403:4688   */\n      pop\n        /* \"#utility.yul\":4311:4688   */\n      swap3\n      swap2\n      pop\n      pop\n      jump\t// out\n        /* \"#utility.yul\":4694:5007   */\n    tag_64:\n        /* \"#utility.yul\":4807:4811   */\n      0x00\n        /* \"#utility.yul\":4845:4847   */\n      0x20\n        /* \"#utility.yul\":4834:4843   */\n      dup3\n        /* \"#utility.yul\":4830:4848   */\n      add\n        /* \"#utility.yul\":4822:4848   */\n      swap1\n      pop\n        /* \"#utility.yul\":4894:4903   */\n      dup2\n        /* \"#utility.yul\":4888:4892   */\n      dup2\n        /* \"#utility.yul\":4884:4904   */\n      sub\n        /* \"#utility.yul\":4880:4881   */\n      0x00\n        /* \"#utility.yul\":4869:4878   */\n      dup4\n        /* \"#utility.yul\":4865:4882   */\n      add\n        /* \"#utility.yul\":4858:4905   */\n      mstore\n        /* \"#utility.yul\":4922:5000   */\n      tag_351\n        /* \"#utility.yul\":4995:4999   */\n      dup2\n        /* \"#utility.yul\":4986:4992   */\n      dup5\n        /* \"#utility.yul\":4922:5000   */\n      tag_249\n      jump\t// in\n    tag_351:\n        /* \"#utility.yul\":4914:5000   */\n      swap1\n      pop\n        /* \"#utility.yul\":4694:5007   */\n      swap3\n      swap2\n      pop\n      pop\n      jump\t// out\n        /* \"#utility.yul\":5013:5487   */\n    tag_72:\n        /* \"#utility.yul\":5081:5087   */\n      0x00\n        /* \"#utility.yul\":5089:5095   */\n      dup1\n        /* \"#utility.yul\":5138:5140   */\n      0x40\n        /* \"#utility.yul\":5126:5135   */\n      dup4\n        /* \"#utility.yul\":5117:5124   */\n      dup6\n        /* \"#utility.yul\":5113:5136   */\n      sub\n        /* \"#utility.yul\":5109:5141   */\n      slt\n        /* \"#utility.yul\":5106:5225   */\n      iszero\n      tag_353\n      jumpi\n        /* \"#utility.yul\":5144:5223   */\n      tag_354\n      tag_237\n      jump\t// in\n    tag_354:\n        /* \"#utility.yul\":5106:5225   */\n    tag_353:\n        /* \"#utility.yul\":5264:5265   */\n      0x00\n        /* \"#utility.yul\":5289:5342   */\n      tag_355\n        /* \"#utility.yul\":5334:5341   */\n      dup6\n        /* \"#utility.yul\":5325:5331   */\n      dup3\n        /* \"#utility.yul\":5314:5323   */\n      dup7\n        /* \"#utility.yul\":5310:5332   */\n      add\n        /* \"#utility.yul\":5289:5342   */\n      tag_246\n      jump\t// in\n    tag_355:\n        /* \"#utility.yul\":5279:5342   */\n      swap3\n      pop\n        /* \"#utility.yul\":5235:5352   */\n      pop\n        /* \"#utility.yul\":5391:5393   */\n      0x20\n        /* \"#utility.yul\":5417:5470   */\n      tag_356\n        /* \"#utility.yul\":5462:5469   */\n      dup6\n        /* \"#utility.yul\":5453:5459   */\n      dup3\n        /* \"#utility.yul\":5442:5451   */\n      dup7\n        /* \"#utility.yul\":5438:5460   */\n      add\n        /* \"#utility.yul\":5417:5470   */\n      tag_241\n      jump\t// in\n    tag_356:\n        /* \"#utility.yul\":5407:5470   */\n      swap2\n      pop\n        /* \"#utility.yul\":5362:5480   */\n      pop\n        /* \"#utility.yul\":5013:5487   */\n      swap3\n      pop\n      swap3\n      swap1\n      pop\n      jump\t// out\n        /* \"#utility.yul\":5493:5601   */\n    tag_250:\n        /* \"#utility.yul\":5570:5594   */\n      tag_358\n        /* \"#utility.yul\":5588:5593   */\n      dup2\n        /* \"#utility.yul\":5570:5594   */\n      tag_239\n      jump\t// in\n    tag_358:\n        /* \"#utility.yul\":5565:5568   */\n      dup3\n        /* \"#utility.yul\":5558:5595   */\n      mstore\n        /* \"#utility.yul\":5493:5601   */\n      pop\n      pop\n      jump\t// out\n        /* \"#utility.yul\":5607:5715   */\n    tag_251:\n        /* \"#utility.yul\":5684:5708   */\n      tag_360\n        /* \"#utility.yul\":5702:5707   */\n      dup2\n        /* \"#utility.yul\":5684:5708   */\n      tag_244\n      jump\t// in\n    tag_360:\n        /* \"#utility.yul\":5679:5682   */\n      dup3\n        /* \"#utility.yul\":5672:5709   */\n      mstore\n        /* \"#utility.yul\":5607:5715   */\n      pop\n      pop\n      jump\t// out\n        /* \"#utility.yul\":5721:5880   */\n    tag_252:\n        /* \"#utility.yul\":5795:5806   */\n      0x00\n        /* \"#utility.yul\":5829:5835   */\n      dup3\n        /* \"#utility.yul\":5824:5827   */\n      dup3\n        /* \"#utility.yul\":5817:5836   */\n      mstore\n        /* \"#utility.yul\":5869:5873   */\n      0x20\n        /* \"#utility.yul\":5864:5867   */\n      dup3\n        /* \"#utility.yul\":5860:5874   */\n      add\n        /* \"#utility.yul\":5845:5874   */\n      swap1\n      pop\n        /* \"#utility.yul\":5721:5880   */\n      swap3\n      swap2\n      pop\n      pop\n      jump\t// out\n        /* \"#utility.yul\":5886:6243   */\n    tag_253:\n        /* \"#utility.yul\":5964:5967   */\n      0x00\n        /* \"#utility.yul\":5992:6031   */\n      tag_363\n        /* \"#utility.yul\":6025:6030   */\n      dup3\n        /* \"#utility.yul\":5992:6031   */\n      tag_247\n      jump\t// in\n    tag_363:\n        /* \"#utility.yul\":6047:6108   */\n      tag_364\n        /* \"#utility.yul\":6101:6107   */\n      dup2\n        /* \"#utility.yul\":6096:6099   */\n      dup6\n        /* \"#utility.yul\":6047:6108   */\n      tag_252\n      jump\t// in\n    tag_364:\n        /* \"#utility.yul\":6040:6108   */\n      swap4\n      pop\n        /* \"#utility.yul\":6117:6182   */\n      tag_365\n        /* \"#utility.yul\":6175:6181   */\n      dup2\n        /* \"#utility.yul\":6170:6173   */\n      dup6\n        /* \"#utility.yul\":6163:6167   */\n      0x20\n        /* \"#utility.yul\":6156:6161   */\n      dup7\n        /* \"#utility.yul\":6152:6168   */\n      add\n        /* \"#utility.yul\":6117:6182   */\n      tag_233\n      jump\t// in\n    tag_365:\n        /* \"#utility.yul\":6207:6236   */\n      tag_366\n        /* \"#utility.yul\":6229:6235   */\n      dup2\n        /* \"#utility.yul\":6207:6236   */\n      tag_234\n      jump\t// in\n    tag_366:\n        /* \"#utility.yul\":6202:6205   */\n      dup5\n        /* \"#utility.yul\":6198:6237   */\n      add\n        /* \"#utility.yul\":6191:6237   */\n      swap2\n      pop\n        /* \"#utility.yul\":5968:6243   */\n      pop\n        /* \"#utility.yul\":5886:6243   */\n      swap3\n      swap2\n      pop\n      pop\n      jump\t// out\n        /* \"#utility.yul\":6299:7259   */\n    tag_254:\n        /* \"#utility.yul\":6414:6417   */\n      0x00\n        /* \"#utility.yul\":6450:6454   */\n      0x80\n        /* \"#utility.yul\":6445:6448   */\n      dup4\n        /* \"#utility.yul\":6441:6455   */\n      add\n        /* \"#utility.yul\":6539:6543   */\n      0x00\n        /* \"#utility.yul\":6532:6537   */\n      dup4\n        /* \"#utility.yul\":6528:6544   */\n      add\n        /* \"#utility.yul\":6522:6545   */\n      mload\n        /* \"#utility.yul\":6558:6621   */\n      tag_368\n        /* \"#utility.yul\":6615:6619   */\n      0x00\n        /* \"#utility.yul\":6610:6613   */\n      dup7\n        /* \"#utility.yul\":6606:6620   */\n      add\n        /* \"#utility.yul\":6592:6604   */\n      dup3\n        /* \"#utility.yul\":6558:6621   */\n      tag_250\n      jump\t// in\n    tag_368:\n        /* \"#utility.yul\":6465:6631   */\n      pop\n        /* \"#utility.yul\":6718:6722   */\n      0x20\n        /* \"#utility.yul\":6711:6716   */\n      dup4\n        /* \"#utility.yul\":6707:6723   */\n      add\n        /* \"#utility.yul\":6701:6724   */\n      mload\n        /* \"#utility.yul\":6737:6800   */\n      tag_369\n        /* \"#utility.yul\":6794:6798   */\n      0x20\n        /* \"#utility.yul\":6789:6792   */\n      dup7\n        /* \"#utility.yul\":6785:6799   */\n      add\n        /* \"#utility.yul\":6771:6783   */\n      dup3\n        /* \"#utility.yul\":6737:6800   */\n      tag_250\n      jump\t// in\n    tag_369:\n        /* \"#utility.yul\":6641:6810   */\n      pop\n        /* \"#utility.yul\":6892:6896   */\n      0x40\n        /* \"#utility.yul\":6885:6890   */\n      dup4\n        /* \"#utility.yul\":6881:6897   */\n      add\n        /* \"#utility.yul\":6875:6898   */\n      mload\n        /* \"#utility.yul\":6911:6974   */\n      tag_370\n        /* \"#utility.yul\":6968:6972   */\n      0x40\n        /* \"#utility.yul\":6963:6966   */\n      dup7\n        /* \"#utility.yul\":6959:6973   */\n      add\n        /* \"#utility.yul\":6945:6957   */\n      dup3\n        /* \"#utility.yul\":6911:6974   */\n      tag_251\n      jump\t// in\n    tag_370:\n        /* \"#utility.yul\":6820:6984   */\n      pop\n        /* \"#utility.yul\":7069:7073   */\n      0x60\n        /* \"#utility.yul\":7062:7067   */\n      dup4\n        /* \"#utility.yul\":7058:7074   */\n      add\n        /* \"#utility.yul\":7052:7075   */\n      mload\n        /* \"#utility.yul\":7122:7125   */\n      dup5\n        /* \"#utility.yul\":7116:7120   */\n      dup3\n        /* \"#utility.yul\":7112:7126   */\n      sub\n        /* \"#utility.yul\":7105:7109   */\n      0x60\n        /* \"#utility.yul\":7100:7103   */\n      dup7\n        /* \"#utility.yul\":7096:7110   */\n      add\n        /* \"#utility.yul\":7089:7127   */\n      mstore\n        /* \"#utility.yul\":7148:7221   */\n      tag_371\n        /* \"#utility.yul\":7216:7220   */\n      dup3\n        /* \"#utility.yul\":7202:7214   */\n      dup3\n        /* \"#utility.yul\":7148:7221   */\n      tag_253\n      jump\t// in\n    tag_371:\n        /* \"#utility.yul\":7140:7221   */\n      swap2\n      pop\n        /* \"#utility.yul\":6994:7232   */\n      pop\n        /* \"#utility.yul\":7249:7253   */\n      dup1\n        /* \"#utility.yul\":7242:7253   */\n      swap2\n      pop\n        /* \"#utility.yul\":6419:7259   */\n      pop\n        /* \"#utility.yul\":6299:7259   */\n      swap3\n      swap2\n      pop\n      pop\n      jump\t// out\n        /* \"#utility.yul\":7265:7630   */\n    tag_75:\n        /* \"#utility.yul\":7404:7408   */\n      0x00\n        /* \"#utility.yul\":7442:7444   */\n      0x20\n        /* \"#utility.yul\":7431:7440   */\n      dup3\n        /* \"#utility.yul\":7427:7445   */\n      add\n        /* \"#utility.yul\":7419:7445   */\n      swap1\n      pop\n        /* \"#utility.yul\":7491:7500   */\n      dup2\n        /* \"#utility.yul\":7485:7489   */\n      dup2\n        /* \"#utility.yul\":7481:7501   */\n      sub\n        /* \"#utility.yul\":7477:7478   */\n      0x00\n        /* \"#utility.yul\":7466:7475   */\n      dup4\n        /* \"#utility.yul\":7462:7479   */\n      add\n        /* \"#utility.yul\":7455:7502   */\n      mstore\n        /* \"#utility.yul\":7519:7623   */\n      tag_373\n        /* \"#utility.yul\":7618:7622   */\n      dup2\n        /* \"#utility.yul\":7609:7615   */\n      dup5\n        /* \"#utility.yul\":7519:7623   */\n      tag_254\n      jump\t// in\n    tag_373:\n        /* \"#utility.yul\":7511:7623   */\n      swap1\n      pop\n        /* \"#utility.yul\":7265:7630   */\n      swap3\n      swap2\n      pop\n      pop\n      jump\t// out\n        /* \"#utility.yul\":7636:7785   */\n    tag_255:\n        /* \"#utility.yul\":7672:7679   */\n      0x00\n        /* \"#utility.yul\":7712:7778   */\n      0xff00000000000000000000000000000000000000000000000000000000000000\n        /* \"#utility.yul\":7705:7710   */\n      dup3\n        /* \"#utility.yul\":7701:7779   */\n      and\n        /* \"#utility.yul\":7690:7779   */\n      swap1\n      pop\n        /* \"#utility.yul\":7636:7785   */\n      swap2\n      swap1\n      pop\n      jump\t// out\n        /* \"#utility.yul\":7791:7906   */\n    tag_256:\n        /* \"#utility.yul\":7876:7899   */\n      tag_376\n        /* \"#utility.yul\":7893:7898   */\n      dup2\n        /* \"#utility.yul\":7876:7899   */\n      tag_255\n      jump\t// in\n    tag_376:\n        /* \"#utility.yul\":7871:7874   */\n      dup3\n        /* \"#utility.yul\":7864:7900   */\n      mstore\n        /* \"#utility.yul\":7791:7906   */\n      pop\n      pop\n      jump\t// out\n        /* \"#utility.yul\":7912:8130   */\n    tag_83:\n        /* \"#utility.yul\":8003:8007   */\n      0x00\n        /* \"#utility.yul\":8041:8043   */\n      0x20\n        /* \"#utility.yul\":8030:8039   */\n      dup3\n        /* \"#utility.yul\":8026:8044   */\n      add\n        /* \"#utility.yul\":8018:8044   */\n      swap1\n      pop\n        /* \"#utility.yul\":8054:8123   */\n      tag_378\n        /* \"#utility.yul\":8120:8121   */\n      0x00\n        /* \"#utility.yul\":8109:8118   */\n      dup4\n        /* \"#utility.yul\":8105:8122   */\n      add\n        /* \"#utility.yul\":8096:8102   */\n      dup5\n        /* \"#utility.yul\":8054:8123   */\n      tag_256\n      jump\t// in\n    tag_378:\n        /* \"#utility.yul\":7912:8130   */\n      swap3\n      swap2\n      pop\n      pop\n      jump\t// out\n        /* \"#utility.yul\":8136:8250   */\n    tag_257:\n        /* \"#utility.yul\":8203:8209   */\n      0x00\n        /* \"#utility.yul\":8237:8242   */\n      dup2\n        /* \"#utility.yul\":8231:8243   */\n      mload\n        /* \"#utility.yul\":8221:8243   */\n      swap1\n      pop\n        /* \"#utility.yul\":8136:8250   */\n      swap2\n      swap1\n      pop\n      jump\t// out\n        /* \"#utility.yul\":8256:8440   */\n    tag_258:\n        /* \"#utility.yul\":8355:8366   */\n      0x00\n        /* \"#utility.yul\":8389:8395   */\n      dup3\n        /* \"#utility.yul\":8384:8387   */\n      dup3\n        /* \"#utility.yul\":8377:8396   */\n      mstore\n        /* \"#utility.yul\":8429:8433   */\n      0x20\n        /* \"#utility.yul\":8424:8427   */\n      dup3\n        /* \"#utility.yul\":8420:8434   */\n      add\n        /* \"#utility.yul\":8405:8434   */\n      swap1\n      pop\n        /* \"#utility.yul\":8256:8440   */\n      swap3\n      swap2\n      pop\n      pop\n      jump\t// out\n        /* \"#utility.yul\":8446:8578   */\n    tag_259:\n        /* \"#utility.yul\":8513:8517   */\n      0x00\n        /* \"#utility.yul\":8536:8539   */\n      dup2\n        /* \"#utility.yul\":8528:8539   */\n      swap1\n      pop\n        /* \"#utility.yul\":8566:8570   */\n      0x20\n        /* \"#utility.yul\":8561:8564   */\n      dup3\n        /* \"#utility.yul\":8557:8571   */\n      add\n        /* \"#utility.yul\":8549:8571   */\n      swap1\n      pop\n        /* \"#utility.yul\":8446:8578   */\n      swap2\n      swap1\n      pop\n      jump\t// out\n        /* \"#utility.yul\":8584:8763   */\n    tag_260:\n        /* \"#utility.yul\":8653:8663   */\n      0x00\n        /* \"#utility.yul\":8674:8720   */\n      tag_383\n        /* \"#utility.yul\":8716:8719   */\n      dup4\n        /* \"#utility.yul\":8708:8714   */\n      dup4\n        /* \"#utility.yul\":8674:8720   */\n      tag_250\n      jump\t// in\n    tag_383:\n        /* \"#utility.yul\":8752:8756   */\n      0x20\n        /* \"#utility.yul\":8747:8750   */\n      dup4\n        /* \"#utility.yul\":8743:8757   */\n      add\n        /* \"#utility.yul\":8729:8757   */\n      swap1\n      pop\n        /* \"#utility.yul\":8584:8763   */\n      swap3\n      swap2\n      pop\n      pop\n      jump\t// out\n        /* \"#utility.yul\":8769:8882   */\n    tag_261:\n        /* \"#utility.yul\":8839:8843   */\n      0x00\n        /* \"#utility.yul\":8871:8875   */\n      0x20\n        /* \"#utility.yul\":8866:8869   */\n      dup3\n        /* \"#utility.yul\":8862:8876   */\n      add\n        /* \"#utility.yul\":8854:8876   */\n      swap1\n      pop\n        /* \"#utility.yul\":8769:8882   */\n      swap2\n      swap1\n      pop\n      jump\t// out\n        /* \"#utility.yul\":8918:9650   */\n    tag_262:\n        /* \"#utility.yul\":9037:9040   */\n      0x00\n        /* \"#utility.yul\":9066:9120   */\n      tag_386\n        /* \"#utility.yul\":9114:9119   */\n      dup3\n        /* \"#utility.yul\":9066:9120   */\n      tag_257\n      jump\t// in\n    tag_386:\n        /* \"#utility.yul\":9136:9222   */\n      tag_387\n        /* \"#utility.yul\":9215:9221   */\n      dup2\n        /* \"#utility.yul\":9210:9213   */\n      dup6\n        /* \"#utility.yul\":9136:9222   */\n      tag_258\n      jump\t// in\n    tag_387:\n        /* \"#utility.yul\":9129:9222   */\n      swap4\n      pop\n        /* \"#utility.yul\":9246:9302   */\n      tag_388\n        /* \"#utility.yul\":9296:9301   */\n      dup4\n        /* \"#utility.yul\":9246:9302   */\n      tag_259\n      jump\t// in\n    tag_388:\n        /* \"#utility.yul\":9325:9332   */\n      dup1\n        /* \"#utility.yul\":9356:9357   */\n      0x00\n        /* \"#utility.yul\":9341:9625   */\n    tag_389:\n        /* \"#utility.yul\":9366:9372   */\n      dup4\n        /* \"#utility.yul\":9363:9364   */\n      dup2\n        /* \"#utility.yul\":9360:9373   */\n      lt\n        /* \"#utility.yul\":9341:9625   */\n      iszero\n      tag_391\n      jumpi\n        /* \"#utility.yul\":9442:9448   */\n      dup2\n        /* \"#utility.yul\":9436:9449   */\n      mload\n        /* \"#utility.yul\":9469:9532   */\n      tag_392\n        /* \"#utility.yul\":9528:9531   */\n      dup9\n        /* \"#utility.yul\":9513:9526   */\n      dup3\n        /* \"#utility.yul\":9469:9532   */\n      tag_260\n      jump\t// in\n    tag_392:\n        /* \"#utility.yul\":9462:9532   */\n      swap8\n      pop\n        /* \"#utility.yul\":9555:9615   */\n      tag_393\n        /* \"#utility.yul\":9608:9614   */\n      dup4\n        /* \"#utility.yul\":9555:9615   */\n      tag_261\n      jump\t// in\n    tag_393:\n        /* \"#utility.yul\":9545:9615   */\n      swap3\n      pop\n        /* \"#utility.yul\":9401:9625   */\n      pop\n        /* \"#utility.yul\":9388:9389   */\n      0x01\n        /* \"#utility.yul\":9385:9386   */\n      dup2\n        /* \"#utility.yul\":9381:9390   */\n      add\n        /* \"#utility.yul\":9376:9390   */\n      swap1\n      pop\n        /* \"#utility.yul\":9341:9625   */\n      jump(tag_389)\n    tag_391:\n        /* \"#utility.yul\":9345:9359   */\n      pop\n        /* \"#utility.yul\":9641:9644   */\n      dup6\n        /* \"#utility.yul\":9634:9644   */\n      swap4\n      pop\n        /* \"#utility.yul\":9042:9650   */\n      pop\n      pop\n      pop\n        /* \"#utility.yul\":8918:9650   */\n      swap3\n      swap2\n      pop\n      pop\n      jump\t// out\n        /* \"#utility.yul\":9656:10029   */\n    tag_95:\n        /* \"#utility.yul\":9799:9803   */\n      0x00\n        /* \"#utility.yul\":9837:9839   */\n      0x20\n        /* \"#utility.yul\":9826:9835   */\n      dup3\n        /* \"#utility.yul\":9822:9840   */\n      add\n        /* \"#utility.yul\":9814:9840   */\n      swap1\n      pop\n        /* \"#utility.yul\":9886:9895   */\n      dup2\n        /* \"#utility.yul\":9880:9884   */\n      dup2\n        /* \"#utility.yul\":9876:9896   */\n      sub\n        /* \"#utility.yul\":9872:9873   */\n      0x00\n        /* \"#utility.yul\":9861:9870   */\n      dup4\n        /* \"#utility.yul\":9857:9874   */\n      add\n        /* \"#utility.yul\":9850:9897   */\n      mstore\n        /* \"#utility.yul\":9914:10022   */\n      tag_395\n        /* \"#utility.yul\":10017:10021   */\n      dup2\n        /* \"#utility.yul\":10008:10014   */\n      dup5\n        /* \"#utility.yul\":9914:10022   */\n      tag_262\n      jump\t// in\n    tag_395:\n        /* \"#utility.yul\":9906:10022   */\n      swap1\n      pop\n        /* \"#utility.yul\":9656:10029   */\n      swap3\n      swap2\n      pop\n      pop\n      jump\t// out\n        /* \"#utility.yul\":10035:10152   */\n    tag_263:\n        /* \"#utility.yul\":10144:10145   */\n      0x00\n        /* \"#utility.yul\":10141:10142   */\n      dup1\n        /* \"#utility.yul\":10134:10146   */\n      revert\n        /* \"#utility.yul\":10158:10275   */\n    tag_264:\n        /* \"#utility.yul\":10267:10268   */\n      0x00\n        /* \"#utility.yul\":10264:10265   */\n      dup1\n        /* \"#utility.yul\":10257:10269   */\n      revert\n        /* \"#utility.yul\":10281:10461   */\n    tag_192:\n        /* \"#utility.yul\":10329:10406   */\n      0x4e487b7100000000000000000000000000000000000000000000000000000000\n        /* \"#utility.yul\":10326:10327   */\n      0x00\n        /* \"#utility.yul\":10319:10407   */\n      mstore\n        /* \"#utility.yul\":10426:10430   */\n      0x41\n        /* \"#utility.yul\":10423:10424   */\n      0x04\n        /* \"#utility.yul\":10416:10431   */\n      mstore\n        /* \"#utility.yul\":10450:10454   */\n      0x24\n        /* \"#utility.yul\":10447:10448   */\n      0x00\n        /* \"#utility.yul\":10440:10455   */\n      revert\n        /* \"#utility.yul\":10467:10748   */\n    tag_265:\n        /* \"#utility.yul\":10550:10577   */\n      tag_400\n        /* \"#utility.yul\":10572:10576   */\n      dup3\n        /* \"#utility.yul\":10550:10577   */\n      tag_234\n      jump\t// in\n    tag_400:\n        /* \"#utility.yul\":10542:10548   */\n      dup2\n        /* \"#utility.yul\":10538:10578   */\n      add\n        /* \"#utility.yul\":10680:10686   */\n      dup2\n        /* \"#utility.yul\":10668:10678   */\n      dup2\n        /* \"#utility.yul\":10665:10687   */\n      lt\n        /* \"#utility.yul\":10644:10662   */\n      0xffffffffffffffff\n        /* \"#utility.yul\":10632:10642   */\n      dup3\n        /* \"#utility.yul\":10629:10663   */\n      gt\n        /* \"#utility.yul\":10626:10688   */\n      or\n        /* \"#utility.yul\":10623:10711   */\n      iszero\n      tag_401\n      jumpi\n        /* \"#utility.yul\":10691:10709   */\n      tag_402\n      tag_192\n      jump\t// in\n    tag_402:\n        /* \"#utility.yul\":10623:10711   */\n    tag_401:\n        /* \"#utility.yul\":10731:10741   */\n      dup1\n        /* \"#utility.yul\":10727:10729   */\n      0x40\n        /* \"#utility.yul\":10720:10742   */\n      mstore\n        /* \"#utility.yul\":10510:10748   */\n      pop\n        /* \"#utility.yul\":10467:10748   */\n      pop\n      pop\n      jump\t// out\n        /* \"#utility.yul\":10754:10883   */\n    tag_266:\n        /* \"#utility.yul\":10788:10794   */\n      0x00\n        /* \"#utility.yul\":10815:10835   */\n      tag_404\n      tag_236\n      jump\t// in\n    tag_404:\n        /* \"#utility.yul\":10805:10835   */\n      swap1\n      pop\n        /* \"#utility.yul\":10844:10877   */\n      tag_405\n        /* \"#utility.yul\":10872:10876   */\n      dup3\n        /* \"#utility.yul\":10864:10870   */\n      dup3\n        /* \"#utility.yul\":10844:10877   */\n      tag_265\n      jump\t// in\n    tag_405:\n        /* \"#utility.yul\":10754:10883   */\n      swap2\n      swap1\n      pop\n      jump\t// out\n        /* \"#utility.yul\":10889:11197   */\n    tag_267:\n        /* \"#utility.yul\":10951:10955   */\n      0x00\n        /* \"#utility.yul\":11041:11059   */\n      0xffffffffffffffff\n        /* \"#utility.yul\":11033:11039   */\n      dup3\n        /* \"#utility.yul\":11030:11060   */\n      gt\n        /* \"#utility.yul\":11027:11083   */\n      iszero\n      tag_407\n      jumpi\n        /* \"#utility.yul\":11063:11081   */\n      tag_408\n      tag_192\n      jump\t// in\n    tag_408:\n        /* \"#utility.yul\":11027:11083   */\n    tag_407:\n        /* \"#utility.yul\":11101:11130   */\n      tag_409\n        /* \"#utility.yul\":11123:11129   */\n      dup3\n        /* \"#utility.yul\":11101:11130   */\n      tag_234\n      jump\t// in\n    tag_409:\n        /* \"#utility.yul\":11093:11130   */\n      swap1\n      pop\n        /* \"#utility.yul\":11185:11189   */\n      0x20\n        /* \"#utility.yul\":11179:11183   */\n      dup2\n        /* \"#utility.yul\":11175:11190   */\n      add\n        /* \"#utility.yul\":11167:11190   */\n      swap1\n      pop\n        /* \"#utility.yul\":10889:11197   */\n      swap2\n      swap1\n      pop\n      jump\t// out\n        /* \"#utility.yul\":11203:11349   */\n    tag_268:\n        /* \"#utility.yul\":11300:11306   */\n      dup3\n        /* \"#utility.yul\":11295:11298   */\n      dup2\n        /* \"#utility.yul\":11290:11293   */\n      dup4\n        /* \"#utility.yul\":11277:11307   */\n      calldatacopy\n        /* \"#utility.yul\":11341:11342   */\n      0x00\n        /* \"#utility.yul\":11332:11338   */\n      dup4\n        /* \"#utility.yul\":11327:11330   */\n      dup4\n        /* \"#utility.yul\":11323:11339   */\n      add\n        /* \"#utility.yul\":11316:11343   */\n      mstore\n        /* \"#utility.yul\":11203:11349   */\n      pop\n      pop\n      pop\n      jump\t// out\n        /* \"#utility.yul\":11355:11780   */\n    tag_269:\n        /* \"#utility.yul\":11433:11438   */\n      0x00\n        /* \"#utility.yul\":11458:11524   */\n      tag_412\n        /* \"#utility.yul\":11474:11523   */\n      tag_413\n        /* \"#utility.yul\":11516:11522   */\n      dup5\n        /* \"#utility.yul\":11474:11523   */\n      tag_267\n      jump\t// in\n    tag_413:\n        /* \"#utility.yul\":11458:11524   */\n      tag_266\n      jump\t// in\n    tag_412:\n        /* \"#utility.yul\":11449:11524   */\n      swap1\n      pop\n        /* \"#utility.yul\":11547:11553   */\n      dup3\n        /* \"#utility.yul\":11540:11545   */\n      dup2\n        /* \"#utility.yul\":11533:11554   */\n      mstore\n        /* \"#utility.yul\":11585:11589   */\n      0x20\n        /* \"#utility.yul\":11578:11583   */\n      dup2\n        /* \"#utility.yul\":11574:11590   */\n      add\n        /* \"#utility.yul\":11623:11626   */\n      dup5\n        /* \"#utility.yul\":11614:11620   */\n      dup5\n        /* \"#utility.yul\":11609:11612   */\n      dup5\n        /* \"#utility.yul\":11605:11621   */\n      add\n        /* \"#utility.yul\":11602:11627   */\n      gt\n        /* \"#utility.yul\":11599:11711   */\n      iszero\n      tag_414\n      jumpi\n        /* \"#utility.yul\":11630:11709   */\n      tag_415\n      tag_264\n      jump\t// in\n    tag_415:\n        /* \"#utility.yul\":11599:11711   */\n    tag_414:\n        /* \"#utility.yul\":11720:11774   */\n      tag_416\n        /* \"#utility.yul\":11767:11773   */\n      dup5\n        /* \"#utility.yul\":11762:11765   */\n      dup3\n        /* \"#utility.yul\":11757:11760   */\n      dup6\n        /* \"#utility.yul\":11720:11774   */\n      tag_268\n      jump\t// in\n    tag_416:\n        /* \"#utility.yul\":11439:11780   */\n      pop\n        /* \"#utility.yul\":11355:11780   */\n      swap4\n      swap3\n      pop\n      pop\n      pop\n      jump\t// out\n        /* \"#utility.yul\":11800:12140   */\n    tag_270:\n        /* \"#utility.yul\":11856:11861   */\n      0x00\n        /* \"#utility.yul\":11905:11908   */\n      dup3\n        /* \"#utility.yul\":11898:11902   */\n      0x1f\n        /* \"#utility.yul\":11890:11896   */\n      dup4\n        /* \"#utility.yul\":11886:11903   */\n      add\n        /* \"#utility.yul\":11882:11909   */\n      slt\n        /* \"#utility.yul\":11872:11994   */\n      tag_418\n      jumpi\n        /* \"#utility.yul\":11913:11992   */\n      tag_419\n      tag_263\n      jump\t// in\n    tag_419:\n        /* \"#utility.yul\":11872:11994   */\n    tag_418:\n        /* \"#utility.yul\":12030:12036   */\n      dup2\n        /* \"#utility.yul\":12017:12037   */\n      calldataload\n        /* \"#utility.yul\":12055:12134   */\n      tag_420\n        /* \"#utility.yul\":12130:12133   */\n      dup5\n        /* \"#utility.yul\":12122:12128   */\n      dup3\n        /* \"#utility.yul\":12115:12119   */\n      0x20\n        /* \"#utility.yul\":12107:12113   */\n      dup7\n        /* \"#utility.yul\":12103:12120   */\n      add\n        /* \"#utility.yul\":12055:12134   */\n      tag_269\n      jump\t// in\n    tag_420:\n        /* \"#utility.yul\":12046:12134   */\n      swap2\n      pop\n        /* \"#utility.yul\":11862:12140   */\n      pop\n        /* \"#utility.yul\":11800:12140   */\n      swap3\n      swap2\n      pop\n      pop\n      jump\t// out\n        /* \"#utility.yul\":12146:12655   */\n    tag_98:\n        /* \"#utility.yul\":12215:12221   */\n      0x00\n        /* \"#utility.yul\":12264:12266   */\n      0x20\n        /* \"#utility.yul\":12252:12261   */\n      dup3\n        /* \"#utility.yul\":12243:12250   */\n      dup5\n        /* \"#utility.yul\":12239:12262   */\n      sub\n        /* \"#utility.yul\":12235:12267   */\n      slt\n        /* \"#utility.yul\":12232:12351   */\n      iszero\n      tag_422\n      jumpi\n        /* \"#utility.yul\":12270:12349   */\n      tag_423\n      tag_237\n      jump\t// in\n    tag_423:\n        /* \"#utility.yul\":12232:12351   */\n    tag_422:\n        /* \"#utility.yul\":12418:12419   */\n      0x00\n        /* \"#utility.yul\":12407:12416   */\n      dup3\n        /* \"#utility.yul\":12403:12420   */\n      add\n        /* \"#utility.yul\":12390:12421   */\n      calldataload\n        /* \"#utility.yul\":12448:12466   */\n      0xffffffffffffffff\n        /* \"#utility.yul\":12440:12446   */\n      dup2\n        /* \"#utility.yul\":12437:12467   */\n      gt\n        /* \"#utility.yul\":12434:12551   */\n      iszero\n      tag_424\n      jumpi\n        /* \"#utility.yul\":12470:12549   */\n      tag_425\n      tag_238\n      jump\t// in\n    tag_425:\n        /* \"#utility.yul\":12434:12551   */\n    tag_424:\n        /* \"#utility.yul\":12575:12638   */\n      tag_426\n        /* \"#utility.yul\":12630:12637   */\n      dup5\n        /* \"#utility.yul\":12621:12627   */\n      dup3\n        /* \"#utility.yul\":12610:12619   */\n      dup6\n        /* \"#utility.yul\":12606:12628   */\n      add\n        /* \"#utility.yul\":12575:12638   */\n      tag_270\n      jump\t// in\n    tag_426:\n        /* \"#utility.yul\":12565:12638   */\n      swap2\n      pop\n        /* \"#utility.yul\":12361:12648   */\n      pop\n        /* \"#utility.yul\":12146:12655   */\n      swap3\n      swap2\n      pop\n      pop\n      jump\t// out\n        /* \"#utility.yul\":12661:12738   */\n    tag_271:\n        /* \"#utility.yul\":12698:12705   */\n      0x00\n        /* \"#utility.yul\":12727:12732   */\n      dup2\n        /* \"#utility.yul\":12716:12732   */\n      swap1\n      pop\n        /* \"#utility.yul\":12661:12738   */\n      swap2\n      swap1\n      pop\n      jump\t// out\n        /* \"#utility.yul\":12744:12862   */\n    tag_272:\n        /* \"#utility.yul\":12831:12855   */\n      tag_429\n        /* \"#utility.yul\":12849:12854   */\n      dup2\n        /* \"#utility.yul\":12831:12855   */\n      tag_271\n      jump\t// in\n    tag_429:\n        /* \"#utility.yul\":12826:12829   */\n      dup3\n        /* \"#utility.yul\":12819:12856   */\n      mstore\n        /* \"#utility.yul\":12744:12862   */\n      pop\n      pop\n      jump\t// out\n        /* \"#utility.yul\":12868:13090   */\n    tag_116:\n        /* \"#utility.yul\":12961:12965   */\n      0x00\n        /* \"#utility.yul\":12999:13001   */\n      0x20\n        /* \"#utility.yul\":12988:12997   */\n      dup3\n        /* \"#utility.yul\":12984:13002   */\n      add\n        /* \"#utility.yul\":12976:13002   */\n      swap1\n      pop\n        /* \"#utility.yul\":13012:13083   */\n      tag_431\n        /* \"#utility.yul\":13080:13081   */\n      0x00\n        /* \"#utility.yul\":13069:13078   */\n      dup4\n        /* \"#utility.yul\":13065:13082   */\n      add\n        /* \"#utility.yul\":13056:13062   */\n      dup5\n        /* \"#utility.yul\":13012:13083   */\n      tag_272\n      jump\t// in\n    tag_431:\n        /* \"#utility.yul\":12868:13090   */\n      swap3\n      swap2\n      pop\n      pop\n      jump\t// out\n        /* \"#utility.yul\":13096:13276   */\n    tag_151:\n        /* \"#utility.yul\":13144:13221   */\n      0x4e487b7100000000000000000000000000000000000000000000000000000000\n        /* \"#utility.yul\":13141:13142   */\n      0x00\n        /* \"#utility.yul\":13134:13222   */\n      mstore\n        /* \"#utility.yul\":13241:13245   */\n      0x21\n        /* \"#utility.yul\":13238:13239   */\n      0x04\n        /* \"#utility.yul\":13231:13246   */\n      mstore\n        /* \"#utility.yul\":13265:13269   */\n      0x24\n        /* \"#utility.yul\":13262:13263   */\n      0x00\n        /* \"#utility.yul\":13255:13270   */\n      revert\n        /* \"#utility.yul\":13282:13397   */\n    tag_273:\n        /* \"#utility.yul\":13365:13366   */\n      0x03\n        /* \"#utility.yul\":13358:13363   */\n      dup2\n        /* \"#utility.yul\":13355:13367   */\n      lt\n        /* \"#utility.yul\":13345:13391   */\n      tag_434\n      jumpi\n        /* \"#utility.yul\":13371:13389   */\n      tag_435\n      tag_151\n      jump\t// in\n    tag_435:\n        /* \"#utility.yul\":13345:13391   */\n    tag_434:\n        /* \"#utility.yul\":13282:13397   */\n      pop\n      jump\t// out\n        /* \"#utility.yul\":13403:13534   */\n    tag_274:\n        /* \"#utility.yul\":13450:13457   */\n      0x00\n        /* \"#utility.yul\":13479:13484   */\n      dup2\n        /* \"#utility.yul\":13468:13484   */\n      swap1\n      pop\n        /* \"#utility.yul\":13485:13528   */\n      tag_437\n        /* \"#utility.yul\":13522:13527   */\n      dup3\n        /* \"#utility.yul\":13485:13528   */\n      tag_273\n      jump\t// in\n    tag_437:\n        /* \"#utility.yul\":13403:13534   */\n      swap2\n      swap1\n      pop\n      jump\t// out\n        /* \"#utility.yul\":13540:13671   */\n    tag_275:\n        /* \"#utility.yul\":13598:13607   */\n      0x00\n        /* \"#utility.yul\":13631:13665   */\n      tag_439\n        /* \"#utility.yul\":13659:13664   */\n      dup3\n        /* \"#utility.yul\":13631:13665   */\n      tag_274\n      jump\t// in\n    tag_439:\n        /* \"#utility.yul\":13618:13665   */\n      swap1\n      pop\n        /* \"#utility.yul\":13540:13671   */\n      swap2\n      swap1\n      pop\n      jump\t// out\n        /* \"#utility.yul\":13677:13824   */\n    tag_276:\n        /* \"#utility.yul\":13772:13817   */\n      tag_441\n        /* \"#utility.yul\":13811:13816   */\n      dup2\n        /* \"#utility.yul\":13772:13817   */\n      tag_275\n      jump\t// in\n    tag_441:\n        /* \"#utility.yul\":13767:13770   */\n      dup3\n        /* \"#utility.yul\":13760:13818   */\n      mstore\n        /* \"#utility.yul\":13677:13824   */\n      pop\n      pop\n      jump\t// out\n        /* \"#utility.yul\":13830:14068   */\n    tag_126:\n        /* \"#utility.yul\":13931:13935   */\n      0x00\n        /* \"#utility.yul\":13969:13971   */\n      0x20\n        /* \"#utility.yul\":13958:13967   */\n      dup3\n        /* \"#utility.yul\":13954:13972   */\n      add\n        /* \"#utility.yul\":13946:13972   */\n      swap1\n      pop\n        /* \"#utility.yul\":13982:14061   */\n      tag_443\n        /* \"#utility.yul\":14058:14059   */\n      0x00\n        /* \"#utility.yul\":14047:14056   */\n      dup4\n        /* \"#utility.yul\":14043:14060   */\n      add\n        /* \"#utility.yul\":14034:14040   */\n      dup5\n        /* \"#utility.yul\":13982:14061   */\n      tag_276\n      jump\t// in\n    tag_443:\n        /* \"#utility.yul\":13830:14068   */\n      swap3\n      swap2\n      pop\n      pop\n      jump\t// out\n        /* \"#utility.yul\":14074:14254   */\n    tag_130:\n        /* \"#utility.yul\":14122:14199   */\n      0x4e487b7100000000000000000000000000000000000000000000000000000000\n        /* \"#utility.yul\":14119:14120   */\n      0x00\n        /* \"#utility.yul\":14112:14200   */\n      mstore\n        /* \"#utility.yul\":14219:14223   */\n      0x32\n        /* \"#utility.yul\":14216:14217   */\n      0x04\n        /* \"#utility.yul\":14209:14224   */\n      mstore\n        /* \"#utility.yul\":14243:14247   */\n      0x24\n        /* \"#utility.yul\":14240:14241   */\n      0x00\n        /* \"#utility.yul\":14233:14248   */\n      revert\n        /* \"#utility.yul\":14260:14440   */\n    tag_277:\n        /* \"#utility.yul\":14308:14385   */\n      0x4e487b7100000000000000000000000000000000000000000000000000000000\n        /* \"#utility.yul\":14305:14306   */\n      0x00\n        /* \"#utility.yul\":14298:14386   */\n      mstore\n        /* \"#utility.yul\":14405:14409   */\n      0x22\n        /* \"#utility.yul\":14402:14403   */\n      0x04\n        /* \"#utility.yul\":14395:14410   */\n      mstore\n        /* \"#utility.yul\":14429:14433   */\n      0x24\n        /* \"#utility.yul\":14426:14427   */\n      0x00\n        /* \"#utility.yul\":14419:14434   */\n      revert\n        /* \"#utility.yul\":14446:14766   */\n    tag_139:\n        /* \"#utility.yul\":14490:14496   */\n      0x00\n        /* \"#utility.yul\":14527:14528   */\n      0x02\n        /* \"#utility.yul\":14521:14525   */\n      dup3\n        /* \"#utility.yul\":14517:14529   */\n      div\n        /* \"#utility.yul\":14507:14529   */\n      swap1\n      pop\n        /* \"#utility.yul\":14574:14575   */\n      0x01\n        /* \"#utility.yul\":14568:14572   */\n      dup3\n        /* \"#utility.yul\":14564:14576   */\n      and\n        /* \"#utility.yul\":14595:14613   */\n      dup1\n        /* \"#utility.yul\":14585:14666   */\n      tag_447\n      jumpi\n        /* \"#utility.yul\":14651:14655   */\n      0x7f\n        /* \"#utility.yul\":14643:14649   */\n      dup3\n        /* \"#utility.yul\":14639:14656   */\n      and\n        /* \"#utility.yul\":14629:14656   */\n      swap2\n      pop\n        /* \"#utility.yul\":14585:14666   */\n    tag_447:\n        /* \"#utility.yul\":14713:14715   */\n      0x20\n        /* \"#utility.yul\":14705:14711   */\n      dup3\n        /* \"#utility.yul\":14702:14716   */\n      lt\n        /* \"#utility.yul\":14682:14700   */\n      dup2\n        /* \"#utility.yul\":14679:14717   */\n      sub\n        /* \"#utility.yul\":14676:14760   */\n      tag_448\n      jumpi\n        /* \"#utility.yul\":14732:14750   */\n      tag_449\n      tag_277\n      jump\t// in\n    tag_449:\n        /* \"#utility.yul\":14676:14760   */\n    tag_448:\n        /* \"#utility.yul\":14497:14766   */\n      pop\n        /* \"#utility.yul\":14446:14766   */\n      swap2\n      swap1\n      pop\n      jump\t// out\n        /* \"#utility.yul\":14772:14952   */\n    tag_278:\n        /* \"#utility.yul\":14820:14897   */\n      0x4e487b7100000000000000000000000000000000000000000000000000000000\n        /* \"#utility.yul\":14817:14818   */\n      0x00\n        /* \"#utility.yul\":14810:14898   */\n      mstore\n        /* \"#utility.yul\":14917:14921   */\n      0x11\n        /* \"#utility.yul\":14914:14915   */\n      0x04\n        /* \"#utility.yul\":14907:14922   */\n      mstore\n        /* \"#utility.yul\":14941:14945   */\n      0x24\n        /* \"#utility.yul\":14938:14939   */\n      0x00\n        /* \"#utility.yul\":14931:14946   */\n      revert\n        /* \"#utility.yul\":14958:15191   */\n    tag_200:\n        /* \"#utility.yul\":14997:15000   */\n      0x00\n        /* \"#utility.yul\":15020:15044   */\n      tag_452\n        /* \"#utility.yul\":15038:15043   */\n      dup3\n        /* \"#utility.yul\":15020:15044   */\n      tag_239\n      jump\t// in\n    tag_452:\n        /* \"#utility.yul\":15011:15044   */\n      swap2\n      pop\n        /* \"#utility.yul\":15066:15132   */\n      0xffffffffffffffffffffffffffffffffffffffffffffffffffffffffffffffff\n        /* \"#utility.yul\":15059:15064   */\n      dup3\n        /* \"#utility.yul\":15056:15133   */\n      sub\n        /* \"#utility.yul\":15053:15156   */\n      tag_453\n      jumpi\n        /* \"#utility.yul\":15136:15154   */\n      tag_454\n      tag_278\n      jump\t// in\n    tag_454:\n        /* \"#utility.yul\":15053:15156   */\n    tag_453:\n        /* \"#utility.yul\":15183:15184   */\n      0x01\n        /* \"#utility.yul\":15176:15181   */\n      dup3\n        /* \"#utility.yul\":15172:15185   */\n      add\n        /* \"#utility.yul\":15165:15185   */\n      swap1\n      pop\n        /* \"#utility.yul\":14958:15191   */\n      swap2\n      swap1\n      pop\n      jump\t// out\n        /* \"#utility.yul\":15197:15338   */\n    tag_279:\n        /* \"#utility.yul\":15246:15250   */\n      0x00\n        /* \"#utility.yul\":15269:15272   */\n      dup2\n        /* \"#utility.yul\":15261:15272   */\n      swap1\n      pop\n        /* \"#utility.yul\":15292:15295   */\n      dup2\n        /* \"#utility.yul\":15289:15290   */\n      0x00\n        /* \"#utility.yul\":15282:15296   */\n      mstore\n        /* \"#utility.yul\":15326:15330   */\n      0x20\n        /* \"#utility.yul\":15323:15324   */\n      0x00\n        /* \"#utility.yul\":15313:15331   */\n      keccak256\n        /* \"#utility.yul\":15305:15331   */\n      swap1\n      pop\n        /* \"#utility.yul\":15197:15338   */\n      swap2\n      swap1\n      pop\n      jump\t// out\n        /* \"#utility.yul\":15344:15437   */\n    tag_280:\n        /* \"#utility.yul\":15381:15387   */\n      0x00\n        /* \"#utility.yul\":15428:15430   */\n      0x20\n        /* \"#utility.yul\":15423:15425   */\n      0x1f\n        /* \"#utility.yul\":15416:15421   */\n      dup4\n        /* \"#utility.yul\":15412:15426   */\n      add\n        /* \"#utility.yul\":15408:15431   */\n      div\n        /* \"#utility.yul\":15398:15431   */\n      swap1\n      pop\n        /* \"#utility.yul\":15344:15437   */\n      swap2\n      swap1\n      pop\n      jump\t// out\n        /* \"#utility.yul\":15443:15550   */\n    tag_281:\n        /* \"#utility.yul\":15487:15495   */\n      0x00\n        /* \"#utility.yul\":15537:15542   */\n      dup3\n        /* \"#utility.yul\":15531:15535   */\n      dup3\n        /* \"#utility.yul\":15527:15543   */\n      shl\n        /* \"#utility.yul\":15506:15543   */\n      swap1\n      pop\n        /* \"#utility.yul\":15443:15550   */\n      swap3\n      swap2\n      pop\n      pop\n      jump\t// out\n        /* \"#utility.yul\":15556:15949   */\n    tag_282:\n        /* \"#utility.yul\":15625:15631   */\n      0x00\n        /* \"#utility.yul\":15675:15676   */\n      0x08\n        /* \"#utility.yul\":15663:15673   */\n      dup4\n        /* \"#utility.yul\":15659:15677   */\n      mul\n        /* \"#utility.yul\":15698:15795   */\n      tag_459\n        /* \"#utility.yul\":15728:15794   */\n      0xffffffffffffffffffffffffffffffffffffffffffffffffffffffffffffffff\n        /* \"#utility.yul\":15717:15726   */\n      dup3\n        /* \"#utility.yul\":15698:15795   */\n      tag_281\n      jump\t// in\n    tag_459:\n        /* \"#utility.yul\":15816:15855   */\n      tag_460\n        /* \"#utility.yul\":15846:15854   */\n      dup7\n        /* \"#utility.yul\":15835:15844   */\n      dup4\n        /* \"#utility.yul\":15816:15855   */\n      tag_281\n      jump\t// in\n    tag_460:\n        /* \"#utility.yul\":15804:15855   */\n      swap6\n      pop\n        /* \"#utility.yul\":15888:15892   */\n      dup1\n        /* \"#utility.yul\":15884:15893   */\n      not\n        /* \"#utility.yul\":15877:15882   */\n      dup5\n        /* \"#utility.yul\":15873:15894   */\n      and\n        /* \"#utility.yul\":15864:15894   */\n      swap4\n      pop\n        /* \"#utility.yul\":15937:15941   */\n      dup1\n        /* \"#utility.yul\":15927:15935   */\n      dup7\n        /* \"#utility.yul\":15923:15942   */\n      and\n        /* \"#utility.yul\":15916:15921   */\n      dup5\n        /* \"#utility.yul\":15913:15943   */\n      or\n        /* \"#utility.yul\":15903:15943   */\n      swap3\n      pop\n        /* \"#utility.yul\":15632:15949   */\n      pop\n      pop\n        /* \"#utility.yul\":15556:15949   */\n      swap4\n      swap3\n      pop\n      pop\n      pop\n      jump\t// out\n        /* \"#utility.yul\":15955:16015   */\n    tag_283:\n        /* \"#utility.yul\":15983:15986   */\n      0x00\n        /* \"#utility.yul\":16004:16009   */\n      dup2\n        /* \"#utility.yul\":15997:16009   */\n      swap1\n      pop\n        /* \"#utility.yul\":15955:16015   */\n      swap2\n      swap1\n      pop\n      jump\t// out\n        /* \"#utility.yul\":16021:16163   */\n    tag_284:\n        /* \"#utility.yul\":16071:16080   */\n      0x00\n        /* \"#utility.yul\":16104:16157   */\n      tag_463\n        /* \"#utility.yul\":16122:16156   */\n      tag_464\n        /* \"#utility.yul\":16131:16155   */\n      tag_465\n        /* \"#utility.yul\":16149:16154   */\n      dup5\n        /* \"#utility.yul\":16131:16155   */\n      tag_239\n      jump\t// in\n    tag_465:\n        /* \"#utility.yul\":16122:16156   */\n      tag_283\n      jump\t// in\n    tag_464:\n        /* \"#utility.yul\":16104:16157   */\n      tag_239\n      jump\t// in\n    tag_463:\n        /* \"#utility.yul\":16091:16157   */\n      swap1\n      pop\n        /* \"#utility.yul\":16021:16163   */\n      swap2\n      swap1\n      pop\n      jump\t// out\n        /* \"#utility.yul\":16169:16244   */\n    tag_285:\n        /* \"#utility.yul\":16212:16215   */\n      0x00\n        /* \"#utility.yul\":16233:16238   */\n      dup2\n        /* \"#utility.yul\":16226:16238   */\n      swap1\n      pop\n        /* \"#utility.yul\":16169:16244   */\n      swap2\n      swap1\n      pop\n      jump\t// out\n        /* \"#utility.yul\":16250:16519   */\n    tag_286:\n        /* \"#utility.yul\":16360:16399   */\n      tag_468\n        /* \"#utility.yul\":16391:16398   */\n      dup4\n        /* \"#utility.yul\":16360:16399   */\n      tag_284\n      jump\t// in\n    tag_468:\n        /* \"#utility.yul\":16421:16512   */\n      tag_469\n        /* \"#utility.yul\":16470:16511   */\n      tag_470\n        /* \"#utility.yul\":16494:16510   */\n      dup3\n        /* \"#utility.yul\":16470:16511   */\n      tag_285\n      jump\t// in\n    tag_470:\n        /* \"#utility.yul\":16462:16468   */\n      dup5\n        /* \"#utility.yul\":16455:16459   */\n      dup5\n        /* \"#utility.yul\":16449:16460   */\n      sload\n        /* \"#utility.yul\":16421:16512   */\n      tag_282\n      jump\t// in\n    tag_469:\n        /* \"#utility.yul\":16415:16419   */\n      dup3\n        /* \"#utility.yul\":16408:16513   */\n      sstore\n        /* \"#utility.yul\":16326:16519   */\n      pop\n        /* \"#utility.yul\":16250:16519   */\n      pop\n      pop\n      pop\n      jump\t// out\n        /* \"#utility.yul\":16525:16598   */\n    tag_287:\n        /* \"#utility.yul\":16570:16573   */\n      0x00\n        /* \"#utility.yul\":16525:16598   */\n      swap1\n      jump\t// out\n        /* \"#utility.yul\":16604:16793   */\n    tag_288:\n        /* \"#utility.yul\":16681:16713   */\n      tag_473\n      tag_287\n      jump\t// in\n    tag_473:\n        /* \"#utility.yul\":16722:16787   */\n      tag_474\n        /* \"#utility.yul\":16780:16786   */\n      dup2\n        /* \"#utility.yul\":16772:16778   */\n      dup5\n        /* \"#utility.yul\":16766:16770   */\n      dup5\n        /* \"#utility.yul\":16722:16787   */\n      tag_286\n      jump\t// in\n    tag_474:\n        /* \"#utility.yul\":16657:16793   */\n      pop\n        /* \"#utility.yul\":16604:16793   */\n      pop\n      pop\n      jump\t// out\n        /* \"#utility.yul\":16799:16985   */\n    tag_289:\n        /* \"#utility.yul\":16859:16979   */\n    tag_476:\n        /* \"#utility.yul\":16876:16879   */\n      dup2\n        /* \"#utility.yul\":16869:16874   */\n      dup2\n        /* \"#utility.yul\":16866:16880   */\n      lt\n        /* \"#utility.yul\":16859:16979   */\n      iszero\n      tag_478\n      jumpi\n        /* \"#utility.yul\":16930:16969   */\n      tag_479\n        /* \"#utility.yul\":16967:16968   */\n      0x00\n        /* \"#utility.yul\":16960:16965   */\n      dup3\n        /* \"#utility.yul\":16930:16969   */\n      tag_288\n      jump\t// in\n    tag_479:\n        /* \"#utility.yul\":16903:16904   */\n      0x01\n        /* \"#utility.yul\":16896:16901   */\n      dup2\n        /* \"#utility.yul\":16892:16905   */\n      add\n        /* \"#utility.yul\":16883:16905   */\n      swap1\n      pop\n        /* \"#utility.yul\":16859:16979   */\n      jump(tag_476)\n    tag_478:\n        /* \"#utility.yul\":16799:16985   */\n      pop\n      pop\n      jump\t// out\n        /* \"#utility.yul\":16991:17534   */\n    tag_290:\n        /* \"#utility.yul\":17092:17094   */\n      0x1f\n        /* \"#utility.yul\":17087:17090   */\n      dup3\n        /* \"#utility.yul\":17084:17095   */\n      gt\n        /* \"#utility.yul\":17081:17527   */\n      iszero\n      tag_481\n      jumpi\n        /* \"#utility.yul\":17126:17164   */\n      tag_482\n        /* \"#utility.yul\":17158:17163   */\n      dup2\n        /* \"#utility.yul\":17126:17164   */\n      tag_279\n      jump\t// in\n    tag_482:\n        /* \"#utility.yul\":17210:17239   */\n      tag_483\n        /* \"#utility.yul\":17228:17238   */\n      dup5\n        /* \"#utility.yul\":17210:17239   */\n      tag_280\n      jump\t// in\n    tag_483:\n        /* \"#utility.yul\":17200:17208   */\n      dup2\n        /* \"#utility.yul\":17196:17240   */\n      add\n        /* \"#utility.yul\":17393:17395   */\n      0x20\n        /* \"#utility.yul\":17381:17391   */\n      dup6\n        /* \"#utility.yul\":17378:17396   */\n      lt\n        /* \"#utility.yul\":17375:17424   */\n      iszero\n      tag_484\n      jumpi\n        /* \"#utility.yul\":17414:17422   */\n      dup2\n        /* \"#utility.yul\":17399:17422   */\n      swap1\n      pop\n        /* \"#utility.yul\":17375:17424   */\n    tag_484:\n        /* \"#utility.yul\":17437:17517   */\n      tag_485\n        /* \"#utility.yul\":17493:17515   */\n      tag_486\n        /* \"#utility.yul\":17511:17514   */\n      dup6\n        /* \"#utility.yul\":17493:17515   */\n      tag_280\n      jump\t// in\n    tag_486:\n        /* \"#utility.yul\":17483:17491   */\n      dup4\n        /* \"#utility.yul\":17479:17516   */\n      add\n        /* \"#utility.yul\":17466:17477   */\n      dup3\n        /* \"#utility.yul\":17437:17517   */\n      tag_289\n      jump\t// in\n    tag_485:\n        /* \"#utility.yul\":17096:17527   */\n      pop\n      pop\n        /* \"#utility.yul\":17081:17527   */\n    tag_481:\n        /* \"#utility.yul\":16991:17534   */\n      pop\n      pop\n      pop\n      jump\t// out\n        /* \"#utility.yul\":17540:17657   */\n    tag_291:\n        /* \"#utility.yul\":17594:17602   */\n      0x00\n        /* \"#utility.yul\":17644:17649   */\n      dup3\n        /* \"#utility.yul\":17638:17642   */\n      dup3\n        /* \"#utility.yul\":17634:17650   */\n      shr\n        /* \"#utility.yul\":17613:17650   */\n      swap1\n      pop\n        /* \"#utility.yul\":17540:17657   */\n      swap3\n      swap2\n      pop\n      pop\n      jump\t// out\n        /* \"#utility.yul\":17663:17832   */\n    tag_292:\n        /* \"#utility.yul\":17707:17713   */\n      0x00\n        /* \"#utility.yul\":17740:17791   */\n      tag_489\n        /* \"#utility.yul\":17788:17789   */\n      0x00\n        /* \"#utility.yul\":17784:17790   */\n      not\n        /* \"#utility.yul\":17776:17781   */\n      dup5\n        /* \"#utility.yul\":17773:17774   */\n      0x08\n        /* \"#utility.yul\":17769:17782   */\n      mul\n        /* \"#utility.yul\":17740:17791   */\n      tag_291\n      jump\t// in\n    tag_489:\n        /* \"#utility.yul\":17736:17792   */\n      not\n        /* \"#utility.yul\":17821:17825   */\n      dup1\n        /* \"#utility.yul\":17815:17819   */\n      dup4\n        /* \"#utility.yul\":17811:17826   */\n      and\n        /* \"#utility.yul\":17801:17826   */\n      swap2\n      pop\n        /* \"#utility.yul\":17714:17832   */\n      pop\n        /* \"#utility.yul\":17663:17832   */\n      swap3\n      swap2\n      pop\n      pop\n      jump\t// out\n        /* \"#utility.yul\":17837:18132   */\n    tag_293:\n        /* \"#utility.yul\":17913:17917   */\n      0x00\n        /* \"#utility.yul\":18059:18088   */\n      tag_491\n        /* \"#utility.yul\":18084:18087   */\n      dup4\n        /* \"#utility.yul\":18078:18082   */\n      dup4\n        /* \"#utility.yul\":18059:18088   */\n      tag_292\n      jump\t// in\n    tag_491:\n        /* \"#utility.yul\":18051:18088   */\n      swap2\n      pop\n        /* \"#utility.yul\":18121:18124   */\n      dup3\n        /* \"#utility.yul\":18118:18119   */\n      0x02\n        /* \"#utility.yul\":18114:18125   */\n      mul\n        /* \"#utility.yul\":18108:18112   */\n      dup3\n        /* \"#utility.yul\":18105:18126   */\n      or\n        /* \"#utility.yul\":18097:18126   */\n      swap1\n      pop\n        /* \"#utility.yul\":17837:18132   */\n      swap3\n      swap2\n      pop\n      pop\n      jump\t// out\n        /* \"#utility.yul\":18137:19532   */\n    tag_202:\n        /* \"#utility.yul\":18254:18291   */\n      tag_493\n        /* \"#utility.yul\":18287:18290   */\n      dup3\n        /* \"#utility.yul\":18254:18291   */\n      tag_247\n      jump\t// in\n    tag_493:\n        /* \"#utility.yul\":18356:18374   */\n      0xffffffffffffffff\n        /* \"#utility.yul\":18348:18354   */\n      dup2\n        /* \"#utility.yul\":18345:18375   */\n      gt\n        /* \"#utility.yul\":18342:18398   */\n      iszero\n      tag_494\n      jumpi\n        /* \"#utility.yul\":18378:18396   */\n      tag_495\n      tag_192\n      jump\t// in\n    tag_495:\n        /* \"#utility.yul\":18342:18398   */\n    tag_494:\n        /* \"#utility.yul\":18422:18460   */\n      tag_496\n        /* \"#utility.yul\":18454:18458   */\n      dup3\n        /* \"#utility.yul\":18448:18459   */\n      sload\n        /* \"#utility.yul\":18422:18460   */\n      tag_139\n      jump\t// in\n    tag_496:\n        /* \"#utility.yul\":18507:18574   */\n      tag_497\n        /* \"#utility.yul\":18567:18573   */\n      dup3\n        /* \"#utility.yul\":18559:18565   */\n      dup3\n        /* \"#utility.yul\":18553:18557   */\n      dup6\n        /* \"#utility.yul\":18507:18574   */\n      tag_290\n      jump\t// in\n    tag_497:\n        /* \"#utility.yul\":18601:18602   */\n      0x00\n        /* \"#utility.yul\":18625:18629   */\n      0x20\n        /* \"#utility.yul\":18612:18629   */\n      swap1\n      pop\n        /* \"#utility.yul\":18657:18659   */\n      0x1f\n        /* \"#utility.yul\":18649:18655   */\n      dup4\n        /* \"#utility.yul\":18646:18660   */\n      gt\n        /* \"#utility.yul\":18674:18675   */\n      0x01\n        /* \"#utility.yul\":18669:19287   */\n      dup2\n      eq\n      tag_499\n      jumpi\n        /* \"#utility.yul\":19331:19332   */\n      0x00\n        /* \"#utility.yul\":19348:19354   */\n      dup5\n        /* \"#utility.yul\":19345:19422   */\n      iszero\n      tag_500\n      jumpi\n        /* \"#utility.yul\":19397:19406   */\n      dup3\n        /* \"#utility.yul\":19392:19395   */\n      dup8\n        /* \"#utility.yul\":19388:19407   */\n      add\n        /* \"#utility.yul\":19382:19408   */\n      mload\n        /* \"#utility.yul\":19373:19408   */\n      swap1\n      pop\n        /* \"#utility.yul\":19345:19422   */\n    tag_500:\n        /* \"#utility.yul\":19448:19515   */\n      tag_501\n        /* \"#utility.yul\":19508:19514   */\n      dup6\n        /* \"#utility.yul\":19501:19506   */\n      dup3\n        /* \"#utility.yul\":19448:19515   */\n      tag_293\n      jump\t// in\n    tag_501:\n        /* \"#utility.yul\":19442:19446   */\n      dup7\n        /* \"#utility.yul\":19435:19516   */\n      sstore\n        /* \"#utility.yul\":19304:19526   */\n      pop\n        /* \"#utility.yul\":18639:19526   */\n      jump(tag_498)\n        /* \"#utility.yul\":18669:19287   */\n    tag_499:\n        /* \"#utility.yul\":18721:18725   */\n      0x1f\n        /* \"#utility.yul\":18717:18726   */\n      not\n        /* \"#utility.yul\":18709:18715   */\n      dup5\n        /* \"#utility.yul\":18705:18727   */\n      and\n        /* \"#utility.yul\":18755:18792   */\n      tag_502\n        /* \"#utility.yul\":18787:18791   */\n      dup7\n        /* \"#utility.yul\":18755:18792   */\n      tag_279\n      jump\t// in\n    tag_502:\n        /* \"#utility.yul\":18814:18815   */\n      0x00\n        /* \"#utility.yul\":18828:19036   */\n    tag_503:\n        /* \"#utility.yul\":18842:18849   */\n      dup3\n        /* \"#utility.yul\":18839:18840   */\n      dup2\n        /* \"#utility.yul\":18836:18850   */\n      lt\n        /* \"#utility.yul\":18828:19036   */\n      iszero\n      tag_505\n      jumpi\n        /* \"#utility.yul\":18921:18930   */\n      dup5\n        /* \"#utility.yul\":18916:18919   */\n      dup10\n        /* \"#utility.yul\":18912:18931   */\n      add\n        /* \"#utility.yul\":18906:18932   */\n      mload\n        /* \"#utility.yul\":18898:18904   */\n      dup3\n        /* \"#utility.yul\":18891:18933   */\n      sstore\n        /* \"#utility.yul\":18972:18973   */\n      0x01\n        /* \"#utility.yul\":18964:18970   */\n      dup3\n        /* \"#utility.yul\":18960:18974   */\n      add\n        /* \"#utility.yul\":18950:18974   */\n      swap2\n      pop\n        /* \"#utility.yul\":19019:19021   */\n      0x20\n        /* \"#utility.yul\":19008:19017   */\n      dup6\n        /* \"#utility.yul\":19004:19022   */\n      add\n        /* \"#utility.yul\":18991:19022   */\n      swap5\n      pop\n        /* \"#utility.yul\":18865:18869   */\n      0x20\n        /* \"#utility.yul\":18862:18863   */\n      dup2\n        /* \"#utility.yul\":18858:18870   */\n      add\n        /* \"#utility.yul\":18853:18870   */\n      swap1\n      pop\n        /* \"#utility.yul\":18828:19036   */\n      jump(tag_503)\n    tag_505:\n        /* \"#utility.yul\":19064:19070   */\n      dup7\n        /* \"#utility.yul\":19055:19062   */\n      dup4\n        /* \"#utility.yul\":19052:19071   */\n      lt\n        /* \"#utility.yul\":19049:19228   */\n      iszero\n      tag_506\n      jumpi\n        /* \"#utility.yul\":19122:19131   */\n      dup5\n        /* \"#utility.yul\":19117:19120   */\n      dup10\n        /* \"#utility.yul\":19113:19132   */\n      add\n        /* \"#utility.yul\":19107:19133   */\n      mload\n        /* \"#utility.yul\":19165:19213   */\n      tag_507\n        /* \"#utility.yul\":19207:19211   */\n      0x1f\n        /* \"#utility.yul\":19199:19205   */\n      dup10\n        /* \"#utility.yul\":19195:19212   */\n      and\n        /* \"#utility.yul\":19184:19193   */\n      dup3\n        /* \"#utility.yul\":19165:19213   */\n      tag_292\n      jump\t// in\n    tag_507:\n        /* \"#utility.yul\":19157:19163   */\n      dup4\n        /* \"#utility.yul\":19150:19214   */\n      sstore\n        /* \"#utility.yul\":19072:19228   */\n      pop\n        /* \"#utility.yul\":19049:19228   */\n    tag_506:\n        /* \"#utility.yul\":19274:19275   */\n      0x01\n        /* \"#utility.yul\":19270:19271   */\n      0x02\n        /* \"#utility.yul\":19262:19268   */\n      dup9\n        /* \"#utility.yul\":19258:19272   */\n      mul\n        /* \"#utility.yul\":19254:19276   */\n      add\n        /* \"#utility.yul\":19248:19252   */\n      dup9\n        /* \"#utility.yul\":19241:19277   */\n      sstore\n        /* \"#utility.yul\":18676:19287   */\n      pop\n      pop\n      pop\n        /* \"#utility.yul\":18639:19526   */\n    tag_498:\n      pop\n        /* \"#utility.yul\":18229:19532   */\n      pop\n      pop\n      pop\n        /* \"#utility.yul\":18137:19532   */\n      pop\n      pop\n      jump\t// out\n\n    auxdata: 0xa2646970667358221220b29c6791d8de59c825e5fb1b2f7e391cbc937d4d6cd95806ad31174762a4b1e764736f6c63430008160033\n}\n",
				"bytecode": {
					"linkReferences": {},
					"object": "60806040527f74657374206865726500000000000000000000000000000000000000000000006001556040518060400160405280601681526020017fd0bfd180d0b8d0b2d0b5d18220d0bcd0b8d18021212100000000000000000000815250600290816200006e9190620003ce565b506040518060400160405280600981526020017f746573742068657265000000000000000000000000000000000000000000000081525060039081620000b59190620003ce565b506040518060600160405280600160ff168152602001600260ff168152602001600360ff16815250600b906003620000ef92919062000103565b50348015620000fc575f80fd5b50620004b2565b82600a81019282156200013a579160200282015b8281111562000139578251829060ff1690559160200191906001019062000117565b5b5090506200014991906200014d565b5090565b5b8082111562000166575f815f9055506001016200014e565b5090565b5f81519050919050565b7f4e487b71000000000000000000000000000000000000000000000000000000005f52604160045260245ffd5b7f4e487b71000000000000000000000000000000000000000000000000000000005f52602260045260245ffd5b5f6002820490506001821680620001e657607f821691505b602082108103620001fc57620001fb620001a1565b5b50919050565b5f819050815f5260205f209050919050565b5f6020601f8301049050919050565b5f82821b905092915050565b5f60088302620002607fffffffffffffffffffffffffffffffffffffffffffffffffffffffffffffffff8262000223565b6200026c868362000223565b95508019841693508086168417925050509392505050565b5f819050919050565b5f819050919050565b5f620002b6620002b0620002aa8462000284565b6200028d565b62000284565b9050919050565b5f819050919050565b620002d18362000296565b620002e9620002e082620002bd565b8484546200022f565b825550505050565b5f90565b620002ff620002f1565b6200030c818484620002c6565b505050565b5b818110156200033357620003275f82620002f5565b60018101905062000312565b5050565b601f82111562000382576200034c8162000202565b620003578462000214565b8101602085101562000367578190505b6200037f620003768562000214565b83018262000311565b50505b505050565b5f82821c905092915050565b5f620003a45f198460080262000387565b1980831691505092915050565b5f620003be838362000393565b9150826002028217905092915050565b620003d9826200016a565b67ffffffffffffffff811115620003f557620003f462000174565b5b620004018254620001ce565b6200040e82828562000337565b5f60209050601f83116001811462000444575f84156200042f578287015190505b6200043b8582620003b1565b865550620004aa565b601f198416620004548662000202565b5f5b828110156200047d5784890151825560018201915060208501945060208101905062000456565b868310156200049d578489015162000499601f89168262000393565b8355505b6001600288020188555050505b505050505050565b6118be80620004c05f395ff3fe608060405260043610610134575f3560e01c80638c0d12db116100aa578063bbdfbfba1161006e578063bbdfbfba146103ae578063bfb231d2146103c4578063bfec3edd14610400578063c6b915401461042a578063d39fa23314610454578063ef8a92351461049057610134565b80638c0d12db146102fe5780639e03522914610328578063a12d531f14610352578063a34343c914610368578063bad489dc1461039257610134565b80633e731233116100fc5780633e7312331461020657806356d88e271461021c5780636251841d146102465780637217934f14610282578063739c04a4146102ac57806383a6deb5146102e857610134565b806301725a0b146101385780630f4147f91461014e5780631612217f146101785780631b9265b8146101b457806327e235e3146101ca575b5f80fd5b348015610143575f80fd5b5061014c6104ba565b005b348015610159575f80fd5b50610162610510565b60405161016f9190610ec3565b60405180910390f35b348015610183575f80fd5b5061019e60048036038101906101999190610f27565b61059c565b6040516101ab9190610f74565b60405180910390f35b3480156101bf575f80fd5b506101c86105d2565b005b3480156101d5575f80fd5b506101f060048036038101906101eb9190610fe7565b6105fd565b6040516101fd9190610f74565b60405180910390f35b348015610211575f80fd5b5061021a610616565b005b348015610227575f80fd5b50610230610697565b60405161023d9190610f74565b60405180910390f35b348015610251575f80fd5b5061026c60048036038101906102679190611012565b61069d565b604051610279919061108f565b60405180910390f35b34801561028d575f80fd5b5061029661073c565b6040516102a39190610f74565b60405180910390f35b3480156102b7575f80fd5b506102d260048036038101906102cd91906110af565b610751565b6040516102df91906111b3565b60405180910390f35b3480156102f3575f80fd5b506102fc6108b2565b005b348015610309575f80fd5b506103126108de565b60405161031f919061120d565b60405180910390f35b348015610333575f80fd5b5061033c610944565b6040516103499190610ec3565b60405180910390f35b34801561035d575f80fd5b506103666109d0565b005b348015610373575f80fd5b5061037c610a44565b60405161038991906112ce565b60405180910390f35b6103ac60048036038101906103a7919061141a565b610add565b005b3480156103b9575f80fd5b506103c2610c71565b005b3480156103cf575f80fd5b506103ea60048036038101906103e59190611012565b610c9d565b6040516103f79190610f74565b60405180910390f35b34801561040b575f80fd5b50610414610cb6565b6040516104219190610f74565b60405180910390f35b348015610435575f80fd5b5061043e610cc1565b60405161044b9190611479565b60405180910390f35b34801561045f575f80fd5b5061047a60048036038101906104759190611012565b610cc7565b6040516104879190610f74565b60405180910390f35b34801561049b575f80fd5b506104a4610ce7565b6040516104b19190611505565b60405180910390f35b6028600b6003600a81106104d1576104d061151e565b5b0181905550603c600b6005600a81106104ed576104ec61151e565b5b01819055506050600b6007600a81106105095761050861151e565b5b0181905550565b6002805461051d90611578565b80601f016020809104026020016040519081016040528092919081815260200182805461054990611578565b80156105945780601f1061056b57610100808354040283529160200191610594565b820191905f5260205f20905b81548152906001019060200180831161057757829003601f168201915b505050505081565b601582815481106105ab575f80fd5b905f5260205f200181815481106105c0575f80fd5b905f5260205f20015f91509150505481565b5f60165f6101000a81548160ff021916908360028111156105f6576105f5611492565b5b0217905550565b5f602052805f5260405f205f91509050805f0154905081565b6004808060018154018082558091505060019003905f5260205f20015f909190919091505560046005908060018154018082558091505060019003905f5260205f20015f909190919091505560046006908060018154018082558091505060019003905f5260205f20015f9091909190915055600480549050600581905550565b60055481565b600681600581106106ac575f80fd5b015f9150905080546106bd90611578565b80601f01602080910402602001604051908101604052809291908181526020018280546106e990611578565b80156107345780601f1061070b57610100808354040283529160200191610734565b820191905f5260205f20905b81548152906001019060200180831161071757829003601f168201915b505050505081565b5f6002805461074a90611578565b9050905090565b610759610cf9565b5f808473ffffffffffffffffffffffffffffffffffffffff1673ffffffffffffffffffffffffffffffffffffffff1681526020019081526020015f206001015f8381526020019081526020015f206040518060800160405290815f820154815260200160018201548152602001600282015f9054906101000a900473ffffffffffffffffffffffffffffffffffffffff1673ffffffffffffffffffffffffffffffffffffffff1673ffffffffffffffffffffffffffffffffffffffff16815260200160038201805461082a90611578565b80601f016020809104026020016040519081016040528092919081815260200182805461085690611578565b80156108a15780601f10610878576101008083540402835291602001916108a1565b820191905f5260205f20905b81548152906001019060200180831161088457829003601f168201915b505050505081525050905092915050565b600260165f6101000a81548160ff021916908360028111156108d7576108d6611492565b5b0217905550565b5f60035f81546108ed90611578565b81106108fc576108fb61151e565b5b81546001161561091957905f5260205f2090602091828204019190065b9054901a7f010000000000000000000000000000000000000000000000000000000000000002905090565b6003805461095190611578565b80601f016020809104026020016040519081016040528092919081815260200182805461097d90611578565b80156109c85780601f1061099f576101008083540402835291602001916109c8565b820191905f5260205f20905b8154815290600101906020018083116109ab57829003601f168201915b505050505081565b60405180604001604052806040518060600160405280600360ff168152602001600460ff168152602001600560ff1681525081526020016040518060600160405280600660ff168152602001600760ff168152602001600860ff168152508152506015906002610a41929190610d34565b50565b60605f600a67ffffffffffffffff811115610a6257610a616112f6565b5b604051908082528060200260200182016040528015610a905781602001602082028036833780820191505090505b5090506064815f81518110610aa857610aa761151e565b5b60200260200101818152505060c881600181518110610aca57610ac961151e565b5b6020026020010181815250508091505090565b5f805f3373ffffffffffffffffffffffffffffffffffffffff1673ffffffffffffffffffffffffffffffffffffffff1681526020019081526020015f205f015490505f803373ffffffffffffffffffffffffffffffffffffffff1673ffffffffffffffffffffffffffffffffffffffff1681526020019081526020015f205f015f815480929190610b6d906115d5565b91905055505f60405180608001604052803481526020014281526020013373ffffffffffffffffffffffffffffffffffffffff168152602001848152509050805f803373ffffffffffffffffffffffffffffffffffffffff1673ffffffffffffffffffffffffffffffffffffffff1681526020019081526020015f206001015f8481526020019081526020015f205f820151815f0155602082015181600101556040820151816002015f6101000a81548173ffffffffffffffffffffffffffffffffffffffff021916908373ffffffffffffffffffffffffffffffffffffffff1602179055506060820151816003019081610c6891906117b9565b50905050505050565b600160165f6101000a81548160ff02191690836002811115610c9657610c95611492565b5b0217905550565b600b81600a8110610cac575f80fd5b015f915090505481565b5f602060ff16905090565b60015481565b60048181548110610cd6575f80fd5b905f5260205f20015f915090505481565b60165f9054906101000a900460ff1681565b60405180608001604052805f81526020015f81526020015f73ffffffffffffffffffffffffffffffffffffffff168152602001606081525090565b828054828255905f5260205f20908101928215610d7c579160200282015b82811115610d7b57825182906003610d6b929190610d8d565b5091602001919060010190610d52565b5b509050610d899190610ddd565b5090565b828054828255905f5260205f20908101928215610dcc579160200282015b82811115610dcb578251829060ff16905591602001919060010190610dab565b5b509050610dd99190610e00565b5090565b5b80821115610dfc575f8181610df39190610e1b565b50600101610dde565b5090565b5b80821115610e17575f815f905550600101610e01565b5090565b5080545f8255905f5260205f2090810190610e369190610e00565b50565b5f81519050919050565b5f82825260208201905092915050565b5f5b83811015610e70578082015181840152602081019050610e55565b5f8484015250505050565b5f601f19601f8301169050919050565b5f610e9582610e39565b610e9f8185610e43565b9350610eaf818560208601610e53565b610eb881610e7b565b840191505092915050565b5f6020820190508181035f830152610edb8184610e8b565b905092915050565b5f604051905090565b5f80fd5b5f80fd5b5f819050919050565b610f0681610ef4565b8114610f10575f80fd5b50565b5f81359050610f2181610efd565b92915050565b5f8060408385031215610f3d57610f3c610eec565b5b5f610f4a85828601610f13565b9250506020610f5b85828601610f13565b9150509250929050565b610f6e81610ef4565b82525050565b5f602082019050610f875f830184610f65565b92915050565b5f73ffffffffffffffffffffffffffffffffffffffff82169050919050565b5f610fb682610f8d565b9050919050565b610fc681610fac565b8114610fd0575f80fd5b50565b5f81359050610fe181610fbd565b92915050565b5f60208284031215610ffc57610ffb610eec565b5b5f61100984828501610fd3565b91505092915050565b5f6020828403121561102757611026610eec565b5b5f61103484828501610f13565b91505092915050565b5f81519050919050565b5f82825260208201905092915050565b5f6110618261103d565b61106b8185611047565b935061107b818560208601610e53565b61108481610e7b565b840191505092915050565b5f6020820190508181035f8301526110a78184611057565b905092915050565b5f80604083850312156110c5576110c4610eec565b5b5f6110d285828601610fd3565b92505060206110e385828601610f13565b9150509250929050565b6110f681610ef4565b82525050565b61110581610fac565b82525050565b5f82825260208201905092915050565b5f6111258261103d565b61112f818561110b565b935061113f818560208601610e53565b61114881610e7b565b840191505092915050565b5f608083015f8301516111685f8601826110ed565b50602083015161117b60208601826110ed565b50604083015161118e60408601826110fc565b50606083015184820360608601526111a6828261111b565b9150508091505092915050565b5f6020820190508181035f8301526111cb8184611153565b905092915050565b5f7fff0000000000000000000000000000000000000000000000000000000000000082169050919050565b611207816111d3565b82525050565b5f6020820190506112205f8301846111fe565b92915050565b5f81519050919050565b5f82825260208201905092915050565b5f819050602082019050919050565b5f61125a83836110ed565b60208301905092915050565b5f602082019050919050565b5f61127c82611226565b6112868185611230565b935061129183611240565b805f5b838110156112c15781516112a8888261124f565b97506112b383611266565b925050600181019050611294565b5085935050505092915050565b5f6020820190508181035f8301526112e68184611272565b905092915050565b5f80fd5b5f80fd5b7f4e487b71000000000000000000000000000000000000000000000000000000005f52604160045260245ffd5b61132c82610e7b565b810181811067ffffffffffffffff8211171561134b5761134a6112f6565b5b80604052505050565b5f61135d610ee3565b90506113698282611323565b919050565b5f67ffffffffffffffff821115611388576113876112f6565b5b61139182610e7b565b9050602081019050919050565b828183375f83830152505050565b5f6113be6113b98461136e565b611354565b9050828152602081018484840111156113da576113d96112f2565b5b6113e584828561139e565b509392505050565b5f82601f830112611401576114006112ee565b5b81356114118482602086016113ac565b91505092915050565b5f6020828403121561142f5761142e610eec565b5b5f82013567ffffffffffffffff81111561144c5761144b610ef0565b5b611458848285016113ed565b91505092915050565b5f819050919050565b61147381611461565b82525050565b5f60208201905061148c5f83018461146a565b92915050565b7f4e487b71000000000000000000000000000000000000000000000000000000005f52602160045260245ffd5b600381106114d0576114cf611492565b5b50565b5f8190506114e0826114bf565b919050565b5f6114ef826114d3565b9050919050565b6114ff816114e5565b82525050565b5f6020820190506115185f8301846114f6565b92915050565b7f4e487b71000000000000000000000000000000000000000000000000000000005f52603260045260245ffd5b7f4e487b71000000000000000000000000000000000000000000000000000000005f52602260045260245ffd5b5f600282049050600182168061158f57607f821691505b6020821081036115a2576115a161154b565b5b50919050565b7f4e487b71000000000000000000000000000000000000000000000000000000005f52601160045260245ffd5b5f6115df82610ef4565b91507fffffffffffffffffffffffffffffffffffffffffffffffffffffffffffffffff8203611611576116106115a8565b5b600182019050919050565b5f819050815f5260205f209050919050565b5f6020601f8301049050919050565b5f82821b905092915050565b5f600883026116787fffffffffffffffffffffffffffffffffffffffffffffffffffffffffffffffff8261163d565b611682868361163d565b95508019841693508086168417925050509392505050565b5f819050919050565b5f6116bd6116b86116b384610ef4565b61169a565b610ef4565b9050919050565b5f819050919050565b6116d6836116a3565b6116ea6116e2826116c4565b848454611649565b825550505050565b5f90565b6116fe6116f2565b6117098184846116cd565b505050565b5b8181101561172c576117215f826116f6565b60018101905061170f565b5050565b601f821115611771576117428161161c565b61174b8461162e565b8101602085101561175a578190505b61176e6117668561162e565b83018261170e565b50505b505050565b5f82821c905092915050565b5f6117915f1984600802611776565b1980831691505092915050565b5f6117a98383611782565b9150826002028217905092915050565b6117c28261103d565b67ffffffffffffffff8111156117db576117da6112f6565b5b6117e58254611578565b6117f0828285611730565b5f60209050601f831160018114611821575f841561180f578287015190505b611819858261179e565b865550611880565b601f19841661182f8661161c565b5f5b8281101561185657848901518255600182019150602085019450602081019050611831565b86831015611873578489015161186f601f891682611782565b8355505b6001600288020188555050505b50505050505056fea2646970667358221220b29c6791d8de59c825e5fb1b2f7e391cbc937d4d6cd95806ad31174762a4b1e764736f6c63430008160033",
					"opcodes": "PUSH1 0x80 PUSH1 0x40 MSTORE PUSH32 0x7465737420686572650000000000000000000000000000000000000000000000 PUSH1 0x1 SSTORE PUSH1 0x40 MLOAD DUP1 PUSH1 0x40 ADD PUSH1 0x40 MSTORE DUP1 PUSH1 0x16 DUP2 MSTORE PUSH1 0x20 ADD PUSH32 0xD0BFD180D0B8D0B2D0B5D18220D0BCD0B8D18021212100000000000000000000 DUP2 MSTORE POP PUSH1 0x2 SWAP1 DUP2 PUSH3 0x6E SWAP2 SWAP1 PUSH3 0x3CE JUMP JUMPDEST POP PUSH1 0x40 MLOAD DUP1 PUSH1 0x40 ADD PUSH1 0x40 MSTORE DUP1 PUSH1 0x9 DUP2 MSTORE PUSH1 0x20 ADD PUSH32 0x7465737420686572650000000000000000000000000000000000000000000000 DUP2 MSTORE POP PUSH1 0x3 SWAP1 DUP2 PUSH3 0xB5 SWAP2 SWAP1 PUSH3 0x3CE JUMP JUMPDEST POP PUSH1 0x40 MLOAD DUP1 PUSH1 0x60 ADD PUSH1 0x40 MSTORE DUP1 PUSH1 0x1 PUSH1 0xFF AND DUP2 MSTORE PUSH1 0x20 ADD PUSH1 0x2 PUSH1 0xFF AND DUP2 MSTORE PUSH1 0x20 ADD PUSH1 0x3 PUSH1 0xFF AND DUP2 MSTORE POP PUSH1 0xB SWAP1 PUSH1 0x3 PUSH3 0xEF SWAP3 SWAP2 SWAP1 PUSH3 0x103 JUMP JUMPDEST POP CALLVALUE DUP1 ISZERO PUSH3 0xFC JUMPI PUSH0 DUP1 REVERT JUMPDEST POP PUSH3 0x4B2 JUMP JUMPDEST DUP3 PUSH1 0xA DUP2 ADD SWAP3 DUP3 ISZERO PUSH3 0x13A JUMPI SWAP2 PUSH1 0x20 MUL DUP3 ADD JUMPDEST DUP3 DUP2 GT ISZERO PUSH3 0x139 JUMPI DUP3 MLOAD DUP3 SWAP1 PUSH1 0xFF AND SWAP1 SSTORE SWAP2 PUSH1 0x20 ADD SWAP2 SWAP1 PUSH1 0x1 ADD SWAP1 PUSH3 0x117 JUMP JUMPDEST JUMPDEST POP SWAP1 POP PUSH3 0x149 SWAP2 SWAP1 PUSH3 0x14D JUMP JUMPDEST POP SWAP1 JUMP JUMPDEST JUMPDEST DUP1 DUP3 GT ISZERO PUSH3 0x166 JUMPI PUSH0 DUP2 PUSH0 SWAP1 SSTORE POP PUSH1 0x1 ADD PUSH3 0x14E JUMP JUMPDEST POP SWAP1 JUMP JUMPDEST PUSH0 DUP2 MLOAD SWAP1 POP SWAP2 SWAP1 POP JUMP JUMPDEST PUSH32 0x4E487B7100000000000000000000000000000000000000000000000000000000 PUSH0 MSTORE PUSH1 0x41 PUSH1 0x4 MSTORE PUSH1 0x24 PUSH0 REVERT JUMPDEST PUSH32 0x4E487B7100000000000000000000000000000000000000000000000000000000 PUSH0 MSTORE PUSH1 0x22 PUSH1 0x4 MSTORE PUSH1 0x24 PUSH0 REVERT JUMPDEST PUSH0 PUSH1 0x2 DUP3 DIV SWAP1 POP PUSH1 0x1 DUP3 AND DUP1 PUSH3 0x1E6 JUMPI PUSH1 0x7F DUP3 AND SWAP2 POP JUMPDEST PUSH1 0x20 DUP3 LT DUP2 SUB PUSH3 0x1FC JUMPI PUSH3 0x1FB PUSH3 0x1A1 JUMP JUMPDEST JUMPDEST POP SWAP2 SWAP1 POP JUMP JUMPDEST PUSH0 DUP2 SWAP1 POP DUP2 PUSH0 MSTORE PUSH1 0x20 PUSH0 KECCAK256 SWAP1 POP SWAP2 SWAP1 POP JUMP JUMPDEST PUSH0 PUSH1 0x20 PUSH1 0x1F DUP4 ADD DIV SWAP1 POP SWAP2 SWAP1 POP JUMP JUMPDEST PUSH0 DUP3 DUP3 SHL SWAP1 POP SWAP3 SWAP2 POP POP JUMP JUMPDEST PUSH0 PUSH1 0x8 DUP4 MUL PUSH3 0x260 PUSH32 0xFFFFFFFFFFFFFFFFFFFFFFFFFFFFFFFFFFFFFFFFFFFFFFFFFFFFFFFFFFFFFFFF DUP3 PUSH3 0x223 JUMP JUMPDEST PUSH3 0x26C DUP7 DUP4 PUSH3 0x223 JUMP JUMPDEST SWAP6 POP DUP1 NOT DUP5 AND SWAP4 POP DUP1 DUP7 AND DUP5 OR SWAP3 POP POP POP SWAP4 SWAP3 POP POP POP JUMP JUMPDEST PUSH0 DUP2 SWAP1 POP SWAP2 SWAP1 POP JUMP JUMPDEST PUSH0 DUP2 SWAP1 POP SWAP2 SWAP1 POP JUMP JUMPDEST PUSH0 PUSH3 0x2B6 PUSH3 0x2B0 PUSH3 0x2AA DUP5 PUSH3 0x284 JUMP JUMPDEST PUSH3 0x28D JUMP JUMPDEST PUSH3 0x284 JUMP JUMPDEST SWAP1 POP SWAP2 SWAP1 POP JUMP JUMPDEST PUSH0 DUP2 SWAP1 POP SWAP2 SWAP1 POP JUMP JUMPDEST PUSH3 0x2D1 DUP4 PUSH3 0x296 JUMP JUMPDEST PUSH3 0x2E9 PUSH3 0x2E0 DUP3 PUSH3 0x2BD JUMP JUMPDEST DUP5 DUP5 SLOAD PUSH3 0x22F JUMP JUMPDEST DUP3 SSTORE POP POP POP POP JUMP JUMPDEST PUSH0 SWAP1 JUMP JUMPDEST PUSH3 0x2FF PUSH3 0x2F1 JUMP JUMPDEST PUSH3 0x30C DUP2 DUP5 DUP5 PUSH3 0x2C6 JUMP JUMPDEST POP POP POP JUMP JUMPDEST JUMPDEST DUP2 DUP2 LT ISZERO PUSH3 0x333 JUMPI PUSH3 0x327 PUSH0 DUP3 PUSH3 0x2F5 JUMP JUMPDEST PUSH1 0x1 DUP2 ADD SWAP1 POP PUSH3 0x312 JUMP JUMPDEST POP POP JUMP JUMPDEST PUSH1 0x1F DUP3 GT ISZERO PUSH3 0x382 JUMPI PUSH3 0x34C DUP2 PUSH3 0x202 JUMP JUMPDEST PUSH3 0x357 DUP5 PUSH3 0x214 JUMP JUMPDEST DUP2 ADD PUSH1 0x20 DUP6 LT ISZERO PUSH3 0x367 JUMPI DUP2 SWAP1 POP JUMPDEST PUSH3 0x37F PUSH3 0x376 DUP6 PUSH3 0x214 JUMP JUMPDEST DUP4 ADD DUP3 PUSH3 0x311 JUMP JUMPDEST POP POP JUMPDEST POP POP POP JUMP JUMPDEST PUSH0 DUP3 DUP3 SHR SWAP1 POP SWAP3 SWAP2 POP POP JUMP JUMPDEST PUSH0 PUSH3 0x3A4 PUSH0 NOT DUP5 PUSH1 0x8 MUL PUSH3 0x387 JUMP JUMPDEST NOT DUP1 DUP4 AND SWAP2 POP POP SWAP3 SWAP2 POP POP JUMP JUMPDEST PUSH0 PUSH3 0x3BE DUP4 DUP4 PUSH3 0x393 JUMP JUMPDEST SWAP2 POP DUP3 PUSH1 0x2 MUL DUP3 OR SWAP1 POP SWAP3 SWAP2 POP POP JUMP JUMPDEST PUSH3 0x3D9 DUP3 PUSH3 0x16A JUMP JUMPDEST PUSH8 0xFFFFFFFFFFFFFFFF DUP2 GT ISZERO PUSH3 0x3F5 JUMPI PUSH3 0x3F4 PUSH3 0x174 JUMP JUMPDEST JUMPDEST PUSH3 0x401 DUP3 SLOAD PUSH3 0x1CE JUMP JUMPDEST PUSH3 0x40E DUP3 DUP3 DUP6 PUSH3 0x337 JUMP JUMPDEST PUSH0 PUSH1 0x20 SWAP1 POP PUSH1 0x1F DUP4 GT PUSH1 0x1 DUP2 EQ PUSH3 0x444 JUMPI PUSH0 DUP5 ISZERO PUSH3 0x42F JUMPI DUP3 DUP8 ADD MLOAD SWAP1 POP JUMPDEST PUSH3 0x43B DUP6 DUP3 PUSH3 0x3B1 JUMP JUMPDEST DUP7 SSTORE POP PUSH3 0x4AA JUMP JUMPDEST PUSH1 0x1F NOT DUP5 AND PUSH3 0x454 DUP7 PUSH3 0x202 JUMP JUMPDEST PUSH0 JUMPDEST DUP3 DUP2 LT ISZERO PUSH3 0x47D JUMPI DUP5 DUP10 ADD MLOAD DUP3 SSTORE PUSH1 0x1 DUP3 ADD SWAP2 POP PUSH1 0x20 DUP6 ADD SWAP5 POP PUSH1 0x20 DUP2 ADD SWAP1 POP PUSH3 0x456 JUMP JUMPDEST DUP7 DUP4 LT ISZERO PUSH3 0x49D JUMPI DUP5 DUP10 ADD MLOAD PUSH3 0x499 PUSH1 0x1F DUP10 AND DUP3 PUSH3 0x393 JUMP JUMPDEST DUP4 SSTORE POP JUMPDEST PUSH1 0x1 PUSH1 0x2 DUP9 MUL ADD DUP9 SSTORE POP POP POP JUMPDEST POP POP POP POP POP POP JUMP JUMPDEST PUSH2 0x18BE DUP1 PUSH3 0x4C0 PUSH0 CODECOPY PUSH0 RETURN INVALID PUSH1 0x80 PUSH1 0x40 MSTORE PUSH1 0x4 CALLDATASIZE LT PUSH2 0x134 JUMPI PUSH0 CALLDATALOAD PUSH1 0xE0 SHR DUP1 PUSH4 0x8C0D12DB GT PUSH2 0xAA JUMPI DUP1 PUSH4 0xBBDFBFBA GT PUSH2 0x6E JUMPI DUP1 PUSH4 0xBBDFBFBA EQ PUSH2 0x3AE JUMPI DUP1 PUSH4 0xBFB231D2 EQ PUSH2 0x3C4 JUMPI DUP1 PUSH4 0xBFEC3EDD EQ PUSH2 0x400 JUMPI DUP1 PUSH4 0xC6B91540 EQ PUSH2 0x42A JUMPI DUP1 PUSH4 0xD39FA233 EQ PUSH2 0x454 JUMPI DUP1 PUSH4 0xEF8A9235 EQ PUSH2 0x490 JUMPI PUSH2 0x134 JUMP JUMPDEST DUP1 PUSH4 0x8C0D12DB EQ PUSH2 0x2FE JUMPI DUP1 PUSH4 0x9E035229 EQ PUSH2 0x328 JUMPI DUP1 PUSH4 0xA12D531F EQ PUSH2 0x352 JUMPI DUP1 PUSH4 0xA34343C9 EQ PUSH2 0x368 JUMPI DUP1 PUSH4 0xBAD489DC EQ PUSH2 0x392 JUMPI PUSH2 0x134 JUMP JUMPDEST DUP1 PUSH4 0x3E731233 GT PUSH2 0xFC JUMPI DUP1 PUSH4 0x3E731233 EQ PUSH2 0x206 JUMPI DUP1 PUSH4 0x56D88E27 EQ PUSH2 0x21C JUMPI DUP1 PUSH4 0x6251841D EQ PUSH2 0x246 JUMPI DUP1 PUSH4 0x7217934F EQ PUSH2 0x282 JUMPI DUP1 PUSH4 0x739C04A4 EQ PUSH2 0x2AC JUMPI DUP1 PUSH4 0x83A6DEB5 EQ PUSH2 0x2E8 JUMPI PUSH2 0x134 JUMP JUMPDEST DUP1 PUSH4 0x1725A0B EQ PUSH2 0x138 JUMPI DUP1 PUSH4 0xF4147F9 EQ PUSH2 0x14E JUMPI DUP1 PUSH4 0x1612217F EQ PUSH2 0x178 JUMPI DUP1 PUSH4 0x1B9265B8 EQ PUSH2 0x1B4 JUMPI DUP1 PUSH4 0x27E235E3 EQ PUSH2 0x1CA JUMPI JUMPDEST PUSH0 DUP1 REVERT JUMPDEST CALLVALUE DUP1 ISZERO PUSH2 0x143 JUMPI PUSH0 DUP1 REVERT JUMPDEST POP PUSH2 0x14C PUSH2 0x4BA JUMP JUMPDEST STOP JUMPDEST CALLVALUE DUP1 ISZERO PUSH2 0x159 JUMPI PUSH0 DUP1 REVERT JUMPDEST POP PUSH2 0x162 PUSH2 0x510 JUMP JUMPDEST PUSH1 0x40 MLOAD PUSH2 0x16F SWAP2 SWAP1 PUSH2 0xEC3 JUMP JUMPDEST PUSH1 0x40 MLOAD DUP1 SWAP2 SUB SWAP1 RETURN JUMPDEST CALLVALUE DUP1 ISZERO PUSH2 0x183 JUMPI PUSH0 DUP1 REVERT JUMPDEST POP PUSH2 0x19E PUSH1 0x4 DUP1 CALLDATASIZE SUB DUP2 ADD SWAP1 PUSH2 0x199 SWAP2 SWAP1 PUSH2 0xF27 JUMP JUMPDEST PUSH2 0x59C JUMP JUMPDEST PUSH1 0x40 MLOAD PUSH2 0x1AB SWAP2 SWAP1 PUSH2 0xF74 JUMP JUMPDEST PUSH1 0x40 MLOAD DUP1 SWAP2 SUB SWAP1 RETURN JUMPDEST CALLVALUE DUP1 ISZERO PUSH2 0x1BF JUMPI PUSH0 DUP1 REVERT JUMPDEST POP PUSH2 0x1C8 PUSH2 0x5D2 JUMP JUMPDEST STOP JUMPDEST CALLVALUE DUP1 ISZERO PUSH2 0x1D5 JUMPI PUSH0 DUP1 REVERT JUMPDEST POP PUSH2 0x1F0 PUSH1 0x4 DUP1 CALLDATASIZE SUB DUP2 ADD SWAP1 PUSH2 0x1EB SWAP2 SWAP1 PUSH2 0xFE7 JUMP JUMPDEST PUSH2 0x5FD JUMP JUMPDEST PUSH1 0x40 MLOAD PUSH2 0x1FD SWAP2 SWAP1 PUSH2 0xF74 JUMP JUMPDEST PUSH1 0x40 MLOAD DUP1 SWAP2 SUB SWAP1 RETURN JUMPDEST CALLVALUE DUP1 ISZERO PUSH2 0x211 JUMPI PUSH0 DUP1 REVERT JUMPDEST POP PUSH2 0x21A PUSH2 0x616 JUMP JUMPDEST STOP JUMPDEST CALLVALUE DUP1 ISZERO PUSH2 0x227 JUMPI PUSH0 DUP1 REVERT JUMPDEST POP PUSH2 0x230 PUSH2 0x697 JUMP JUMPDEST PUSH1 0x40 MLOAD PUSH2 0x23D SWAP2 SWAP1 PUSH2 0xF74 JUMP JUMPDEST PUSH1 0x40 MLOAD DUP1 SWAP2 SUB SWAP1 RETURN JUMPDEST CALLVALUE DUP1 ISZERO PUSH2 0x251 JUMPI PUSH0 DUP1 REVERT JUMPDEST POP PUSH2 0x26C PUSH1 0x4 DUP1 CALLDATASIZE SUB DUP2 ADD SWAP1 PUSH2 0x267 SWAP2 SWAP1 PUSH2 0x1012 JUMP JUMPDEST PUSH2 0x69D JUMP JUMPDEST PUSH1 0x40 MLOAD PUSH2 0x279 SWAP2 SWAP1 PUSH2 0x108F JUMP JUMPDEST PUSH1 0x40 MLOAD DUP1 SWAP2 SUB SWAP1 RETURN JUMPDEST CALLVALUE DUP1 ISZERO PUSH2 0x28D JUMPI PUSH0 DUP1 REVERT JUMPDEST POP PUSH2 0x296 PUSH2 0x73C JUMP JUMPDEST PUSH1 0x40 MLOAD PUSH2 0x2A3 SWAP2 SWAP1 PUSH2 0xF74 JUMP JUMPDEST PUSH1 0x40 MLOAD DUP1 SWAP2 SUB SWAP1 RETURN JUMPDEST CALLVALUE DUP1 ISZERO PUSH2 0x2B7 JUMPI PUSH0 DUP1 REVERT JUMPDEST POP PUSH2 0x2D2 PUSH1 0x4 DUP1 CALLDATASIZE SUB DUP2 ADD SWAP1 PUSH2 0x2CD SWAP2 SWAP1 PUSH2 0x10AF JUMP JUMPDEST PUSH2 0x751 JUMP JUMPDEST PUSH1 0x40 MLOAD PUSH2 0x2DF SWAP2 SWAP1 PUSH2 0x11B3 JUMP JUMPDEST PUSH1 0x40 MLOAD DUP1 SWAP2 SUB SWAP1 RETURN JUMPDEST CALLVALUE DUP1 ISZERO PUSH2 0x2F3 JUMPI PUSH0 DUP1 REVERT JUMPDEST POP PUSH2 0x2FC PUSH2 0x8B2 JUMP JUMPDEST STOP JUMPDEST CALLVALUE DUP1 ISZERO PUSH2 0x309 JUMPI PUSH0 DUP1 REVERT JUMPDEST POP PUSH2 0x312 PUSH2 0x8DE JUMP JUMPDEST PUSH1 0x40 MLOAD PUSH2 0x31F SWAP2 SWAP1 PUSH2 0x120D JUMP JUMPDEST PUSH1 0x40 MLOAD DUP1 SWAP2 SUB SWAP1 RETURN JUMPDEST CALLVALUE DUP1 ISZERO PUSH2 0x333 JUMPI PUSH0 DUP1 REVERT JUMPDEST POP PUSH2 0x33C PUSH2 0x944 JUMP JUMPDEST PUSH1 0x40 MLOAD PUSH2 0x349 SWAP2 SWAP1 PUSH2 0xEC3 JUMP JUMPDEST PUSH1 0x40 MLOAD DUP1 SWAP2 SUB SWAP1 RETURN JUMPDEST CALLVALUE DUP1 ISZERO PUSH2 0x35D JUMPI PUSH0 DUP1 REVERT JUMPDEST POP PUSH2 0x366 PUSH2 0x9D0 JUMP JUMPDEST STOP JUMPDEST CALLVALUE DUP1 ISZERO PUSH2 0x373 JUMPI PUSH0 DUP1 REVERT JUMPDEST POP PUSH2 0x37C PUSH2 0xA44 JUMP JUMPDEST PUSH1 0x40 MLOAD PUSH2 0x389 SWAP2 SWAP1 PUSH2 0x12CE JUMP JUMPDEST PUSH1 0x40 MLOAD DUP1 SWAP2 SUB SWAP1 RETURN JUMPDEST PUSH2 0x3AC PUSH1 0x4 DUP1 CALLDATASIZE SUB DUP2 ADD SWAP1 PUSH2 0x3A7 SWAP2 SWAP1 PUSH2 0x141A JUMP JUMPDEST PUSH2 0xADD JUMP JUMPDEST STOP JUMPDEST CALLVALUE DUP1 ISZERO PUSH2 0x3B9 JUMPI PUSH0 DUP1 REVERT JUMPDEST POP PUSH2 0x3C2 PUSH2 0xC71 JUMP JUMPDEST STOP JUMPDEST CALLVALUE DUP1 ISZERO PUSH2 0x3CF JUMPI PUSH0 DUP1 REVERT JUMPDEST POP PUSH2 0x3EA PUSH1 0x4 DUP1 CALLDATASIZE SUB DUP2 ADD SWAP1 PUSH2 0x3E5 SWAP2 SWAP1 PUSH2 0x1012 JUMP JUMPDEST PUSH2 0xC9D JUMP JUMPDEST PUSH1 0x40 MLOAD PUSH2 0x3F7 SWAP2 SWAP1 PUSH2 0xF74 JUMP JUMPDEST PUSH1 0x40 MLOAD DUP1 SWAP2 SUB SWAP1 RETURN JUMPDEST CALLVALUE DUP1 ISZERO PUSH2 0x40B JUMPI PUSH0 DUP1 REVERT JUMPDEST POP PUSH2 0x414 PUSH2 0xCB6 JUMP JUMPDEST PUSH1 0x40 MLOAD PUSH2 0x421 SWAP2 SWAP1 PUSH2 0xF74 JUMP JUMPDEST PUSH1 0x40 MLOAD DUP1 SWAP2 SUB SWAP1 RETURN JUMPDEST CALLVALUE DUP1 ISZERO PUSH2 0x435 JUMPI PUSH0 DUP1 REVERT JUMPDEST POP PUSH2 0x43E PUSH2 0xCC1 JUMP JUMPDEST PUSH1 0x40 MLOAD PUSH2 0x44B SWAP2 SWAP1 PUSH2 0x1479 JUMP JUMPDEST PUSH1 0x40 MLOAD DUP1 SWAP2 SUB SWAP1 RETURN JUMPDEST CALLVALUE DUP1 ISZERO PUSH2 0x45F JUMPI PUSH0 DUP1 REVERT JUMPDEST POP PUSH2 0x47A PUSH1 0x4 DUP1 CALLDATASIZE SUB DUP2 ADD SWAP1 PUSH2 0x475 SWAP2 SWAP1 PUSH2 0x1012 JUMP JUMPDEST PUSH2 0xCC7 JUMP JUMPDEST PUSH1 0x40 MLOAD PUSH2 0x487 SWAP2 SWAP1 PUSH2 0xF74 JUMP JUMPDEST PUSH1 0x40 MLOAD DUP1 SWAP2 SUB SWAP1 RETURN JUMPDEST CALLVALUE DUP1 ISZERO PUSH2 0x49B JUMPI PUSH0 DUP1 REVERT JUMPDEST POP PUSH2 0x4A4 PUSH2 0xCE7 JUMP JUMPDEST PUSH1 0x40 MLOAD PUSH2 0x4B1 SWAP2 SWAP1 PUSH2 0x1505 JUMP JUMPDEST PUSH1 0x40 MLOAD DUP1 SWAP2 SUB SWAP1 RETURN JUMPDEST PUSH1 0x28 PUSH1 0xB PUSH1 0x3 PUSH1 0xA DUP2 LT PUSH2 0x4D1 JUMPI PUSH2 0x4D0 PUSH2 0x151E JUMP JUMPDEST JUMPDEST ADD DUP2 SWAP1 SSTORE POP PUSH1 0x3C PUSH1 0xB PUSH1 0x5 PUSH1 0xA DUP2 LT PUSH2 0x4ED JUMPI PUSH2 0x4EC PUSH2 0x151E JUMP JUMPDEST JUMPDEST ADD DUP2 SWAP1 SSTORE POP PUSH1 0x50 PUSH1 0xB PUSH1 0x7 PUSH1 0xA DUP2 LT PUSH2 0x509 JUMPI PUSH2 0x508 PUSH2 0x151E JUMP JUMPDEST JUMPDEST ADD DUP2 SWAP1 SSTORE POP JUMP JUMPDEST PUSH1 0x2 DUP1 SLOAD PUSH2 0x51D SWAP1 PUSH2 0x1578 JUMP JUMPDEST DUP1 PUSH1 0x1F ADD PUSH1 0x20 DUP1 SWAP2 DIV MUL PUSH1 0x20 ADD PUSH1 0x40 MLOAD SWAP1 DUP2 ADD PUSH1 0x40 MSTORE DUP1 SWAP3 SWAP2 SWAP1 DUP2 DUP2 MSTORE PUSH1 0x20 ADD DUP3 DUP1 SLOAD PUSH2 0x549 SWAP1 PUSH2 0x1578 JUMP JUMPDEST DUP1 ISZERO PUSH2 0x594 JUMPI DUP1 PUSH1 0x1F LT PUSH2 0x56B JUMPI PUSH2 0x100 DUP1 DUP4 SLOAD DIV MUL DUP4 MSTORE SWAP2 PUSH1 0x20 ADD SWAP2 PUSH2 0x594 JUMP JUMPDEST DUP3 ADD SWAP2 SWAP1 PUSH0 MSTORE PUSH1 0x20 PUSH0 KECCAK256 SWAP1 JUMPDEST DUP2 SLOAD DUP2 MSTORE SWAP1 PUSH1 0x1 ADD SWAP1 PUSH1 0x20 ADD DUP1 DUP4 GT PUSH2 0x577 JUMPI DUP3 SWAP1 SUB PUSH1 0x1F AND DUP3 ADD SWAP2 JUMPDEST POP POP POP POP POP DUP2 JUMP JUMPDEST PUSH1 0x15 DUP3 DUP2 SLOAD DUP2 LT PUSH2 0x5AB JUMPI PUSH0 DUP1 REVERT JUMPDEST SWAP1 PUSH0 MSTORE PUSH1 0x20 PUSH0 KECCAK256 ADD DUP2 DUP2 SLOAD DUP2 LT PUSH2 0x5C0 JUMPI PUSH0 DUP1 REVERT JUMPDEST SWAP1 PUSH0 MSTORE PUSH1 0x20 PUSH0 KECCAK256 ADD PUSH0 SWAP2 POP SWAP2 POP POP SLOAD DUP2 JUMP JUMPDEST PUSH0 PUSH1 0x16 PUSH0 PUSH2 0x100 EXP DUP2 SLOAD DUP2 PUSH1 0xFF MUL NOT AND SWAP1 DUP4 PUSH1 0x2 DUP2 GT ISZERO PUSH2 0x5F6 JUMPI PUSH2 0x5F5 PUSH2 0x1492 JUMP JUMPDEST JUMPDEST MUL OR SWAP1 SSTORE POP JUMP JUMPDEST PUSH0 PUSH1 0x20 MSTORE DUP1 PUSH0 MSTORE PUSH1 0x40 PUSH0 KECCAK256 PUSH0 SWAP2 POP SWAP1 POP DUP1 PUSH0 ADD SLOAD SWAP1 POP DUP2 JUMP JUMPDEST PUSH1 0x4 DUP1 DUP1 PUSH1 0x1 DUP2 SLOAD ADD DUP1 DUP3 SSTORE DUP1 SWAP2 POP POP PUSH1 0x1 SWAP1 SUB SWAP1 PUSH0 MSTORE PUSH1 0x20 PUSH0 KECCAK256 ADD PUSH0 SWAP1 SWAP2 SWAP1 SWAP2 SWAP1 SWAP2 POP SSTORE PUSH1 0x4 PUSH1 0x5 SWAP1 DUP1 PUSH1 0x1 DUP2 SLOAD ADD DUP1 DUP3 SSTORE DUP1 SWAP2 POP POP PUSH1 0x1 SWAP1 SUB SWAP1 PUSH0 MSTORE PUSH1 0x20 PUSH0 KECCAK256 ADD PUSH0 SWAP1 SWAP2 SWAP1 SWAP2 SWAP1 SWAP2 POP SSTORE PUSH1 0x4 PUSH1 0x6 SWAP1 DUP1 PUSH1 0x1 DUP2 SLOAD ADD DUP1 DUP3 SSTORE DUP1 SWAP2 POP POP PUSH1 0x1 SWAP1 SUB SWAP1 PUSH0 MSTORE PUSH1 0x20 PUSH0 KECCAK256 ADD PUSH0 SWAP1 SWAP2 SWAP1 SWAP2 SWAP1 SWAP2 POP SSTORE PUSH1 0x4 DUP1 SLOAD SWAP1 POP PUSH1 0x5 DUP2 SWAP1 SSTORE POP JUMP JUMPDEST PUSH1 0x5 SLOAD DUP2 JUMP JUMPDEST PUSH1 0x6 DUP2 PUSH1 0x5 DUP2 LT PUSH2 0x6AC JUMPI PUSH0 DUP1 REVERT JUMPDEST ADD PUSH0 SWAP2 POP SWAP1 POP DUP1 SLOAD PUSH2 0x6BD SWAP1 PUSH2 0x1578 JUMP JUMPDEST DUP1 PUSH1 0x1F ADD PUSH1 0x20 DUP1 SWAP2 DIV MUL PUSH1 0x20 ADD PUSH1 0x40 MLOAD SWAP1 DUP2 ADD PUSH1 0x40 MSTORE DUP1 SWAP3 SWAP2 SWAP1 DUP2 DUP2 MSTORE PUSH1 0x20 ADD DUP3 DUP1 SLOAD PUSH2 0x6E9 SWAP1 PUSH2 0x1578 JUMP JUMPDEST DUP1 ISZERO PUSH2 0x734 JUMPI DUP1 PUSH1 0x1F LT PUSH2 0x70B JUMPI PUSH2 0x100 DUP1 DUP4 SLOAD DIV MUL DUP4 MSTORE SWAP2 PUSH1 0x20 ADD SWAP2 PUSH2 0x734 JUMP JUMPDEST DUP3 ADD SWAP2 SWAP1 PUSH0 MSTORE PUSH1 0x20 PUSH0 KECCAK256 SWAP1 JUMPDEST DUP2 SLOAD DUP2 MSTORE SWAP1 PUSH1 0x1 ADD SWAP1 PUSH1 0x20 ADD DUP1 DUP4 GT PUSH2 0x717 JUMPI DUP3 SWAP1 SUB PUSH1 0x1F AND DUP3 ADD SWAP2 JUMPDEST POP POP POP POP POP DUP2 JUMP JUMPDEST PUSH0 PUSH1 0x2 DUP1 SLOAD PUSH2 0x74A SWAP1 PUSH2 0x1578 JUMP JUMPDEST SWAP1 POP SWAP1 POP SWAP1 JUMP JUMPDEST PUSH2 0x759 PUSH2 0xCF9 JUMP JUMPDEST PUSH0 DUP1 DUP5 PUSH20 0xFFFFFFFFFFFFFFFFFFFFFFFFFFFFFFFFFFFFFFFF AND PUSH20 0xFFFFFFFFFFFFFFFFFFFFFFFFFFFFFFFFFFFFFFFF AND DUP2 MSTORE PUSH1 0x20 ADD SWAP1 DUP2 MSTORE PUSH1 0x20 ADD PUSH0 KECCAK256 PUSH1 0x1 ADD PUSH0 DUP4 DUP2 MSTORE PUSH1 0x20 ADD SWAP1 DUP2 MSTORE PUSH1 0x20 ADD PUSH0 KECCAK256 PUSH1 0x40 MLOAD DUP1 PUSH1 0x80 ADD PUSH1 0x40 MSTORE SWAP1 DUP2 PUSH0 DUP3 ADD SLOAD DUP2 MSTORE PUSH1 0x20 ADD PUSH1 0x1 DUP3 ADD SLOAD DUP2 MSTORE PUSH1 0x20 ADD PUSH1 0x2 DUP3 ADD PUSH0 SWAP1 SLOAD SWAP1 PUSH2 0x100 EXP SWAP1 DIV PUSH20 0xFFFFFFFFFFFFFFFFFFFFFFFFFFFFFFFFFFFFFFFF AND PUSH20 0xFFFFFFFFFFFFFFFFFFFFFFFFFFFFFFFFFFFFFFFF AND PUSH20 0xFFFFFFFFFFFFFFFFFFFFFFFFFFFFFFFFFFFFFFFF AND DUP2 MSTORE PUSH1 0x20 ADD PUSH1 0x3 DUP3 ADD DUP1 SLOAD PUSH2 0x82A SWAP1 PUSH2 0x1578 JUMP JUMPDEST DUP1 PUSH1 0x1F ADD PUSH1 0x20 DUP1 SWAP2 DIV MUL PUSH1 0x20 ADD PUSH1 0x40 MLOAD SWAP1 DUP2 ADD PUSH1 0x40 MSTORE DUP1 SWAP3 SWAP2 SWAP1 DUP2 DUP2 MSTORE PUSH1 0x20 ADD DUP3 DUP1 SLOAD PUSH2 0x856 SWAP1 PUSH2 0x1578 JUMP JUMPDEST DUP1 ISZERO PUSH2 0x8A1 JUMPI DUP1 PUSH1 0x1F LT PUSH2 0x878 JUMPI PUSH2 0x100 DUP1 DUP4 SLOAD DIV MUL DUP4 MSTORE SWAP2 PUSH1 0x20 ADD SWAP2 PUSH2 0x8A1 JUMP JUMPDEST DUP3 ADD SWAP2 SWAP1 PUSH0 MSTORE PUSH1 0x20 PUSH0 KECCAK256 SWAP1 JUMPDEST DUP2 SLOAD DUP2 MSTORE SWAP1 PUSH1 0x1 ADD SWAP1 PUSH1 0x20 ADD DUP1 DUP4 GT PUSH2 0x884 JUMPI DUP3 SWAP1 SUB PUSH1 0x1F AND DUP3 ADD SWAP2 JUMPDEST POP POP POP POP POP DUP2 MSTORE POP POP SWAP1 POP SWAP3 SWAP2 POP POP JUMP JUMPDEST PUSH1 0x2 PUSH1 0x16 PUSH0 PUSH2 0x100 EXP DUP2 SLOAD DUP2 PUSH1 0xFF MUL NOT AND SWAP1 DUP4 PUSH1 0x2 DUP2 GT ISZERO PUSH2 0x8D7 JUMPI PUSH2 0x8D6 PUSH2 0x1492 JUMP JUMPDEST JUMPDEST MUL OR SWAP1 SSTORE POP JUMP JUMPDEST PUSH0 PUSH1 0x3 PUSH0 DUP2 SLOAD PUSH2 0x8ED SWAP1 PUSH2 0x1578 JUMP JUMPDEST DUP2 LT PUSH2 0x8FC JUMPI PUSH2 0x8FB PUSH2 0x151E JUMP JUMPDEST JUMPDEST DUP2 SLOAD PUSH1 0x1 AND ISZERO PUSH2 0x919 JUMPI SWAP1 PUSH0 MSTORE PUSH1 0x20 PUSH0 KECCAK256 SWAP1 PUSH1 0x20 SWAP2 DUP3 DUP3 DIV ADD SWAP2 SWAP1 MOD JUMPDEST SWAP1 SLOAD SWAP1 BYTE PUSH32 0x100000000000000000000000000000000000000000000000000000000000000 MUL SWAP1 POP SWAP1 JUMP JUMPDEST PUSH1 0x3 DUP1 SLOAD PUSH2 0x951 SWAP1 PUSH2 0x1578 JUMP JUMPDEST DUP1 PUSH1 0x1F ADD PUSH1 0x20 DUP1 SWAP2 DIV MUL PUSH1 0x20 ADD PUSH1 0x40 MLOAD SWAP1 DUP2 ADD PUSH1 0x40 MSTORE DUP1 SWAP3 SWAP2 SWAP1 DUP2 DUP2 MSTORE PUSH1 0x20 ADD DUP3 DUP1 SLOAD PUSH2 0x97D SWAP1 PUSH2 0x1578 JUMP JUMPDEST DUP1 ISZERO PUSH2 0x9C8 JUMPI DUP1 PUSH1 0x1F LT PUSH2 0x99F JUMPI PUSH2 0x100 DUP1 DUP4 SLOAD DIV MUL DUP4 MSTORE SWAP2 PUSH1 0x20 ADD SWAP2 PUSH2 0x9C8 JUMP JUMPDEST DUP3 ADD SWAP2 SWAP1 PUSH0 MSTORE PUSH1 0x20 PUSH0 KECCAK256 SWAP1 JUMPDEST DUP2 SLOAD DUP2 MSTORE SWAP1 PUSH1 0x1 ADD SWAP1 PUSH1 0x20 ADD DUP1 DUP4 GT PUSH2 0x9AB JUMPI DUP3 SWAP1 SUB PUSH1 0x1F AND DUP3 ADD SWAP2 JUMPDEST POP POP POP POP POP DUP2 JUMP JUMPDEST PUSH1 0x40 MLOAD DUP1 PUSH1 0x40 ADD PUSH1 0x40 MSTORE DUP1 PUSH1 0x40 MLOAD DUP1 PUSH1 0x60 ADD PUSH1 0x40 MSTORE DUP1 PUSH1 0x3 PUSH1 0xFF AND DUP2 MSTORE PUSH1 0x20 ADD PUSH1 0x4 PUSH1 0xFF AND DUP2 MSTORE PUSH1 0x20 ADD PUSH1 0x5 PUSH1 0xFF AND DUP2 MSTORE POP DUP2 MSTORE PUSH1 0x20 ADD PUSH1 0x40 MLOAD DUP1 PUSH1 0x60 ADD PUSH1 0x40 MSTORE DUP1 PUSH1 0x6 PUSH1 0xFF AND DUP2 MSTORE PUSH1 0x20 ADD PUSH1 0x7 PUSH1 0xFF AND DUP2 MSTORE PUSH1 0x20 ADD PUSH1 0x8 PUSH1 0xFF AND DUP2 MSTORE POP DUP2 MSTORE POP PUSH1 0x15 SWAP1 PUSH1 0x2 PUSH2 0xA41 SWAP3 SWAP2 SWAP1 PUSH2 0xD34 JUMP JUMPDEST POP JUMP JUMPDEST PUSH1 0x60 PUSH0 PUSH1 0xA PUSH8 0xFFFFFFFFFFFFFFFF DUP2 GT ISZERO PUSH2 0xA62 JUMPI PUSH2 0xA61 PUSH2 0x12F6 JUMP JUMPDEST JUMPDEST PUSH1 0x40 MLOAD SWAP1 DUP1 DUP3 MSTORE DUP1 PUSH1 0x20 MUL PUSH1 0x20 ADD DUP3 ADD PUSH1 0x40 MSTORE DUP1 ISZERO PUSH2 0xA90 JUMPI DUP2 PUSH1 0x20 ADD PUSH1 0x20 DUP3 MUL DUP1 CALLDATASIZE DUP4 CALLDATACOPY DUP1 DUP3 ADD SWAP2 POP POP SWAP1 POP JUMPDEST POP SWAP1 POP PUSH1 0x64 DUP2 PUSH0 DUP2 MLOAD DUP2 LT PUSH2 0xAA8 JUMPI PUSH2 0xAA7 PUSH2 0x151E JUMP JUMPDEST JUMPDEST PUSH1 0x20 MUL PUSH1 0x20 ADD ADD DUP2 DUP2 MSTORE POP POP PUSH1 0xC8 DUP2 PUSH1 0x1 DUP2 MLOAD DUP2 LT PUSH2 0xACA JUMPI PUSH2 0xAC9 PUSH2 0x151E JUMP JUMPDEST JUMPDEST PUSH1 0x20 MUL PUSH1 0x20 ADD ADD DUP2 DUP2 MSTORE POP POP DUP1 SWAP2 POP POP SWAP1 JUMP JUMPDEST PUSH0 DUP1 PUSH0 CALLER PUSH20 0xFFFFFFFFFFFFFFFFFFFFFFFFFFFFFFFFFFFFFFFF AND PUSH20 0xFFFFFFFFFFFFFFFFFFFFFFFFFFFFFFFFFFFFFFFF AND DUP2 MSTORE PUSH1 0x20 ADD SWAP1 DUP2 MSTORE PUSH1 0x20 ADD PUSH0 KECCAK256 PUSH0 ADD SLOAD SWAP1 POP PUSH0 DUP1 CALLER PUSH20 0xFFFFFFFFFFFFFFFFFFFFFFFFFFFFFFFFFFFFFFFF AND PUSH20 0xFFFFFFFFFFFFFFFFFFFFFFFFFFFFFFFFFFFFFFFF AND DUP2 MSTORE PUSH1 0x20 ADD SWAP1 DUP2 MSTORE PUSH1 0x20 ADD PUSH0 KECCAK256 PUSH0 ADD PUSH0 DUP2 SLOAD DUP1 SWAP3 SWAP2 SWAP1 PUSH2 0xB6D SWAP1 PUSH2 0x15D5 JUMP JUMPDEST SWAP2 SWAP1 POP SSTORE POP PUSH0 PUSH1 0x40 MLOAD DUP1 PUSH1 0x80 ADD PUSH1 0x40 MSTORE DUP1 CALLVALUE DUP2 MSTORE PUSH1 0x20 ADD TIMESTAMP DUP2 MSTORE PUSH1 0x20 ADD CALLER PUSH20 0xFFFFFFFFFFFFFFFFFFFFFFFFFFFFFFFFFFFFFFFF AND DUP2 MSTORE PUSH1 0x20 ADD DUP5 DUP2 MSTORE POP SWAP1 POP DUP1 PUSH0 DUP1 CALLER PUSH20 0xFFFFFFFFFFFFFFFFFFFFFFFFFFFFFFFFFFFFFFFF AND PUSH20 0xFFFFFFFFFFFFFFFFFFFFFFFFFFFFFFFFFFFFFFFF AND DUP2 MSTORE PUSH1 0x20 ADD SWAP1 DUP2 MSTORE PUSH1 0x20 ADD PUSH0 KECCAK256 PUSH1 0x1 ADD PUSH0 DUP5 DUP2 MSTORE PUSH1 0x20 ADD SWAP1 DUP2 MSTORE PUSH1 0x20 ADD PUSH0 KECCAK256 PUSH0 DUP3 ADD MLOAD DUP2 PUSH0 ADD SSTORE PUSH1 0x20 DUP3 ADD MLOAD DUP2 PUSH1 0x1 ADD SSTORE PUSH1 0x40 DUP3 ADD MLOAD DUP2 PUSH1 0x2 ADD PUSH0 PUSH2 0x100 EXP DUP2 SLOAD DUP2 PUSH20 0xFFFFFFFFFFFFFFFFFFFFFFFFFFFFFFFFFFFFFFFF MUL NOT AND SWAP1 DUP4 PUSH20 0xFFFFFFFFFFFFFFFFFFFFFFFFFFFFFFFFFFFFFFFF AND MUL OR SWAP1 SSTORE POP PUSH1 0x60 DUP3 ADD MLOAD DUP2 PUSH1 0x3 ADD SWAP1 DUP2 PUSH2 0xC68 SWAP2 SWAP1 PUSH2 0x17B9 JUMP JUMPDEST POP SWAP1 POP POP POP POP POP JUMP JUMPDEST PUSH1 0x1 PUSH1 0x16 PUSH0 PUSH2 0x100 EXP DUP2 SLOAD DUP2 PUSH1 0xFF MUL NOT AND SWAP1 DUP4 PUSH1 0x2 DUP2 GT ISZERO PUSH2 0xC96 JUMPI PUSH2 0xC95 PUSH2 0x1492 JUMP JUMPDEST JUMPDEST MUL OR SWAP1 SSTORE POP JUMP JUMPDEST PUSH1 0xB DUP2 PUSH1 0xA DUP2 LT PUSH2 0xCAC JUMPI PUSH0 DUP1 REVERT JUMPDEST ADD PUSH0 SWAP2 POP SWAP1 POP SLOAD DUP2 JUMP JUMPDEST PUSH0 PUSH1 0x20 PUSH1 0xFF AND SWAP1 POP SWAP1 JUMP JUMPDEST PUSH1 0x1 SLOAD DUP2 JUMP JUMPDEST PUSH1 0x4 DUP2 DUP2 SLOAD DUP2 LT PUSH2 0xCD6 JUMPI PUSH0 DUP1 REVERT JUMPDEST SWAP1 PUSH0 MSTORE PUSH1 0x20 PUSH0 KECCAK256 ADD PUSH0 SWAP2 POP SWAP1 POP SLOAD DUP2 JUMP JUMPDEST PUSH1 0x16 PUSH0 SWAP1 SLOAD SWAP1 PUSH2 0x100 EXP SWAP1 DIV PUSH1 0xFF AND DUP2 JUMP JUMPDEST PUSH1 0x40 MLOAD DUP1 PUSH1 0x80 ADD PUSH1 0x40 MSTORE DUP1 PUSH0 DUP2 MSTORE PUSH1 0x20 ADD PUSH0 DUP2 MSTORE PUSH1 0x20 ADD PUSH0 PUSH20 0xFFFFFFFFFFFFFFFFFFFFFFFFFFFFFFFFFFFFFFFF AND DUP2 MSTORE PUSH1 0x20 ADD PUSH1 0x60 DUP2 MSTORE POP SWAP1 JUMP JUMPDEST DUP3 DUP1 SLOAD DUP3 DUP3 SSTORE SWAP1 PUSH0 MSTORE PUSH1 0x20 PUSH0 KECCAK256 SWAP1 DUP2 ADD SWAP3 DUP3 ISZERO PUSH2 0xD7C JUMPI SWAP2 PUSH1 0x20 MUL DUP3 ADD JUMPDEST DUP3 DUP2 GT ISZERO PUSH2 0xD7B JUMPI DUP3 MLOAD DUP3 SWAP1 PUSH1 0x3 PUSH2 0xD6B SWAP3 SWAP2 SWAP1 PUSH2 0xD8D JUMP JUMPDEST POP SWAP2 PUSH1 0x20 ADD SWAP2 SWAP1 PUSH1 0x1 ADD SWAP1 PUSH2 0xD52 JUMP JUMPDEST JUMPDEST POP SWAP1 POP PUSH2 0xD89 SWAP2 SWAP1 PUSH2 0xDDD JUMP JUMPDEST POP SWAP1 JUMP JUMPDEST DUP3 DUP1 SLOAD DUP3 DUP3 SSTORE SWAP1 PUSH0 MSTORE PUSH1 0x20 PUSH0 KECCAK256 SWAP1 DUP2 ADD SWAP3 DUP3 ISZERO PUSH2 0xDCC JUMPI SWAP2 PUSH1 0x20 MUL DUP3 ADD JUMPDEST DUP3 DUP2 GT ISZERO PUSH2 0xDCB JUMPI DUP3 MLOAD DUP3 SWAP1 PUSH1 0xFF AND SWAP1 SSTORE SWAP2 PUSH1 0x20 ADD SWAP2 SWAP1 PUSH1 0x1 ADD SWAP1 PUSH2 0xDAB JUMP JUMPDEST JUMPDEST POP SWAP1 POP PUSH2 0xDD9 SWAP2 SWAP1 PUSH2 0xE00 JUMP JUMPDEST POP SWAP1 JUMP JUMPDEST JUMPDEST DUP1 DUP3 GT ISZERO PUSH2 0xDFC JUMPI PUSH0 DUP2 DUP2 PUSH2 0xDF3 SWAP2 SWAP1 PUSH2 0xE1B JUMP JUMPDEST POP PUSH1 0x1 ADD PUSH2 0xDDE JUMP JUMPDEST POP SWAP1 JUMP JUMPDEST JUMPDEST DUP1 DUP3 GT ISZERO PUSH2 0xE17 JUMPI PUSH0 DUP2 PUSH0 SWAP1 SSTORE POP PUSH1 0x1 ADD PUSH2 0xE01 JUMP JUMPDEST POP SWAP1 JUMP JUMPDEST POP DUP1 SLOAD PUSH0 DUP3 SSTORE SWAP1 PUSH0 MSTORE PUSH1 0x20 PUSH0 KECCAK256 SWAP1 DUP2 ADD SWAP1 PUSH2 0xE36 SWAP2 SWAP1 PUSH2 0xE00 JUMP JUMPDEST POP JUMP JUMPDEST PUSH0 DUP2 MLOAD SWAP1 POP SWAP2 SWAP1 POP JUMP JUMPDEST PUSH0 DUP3 DUP3 MSTORE PUSH1 0x20 DUP3 ADD SWAP1 POP SWAP3 SWAP2 POP POP JUMP JUMPDEST PUSH0 JUMPDEST DUP4 DUP2 LT ISZERO PUSH2 0xE70 JUMPI DUP1 DUP3 ADD MLOAD DUP2 DUP5 ADD MSTORE PUSH1 0x20 DUP2 ADD SWAP1 POP PUSH2 0xE55 JUMP JUMPDEST PUSH0 DUP5 DUP5 ADD MSTORE POP POP POP POP JUMP JUMPDEST PUSH0 PUSH1 0x1F NOT PUSH1 0x1F DUP4 ADD AND SWAP1 POP SWAP2 SWAP1 POP JUMP JUMPDEST PUSH0 PUSH2 0xE95 DUP3 PUSH2 0xE39 JUMP JUMPDEST PUSH2 0xE9F DUP2 DUP6 PUSH2 0xE43 JUMP JUMPDEST SWAP4 POP PUSH2 0xEAF DUP2 DUP6 PUSH1 0x20 DUP7 ADD PUSH2 0xE53 JUMP JUMPDEST PUSH2 0xEB8 DUP2 PUSH2 0xE7B JUMP JUMPDEST DUP5 ADD SWAP2 POP POP SWAP3 SWAP2 POP POP JUMP JUMPDEST PUSH0 PUSH1 0x20 DUP3 ADD SWAP1 POP DUP2 DUP2 SUB PUSH0 DUP4 ADD MSTORE PUSH2 0xEDB DUP2 DUP5 PUSH2 0xE8B JUMP JUMPDEST SWAP1 POP SWAP3 SWAP2 POP POP JUMP JUMPDEST PUSH0 PUSH1 0x40 MLOAD SWAP1 POP SWAP1 JUMP JUMPDEST PUSH0 DUP1 REVERT JUMPDEST PUSH0 DUP1 REVERT JUMPDEST PUSH0 DUP2 SWAP1 POP SWAP2 SWAP1 POP JUMP JUMPDEST PUSH2 0xF06 DUP2 PUSH2 0xEF4 JUMP JUMPDEST DUP2 EQ PUSH2 0xF10 JUMPI PUSH0 DUP1 REVERT JUMPDEST POP JUMP JUMPDEST PUSH0 DUP2 CALLDATALOAD SWAP1 POP PUSH2 0xF21 DUP2 PUSH2 0xEFD JUMP JUMPDEST SWAP3 SWAP2 POP POP JUMP JUMPDEST PUSH0 DUP1 PUSH1 0x40 DUP4 DUP6 SUB SLT ISZERO PUSH2 0xF3D JUMPI PUSH2 0xF3C PUSH2 0xEEC JUMP JUMPDEST JUMPDEST PUSH0 PUSH2 0xF4A DUP6 DUP3 DUP7 ADD PUSH2 0xF13 JUMP JUMPDEST SWAP3 POP POP PUSH1 0x20 PUSH2 0xF5B DUP6 DUP3 DUP7 ADD PUSH2 0xF13 JUMP JUMPDEST SWAP2 POP POP SWAP3 POP SWAP3 SWAP1 POP JUMP JUMPDEST PUSH2 0xF6E DUP2 PUSH2 0xEF4 JUMP JUMPDEST DUP3 MSTORE POP POP JUMP JUMPDEST PUSH0 PUSH1 0x20 DUP3 ADD SWAP1 POP PUSH2 0xF87 PUSH0 DUP4 ADD DUP5 PUSH2 0xF65 JUMP JUMPDEST SWAP3 SWAP2 POP POP JUMP JUMPDEST PUSH0 PUSH20 0xFFFFFFFFFFFFFFFFFFFFFFFFFFFFFFFFFFFFFFFF DUP3 AND SWAP1 POP SWAP2 SWAP1 POP JUMP JUMPDEST PUSH0 PUSH2 0xFB6 DUP3 PUSH2 0xF8D JUMP JUMPDEST SWAP1 POP SWAP2 SWAP1 POP JUMP JUMPDEST PUSH2 0xFC6 DUP2 PUSH2 0xFAC JUMP JUMPDEST DUP2 EQ PUSH2 0xFD0 JUMPI PUSH0 DUP1 REVERT JUMPDEST POP JUMP JUMPDEST PUSH0 DUP2 CALLDATALOAD SWAP1 POP PUSH2 0xFE1 DUP2 PUSH2 0xFBD JUMP JUMPDEST SWAP3 SWAP2 POP POP JUMP JUMPDEST PUSH0 PUSH1 0x20 DUP3 DUP5 SUB SLT ISZERO PUSH2 0xFFC JUMPI PUSH2 0xFFB PUSH2 0xEEC JUMP JUMPDEST JUMPDEST PUSH0 PUSH2 0x1009 DUP5 DUP3 DUP6 ADD PUSH2 0xFD3 JUMP JUMPDEST SWAP2 POP POP SWAP3 SWAP2 POP POP JUMP JUMPDEST PUSH0 PUSH1 0x20 DUP3 DUP5 SUB SLT ISZERO PUSH2 0x1027 JUMPI PUSH2 0x1026 PUSH2 0xEEC JUMP JUMPDEST JUMPDEST PUSH0 PUSH2 0x1034 DUP5 DUP3 DUP6 ADD PUSH2 0xF13 JUMP JUMPDEST SWAP2 POP POP SWAP3 SWAP2 POP POP JUMP JUMPDEST PUSH0 DUP2 MLOAD SWAP1 POP SWAP2 SWAP1 POP JUMP JUMPDEST PUSH0 DUP3 DUP3 MSTORE PUSH1 0x20 DUP3 ADD SWAP1 POP SWAP3 SWAP2 POP POP JUMP JUMPDEST PUSH0 PUSH2 0x1061 DUP3 PUSH2 0x103D JUMP JUMPDEST PUSH2 0x106B DUP2 DUP6 PUSH2 0x1047 JUMP JUMPDEST SWAP4 POP PUSH2 0x107B DUP2 DUP6 PUSH1 0x20 DUP7 ADD PUSH2 0xE53 JUMP JUMPDEST PUSH2 0x1084 DUP2 PUSH2 0xE7B JUMP JUMPDEST DUP5 ADD SWAP2 POP POP SWAP3 SWAP2 POP POP JUMP JUMPDEST PUSH0 PUSH1 0x20 DUP3 ADD SWAP1 POP DUP2 DUP2 SUB PUSH0 DUP4 ADD MSTORE PUSH2 0x10A7 DUP2 DUP5 PUSH2 0x1057 JUMP JUMPDEST SWAP1 POP SWAP3 SWAP2 POP POP JUMP JUMPDEST PUSH0 DUP1 PUSH1 0x40 DUP4 DUP6 SUB SLT ISZERO PUSH2 0x10C5 JUMPI PUSH2 0x10C4 PUSH2 0xEEC JUMP JUMPDEST JUMPDEST PUSH0 PUSH2 0x10D2 DUP6 DUP3 DUP7 ADD PUSH2 0xFD3 JUMP JUMPDEST SWAP3 POP POP PUSH1 0x20 PUSH2 0x10E3 DUP6 DUP3 DUP7 ADD PUSH2 0xF13 JUMP JUMPDEST SWAP2 POP POP SWAP3 POP SWAP3 SWAP1 POP JUMP JUMPDEST PUSH2 0x10F6 DUP2 PUSH2 0xEF4 JUMP JUMPDEST DUP3 MSTORE POP POP JUMP JUMPDEST PUSH2 0x1105 DUP2 PUSH2 0xFAC JUMP JUMPDEST DUP3 MSTORE POP POP JUMP JUMPDEST PUSH0 DUP3 DUP3 MSTORE PUSH1 0x20 DUP3 ADD SWAP1 POP SWAP3 SWAP2 POP POP JUMP JUMPDEST PUSH0 PUSH2 0x1125 DUP3 PUSH2 0x103D JUMP JUMPDEST PUSH2 0x112F DUP2 DUP6 PUSH2 0x110B JUMP JUMPDEST SWAP4 POP PUSH2 0x113F DUP2 DUP6 PUSH1 0x20 DUP7 ADD PUSH2 0xE53 JUMP JUMPDEST PUSH2 0x1148 DUP2 PUSH2 0xE7B JUMP JUMPDEST DUP5 ADD SWAP2 POP POP SWAP3 SWAP2 POP POP JUMP JUMPDEST PUSH0 PUSH1 0x80 DUP4 ADD PUSH0 DUP4 ADD MLOAD PUSH2 0x1168 PUSH0 DUP7 ADD DUP3 PUSH2 0x10ED JUMP JUMPDEST POP PUSH1 0x20 DUP4 ADD MLOAD PUSH2 0x117B PUSH1 0x20 DUP7 ADD DUP3 PUSH2 0x10ED JUMP JUMPDEST POP PUSH1 0x40 DUP4 ADD MLOAD PUSH2 0x118E PUSH1 0x40 DUP7 ADD DUP3 PUSH2 0x10FC JUMP JUMPDEST POP PUSH1 0x60 DUP4 ADD MLOAD DUP5 DUP3 SUB PUSH1 0x60 DUP7 ADD MSTORE PUSH2 0x11A6 DUP3 DUP3 PUSH2 0x111B JUMP JUMPDEST SWAP2 POP POP DUP1 SWAP2 POP POP SWAP3 SWAP2 POP POP JUMP JUMPDEST PUSH0 PUSH1 0x20 DUP3 ADD SWAP1 POP DUP2 DUP2 SUB PUSH0 DUP4 ADD MSTORE PUSH2 0x11CB DUP2 DUP5 PUSH2 0x1153 JUMP JUMPDEST SWAP1 POP SWAP3 SWAP2 POP POP JUMP JUMPDEST PUSH0 PUSH32 0xFF00000000000000000000000000000000000000000000000000000000000000 DUP3 AND SWAP1 POP SWAP2 SWAP1 POP JUMP JUMPDEST PUSH2 0x1207 DUP2 PUSH2 0x11D3 JUMP JUMPDEST DUP3 MSTORE POP POP JUMP JUMPDEST PUSH0 PUSH1 0x20 DUP3 ADD SWAP1 POP PUSH2 0x1220 PUSH0 DUP4 ADD DUP5 PUSH2 0x11FE JUMP JUMPDEST SWAP3 SWAP2 POP POP JUMP JUMPDEST PUSH0 DUP2 MLOAD SWAP1 POP SWAP2 SWAP1 POP JUMP JUMPDEST PUSH0 DUP3 DUP3 MSTORE PUSH1 0x20 DUP3 ADD SWAP1 POP SWAP3 SWAP2 POP POP JUMP JUMPDEST PUSH0 DUP2 SWAP1 POP PUSH1 0x20 DUP3 ADD SWAP1 POP SWAP2 SWAP1 POP JUMP JUMPDEST PUSH0 PUSH2 0x125A DUP4 DUP4 PUSH2 0x10ED JUMP JUMPDEST PUSH1 0x20 DUP4 ADD SWAP1 POP SWAP3 SWAP2 POP POP JUMP JUMPDEST PUSH0 PUSH1 0x20 DUP3 ADD SWAP1 POP SWAP2 SWAP1 POP JUMP JUMPDEST PUSH0 PUSH2 0x127C DUP3 PUSH2 0x1226 JUMP JUMPDEST PUSH2 0x1286 DUP2 DUP6 PUSH2 0x1230 JUMP JUMPDEST SWAP4 POP PUSH2 0x1291 DUP4 PUSH2 0x1240 JUMP JUMPDEST DUP1 PUSH0 JUMPDEST DUP4 DUP2 LT ISZERO PUSH2 0x12C1 JUMPI DUP2 MLOAD PUSH2 0x12A8 DUP9 DUP3 PUSH2 0x124F JUMP JUMPDEST SWAP8 POP PUSH2 0x12B3 DUP4 PUSH2 0x1266 JUMP JUMPDEST SWAP3 POP POP PUSH1 0x1 DUP2 ADD SWAP1 POP PUSH2 0x1294 JUMP JUMPDEST POP DUP6 SWAP4 POP POP POP POP SWAP3 SWAP2 POP POP JUMP JUMPDEST PUSH0 PUSH1 0x20 DUP3 ADD SWAP1 POP DUP2 DUP2 SUB PUSH0 DUP4 ADD MSTORE PUSH2 0x12E6 DUP2 DUP5 PUSH2 0x1272 JUMP JUMPDEST SWAP1 POP SWAP3 SWAP2 POP POP JUMP JUMPDEST PUSH0 DUP1 REVERT JUMPDEST PUSH0 DUP1 REVERT JUMPDEST PUSH32 0x4E487B7100000000000000000000000000000000000000000000000000000000 PUSH0 MSTORE PUSH1 0x41 PUSH1 0x4 MSTORE PUSH1 0x24 PUSH0 REVERT JUMPDEST PUSH2 0x132C DUP3 PUSH2 0xE7B JUMP JUMPDEST DUP2 ADD DUP2 DUP2 LT PUSH8 0xFFFFFFFFFFFFFFFF DUP3 GT OR ISZERO PUSH2 0x134B JUMPI PUSH2 0x134A PUSH2 0x12F6 JUMP JUMPDEST JUMPDEST DUP1 PUSH1 0x40 MSTORE POP POP POP JUMP JUMPDEST PUSH0 PUSH2 0x135D PUSH2 0xEE3 JUMP JUMPDEST SWAP1 POP PUSH2 0x1369 DUP3 DUP3 PUSH2 0x1323 JUMP JUMPDEST SWAP2 SWAP1 POP JUMP JUMPDEST PUSH0 PUSH8 0xFFFFFFFFFFFFFFFF DUP3 GT ISZERO PUSH2 0x1388 JUMPI PUSH2 0x1387 PUSH2 0x12F6 JUMP JUMPDEST JUMPDEST PUSH2 0x1391 DUP3 PUSH2 0xE7B JUMP JUMPDEST SWAP1 POP PUSH1 0x20 DUP2 ADD SWAP1 POP SWAP2 SWAP1 POP JUMP JUMPDEST DUP3 DUP2 DUP4 CALLDATACOPY PUSH0 DUP4 DUP4 ADD MSTORE POP POP POP JUMP JUMPDEST PUSH0 PUSH2 0x13BE PUSH2 0x13B9 DUP5 PUSH2 0x136E JUMP JUMPDEST PUSH2 0x1354 JUMP JUMPDEST SWAP1 POP DUP3 DUP2 MSTORE PUSH1 0x20 DUP2 ADD DUP5 DUP5 DUP5 ADD GT ISZERO PUSH2 0x13DA JUMPI PUSH2 0x13D9 PUSH2 0x12F2 JUMP JUMPDEST JUMPDEST PUSH2 0x13E5 DUP5 DUP3 DUP6 PUSH2 0x139E JUMP JUMPDEST POP SWAP4 SWAP3 POP POP POP JUMP JUMPDEST PUSH0 DUP3 PUSH1 0x1F DUP4 ADD SLT PUSH2 0x1401 JUMPI PUSH2 0x1400 PUSH2 0x12EE JUMP JUMPDEST JUMPDEST DUP2 CALLDATALOAD PUSH2 0x1411 DUP5 DUP3 PUSH1 0x20 DUP7 ADD PUSH2 0x13AC JUMP JUMPDEST SWAP2 POP POP SWAP3 SWAP2 POP POP JUMP JUMPDEST PUSH0 PUSH1 0x20 DUP3 DUP5 SUB SLT ISZERO PUSH2 0x142F JUMPI PUSH2 0x142E PUSH2 0xEEC JUMP JUMPDEST JUMPDEST PUSH0 DUP3 ADD CALLDATALOAD PUSH8 0xFFFFFFFFFFFFFFFF DUP2 GT ISZERO PUSH2 0x144C JUMPI PUSH2 0x144B PUSH2 0xEF0 JUMP JUMPDEST JUMPDEST PUSH2 0x1458 DUP5 DUP3 DUP6 ADD PUSH2 0x13ED JUMP JUMPDEST SWAP2 POP POP SWAP3 SWAP2 POP POP JUMP JUMPDEST PUSH0 DUP2 SWAP1 POP SWAP2 SWAP1 POP JUMP JUMPDEST PUSH2 0x1473 DUP2 PUSH2 0x1461 JUMP JUMPDEST DUP3 MSTORE POP POP JUMP JUMPDEST PUSH0 PUSH1 0x20 DUP3 ADD SWAP1 POP PUSH2 0x148C PUSH0 DUP4 ADD DUP5 PUSH2 0x146A JUMP JUMPDEST SWAP3 SWAP2 POP POP JUMP JUMPDEST PUSH32 0x4E487B7100000000000000000000000000000000000000000000000000000000 PUSH0 MSTORE PUSH1 0x21 PUSH1 0x4 MSTORE PUSH1 0x24 PUSH0 REVERT JUMPDEST PUSH1 0x3 DUP2 LT PUSH2 0x14D0 JUMPI PUSH2 0x14CF PUSH2 0x1492 JUMP JUMPDEST JUMPDEST POP JUMP JUMPDEST PUSH0 DUP2 SWAP1 POP PUSH2 0x14E0 DUP3 PUSH2 0x14BF JUMP JUMPDEST SWAP2 SWAP1 POP JUMP JUMPDEST PUSH0 PUSH2 0x14EF DUP3 PUSH2 0x14D3 JUMP JUMPDEST SWAP1 POP SWAP2 SWAP1 POP JUMP JUMPDEST PUSH2 0x14FF DUP2 PUSH2 0x14E5 JUMP JUMPDEST DUP3 MSTORE POP POP JUMP JUMPDEST PUSH0 PUSH1 0x20 DUP3 ADD SWAP1 POP PUSH2 0x1518 PUSH0 DUP4 ADD DUP5 PUSH2 0x14F6 JUMP JUMPDEST SWAP3 SWAP2 POP POP JUMP JUMPDEST PUSH32 0x4E487B7100000000000000000000000000000000000000000000000000000000 PUSH0 MSTORE PUSH1 0x32 PUSH1 0x4 MSTORE PUSH1 0x24 PUSH0 REVERT JUMPDEST PUSH32 0x4E487B7100000000000000000000000000000000000000000000000000000000 PUSH0 MSTORE PUSH1 0x22 PUSH1 0x4 MSTORE PUSH1 0x24 PUSH0 REVERT JUMPDEST PUSH0 PUSH1 0x2 DUP3 DIV SWAP1 POP PUSH1 0x1 DUP3 AND DUP1 PUSH2 0x158F JUMPI PUSH1 0x7F DUP3 AND SWAP2 POP JUMPDEST PUSH1 0x20 DUP3 LT DUP2 SUB PUSH2 0x15A2 JUMPI PUSH2 0x15A1 PUSH2 0x154B JUMP JUMPDEST JUMPDEST POP SWAP2 SWAP1 POP JUMP JUMPDEST PUSH32 0x4E487B7100000000000000000000000000000000000000000000000000000000 PUSH0 MSTORE PUSH1 0x11 PUSH1 0x4 MSTORE PUSH1 0x24 PUSH0 REVERT JUMPDEST PUSH0 PUSH2 0x15DF DUP3 PUSH2 0xEF4 JUMP JUMPDEST SWAP2 POP PUSH32 0xFFFFFFFFFFFFFFFFFFFFFFFFFFFFFFFFFFFFFFFFFFFFFFFFFFFFFFFFFFFFFFFF DUP3 SUB PUSH2 0x1611 JUMPI PUSH2 0x1610 PUSH2 0x15A8 JUMP JUMPDEST JUMPDEST PUSH1 0x1 DUP3 ADD SWAP1 POP SWAP2 SWAP1 POP JUMP JUMPDEST PUSH0 DUP2 SWAP1 POP DUP2 PUSH0 MSTORE PUSH1 0x20 PUSH0 KECCAK256 SWAP1 POP SWAP2 SWAP1 POP JUMP JUMPDEST PUSH0 PUSH1 0x20 PUSH1 0x1F DUP4 ADD DIV SWAP1 POP SWAP2 SWAP1 POP JUMP JUMPDEST PUSH0 DUP3 DUP3 SHL SWAP1 POP SWAP3 SWAP2 POP POP JUMP JUMPDEST PUSH0 PUSH1 0x8 DUP4 MUL PUSH2 0x1678 PUSH32 0xFFFFFFFFFFFFFFFFFFFFFFFFFFFFFFFFFFFFFFFFFFFFFFFFFFFFFFFFFFFFFFFF DUP3 PUSH2 0x163D JUMP JUMPDEST PUSH2 0x1682 DUP7 DUP4 PUSH2 0x163D JUMP JUMPDEST SWAP6 POP DUP1 NOT DUP5 AND SWAP4 POP DUP1 DUP7 AND DUP5 OR SWAP3 POP POP POP SWAP4 SWAP3 POP POP POP JUMP JUMPDEST PUSH0 DUP2 SWAP1 POP SWAP2 SWAP1 POP JUMP JUMPDEST PUSH0 PUSH2 0x16BD PUSH2 0x16B8 PUSH2 0x16B3 DUP5 PUSH2 0xEF4 JUMP JUMPDEST PUSH2 0x169A JUMP JUMPDEST PUSH2 0xEF4 JUMP JUMPDEST SWAP1 POP SWAP2 SWAP1 POP JUMP JUMPDEST PUSH0 DUP2 SWAP1 POP SWAP2 SWAP1 POP JUMP JUMPDEST PUSH2 0x16D6 DUP4 PUSH2 0x16A3 JUMP JUMPDEST PUSH2 0x16EA PUSH2 0x16E2 DUP3 PUSH2 0x16C4 JUMP JUMPDEST DUP5 DUP5 SLOAD PUSH2 0x1649 JUMP JUMPDEST DUP3 SSTORE POP POP POP POP JUMP JUMPDEST PUSH0 SWAP1 JUMP JUMPDEST PUSH2 0x16FE PUSH2 0x16F2 JUMP JUMPDEST PUSH2 0x1709 DUP2 DUP5 DUP5 PUSH2 0x16CD JUMP JUMPDEST POP POP POP JUMP JUMPDEST JUMPDEST DUP2 DUP2 LT ISZERO PUSH2 0x172C JUMPI PUSH2 0x1721 PUSH0 DUP3 PUSH2 0x16F6 JUMP JUMPDEST PUSH1 0x1 DUP2 ADD SWAP1 POP PUSH2 0x170F JUMP JUMPDEST POP POP JUMP JUMPDEST PUSH1 0x1F DUP3 GT ISZERO PUSH2 0x1771 JUMPI PUSH2 0x1742 DUP2 PUSH2 0x161C JUMP JUMPDEST PUSH2 0x174B DUP5 PUSH2 0x162E JUMP JUMPDEST DUP2 ADD PUSH1 0x20 DUP6 LT ISZERO PUSH2 0x175A JUMPI DUP2 SWAP1 POP JUMPDEST PUSH2 0x176E PUSH2 0x1766 DUP6 PUSH2 0x162E JUMP JUMPDEST DUP4 ADD DUP3 PUSH2 0x170E JUMP JUMPDEST POP POP JUMPDEST POP POP POP JUMP JUMPDEST PUSH0 DUP3 DUP3 SHR SWAP1 POP SWAP3 SWAP2 POP POP JUMP JUMPDEST PUSH0 PUSH2 0x1791 PUSH0 NOT DUP5 PUSH1 0x8 MUL PUSH2 0x1776 JUMP JUMPDEST NOT DUP1 DUP4 AND SWAP2 POP POP SWAP3 SWAP2 POP POP JUMP JUMPDEST PUSH0 PUSH2 0x17A9 DUP4 DUP4 PUSH2 0x1782 JUMP JUMPDEST SWAP2 POP DUP3 PUSH1 0x2 MUL DUP3 OR SWAP1 POP SWAP3 SWAP2 POP POP JUMP JUMPDEST PUSH2 0x17C2 DUP3 PUSH2 0x103D JUMP JUMPDEST PUSH8 0xFFFFFFFFFFFFFFFF DUP2 GT ISZERO PUSH2 0x17DB JUMPI PUSH2 0x17DA PUSH2 0x12F6 JUMP JUMPDEST JUMPDEST PUSH2 0x17E5 DUP3 SLOAD PUSH2 0x1578 JUMP JUMPDEST PUSH2 0x17F0 DUP3 DUP3 DUP6 PUSH2 0x1730 JUMP JUMPDEST PUSH0 PUSH1 0x20 SWAP1 POP PUSH1 0x1F DUP4 GT PUSH1 0x1 DUP2 EQ PUSH2 0x1821 JUMPI PUSH0 DUP5 ISZERO PUSH2 0x180F JUMPI DUP3 DUP8 ADD MLOAD SWAP1 POP JUMPDEST PUSH2 0x1819 DUP6 DUP3 PUSH2 0x179E JUMP JUMPDEST DUP7 SSTORE POP PUSH2 0x1880 JUMP JUMPDEST PUSH1 0x1F NOT DUP5 AND PUSH2 0x182F DUP7 PUSH2 0x161C JUMP JUMPDEST PUSH0 JUMPDEST DUP3 DUP2 LT ISZERO PUSH2 0x1856 JUMPI DUP5 DUP10 ADD MLOAD DUP3 SSTORE PUSH1 0x1 DUP3 ADD SWAP2 POP PUSH1 0x20 DUP6 ADD SWAP5 POP PUSH1 0x20 DUP2 ADD SWAP1 POP PUSH2 0x1831 JUMP JUMPDEST DUP7 DUP4 LT ISZERO PUSH2 0x1873 JUMPI DUP5 DUP10 ADD MLOAD PUSH2 0x186F PUSH1 0x1F DUP10 AND DUP3 PUSH2 0x1782 JUMP JUMPDEST DUP4 SSTORE POP JUMPDEST PUSH1 0x1 PUSH1 0x2 DUP9 MUL ADD DUP9 SSTORE POP POP POP JUMPDEST POP POP POP POP POP POP JUMP INVALID LOG2 PUSH5 0x6970667358 0x22 SLT KECCAK256 0xB2 SWAP13 PUSH8 0x91D8DE59C825E5FB SHL 0x2F PUSH31 0x391CBC937D4D6CD95806AD31174762A4B1E764736F6C634300081600330000 "
				},
				"gasEstimates": {
					"creation": {
						"codeDepositCost": "1266800",
						"executionCost": "infinite",
						"totalCost": "infinite"
					},
					"external": {
						"Text(uint256)": "infinite",
						"balances(address)": "2926",
						"currentStatus()": "2686",
						"delivered()": "24451",
						"demo()": "66596",
						"demoLenMyDynamicVar()": "2653",
						"demoLenMyDynamicVar1()": "6936",
						"demoLenMyVar()": "404",
						"digits(uint256,uint256)": "infinite",
						"getTestPayment(address,uint256)": "infinite",
						"items(uint256)": "infinite",
						"len()": "2470",
						"myDynamicVar()": "infinite",
						"myDynamicVar1()": "infinite",
						"myVar()": "2513",
						"numbers(uint256)": "infinite",
						"pay()": "24518",
						"payTest(string)": "infinite",
						"populateDigitsArray()": "infinite",
						"populateNumbersArray()": "163645",
						"received()": "24562",
						"sampleMemory()": "infinite"
					}
				},
				"methodIdentifiers": {
					"Text(uint256)": "6251841d",
					"balances(address)": "27e235e3",
					"currentStatus()": "ef8a9235",
					"delivered()": "bbdfbfba",
					"demo()": "01725a0b",
					"demoLenMyDynamicVar()": "7217934f",
					"demoLenMyDynamicVar1()": "8c0d12db",
					"demoLenMyVar()": "bfec3edd",
					"digits(uint256,uint256)": "1612217f",
					"getTestPayment(address,uint256)": "739c04a4",
					"items(uint256)": "bfb231d2",
					"len()": "56d88e27",
					"myDynamicVar()": "0f4147f9",
					"myDynamicVar1()": "9e035229",
					"myVar()": "c6b91540",
					"numbers(uint256)": "d39fa233",
					"pay()": "1b9265b8",
					"payTest(string)": "bad489dc",
					"populateDigitsArray()": "a12d531f",
					"populateNumbersArray()": "3e731233",
					"received()": "83a6deb5",
					"sampleMemory()": "a34343c9"
				}
			},
			"storageLayout": {
				"storage": [
					{
						"astId": 23,
						"contract": "Demo.sol:Demo",
						"label": "balances",
						"offset": 0,
						"slot": "0",
						"type": "t_mapping(t_address,t_struct(Balance)18_storage)"
					},
					{
						"astId": 88,
						"contract": "Demo.sol:Demo",
						"label": "myVar",
						"offset": 0,
						"slot": "1",
						"type": "t_bytes32"
					},
					{
						"astId": 91,
						"contract": "Demo.sol:Demo",
						"label": "myDynamicVar",
						"offset": 0,
						"slot": "2",
						"type": "t_bytes_storage"
					},
					{
						"astId": 94,
						"contract": "Demo.sol:Demo",
						"label": "myDynamicVar1",
						"offset": 0,
						"slot": "3",
						"type": "t_bytes_storage"
					},
					{
						"astId": 125,
						"contract": "Demo.sol:Demo",
						"label": "numbers",
						"offset": 0,
						"slot": "4",
						"type": "t_array(t_uint256)dyn_storage"
					},
					{
						"astId": 127,
						"contract": "Demo.sol:Demo",
						"label": "len",
						"offset": 0,
						"slot": "5",
						"type": "t_uint256"
					},
					{
						"astId": 190,
						"contract": "Demo.sol:Demo",
						"label": "Text",
						"offset": 0,
						"slot": "6",
						"type": "t_array(t_string_storage)5_storage"
					},
					{
						"astId": 198,
						"contract": "Demo.sol:Demo",
						"label": "items",
						"offset": 0,
						"slot": "11",
						"type": "t_array(t_uint256)10_storage"
					},
					{
						"astId": 202,
						"contract": "Demo.sol:Demo",
						"label": "digits",
						"offset": 0,
						"slot": "21",
						"type": "t_array(t_array(t_uint256)dyn_storage)dyn_storage"
					},
					{
						"astId": 247,
						"contract": "Demo.sol:Demo",
						"label": "currentStatus",
						"offset": 0,
						"slot": "22",
						"type": "t_enum(Status)244"
					}
				],
				"types": {
					"t_address": {
						"encoding": "inplace",
						"label": "address",
						"numberOfBytes": "20"
					},
					"t_array(t_array(t_uint256)dyn_storage)dyn_storage": {
						"base": "t_array(t_uint256)dyn_storage",
						"encoding": "dynamic_array",
						"label": "uint256[][]",
						"numberOfBytes": "32"
					},
					"t_array(t_string_storage)5_storage": {
						"base": "t_string_storage",
						"encoding": "inplace",
						"label": "string[5]",
						"numberOfBytes": "160"
					},
					"t_array(t_uint256)10_storage": {
						"base": "t_uint256",
						"encoding": "inplace",
						"label": "uint256[10]",
						"numberOfBytes": "320"
					},
					"t_array(t_uint256)dyn_storage": {
						"base": "t_uint256",
						"encoding": "dynamic_array",
						"label": "uint256[]",
						"numberOfBytes": "32"
					},
					"t_bytes32": {
						"encoding": "inplace",
						"label": "bytes32",
						"numberOfBytes": "32"
					},
					"t_bytes_storage": {
						"encoding": "bytes",
						"label": "bytes",
						"numberOfBytes": "32"
					},
					"t_enum(Status)244": {
						"encoding": "inplace",
						"label": "enum Demo.Status",
						"numberOfBytes": "1"
					},
					"t_mapping(t_address,t_struct(Balance)18_storage)": {
						"encoding": "mapping",
						"key": "t_address",
						"label": "mapping(address => struct Demo.Balance)",
						"numberOfBytes": "32",
						"value": "t_struct(Balance)18_storage"
					},
					"t_mapping(t_uint256,t_struct(Payment)10_storage)": {
						"encoding": "mapping",
						"key": "t_uint256",
						"label": "mapping(uint256 => struct Demo.Payment)",
						"numberOfBytes": "32",
						"value": "t_struct(Payment)10_storage"
					},
					"t_string_storage": {
						"encoding": "bytes",
						"label": "string",
						"numberOfBytes": "32"
					},
					"t_struct(Balance)18_storage": {
						"encoding": "inplace",
						"label": "struct Demo.Balance",
						"members": [
							{
								"astId": 12,
								"contract": "Demo.sol:Demo",
								"label": "totalPayments",
								"offset": 0,
								"slot": "0",
								"type": "t_uint256"
							},
							{
								"astId": 17,
								"contract": "Demo.sol:Demo",
								"label": "payments",
								"offset": 0,
								"slot": "1",
								"type": "t_mapping(t_uint256,t_struct(Payment)10_storage)"
							}
						],
						"numberOfBytes": "64"
					},
					"t_struct(Payment)10_storage": {
						"encoding": "inplace",
						"label": "struct Demo.Payment",
						"members": [
							{
								"astId": 3,
								"contract": "Demo.sol:Demo",
								"label": "amount",
								"offset": 0,
								"slot": "0",
								"type": "t_uint256"
							},
							{
								"astId": 5,
								"contract": "Demo.sol:Demo",
								"label": "timestamp",
								"offset": 0,
								"slot": "1",
								"type": "t_uint256"
							},
							{
								"astId": 7,
								"contract": "Demo.sol:Demo",
								"label": "from",
								"offset": 0,
								"slot": "2",
								"type": "t_address"
							},
							{
								"astId": 9,
								"contract": "Demo.sol:Demo",
								"label": "message",
								"offset": 0,
								"slot": "3",
								"type": "t_string_storage"
							}
						],
						"numberOfBytes": "128"
					},
					"t_uint256": {
						"encoding": "inplace",
						"label": "uint256",
						"numberOfBytes": "32"
					}
				}
			},
			"userdoc": {
				"kind": "user",
				"methods": {},
				"version": 1
			}
		}
	}
}