{
	"data": {
		"bytecode": {
			"linkReferences": {},
			"object": "608060405260405180608001604052806040518060400160405280601481526020017f5458313a20536865726c6f6b202d3e204a6f686e00000000000000000000000081525081526020016040518060400160405280601481526020017f5458323a204a6f686e202d3e20536865726c6f6b00000000000000000000000081525081526020016040518060400160405280601181526020017f5458333a204a6f686e202d3e204d61727900000000000000000000000000000081525081526020016040518060400160405280601481526020017f5458343a204d617279202d3e20536865726c6f6b00000000000000000000000081525081525060019060046200010b929190620002d6565b5034801562000118575f80fd5b505f5b60048110156200020e575f620001dd60018360048110620001415762000140620003b0565b5b0180546200014f906200040a565b80601f01602080910402602001604051908101604052809291908181526020018280546200017d906200040a565b8015620001cc5780601f10620001a257610100808354040283529160200191620001cc565b820191905f5260205f20905b815481529060010190602001808311620001ae57829003601f168201915b50505050506200028b60201b60201c565b908060018154018082558091505060019003905f5260205f20015f909190919091505580806001019150506200011b565b505f600490505f5b5f82111562000283575f5b828110156200025b575f60018160018154018082558091505003905f5260205f20505060028162000253919062000474565b905062000221565b5081816200026a919062000474565b90506002826200027b9190620004db565b915062000216565b505062000872565b5f6200029d82620002ab60201b60201c565b805190602001209050919050565b606081604051602001620002c0919062000586565b6040516020818303038152906040529050919050565b826004810192821562000316579160200282015b82811115620003155782518290816200030491906200078e565b5091602001919060010190620002ea565b5b50905062000325919062000329565b5090565b5b808211156200034c575f818162000342919062000350565b506001016200032a565b5090565b5080546200035e906200040a565b5f825580601f1062000371575062000390565b601f0160209004905f5260205f20908101906200038f919062000393565b5b50565b5b80821115620003ac575f815f90555060010162000394565b5090565b7f4e487b71000000000000000000000000000000000000000000000000000000005f52603260045260245ffd5b7f4e487b71000000000000000000000000000000000000000000000000000000005f52602260045260245ffd5b5f60028204905060018216806200042257607f821691505b602082108103620004385762000437620003dd565b5b50919050565b5f819050919050565b7f4e487b71000000000000000000000000000000000000000000000000000000005f52601160045260245ffd5b5f62000480826200043e565b91506200048d836200043e565b9250828201905080821115620004a857620004a762000447565b5b92915050565b7f4e487b71000000000000000000000000000000000000000000000000000000005f52601260045260245ffd5b5f620004e7826200043e565b9150620004f4836200043e565b925082620005075762000506620004ae565b5b828204905092915050565b5f81519050919050565b5f81905092915050565b5f5b838110156200054557808201518184015260208101905062000528565b5f8484015250505050565b5f6200055c8262000512565b6200056881856200051c565b93506200057a81856020860162000526565b80840191505092915050565b5f62000593828462000550565b915081905092915050565b7f4e487b71000000000000000000000000000000000000000000000000000000005f52604160045260245ffd5b5f819050815f5260205f209050919050565b5f6020601f8301049050919050565b5f82821b905092915050565b5f60088302620006297fffffffffffffffffffffffffffffffffffffffffffffffffffffffffffffffff82620005ec565b620006358683620005ec565b95508019841693508086168417925050509392505050565b5f819050919050565b5f62000676620006706200066a846200043e565b6200064d565b6200043e565b9050919050565b5f819050919050565b620006918362000656565b620006a9620006a0826200067d565b848454620005f8565b825550505050565b5f90565b620006bf620006b1565b620006cc81848462000686565b505050565b5b81811015620006f357620006e75f82620006b5565b600181019050620006d2565b5050565b601f82111562000742576200070c81620005cb565b6200071784620005dd565b8101602085101562000727578190505b6200073f6200073685620005dd565b830182620006d1565b50505b505050565b5f82821c905092915050565b5f620007645f198460080262000747565b1980831691505092915050565b5f6200077e838362000753565b9150826002028217905092915050565b620007998262000512565b67ffffffffffffffff811115620007b557620007b46200059e565b5b620007c182546200040a565b620007ce828285620006f7565b5f60209050601f83116001811462000804575f8415620007ef578287015190505b620007fb858262000771565b8655506200086a565b601f1984166200081486620005cb565b5f5b828110156200083d5784890151825560018201915060208501945060208101905062000816565b868310156200085d578489015162000859601f89168262000753565b8355505b6001600288020188555050505b505050505050565b61048080620008805f395ff3fe608060405234801561000f575f80fd5b506004361061003f575f3560e01c8063501895ae1461004357806352de70af146100735780636a11b2a8146100a3575b5f80fd5b61005d60048036038101906100589190610177565b6100d3565b60405161006a91906101ba565b60405180910390f35b61008d6004803603810190610088919061030f565b6100f2565b60405161009a91906101ba565b60405180910390f35b6100bd60048036038101906100b8919061030f565b61010a565b6040516100ca91906103d0565b60405180910390f35b5f81815481106100e1575f80fd5b905f5260205f20015f915090505481565b5f6100fc8261010a565b805190602001209050919050565b60608160405160200161011d9190610434565b6040516020818303038152906040529050919050565b5f604051905090565b5f80fd5b5f80fd5b5f819050919050565b61015681610144565b8114610160575f80fd5b50565b5f813590506101718161014d565b92915050565b5f6020828403121561018c5761018b61013c565b5b5f61019984828501610163565b91505092915050565b5f819050919050565b6101b4816101a2565b82525050565b5f6020820190506101cd5f8301846101ab565b92915050565b5f80fd5b5f80fd5b5f601f19601f8301169050919050565b7f4e487b71000000000000000000000000000000000000000000000000000000005f52604160045260245ffd5b610221826101db565b810181811067ffffffffffffffff821117156102405761023f6101eb565b5b80604052505050565b5f610252610133565b905061025e8282610218565b919050565b5f67ffffffffffffffff82111561027d5761027c6101eb565b5b610286826101db565b9050602081019050919050565b828183375f83830152505050565b5f6102b36102ae84610263565b610249565b9050828152602081018484840111156102cf576102ce6101d7565b5b6102da848285610293565b509392505050565b5f82601f8301126102f6576102f56101d3565b5b81356103068482602086016102a1565b91505092915050565b5f602082840312156103245761032361013c565b5b5f82013567ffffffffffffffff81111561034157610340610140565b5b61034d848285016102e2565b91505092915050565b5f81519050919050565b5f82825260208201905092915050565b5f5b8381101561038d578082015181840152602081019050610372565b5f8484015250505050565b5f6103a282610356565b6103ac8185610360565b93506103bc818560208601610370565b6103c5816101db565b840191505092915050565b5f6020820190508181035f8301526103e88184610398565b905092915050565b5f81519050919050565b5f81905092915050565b5f61040e826103f0565b61041881856103fa565b9350610428818560208601610370565b80840191505092915050565b5f61043f8284610404565b91508190509291505056fea26469706673582212203a78880d8726aa4ca46fe45d3b59119c8cf41f3e443c7cbeb97051d18cc67cfa64736f6c63430008160033",
			"opcodes": "PUSH1 0x80 PUSH1 0x40 MSTORE PUSH1 0x40 MLOAD DUP1 PUSH1 0x80 ADD PUSH1 0x40 MSTORE DUP1 PUSH1 0x40 MLOAD DUP1 PUSH1 0x40 ADD PUSH1 0x40 MSTORE DUP1 PUSH1 0x14 DUP2 MSTORE PUSH1 0x20 ADD PUSH32 0x5458313A20536865726C6F6B202D3E204A6F686E000000000000000000000000 DUP2 MSTORE POP DUP2 MSTORE PUSH1 0x20 ADD PUSH1 0x40 MLOAD DUP1 PUSH1 0x40 ADD PUSH1 0x40 MSTORE DUP1 PUSH1 0x14 DUP2 MSTORE PUSH1 0x20 ADD PUSH32 0x5458323A204A6F686E202D3E20536865726C6F6B000000000000000000000000 DUP2 MSTORE POP DUP2 MSTORE PUSH1 0x20 ADD PUSH1 0x40 MLOAD DUP1 PUSH1 0x40 ADD PUSH1 0x40 MSTORE DUP1 PUSH1 0x11 DUP2 MSTORE PUSH1 0x20 ADD PUSH32 0x5458333A204A6F686E202D3E204D617279000000000000000000000000000000 DUP2 MSTORE POP DUP2 MSTORE PUSH1 0x20 ADD PUSH1 0x40 MLOAD DUP1 PUSH1 0x40 ADD PUSH1 0x40 MSTORE DUP1 PUSH1 0x14 DUP2 MSTORE PUSH1 0x20 ADD PUSH32 0x5458343A204D617279202D3E20536865726C6F6B000000000000000000000000 DUP2 MSTORE POP DUP2 MSTORE POP PUSH1 0x1 SWAP1 PUSH1 0x4 PUSH3 0x10B SWAP3 SWAP2 SWAP1 PUSH3 0x2D6 JUMP JUMPDEST POP CALLVALUE DUP1 ISZERO PUSH3 0x118 JUMPI PUSH0 DUP1 REVERT JUMPDEST POP PUSH0 JUMPDEST PUSH1 0x4 DUP2 LT ISZERO PUSH3 0x20E JUMPI PUSH0 PUSH3 0x1DD PUSH1 0x1 DUP4 PUSH1 0x4 DUP2 LT PUSH3 0x141 JUMPI PUSH3 0x140 PUSH3 0x3B0 JUMP JUMPDEST JUMPDEST ADD DUP1 SLOAD PUSH3 0x14F SWAP1 PUSH3 0x40A JUMP JUMPDEST DUP1 PUSH1 0x1F ADD PUSH1 0x20 DUP1 SWAP2 DIV MUL PUSH1 0x20 ADD PUSH1 0x40 MLOAD SWAP1 DUP2 ADD PUSH1 0x40 MSTORE DUP1 SWAP3 SWAP2 SWAP1 DUP2 DUP2 MSTORE PUSH1 0x20 ADD DUP3 DUP1 SLOAD PUSH3 0x17D SWAP1 PUSH3 0x40A JUMP JUMPDEST DUP1 ISZERO PUSH3 0x1CC JUMPI DUP1 PUSH1 0x1F LT PUSH3 0x1A2 JUMPI PUSH2 0x100 DUP1 DUP4 SLOAD DIV MUL DUP4 MSTORE SWAP2 PUSH1 0x20 ADD SWAP2 PUSH3 0x1CC JUMP JUMPDEST DUP3 ADD SWAP2 SWAP1 PUSH0 MSTORE PUSH1 0x20 PUSH0 KECCAK256 SWAP1 JUMPDEST DUP2 SLOAD DUP2 MSTORE SWAP1 PUSH1 0x1 ADD SWAP1 PUSH1 0x20 ADD DUP1 DUP4 GT PUSH3 0x1AE JUMPI DUP3 SWAP1 SUB PUSH1 0x1F AND DUP3 ADD SWAP2 JUMPDEST POP POP POP POP POP PUSH3 0x28B PUSH1 0x20 SHL PUSH1 0x20 SHR JUMP JUMPDEST SWAP1 DUP1 PUSH1 0x1 DUP2 SLOAD ADD DUP1 DUP3 SSTORE DUP1 SWAP2 POP POP PUSH1 0x1 SWAP1 SUB SWAP1 PUSH0 MSTORE PUSH1 0x20 PUSH0 KECCAK256 ADD PUSH0 SWAP1 SWAP2 SWAP1 SWAP2 SWAP1 SWAP2 POP SSTORE DUP1 DUP1 PUSH1 0x1 ADD SWAP2 POP POP PUSH3 0x11B JUMP JUMPDEST POP PUSH0 PUSH1 0x4 SWAP1 POP PUSH0 JUMPDEST PUSH0 DUP3 GT ISZERO PUSH3 0x283 JUMPI PUSH0 JUMPDEST DUP3 DUP2 LT ISZERO PUSH3 0x25B JUMPI PUSH0 PUSH1 0x1 DUP2 PUSH1 0x1 DUP2 SLOAD ADD DUP1 DUP3 SSTORE DUP1 SWAP2 POP POP SUB SWAP1 PUSH0 MSTORE PUSH1 0x20 PUSH0 KECCAK256 POP POP PUSH1 0x2 DUP2 PUSH3 0x253 SWAP2 SWAP1 PUSH3 0x474 JUMP JUMPDEST SWAP1 POP PUSH3 0x221 JUMP JUMPDEST POP DUP2 DUP2 PUSH3 0x26A SWAP2 SWAP1 PUSH3 0x474 JUMP JUMPDEST SWAP1 POP PUSH1 0x2 DUP3 PUSH3 0x27B SWAP2 SWAP1 PUSH3 0x4DB JUMP JUMPDEST SWAP2 POP PUSH3 0x216 JUMP JUMPDEST POP POP PUSH3 0x872 JUMP JUMPDEST PUSH0 PUSH3 0x29D DUP3 PUSH3 0x2AB PUSH1 0x20 SHL PUSH1 0x20 SHR JUMP JUMPDEST DUP1 MLOAD SWAP1 PUSH1 0x20 ADD KECCAK256 SWAP1 POP SWAP2 SWAP1 POP JUMP JUMPDEST PUSH1 0x60 DUP2 PUSH1 0x40 MLOAD PUSH1 0x20 ADD PUSH3 0x2C0 SWAP2 SWAP1 PUSH3 0x586 JUMP JUMPDEST PUSH1 0x40 MLOAD PUSH1 0x20 DUP2 DUP4 SUB SUB DUP2 MSTORE SWAP1 PUSH1 0x40 MSTORE SWAP1 POP SWAP2 SWAP1 POP JUMP JUMPDEST DUP3 PUSH1 0x4 DUP2 ADD SWAP3 DUP3 ISZERO PUSH3 0x316 JUMPI SWAP2 PUSH1 0x20 MUL DUP3 ADD JUMPDEST DUP3 DUP2 GT ISZERO PUSH3 0x315 JUMPI DUP3 MLOAD DUP3 SWAP1 DUP2 PUSH3 0x304 SWAP2 SWAP1 PUSH3 0x78E JUMP JUMPDEST POP SWAP2 PUSH1 0x20 ADD SWAP2 SWAP1 PUSH1 0x1 ADD SWAP1 PUSH3 0x2EA JUMP JUMPDEST JUMPDEST POP SWAP1 POP PUSH3 0x325 SWAP2 SWAP1 PUSH3 0x329 JUMP JUMPDEST POP SWAP1 JUMP JUMPDEST JUMPDEST DUP1 DUP3 GT ISZERO PUSH3 0x34C JUMPI PUSH0 DUP2 DUP2 PUSH3 0x342 SWAP2 SWAP1 PUSH3 0x350 JUMP JUMPDEST POP PUSH1 0x1 ADD PUSH3 0x32A JUMP JUMPDEST POP SWAP1 JUMP JUMPDEST POP DUP1 SLOAD PUSH3 0x35E SWAP1 PUSH3 0x40A JUMP JUMPDEST PUSH0 DUP3 SSTORE DUP1 PUSH1 0x1F LT PUSH3 0x371 JUMPI POP PUSH3 0x390 JUMP JUMPDEST PUSH1 0x1F ADD PUSH1 0x20 SWAP1 DIV SWAP1 PUSH0 MSTORE PUSH1 0x20 PUSH0 KECCAK256 SWAP1 DUP2 ADD SWAP1 PUSH3 0x38F SWAP2 SWAP1 PUSH3 0x393 JUMP JUMPDEST JUMPDEST POP JUMP JUMPDEST JUMPDEST DUP1 DUP3 GT ISZERO PUSH3 0x3AC JUMPI PUSH0 DUP2 PUSH0 SWAP1 SSTORE POP PUSH1 0x1 ADD PUSH3 0x394 JUMP JUMPDEST POP SWAP1 JUMP JUMPDEST PUSH32 0x4E487B7100000000000000000000000000000000000000000000000000000000 PUSH0 MSTORE PUSH1 0x32 PUSH1 0x4 MSTORE PUSH1 0x24 PUSH0 REVERT JUMPDEST PUSH32 0x4E487B7100000000000000000000000000000000000000000000000000000000 PUSH0 MSTORE PUSH1 0x22 PUSH1 0x4 MSTORE PUSH1 0x24 PUSH0 REVERT JUMPDEST PUSH0 PUSH1 0x2 DUP3 DIV SWAP1 POP PUSH1 0x1 DUP3 AND DUP1 PUSH3 0x422 JUMPI PUSH1 0x7F DUP3 AND SWAP2 POP JUMPDEST PUSH1 0x20 DUP3 LT DUP2 SUB PUSH3 0x438 JUMPI PUSH3 0x437 PUSH3 0x3DD JUMP JUMPDEST JUMPDEST POP SWAP2 SWAP1 POP JUMP JUMPDEST PUSH0 DUP2 SWAP1 POP SWAP2 SWAP1 POP JUMP JUMPDEST PUSH32 0x4E487B7100000000000000000000000000000000000000000000000000000000 PUSH0 MSTORE PUSH1 0x11 PUSH1 0x4 MSTORE PUSH1 0x24 PUSH0 REVERT JUMPDEST PUSH0 PUSH3 0x480 DUP3 PUSH3 0x43E JUMP JUMPDEST SWAP2 POP PUSH3 0x48D DUP4 PUSH3 0x43E JUMP JUMPDEST SWAP3 POP DUP3 DUP3 ADD SWAP1 POP DUP1 DUP3 GT ISZERO PUSH3 0x4A8 JUMPI PUSH3 0x4A7 PUSH3 0x447 JUMP JUMPDEST JUMPDEST SWAP3 SWAP2 POP POP JUMP JUMPDEST PUSH32 0x4E487B7100000000000000000000000000000000000000000000000000000000 PUSH0 MSTORE PUSH1 0x12 PUSH1 0x4 MSTORE PUSH1 0x24 PUSH0 REVERT JUMPDEST PUSH0 PUSH3 0x4E7 DUP3 PUSH3 0x43E JUMP JUMPDEST SWAP2 POP PUSH3 0x4F4 DUP4 PUSH3 0x43E JUMP JUMPDEST SWAP3 POP DUP3 PUSH3 0x507 JUMPI PUSH3 0x506 PUSH3 0x4AE JUMP JUMPDEST JUMPDEST DUP3 DUP3 DIV SWAP1 POP SWAP3 SWAP2 POP POP JUMP JUMPDEST PUSH0 DUP2 MLOAD SWAP1 POP SWAP2 SWAP1 POP JUMP JUMPDEST PUSH0 DUP2 SWAP1 POP SWAP3 SWAP2 POP POP JUMP JUMPDEST PUSH0 JUMPDEST DUP4 DUP2 LT ISZERO PUSH3 0x545 JUMPI DUP1 DUP3 ADD MLOAD DUP2 DUP5 ADD MSTORE PUSH1 0x20 DUP2 ADD SWAP1 POP PUSH3 0x528 JUMP JUMPDEST PUSH0 DUP5 DUP5 ADD MSTORE POP POP POP POP JUMP JUMPDEST PUSH0 PUSH3 0x55C DUP3 PUSH3 0x512 JUMP JUMPDEST PUSH3 0x568 DUP2 DUP6 PUSH3 0x51C JUMP JUMPDEST SWAP4 POP PUSH3 0x57A DUP2 DUP6 PUSH1 0x20 DUP7 ADD PUSH3 0x526 JUMP JUMPDEST DUP1 DUP5 ADD SWAP2 POP POP SWAP3 SWAP2 POP POP JUMP JUMPDEST PUSH0 PUSH3 0x593 DUP3 DUP5 PUSH3 0x550 JUMP JUMPDEST SWAP2 POP DUP2 SWAP1 POP SWAP3 SWAP2 POP POP JUMP JUMPDEST PUSH32 0x4E487B7100000000000000000000000000000000000000000000000000000000 PUSH0 MSTORE PUSH1 0x41 PUSH1 0x4 MSTORE PUSH1 0x24 PUSH0 REVERT JUMPDEST PUSH0 DUP2 SWAP1 POP DUP2 PUSH0 MSTORE PUSH1 0x20 PUSH0 KECCAK256 SWAP1 POP SWAP2 SWAP1 POP JUMP JUMPDEST PUSH0 PUSH1 0x20 PUSH1 0x1F DUP4 ADD DIV SWAP1 POP SWAP2 SWAP1 POP JUMP JUMPDEST PUSH0 DUP3 DUP3 SHL SWAP1 POP SWAP3 SWAP2 POP POP JUMP JUMPDEST PUSH0 PUSH1 0x8 DUP4 MUL PUSH3 0x629 PUSH32 0xFFFFFFFFFFFFFFFFFFFFFFFFFFFFFFFFFFFFFFFFFFFFFFFFFFFFFFFFFFFFFFFF DUP3 PUSH3 0x5EC JUMP JUMPDEST PUSH3 0x635 DUP7 DUP4 PUSH3 0x5EC JUMP JUMPDEST SWAP6 POP DUP1 NOT DUP5 AND SWAP4 POP DUP1 DUP7 AND DUP5 OR SWAP3 POP POP POP SWAP4 SWAP3 POP POP POP JUMP JUMPDEST PUSH0 DUP2 SWAP1 POP SWAP2 SWAP1 POP JUMP JUMPDEST PUSH0 PUSH3 0x676 PUSH3 0x670 PUSH3 0x66A DUP5 PUSH3 0x43E JUMP JUMPDEST PUSH3 0x64D JUMP JUMPDEST PUSH3 0x43E JUMP JUMPDEST SWAP1 POP SWAP2 SWAP1 POP JUMP JUMPDEST PUSH0 DUP2 SWAP1 POP SWAP2 SWAP1 POP JUMP JUMPDEST PUSH3 0x691 DUP4 PUSH3 0x656 JUMP JUMPDEST PUSH3 0x6A9 PUSH3 0x6A0 DUP3 PUSH3 0x67D JUMP JUMPDEST DUP5 DUP5 SLOAD PUSH3 0x5F8 JUMP JUMPDEST DUP3 SSTORE POP POP POP POP JUMP JUMPDEST PUSH0 SWAP1 JUMP JUMPDEST PUSH3 0x6BF PUSH3 0x6B1 JUMP JUMPDEST PUSH3 0x6CC DUP2 DUP5 DUP5 PUSH3 0x686 JUMP JUMPDEST POP POP POP JUMP JUMPDEST JUMPDEST DUP2 DUP2 LT ISZERO PUSH3 0x6F3 JUMPI PUSH3 0x6E7 PUSH0 DUP3 PUSH3 0x6B5 JUMP JUMPDEST PUSH1 0x1 DUP2 ADD SWAP1 POP PUSH3 0x6D2 JUMP JUMPDEST POP POP JUMP JUMPDEST PUSH1 0x1F DUP3 GT ISZERO PUSH3 0x742 JUMPI PUSH3 0x70C DUP2 PUSH3 0x5CB JUMP JUMPDEST PUSH3 0x717 DUP5 PUSH3 0x5DD JUMP JUMPDEST DUP2 ADD PUSH1 0x20 DUP6 LT ISZERO PUSH3 0x727 JUMPI DUP2 SWAP1 POP JUMPDEST PUSH3 0x73F PUSH3 0x736 DUP6 PUSH3 0x5DD JUMP JUMPDEST DUP4 ADD DUP3 PUSH3 0x6D1 JUMP JUMPDEST POP POP JUMPDEST POP POP POP JUMP JUMPDEST PUSH0 DUP3 DUP3 SHR SWAP1 POP SWAP3 SWAP2 POP POP JUMP JUMPDEST PUSH0 PUSH3 0x764 PUSH0 NOT DUP5 PUSH1 0x8 MUL PUSH3 0x747 JUMP JUMPDEST NOT DUP1 DUP4 AND SWAP2 POP POP SWAP3 SWAP2 POP POP JUMP JUMPDEST PUSH0 PUSH3 0x77E DUP4 DUP4 PUSH3 0x753 JUMP JUMPDEST SWAP2 POP DUP3 PUSH1 0x2 MUL DUP3 OR SWAP1 POP SWAP3 SWAP2 POP POP JUMP JUMPDEST PUSH3 0x799 DUP3 PUSH3 0x512 JUMP JUMPDEST PUSH8 0xFFFFFFFFFFFFFFFF DUP2 GT ISZERO PUSH3 0x7B5 JUMPI PUSH3 0x7B4 PUSH3 0x59E JUMP JUMPDEST JUMPDEST PUSH3 0x7C1 DUP3 SLOAD PUSH3 0x40A JUMP JUMPDEST PUSH3 0x7CE DUP3 DUP3 DUP6 PUSH3 0x6F7 JUMP JUMPDEST PUSH0 PUSH1 0x20 SWAP1 POP PUSH1 0x1F DUP4 GT PUSH1 0x1 DUP2 EQ PUSH3 0x804 JUMPI PUSH0 DUP5 ISZERO PUSH3 0x7EF JUMPI DUP3 DUP8 ADD MLOAD SWAP1 POP JUMPDEST PUSH3 0x7FB DUP6 DUP3 PUSH3 0x771 JUMP JUMPDEST DUP7 SSTORE POP PUSH3 0x86A JUMP JUMPDEST PUSH1 0x1F NOT DUP5 AND PUSH3 0x814 DUP7 PUSH3 0x5CB JUMP JUMPDEST PUSH0 JUMPDEST DUP3 DUP2 LT ISZERO PUSH3 0x83D JUMPI DUP5 DUP10 ADD MLOAD DUP3 SSTORE PUSH1 0x1 DUP3 ADD SWAP2 POP PUSH1 0x20 DUP6 ADD SWAP5 POP PUSH1 0x20 DUP2 ADD SWAP1 POP PUSH3 0x816 JUMP JUMPDEST DUP7 DUP4 LT ISZERO PUSH3 0x85D JUMPI DUP5 DUP10 ADD MLOAD PUSH3 0x859 PUSH1 0x1F DUP10 AND DUP3 PUSH3 0x753 JUMP JUMPDEST DUP4 SSTORE POP JUMPDEST PUSH1 0x1 PUSH1 0x2 DUP9 MUL ADD DUP9 SSTORE POP POP POP JUMPDEST POP POP POP POP POP POP JUMP JUMPDEST PUSH2 0x480 DUP1 PUSH3 0x880 PUSH0 CODECOPY PUSH0 RETURN INVALID PUSH1 0x80 PUSH1 0x40 MSTORE CALLVALUE DUP1 ISZERO PUSH2 0xF JUMPI PUSH0 DUP1 REVERT JUMPDEST POP PUSH1 0x4 CALLDATASIZE LT PUSH2 0x3F JUMPI PUSH0 CALLDATALOAD PUSH1 0xE0 SHR DUP1 PUSH4 0x501895AE EQ PUSH2 0x43 JUMPI DUP1 PUSH4 0x52DE70AF EQ PUSH2 0x73 JUMPI DUP1 PUSH4 0x6A11B2A8 EQ PUSH2 0xA3 JUMPI JUMPDEST PUSH0 DUP1 REVERT JUMPDEST PUSH2 0x5D PUSH1 0x4 DUP1 CALLDATASIZE SUB DUP2 ADD SWAP1 PUSH2 0x58 SWAP2 SWAP1 PUSH2 0x177 JUMP JUMPDEST PUSH2 0xD3 JUMP JUMPDEST PUSH1 0x40 MLOAD PUSH2 0x6A SWAP2 SWAP1 PUSH2 0x1BA JUMP JUMPDEST PUSH1 0x40 MLOAD DUP1 SWAP2 SUB SWAP1 RETURN JUMPDEST PUSH2 0x8D PUSH1 0x4 DUP1 CALLDATASIZE SUB DUP2 ADD SWAP1 PUSH2 0x88 SWAP2 SWAP1 PUSH2 0x30F JUMP JUMPDEST PUSH2 0xF2 JUMP JUMPDEST PUSH1 0x40 MLOAD PUSH2 0x9A SWAP2 SWAP1 PUSH2 0x1BA JUMP JUMPDEST PUSH1 0x40 MLOAD DUP1 SWAP2 SUB SWAP1 RETURN JUMPDEST PUSH2 0xBD PUSH1 0x4 DUP1 CALLDATASIZE SUB DUP2 ADD SWAP1 PUSH2 0xB8 SWAP2 SWAP1 PUSH2 0x30F JUMP JUMPDEST PUSH2 0x10A JUMP JUMPDEST PUSH1 0x40 MLOAD PUSH2 0xCA SWAP2 SWAP1 PUSH2 0x3D0 JUMP JUMPDEST PUSH1 0x40 MLOAD DUP1 SWAP2 SUB SWAP1 RETURN JUMPDEST PUSH0 DUP2 DUP2 SLOAD DUP2 LT PUSH2 0xE1 JUMPI PUSH0 DUP1 REVERT JUMPDEST SWAP1 PUSH0 MSTORE PUSH1 0x20 PUSH0 KECCAK256 ADD PUSH0 SWAP2 POP SWAP1 POP SLOAD DUP2 JUMP JUMPDEST PUSH0 PUSH2 0xFC DUP3 PUSH2 0x10A JUMP JUMPDEST DUP1 MLOAD SWAP1 PUSH1 0x20 ADD KECCAK256 SWAP1 POP SWAP2 SWAP1 POP JUMP JUMPDEST PUSH1 0x60 DUP2 PUSH1 0x40 MLOAD PUSH1 0x20 ADD PUSH2 0x11D SWAP2 SWAP1 PUSH2 0x434 JUMP JUMPDEST PUSH1 0x40 MLOAD PUSH1 0x20 DUP2 DUP4 SUB SUB DUP2 MSTORE SWAP1 PUSH1 0x40 MSTORE SWAP1 POP SWAP2 SWAP1 POP JUMP JUMPDEST PUSH0 PUSH1 0x40 MLOAD SWAP1 POP SWAP1 JUMP JUMPDEST PUSH0 DUP1 REVERT JUMPDEST PUSH0 DUP1 REVERT JUMPDEST PUSH0 DUP2 SWAP1 POP SWAP2 SWAP1 POP JUMP JUMPDEST PUSH2 0x156 DUP2 PUSH2 0x144 JUMP JUMPDEST DUP2 EQ PUSH2 0x160 JUMPI PUSH0 DUP1 REVERT JUMPDEST POP JUMP JUMPDEST PUSH0 DUP2 CALLDATALOAD SWAP1 POP PUSH2 0x171 DUP2 PUSH2 0x14D JUMP JUMPDEST SWAP3 SWAP2 POP POP JUMP JUMPDEST PUSH0 PUSH1 0x20 DUP3 DUP5 SUB SLT ISZERO PUSH2 0x18C JUMPI PUSH2 0x18B PUSH2 0x13C JUMP JUMPDEST JUMPDEST PUSH0 PUSH2 0x199 DUP5 DUP3 DUP6 ADD PUSH2 0x163 JUMP JUMPDEST SWAP2 POP POP SWAP3 SWAP2 POP POP JUMP JUMPDEST PUSH0 DUP2 SWAP1 POP SWAP2 SWAP1 POP JUMP JUMPDEST PUSH2 0x1B4 DUP2 PUSH2 0x1A2 JUMP JUMPDEST DUP3 MSTORE POP POP JUMP JUMPDEST PUSH0 PUSH1 0x20 DUP3 ADD SWAP1 POP PUSH2 0x1CD PUSH0 DUP4 ADD DUP5 PUSH2 0x1AB JUMP JUMPDEST SWAP3 SWAP2 POP POP JUMP JUMPDEST PUSH0 DUP1 REVERT JUMPDEST PUSH0 DUP1 REVERT JUMPDEST PUSH0 PUSH1 0x1F NOT PUSH1 0x1F DUP4 ADD AND SWAP1 POP SWAP2 SWAP1 POP JUMP JUMPDEST PUSH32 0x4E487B7100000000000000000000000000000000000000000000000000000000 PUSH0 MSTORE PUSH1 0x41 PUSH1 0x4 MSTORE PUSH1 0x24 PUSH0 REVERT JUMPDEST PUSH2 0x221 DUP3 PUSH2 0x1DB JUMP JUMPDEST DUP2 ADD DUP2 DUP2 LT PUSH8 0xFFFFFFFFFFFFFFFF DUP3 GT OR ISZERO PUSH2 0x240 JUMPI PUSH2 0x23F PUSH2 0x1EB JUMP JUMPDEST JUMPDEST DUP1 PUSH1 0x40 MSTORE POP POP POP JUMP JUMPDEST PUSH0 PUSH2 0x252 PUSH2 0x133 JUMP JUMPDEST SWAP1 POP PUSH2 0x25E DUP3 DUP3 PUSH2 0x218 JUMP JUMPDEST SWAP2 SWAP1 POP JUMP JUMPDEST PUSH0 PUSH8 0xFFFFFFFFFFFFFFFF DUP3 GT ISZERO PUSH2 0x27D JUMPI PUSH2 0x27C PUSH2 0x1EB JUMP JUMPDEST JUMPDEST PUSH2 0x286 DUP3 PUSH2 0x1DB JUMP JUMPDEST SWAP1 POP PUSH1 0x20 DUP2 ADD SWAP1 POP SWAP2 SWAP1 POP JUMP JUMPDEST DUP3 DUP2 DUP4 CALLDATACOPY PUSH0 DUP4 DUP4 ADD MSTORE POP POP POP JUMP JUMPDEST PUSH0 PUSH2 0x2B3 PUSH2 0x2AE DUP5 PUSH2 0x263 JUMP JUMPDEST PUSH2 0x249 JUMP JUMPDEST SWAP1 POP DUP3 DUP2 MSTORE PUSH1 0x20 DUP2 ADD DUP5 DUP5 DUP5 ADD GT ISZERO PUSH2 0x2CF JUMPI PUSH2 0x2CE PUSH2 0x1D7 JUMP JUMPDEST JUMPDEST PUSH2 0x2DA DUP5 DUP3 DUP6 PUSH2 0x293 JUMP JUMPDEST POP SWAP4 SWAP3 POP POP POP JUMP JUMPDEST PUSH0 DUP3 PUSH1 0x1F DUP4 ADD SLT PUSH2 0x2F6 JUMPI PUSH2 0x2F5 PUSH2 0x1D3 JUMP JUMPDEST JUMPDEST DUP2 CALLDATALOAD PUSH2 0x306 DUP5 DUP3 PUSH1 0x20 DUP7 ADD PUSH2 0x2A1 JUMP JUMPDEST SWAP2 POP POP SWAP3 SWAP2 POP POP JUMP JUMPDEST PUSH0 PUSH1 0x20 DUP3 DUP5 SUB SLT ISZERO PUSH2 0x324 JUMPI PUSH2 0x323 PUSH2 0x13C JUMP JUMPDEST JUMPDEST PUSH0 DUP3 ADD CALLDATALOAD PUSH8 0xFFFFFFFFFFFFFFFF DUP2 GT ISZERO PUSH2 0x341 JUMPI PUSH2 0x340 PUSH2 0x140 JUMP JUMPDEST JUMPDEST PUSH2 0x34D DUP5 DUP3 DUP6 ADD PUSH2 0x2E2 JUMP JUMPDEST SWAP2 POP POP SWAP3 SWAP2 POP POP JUMP JUMPDEST PUSH0 DUP2 MLOAD SWAP1 POP SWAP2 SWAP1 POP JUMP JUMPDEST PUSH0 DUP3 DUP3 MSTORE PUSH1 0x20 DUP3 ADD SWAP1 POP SWAP3 SWAP2 POP POP JUMP JUMPDEST PUSH0 JUMPDEST DUP4 DUP2 LT ISZERO PUSH2 0x38D JUMPI DUP1 DUP3 ADD MLOAD DUP2 DUP5 ADD MSTORE PUSH1 0x20 DUP2 ADD SWAP1 POP PUSH2 0x372 JUMP JUMPDEST PUSH0 DUP5 DUP5 ADD MSTORE POP POP POP POP JUMP JUMPDEST PUSH0 PUSH2 0x3A2 DUP3 PUSH2 0x356 JUMP JUMPDEST PUSH2 0x3AC DUP2 DUP6 PUSH2 0x360 JUMP JUMPDEST SWAP4 POP PUSH2 0x3BC DUP2 DUP6 PUSH1 0x20 DUP7 ADD PUSH2 0x370 JUMP JUMPDEST PUSH2 0x3C5 DUP2 PUSH2 0x1DB JUMP JUMPDEST DUP5 ADD SWAP2 POP POP SWAP3 SWAP2 POP POP JUMP JUMPDEST PUSH0 PUSH1 0x20 DUP3 ADD SWAP1 POP DUP2 DUP2 SUB PUSH0 DUP4 ADD MSTORE PUSH2 0x3E8 DUP2 DUP5 PUSH2 0x398 JUMP JUMPDEST SWAP1 POP SWAP3 SWAP2 POP POP JUMP JUMPDEST PUSH0 DUP2 MLOAD SWAP1 POP SWAP2 SWAP1 POP JUMP JUMPDEST PUSH0 DUP2 SWAP1 POP SWAP3 SWAP2 POP POP JUMP JUMPDEST PUSH0 PUSH2 0x40E DUP3 PUSH2 0x3F0 JUMP JUMPDEST PUSH2 0x418 DUP2 DUP6 PUSH2 0x3FA JUMP JUMPDEST SWAP4 POP PUSH2 0x428 DUP2 DUP6 PUSH1 0x20 DUP7 ADD PUSH2 0x370 JUMP JUMPDEST DUP1 DUP5 ADD SWAP2 POP POP SWAP3 SWAP2 POP POP JUMP JUMPDEST PUSH0 PUSH2 0x43F DUP3 DUP5 PUSH2 0x404 JUMP JUMPDEST SWAP2 POP DUP2 SWAP1 POP SWAP3 SWAP2 POP POP JUMP INVALID LOG2 PUSH5 0x6970667358 0x22 SLT KECCAK256 GASPRICE PUSH25 0x880D8726AA4CA46FE45D3B59119C8CF41F3E443C7CBEB97051 0xD1 DUP13 0xC6 PUSH29 0xFA64736F6C634300081600330000000000000000000000000000000000 "
		},
		"gasEstimates": {
			"creation": {
				"codeDepositCost": "230400",
				"executionCost": "infinite",
				"totalCost": "infinite"
			},
			"external": {
				"encode(string)": "infinite",
				"hashes(uint256)": "4848",
				"makeHash(string)": "infinite"
			}
		},
		"methodIdentifiers": {
			"encode(string)": "6a11b2a8",
			"hashes(uint256)": "501895ae",
			"makeHash(string)": "52de70af"
		}
	},
	"abi": [
		{
			"inputs": [],
			"stateMutability": "nonpayable",
			"type": "constructor"
		},
		{
			"inputs": [
				{
					"internalType": "string",
					"name": "input",
					"type": "string"
				}
			],
			"name": "encode",
			"outputs": [
				{
					"internalType": "bytes",
					"name": "",
					"type": "bytes"
				}
			],
			"stateMutability": "pure",
			"type": "function"
		},
		{
			"inputs": [
				{
					"internalType": "uint256",
					"name": "",
					"type": "uint256"
				}
			],
			"name": "hashes",
			"outputs": [
				{
					"internalType": "bytes32",
					"name": "",
					"type": "bytes32"
				}
			],
			"stateMutability": "view",
			"type": "function"
		},
		{
			"inputs": [
				{
					"internalType": "string",
					"name": "input",
					"type": "string"
				}
			],
			"name": "makeHash",
			"outputs": [
				{
					"internalType": "bytes32",
					"name": "",
					"type": "bytes32"
				}
			],
			"stateMutability": "pure",
			"type": "function"
		}
	]
}