{
	"example-2/Demo.sol": {
		"MyDemo": {
			"abi": [
				{
					"inputs": [],
					"name": "demoMax",
					"outputs": [],
					"stateMutability": "nonpayable",
					"type": "function"
				},
				{
					"inputs": [],
					"name": "demoMin",
					"outputs": [],
					"stateMutability": "nonpayable",
					"type": "function"
				},
				{
					"inputs": [],
					"name": "inc",
					"outputs": [],
					"stateMutability": "nonpayable",
					"type": "function"
				},
				{
					"inputs": [],
					"name": "incUnchecked",
					"outputs": [],
					"stateMutability": "nonpayable",
					"type": "function"
				},
				{
					"inputs": [],
					"name": "maximum",
					"outputs": [
						{
							"internalType": "uint8",
							"name": "",
							"type": "uint8"
						}
					],
					"stateMutability": "view",
					"type": "function"
				},
				{
					"inputs": [],
					"name": "minimum",
					"outputs": [
						{
							"internalType": "uint256",
							"name": "",
							"type": "uint256"
						}
					],
					"stateMutability": "view",
					"type": "function"
				},
				{
					"inputs": [],
					"name": "myBool",
					"outputs": [
						{
							"internalType": "bool",
							"name": "",
							"type": "bool"
						}
					],
					"stateMutability": "view",
					"type": "function"
				},
				{
					"inputs": [],
					"name": "myVal",
					"outputs": [
						{
							"internalType": "uint8",
							"name": "",
							"type": "uint8"
						}
					],
					"stateMutability": "view",
					"type": "function"
				}
			],
			"devdoc": {
				"kind": "dev",
				"methods": {},
				"version": 1
			},
			"evm": {
				"assembly": "    /* \"example-2/Demo.sol\":58:488  contract MyDemo {... */\n  mstore(0x40, 0x80)\n    /* \"example-2/Demo.sol\":153:156  254 */\n  0xfe\n    /* \"example-2/Demo.sol\":132:156  uint8 public myVal = 254 */\n  0x01\n  dup1\n  0x0100\n  exp\n  dup2\n  sload\n  dup2\n  0xff\n  mul\n  not\n  and\n  swap1\n  dup4\n  0xff\n  and\n  mul\n  or\n  swap1\n  sstore\n  pop\n    /* \"example-2/Demo.sol\":58:488  contract MyDemo {... */\n  callvalue\n  dup1\n  iszero\n  tag_1\n  jumpi\n  0x00\n  dup1\n  revert\ntag_1:\n  pop\n  dataSize(sub_0)\n  dup1\n  dataOffset(sub_0)\n  0x00\n  codecopy\n  0x00\n  return\nstop\n\nsub_0: assembly {\n        /* \"example-2/Demo.sol\":58:488  contract MyDemo {... */\n      mstore(0x40, 0x80)\n      callvalue\n      dup1\n      iszero\n      tag_1\n      jumpi\n      0x00\n      dup1\n      revert\n    tag_1:\n      pop\n      jumpi(tag_2, lt(calldatasize, 0x04))\n      shr(0xe0, calldataload(0x00))\n      dup1\n      0x6deecdbe\n      gt\n      tag_11\n      jumpi\n      dup1\n      0x6deecdbe\n      eq\n      tag_7\n      jumpi\n      dup1\n      0x7f85d8ed\n      eq\n      tag_8\n      jumpi\n      dup1\n      0xb2a98d49\n      eq\n      tag_9\n      jumpi\n      dup1\n      0xed32ca32\n      eq\n      tag_10\n      jumpi\n      jump(tag_2)\n    tag_11:\n      dup1\n      0x28095c80\n      eq\n      tag_3\n      jumpi\n      dup1\n      0x371303c0\n      eq\n      tag_4\n      jumpi\n      dup1\n      0x52342f13\n      eq\n      tag_5\n      jumpi\n      dup1\n      0x52d6804d\n      eq\n      tag_6\n      jumpi\n    tag_2:\n      0x00\n      dup1\n      revert\n        /* \"example-2/Demo.sol\":270:339  function demoMax() public  {... */\n    tag_3:\n      tag_12\n      tag_13\n      jump\t// in\n    tag_12:\n      stop\n        /* \"example-2/Demo.sol\":345:391  function inc() public {... */\n    tag_4:\n      tag_14\n      tag_15\n      jump\t// in\n    tag_14:\n      stop\n        /* \"example-2/Demo.sol\":106:126  uint8 public maximum */\n    tag_5:\n      tag_16\n      tag_17\n      jump\t// in\n    tag_16:\n      mload(0x40)\n      tag_18\n      swap2\n      swap1\n      tag_19\n      jump\t// in\n    tag_18:\n      mload(0x40)\n      dup1\n      swap2\n      sub\n      swap1\n      return\n        /* \"example-2/Demo.sol\":81:100  uint public minimum */\n    tag_6:\n      tag_20\n      tag_21\n      jump\t// in\n    tag_20:\n      mload(0x40)\n      tag_22\n      swap2\n      swap1\n      tag_23\n      jump\t// in\n    tag_22:\n      mload(0x40)\n      dup1\n      swap2\n      sub\n      swap1\n      return\n        /* \"example-2/Demo.sol\":163:181  bool public myBool */\n    tag_7:\n      tag_24\n      tag_25\n      jump\t// in\n    tag_24:\n      mload(0x40)\n      tag_26\n      swap2\n      swap1\n      tag_27\n      jump\t// in\n    tag_26:\n      mload(0x40)\n      dup1\n      swap2\n      sub\n      swap1\n      return\n        /* \"example-2/Demo.sol\":196:264  function demoMin() public  {... */\n    tag_8:\n      tag_28\n      tag_29\n      jump\t// in\n    tag_28:\n      stop\n        /* \"example-2/Demo.sol\":397:485  function incUnchecked() public {... */\n    tag_9:\n      tag_30\n      tag_31\n      jump\t// in\n    tag_30:\n      stop\n        /* \"example-2/Demo.sol\":132:156  uint8 public myVal = 254 */\n    tag_10:\n      tag_32\n      tag_33\n      jump\t// in\n    tag_32:\n      mload(0x40)\n      tag_34\n      swap2\n      swap1\n      tag_19\n      jump\t// in\n    tag_34:\n      mload(0x40)\n      dup1\n      swap2\n      sub\n      swap1\n      return\n        /* \"example-2/Demo.sol\":270:339  function demoMax() public  {... */\n    tag_13:\n        /* \"example-2/Demo.sol\":317:332  type(uint8).max */\n      0xff\n        /* \"example-2/Demo.sol\":307:314  maximum */\n      0x01\n      0x00\n        /* \"example-2/Demo.sol\":307:332  maximum = type(uint8).max */\n      0x0100\n      exp\n      dup2\n      sload\n      dup2\n      0xff\n      mul\n      not\n      and\n      swap1\n      dup4\n      0xff\n      and\n      mul\n      or\n      swap1\n      sstore\n      pop\n        /* \"example-2/Demo.sol\":270:339  function demoMax() public  {... */\n      jump\t// out\n        /* \"example-2/Demo.sol\":345:391  function inc() public {... */\n    tag_15:\n        /* \"example-2/Demo.sol\":377:382  myVal */\n      0x01\n      dup1\n        /* \"example-2/Demo.sol\":377:384  myVal++ */\n      dup2\n      dup2\n      swap1\n      sload\n      swap1\n      0x0100\n      exp\n      swap1\n      div\n      0xff\n      and\n      dup1\n      swap3\n      swap2\n      swap1\n      tag_37\n      swap1\n      tag_38\n      jump\t// in\n    tag_37:\n      swap2\n      swap1\n      0x0100\n      exp\n      dup2\n      sload\n      dup2\n      0xff\n      mul\n      not\n      and\n      swap1\n      dup4\n      0xff\n      and\n      mul\n      or\n      swap1\n      sstore\n      pop\n      pop\n        /* \"example-2/Demo.sol\":345:391  function inc() public {... */\n      jump\t// out\n        /* \"example-2/Demo.sol\":106:126  uint8 public maximum */\n    tag_17:\n      0x01\n      0x00\n      swap1\n      sload\n      swap1\n      0x0100\n      exp\n      swap1\n      div\n      0xff\n      and\n      dup2\n      jump\t// out\n        /* \"example-2/Demo.sol\":81:100  uint public minimum */\n    tag_21:\n      sload(0x00)\n      dup2\n      jump\t// out\n        /* \"example-2/Demo.sol\":163:181  bool public myBool */\n    tag_25:\n      0x01\n      0x02\n      swap1\n      sload\n      swap1\n      0x0100\n      exp\n      swap1\n      div\n      0xff\n      and\n      dup2\n      jump\t// out\n        /* \"example-2/Demo.sol\":196:264  function demoMin() public  {... */\n    tag_29:\n        /* \"example-2/Demo.sol\":243:257  type(uint).min */\n      0x00\n        /* \"example-2/Demo.sol\":233:240  minimum */\n      dup1\n        /* \"example-2/Demo.sol\":233:257  minimum = type(uint).min */\n      dup2\n      swap1\n      sstore\n      pop\n        /* \"example-2/Demo.sol\":196:264  function demoMin() public  {... */\n      jump\t// out\n        /* \"example-2/Demo.sol\":397:485  function incUnchecked() public {... */\n    tag_31:\n        /* \"example-2/Demo.sol\":461:466  myVal */\n      0x01\n      dup1\n        /* \"example-2/Demo.sol\":461:468  myVal++ */\n      dup2\n      dup2\n      swap1\n      sload\n      swap1\n      0x0100\n      exp\n      swap1\n      div\n      0xff\n      and\n      dup1\n      swap3\n      swap2\n      swap1\n      0x01\n      add\n      swap2\n      swap1\n      0x0100\n      exp\n      dup2\n      sload\n      dup2\n      0xff\n      mul\n      not\n      and\n      swap1\n      dup4\n      0xff\n      and\n      mul\n      or\n      swap1\n      sstore\n      pop\n      pop\n        /* \"example-2/Demo.sol\":397:485  function incUnchecked() public {... */\n      jump\t// out\n        /* \"example-2/Demo.sol\":132:156  uint8 public myVal = 254 */\n    tag_33:\n      0x01\n      dup1\n      sload\n      swap1\n      0x0100\n      exp\n      swap1\n      div\n      0xff\n      and\n      dup2\n      jump\t// out\n        /* \"#utility.yul\":7:93   */\n    tag_41:\n        /* \"#utility.yul\":42:49   */\n      0x00\n        /* \"#utility.yul\":82:86   */\n      0xff\n        /* \"#utility.yul\":75:80   */\n      dup3\n        /* \"#utility.yul\":71:87   */\n      and\n        /* \"#utility.yul\":60:87   */\n      swap1\n      pop\n        /* \"#utility.yul\":7:93   */\n      swap2\n      swap1\n      pop\n      jump\t// out\n        /* \"#utility.yul\":99:211   */\n    tag_42:\n        /* \"#utility.yul\":182:204   */\n      tag_51\n        /* \"#utility.yul\":198:203   */\n      dup2\n        /* \"#utility.yul\":182:204   */\n      tag_41\n      jump\t// in\n    tag_51:\n        /* \"#utility.yul\":177:180   */\n      dup3\n        /* \"#utility.yul\":170:205   */\n      mstore\n        /* \"#utility.yul\":99:211   */\n      pop\n      pop\n      jump\t// out\n        /* \"#utility.yul\":217:431   */\n    tag_19:\n        /* \"#utility.yul\":306:310   */\n      0x00\n        /* \"#utility.yul\":344:346   */\n      0x20\n        /* \"#utility.yul\":333:342   */\n      dup3\n        /* \"#utility.yul\":329:347   */\n      add\n        /* \"#utility.yul\":321:347   */\n      swap1\n      pop\n        /* \"#utility.yul\":357:424   */\n      tag_53\n        /* \"#utility.yul\":421:422   */\n      0x00\n        /* \"#utility.yul\":410:419   */\n      dup4\n        /* \"#utility.yul\":406:423   */\n      add\n        /* \"#utility.yul\":397:403   */\n      dup5\n        /* \"#utility.yul\":357:424   */\n      tag_42\n      jump\t// in\n    tag_53:\n        /* \"#utility.yul\":217:431   */\n      swap3\n      swap2\n      pop\n      pop\n      jump\t// out\n        /* \"#utility.yul\":437:514   */\n    tag_43:\n        /* \"#utility.yul\":474:481   */\n      0x00\n        /* \"#utility.yul\":503:508   */\n      dup2\n        /* \"#utility.yul\":492:508   */\n      swap1\n      pop\n        /* \"#utility.yul\":437:514   */\n      swap2\n      swap1\n      pop\n      jump\t// out\n        /* \"#utility.yul\":520:638   */\n    tag_44:\n        /* \"#utility.yul\":607:631   */\n      tag_56\n        /* \"#utility.yul\":625:630   */\n      dup2\n        /* \"#utility.yul\":607:631   */\n      tag_43\n      jump\t// in\n    tag_56:\n        /* \"#utility.yul\":602:605   */\n      dup3\n        /* \"#utility.yul\":595:632   */\n      mstore\n        /* \"#utility.yul\":520:638   */\n      pop\n      pop\n      jump\t// out\n        /* \"#utility.yul\":644:866   */\n    tag_23:\n        /* \"#utility.yul\":737:741   */\n      0x00\n        /* \"#utility.yul\":775:777   */\n      0x20\n        /* \"#utility.yul\":764:773   */\n      dup3\n        /* \"#utility.yul\":760:778   */\n      add\n        /* \"#utility.yul\":752:778   */\n      swap1\n      pop\n        /* \"#utility.yul\":788:859   */\n      tag_58\n        /* \"#utility.yul\":856:857   */\n      0x00\n        /* \"#utility.yul\":845:854   */\n      dup4\n        /* \"#utility.yul\":841:858   */\n      add\n        /* \"#utility.yul\":832:838   */\n      dup5\n        /* \"#utility.yul\":788:859   */\n      tag_44\n      jump\t// in\n    tag_58:\n        /* \"#utility.yul\":644:866   */\n      swap3\n      swap2\n      pop\n      pop\n      jump\t// out\n        /* \"#utility.yul\":872:962   */\n    tag_45:\n        /* \"#utility.yul\":906:913   */\n      0x00\n        /* \"#utility.yul\":949:954   */\n      dup2\n        /* \"#utility.yul\":942:955   */\n      iszero\n        /* \"#utility.yul\":935:956   */\n      iszero\n        /* \"#utility.yul\":924:956   */\n      swap1\n      pop\n        /* \"#utility.yul\":872:962   */\n      swap2\n      swap1\n      pop\n      jump\t// out\n        /* \"#utility.yul\":968:1077   */\n    tag_46:\n        /* \"#utility.yul\":1049:1070   */\n      tag_61\n        /* \"#utility.yul\":1064:1069   */\n      dup2\n        /* \"#utility.yul\":1049:1070   */\n      tag_45\n      jump\t// in\n    tag_61:\n        /* \"#utility.yul\":1044:1047   */\n      dup3\n        /* \"#utility.yul\":1037:1071   */\n      mstore\n        /* \"#utility.yul\":968:1077   */\n      pop\n      pop\n      jump\t// out\n        /* \"#utility.yul\":1083:1293   */\n    tag_27:\n        /* \"#utility.yul\":1170:1174   */\n      0x00\n        /* \"#utility.yul\":1208:1210   */\n      0x20\n        /* \"#utility.yul\":1197:1206   */\n      dup3\n        /* \"#utility.yul\":1193:1211   */\n      add\n        /* \"#utility.yul\":1185:1211   */\n      swap1\n      pop\n        /* \"#utility.yul\":1221:1286   */\n      tag_63\n        /* \"#utility.yul\":1283:1284   */\n      0x00\n        /* \"#utility.yul\":1272:1281   */\n      dup4\n        /* \"#utility.yul\":1268:1285   */\n      add\n        /* \"#utility.yul\":1259:1265   */\n      dup5\n        /* \"#utility.yul\":1221:1286   */\n      tag_46\n      jump\t// in\n    tag_63:\n        /* \"#utility.yul\":1083:1293   */\n      swap3\n      swap2\n      pop\n      pop\n      jump\t// out\n        /* \"#utility.yul\":1299:1479   */\n    tag_47:\n        /* \"#utility.yul\":1347:1424   */\n      0x4e487b7100000000000000000000000000000000000000000000000000000000\n        /* \"#utility.yul\":1344:1345   */\n      0x00\n        /* \"#utility.yul\":1337:1425   */\n      mstore\n        /* \"#utility.yul\":1444:1448   */\n      0x11\n        /* \"#utility.yul\":1441:1442   */\n      0x04\n        /* \"#utility.yul\":1434:1449   */\n      mstore\n        /* \"#utility.yul\":1468:1472   */\n      0x24\n        /* \"#utility.yul\":1465:1466   */\n      0x00\n        /* \"#utility.yul\":1458:1473   */\n      revert\n        /* \"#utility.yul\":1485:1652   */\n    tag_38:\n        /* \"#utility.yul\":1522:1525   */\n      0x00\n        /* \"#utility.yul\":1545:1567   */\n      tag_66\n        /* \"#utility.yul\":1561:1566   */\n      dup3\n        /* \"#utility.yul\":1545:1567   */\n      tag_41\n      jump\t// in\n    tag_66:\n        /* \"#utility.yul\":1536:1567   */\n      swap2\n      pop\n        /* \"#utility.yul\":1589:1593   */\n      0xff\n        /* \"#utility.yul\":1582:1587   */\n      dup3\n        /* \"#utility.yul\":1579:1594   */\n      sub\n        /* \"#utility.yul\":1576:1617   */\n      tag_67\n      jumpi\n        /* \"#utility.yul\":1597:1615   */\n      tag_68\n      tag_47\n      jump\t// in\n    tag_68:\n        /* \"#utility.yul\":1576:1617   */\n    tag_67:\n        /* \"#utility.yul\":1644:1645   */\n      0x01\n        /* \"#utility.yul\":1637:1642   */\n      dup3\n        /* \"#utility.yul\":1633:1646   */\n      add\n        /* \"#utility.yul\":1626:1646   */\n      swap1\n      pop\n        /* \"#utility.yul\":1485:1652   */\n      swap2\n      swap1\n      pop\n      jump\t// out\n\n    auxdata: 0xa2646970667358221220cf42c8c8e8c6e6f214f63b0b1aa51c20bee578a524affbadf04cb37ea5343acd64736f6c63430008160033\n}\n",
				"bytecode": {
					"linkReferences": {},
					"object": "608060405260fe6001806101000a81548160ff021916908360ff16021790555034801561002a575f80fd5b50610319806100385f395ff3fe608060405234801561000f575f80fd5b5060043610610086575f3560e01c80636deecdbe116100595780636deecdbe146100da5780637f85d8ed146100f8578063b2a98d4914610102578063ed32ca321461010c57610086565b806328095c801461008a578063371303c01461009457806352342f131461009e57806352d6804d146100bc575b5f80fd5b61009261012a565b005b61009c610147565b005b6100a6610180565b6040516100b39190610211565b60405180910390f35b6100c4610192565b6040516100d19190610242565b60405180910390f35b6100e2610197565b6040516100ef9190610275565b60405180910390f35b6101006101aa565b005b61010a6101b2565b005b6101146101e5565b6040516101219190610211565b60405180910390f35b60ff60015f6101000a81548160ff021916908360ff160217905550565b60018081819054906101000a900460ff1680929190610165906102bb565b91906101000a81548160ff021916908360ff16021790555050565b60015f9054906101000a900460ff1681565b5f5481565b600160029054906101000a900460ff1681565b5f8081905550565b60018081819054906101000a900460ff168092919060010191906101000a81548160ff021916908360ff16021790555050565b60018054906101000a900460ff1681565b5f60ff82169050919050565b61020b816101f6565b82525050565b5f6020820190506102245f830184610202565b92915050565b5f819050919050565b61023c8161022a565b82525050565b5f6020820190506102555f830184610233565b92915050565b5f8115159050919050565b61026f8161025b565b82525050565b5f6020820190506102885f830184610266565b92915050565b7f4e487b71000000000000000000000000000000000000000000000000000000005f52601160045260245ffd5b5f6102c5826101f6565b915060ff82036102d8576102d761028e565b5b60018201905091905056fea2646970667358221220cf42c8c8e8c6e6f214f63b0b1aa51c20bee578a524affbadf04cb37ea5343acd64736f6c63430008160033",
					"opcodes": "PUSH1 0x80 PUSH1 0x40 MSTORE PUSH1 0xFE PUSH1 0x1 DUP1 PUSH2 0x100 EXP DUP2 SLOAD DUP2 PUSH1 0xFF MUL NOT AND SWAP1 DUP4 PUSH1 0xFF AND MUL OR SWAP1 SSTORE POP CALLVALUE DUP1 ISZERO PUSH2 0x2A JUMPI PUSH0 DUP1 REVERT JUMPDEST POP PUSH2 0x319 DUP1 PUSH2 0x38 PUSH0 CODECOPY PUSH0 RETURN INVALID PUSH1 0x80 PUSH1 0x40 MSTORE CALLVALUE DUP1 ISZERO PUSH2 0xF JUMPI PUSH0 DUP1 REVERT JUMPDEST POP PUSH1 0x4 CALLDATASIZE LT PUSH2 0x86 JUMPI PUSH0 CALLDATALOAD PUSH1 0xE0 SHR DUP1 PUSH4 0x6DEECDBE GT PUSH2 0x59 JUMPI DUP1 PUSH4 0x6DEECDBE EQ PUSH2 0xDA JUMPI DUP1 PUSH4 0x7F85D8ED EQ PUSH2 0xF8 JUMPI DUP1 PUSH4 0xB2A98D49 EQ PUSH2 0x102 JUMPI DUP1 PUSH4 0xED32CA32 EQ PUSH2 0x10C JUMPI PUSH2 0x86 JUMP JUMPDEST DUP1 PUSH4 0x28095C80 EQ PUSH2 0x8A JUMPI DUP1 PUSH4 0x371303C0 EQ PUSH2 0x94 JUMPI DUP1 PUSH4 0x52342F13 EQ PUSH2 0x9E JUMPI DUP1 PUSH4 0x52D6804D EQ PUSH2 0xBC JUMPI JUMPDEST PUSH0 DUP1 REVERT JUMPDEST PUSH2 0x92 PUSH2 0x12A JUMP JUMPDEST STOP JUMPDEST PUSH2 0x9C PUSH2 0x147 JUMP JUMPDEST STOP JUMPDEST PUSH2 0xA6 PUSH2 0x180 JUMP JUMPDEST PUSH1 0x40 MLOAD PUSH2 0xB3 SWAP2 SWAP1 PUSH2 0x211 JUMP JUMPDEST PUSH1 0x40 MLOAD DUP1 SWAP2 SUB SWAP1 RETURN JUMPDEST PUSH2 0xC4 PUSH2 0x192 JUMP JUMPDEST PUSH1 0x40 MLOAD PUSH2 0xD1 SWAP2 SWAP1 PUSH2 0x242 JUMP JUMPDEST PUSH1 0x40 MLOAD DUP1 SWAP2 SUB SWAP1 RETURN JUMPDEST PUSH2 0xE2 PUSH2 0x197 JUMP JUMPDEST PUSH1 0x40 MLOAD PUSH2 0xEF SWAP2 SWAP1 PUSH2 0x275 JUMP JUMPDEST PUSH1 0x40 MLOAD DUP1 SWAP2 SUB SWAP1 RETURN JUMPDEST PUSH2 0x100 PUSH2 0x1AA JUMP JUMPDEST STOP JUMPDEST PUSH2 0x10A PUSH2 0x1B2 JUMP JUMPDEST STOP JUMPDEST PUSH2 0x114 PUSH2 0x1E5 JUMP JUMPDEST PUSH1 0x40 MLOAD PUSH2 0x121 SWAP2 SWAP1 PUSH2 0x211 JUMP JUMPDEST PUSH1 0x40 MLOAD DUP1 SWAP2 SUB SWAP1 RETURN JUMPDEST PUSH1 0xFF PUSH1 0x1 PUSH0 PUSH2 0x100 EXP DUP2 SLOAD DUP2 PUSH1 0xFF MUL NOT AND SWAP1 DUP4 PUSH1 0xFF AND MUL OR SWAP1 SSTORE POP JUMP JUMPDEST PUSH1 0x1 DUP1 DUP2 DUP2 SWAP1 SLOAD SWAP1 PUSH2 0x100 EXP SWAP1 DIV PUSH1 0xFF AND DUP1 SWAP3 SWAP2 SWAP1 PUSH2 0x165 SWAP1 PUSH2 0x2BB JUMP JUMPDEST SWAP2 SWAP1 PUSH2 0x100 EXP DUP2 SLOAD DUP2 PUSH1 0xFF MUL NOT AND SWAP1 DUP4 PUSH1 0xFF AND MUL OR SWAP1 SSTORE POP POP JUMP JUMPDEST PUSH1 0x1 PUSH0 SWAP1 SLOAD SWAP1 PUSH2 0x100 EXP SWAP1 DIV PUSH1 0xFF AND DUP2 JUMP JUMPDEST PUSH0 SLOAD DUP2 JUMP JUMPDEST PUSH1 0x1 PUSH1 0x2 SWAP1 SLOAD SWAP1 PUSH2 0x100 EXP SWAP1 DIV PUSH1 0xFF AND DUP2 JUMP JUMPDEST PUSH0 DUP1 DUP2 SWAP1 SSTORE POP JUMP JUMPDEST PUSH1 0x1 DUP1 DUP2 DUP2 SWAP1 SLOAD SWAP1 PUSH2 0x100 EXP SWAP1 DIV PUSH1 0xFF AND DUP1 SWAP3 SWAP2 SWAP1 PUSH1 0x1 ADD SWAP2 SWAP1 PUSH2 0x100 EXP DUP2 SLOAD DUP2 PUSH1 0xFF MUL NOT AND SWAP1 DUP4 PUSH1 0xFF AND MUL OR SWAP1 SSTORE POP POP JUMP JUMPDEST PUSH1 0x1 DUP1 SLOAD SWAP1 PUSH2 0x100 EXP SWAP1 DIV PUSH1 0xFF AND DUP2 JUMP JUMPDEST PUSH0 PUSH1 0xFF DUP3 AND SWAP1 POP SWAP2 SWAP1 POP JUMP JUMPDEST PUSH2 0x20B DUP2 PUSH2 0x1F6 JUMP JUMPDEST DUP3 MSTORE POP POP JUMP JUMPDEST PUSH0 PUSH1 0x20 DUP3 ADD SWAP1 POP PUSH2 0x224 PUSH0 DUP4 ADD DUP5 PUSH2 0x202 JUMP JUMPDEST SWAP3 SWAP2 POP POP JUMP JUMPDEST PUSH0 DUP2 SWAP1 POP SWAP2 SWAP1 POP JUMP JUMPDEST PUSH2 0x23C DUP2 PUSH2 0x22A JUMP JUMPDEST DUP3 MSTORE POP POP JUMP JUMPDEST PUSH0 PUSH1 0x20 DUP3 ADD SWAP1 POP PUSH2 0x255 PUSH0 DUP4 ADD DUP5 PUSH2 0x233 JUMP JUMPDEST SWAP3 SWAP2 POP POP JUMP JUMPDEST PUSH0 DUP2 ISZERO ISZERO SWAP1 POP SWAP2 SWAP1 POP JUMP JUMPDEST PUSH2 0x26F DUP2 PUSH2 0x25B JUMP JUMPDEST DUP3 MSTORE POP POP JUMP JUMPDEST PUSH0 PUSH1 0x20 DUP3 ADD SWAP1 POP PUSH2 0x288 PUSH0 DUP4 ADD DUP5 PUSH2 0x266 JUMP JUMPDEST SWAP3 SWAP2 POP POP JUMP JUMPDEST PUSH32 0x4E487B7100000000000000000000000000000000000000000000000000000000 PUSH0 MSTORE PUSH1 0x11 PUSH1 0x4 MSTORE PUSH1 0x24 PUSH0 REVERT JUMPDEST PUSH0 PUSH2 0x2C5 DUP3 PUSH2 0x1F6 JUMP JUMPDEST SWAP2 POP PUSH1 0xFF DUP3 SUB PUSH2 0x2D8 JUMPI PUSH2 0x2D7 PUSH2 0x28E JUMP JUMPDEST JUMPDEST PUSH1 0x1 DUP3 ADD SWAP1 POP SWAP2 SWAP1 POP JUMP INVALID LOG2 PUSH5 0x6970667358 0x22 SLT KECCAK256 0xCF TIMESTAMP 0xC8 0xC8 0xE8 0xC6 0xE6 CALLCODE EQ 0xF6 EXTCODESIZE SIGNEXTEND BYTE 0xA5 SHR KECCAK256 0xBE 0xE5 PUSH25 0xA524AFFBADF04CB37EA5343ACD64736F6C6343000816003300 "
				},
				"gasEstimates": {
					"creation": {
						"codeDepositCost": "158600",
						"executionCost": "24517",
						"totalCost": "183117"
					},
					"external": {
						"demoMax()": "24410",
						"demoMin()": "5178",
						"inc()": "26819",
						"incUnchecked()": "26716",
						"maximum()": "2511",
						"minimum()": "2491",
						"myBool()": "2517",
						"myVal()": "2580"
					}
				},
				"methodIdentifiers": {
					"demoMax()": "28095c80",
					"demoMin()": "7f85d8ed",
					"inc()": "371303c0",
					"incUnchecked()": "b2a98d49",
					"maximum()": "52342f13",
					"minimum()": "52d6804d",
					"myBool()": "6deecdbe",
					"myVal()": "ed32ca32"
				}
			},
			"storageLayout": {
				"storage": [
					{
						"astId": 3,
						"contract": "example-2/Demo.sol:MyDemo",
						"label": "minimum",
						"offset": 0,
						"slot": "0",
						"type": "t_uint256"
					},
					{
						"astId": 5,
						"contract": "example-2/Demo.sol:MyDemo",
						"label": "maximum",
						"offset": 0,
						"slot": "1",
						"type": "t_uint8"
					},
					{
						"astId": 8,
						"contract": "example-2/Demo.sol:MyDemo",
						"label": "myVal",
						"offset": 1,
						"slot": "1",
						"type": "t_uint8"
					},
					{
						"astId": 10,
						"contract": "example-2/Demo.sol:MyDemo",
						"label": "myBool",
						"offset": 2,
						"slot": "1",
						"type": "t_bool"
					}
				],
				"types": {
					"t_bool": {
						"encoding": "inplace",
						"label": "bool",
						"numberOfBytes": "1"
					},
					"t_uint256": {
						"encoding": "inplace",
						"label": "uint256",
						"numberOfBytes": "32"
					},
					"t_uint8": {
						"encoding": "inplace",
						"label": "uint8",
						"numberOfBytes": "1"
					}
				}
			},
			"userdoc": {
				"kind": "user",
				"methods": {},
				"version": 1
			}
		}
	}
}